:020000040040BA
:1000000000254020D118400081194000811940008E
:100010008119400081194000811940000000000052
:1000200000000000000000000000000081194000F6
:100030008119400000000000811940008119400032
:100040008119400081194000A51D40008119400020
:100050008119400081194000811940008119400038
:100060008119400000000000750940008D09400022
:10007000A509400081194000811940008119400004
:10008000BD094000D5094000811940008119400098
:10009000811940008119400081194000611D400014
:1000A00081194000811940008119400081194000E8
:1000B00081194000811940008119400081194000D8
:1000C00081194000811940008119400081194000C8
:1000D000000000008119400000000000811940006C
:1000E00081194000811940008119400081194000A8
:1000F0008119400081194000811940008119400098
:100100008119400081194000811940008119400087
:100110008119400000000000000000000000000005
:100120008119400081194000811940008119400067
:100130008119400000000000811940008119400031
:1001400010B5054C237833B9044B13B10448AFF311
:1001500000800123237010BD3C04402000000000FB
:10016000FC2140000C4B43B10C480D4910B5AFF3D6
:1001700000800C48036823B910BD0A48036833B9EE
:100180007047094B002BF7D0BDE810401847064BCD
:10019000002BF5D0184700BF00000000FC214000F4
:1001A00040044020FC2140000000000080B582B0E7
:1001B00000AF78607B68072B31D801A252F823F09A
:1001C0001D024000E1014000E9014000F101400052
:1001D000F901400001024000090240001302400002
:1001E0000020114B98471AE001200F4B984716E06A
:1001F00000200E4B984712E010200C4B98470EE061
:1002000020200A4B98470AE03E210020084B9847DF
:1002100005E03E210120064B984700E000BF00BFEB
:100220000837BD4680BD00BFED0A4000590B4000B5
:10023000C90B400080B582B000AF78607B68072BA7
:1002400026D801A252F823F0690240006D02400056
:100250006D0240007F0240007F0240007F024000AC
:100260007F0240007F024000012312E00B4B9847C1
:100270000346002B14BF01230023DBB209E0084B27
:1002800098470346002B14BF01230023DBB200E094
:10029000002318460837BD4680BD00BF250B40002F
:1002A000410C400080B483B000AF78607B68072BBE
:1002B00025D801A252F823F0D9024000DF02400005
:1002C000E5024000EB024000EF024000F302400074
:1002D000F7024000FB0240004FF4FA4310E04FF4F5
:1002E00000430DE04FF400430AE0084B08E0084BE0
:1002F00006E0084B04E0074B02E0064B00E0002359
:1003000018460C37BD465DF8047B704700093D0078
:1003100000127A00001BB70080B582B000AF034620
:10032000FB7100BFFB791846054B9847034683F0E5
:100330000103DBB2002BF5D100BF0837BD4680BDFD
:100340003502400080B586B000AFF8607A603B604F
:100350000B46FB727B68002B07D13B68002B04D156
:10036000FB684FF470021A6019E0FB7A18460E4BD6
:10037000984702467B68B2FBF3F37B617B693A687E
:1003800002FB03F37B613B68013B1A04074B1340FC
:100390007A68D2B2134343F47C52FB681A6000BF00
:1003A0001837BD4680BD00BFA50240000000FF0712
:1003B00080B582B000AF786039603B68002B08D10F
:1003C000094B9847094A7B681B6843F000539362C6
:1003D00005E0064A7B681B6843F48033D36100BFA5
:1003E0000837BD4680BD00BF5D0C400000060E40D2
:1003F00080B582B000AF78607B68002B03D1054BDD
:100400009847034602E0044B9847034618460837CE
:10041000BD4680BD790C4000950C400080B582B08F
:1004200000AF0346FB71FB79033B042B08D8FB7933
:100430001846064B9847FB791846054B984700E04D
:1004400000BF00BF0837BD4680BD00BFAD01400002
:100450001903400080B582B000AF786000BF7868B3
:10046000044B98470346002BF9D000231846083761
:10047000BD4680BDF103400080B500AF0620054BAE
:100480009847024613469B0013449A0013441846AB
:1004900080BD00BFA502400080B500AF024B984769
:1004A00003469B09184680BD7904400090B583B08F
:1004B00000AF1348134B98470620134B9847381D3D
:1004C000192301220621114CA0473B1D002118468B
:1004D0000F4B984700200F4B98474FF496700E4BE8
:1004E000984760200D4B98470D4B98470D4B984708
:1004F00003461846034B984700BF0C37BD4690BDD6
:1005000000A3E111F11A40001D0440004503400022
:10051000B103400055044000ED094000690A400065
:10052000891940009904400080B485B000AFF8609C
:10053000B9607A607B68002B03D0FB68BA685A66A2
:1005400002E0FB68BA681A6600BF1437BD465DF862
:10055000047B704780B483B000AF786039607B68FB
:100560003A681A6300BF0C37BD465DF8047B7047DC
:1005700080B483B000AF786039607B683A685A63B2
:1005800000BF0C37BD465DF8047B704780B487B070
:1005900000AFF860B9607A60FB687A685A64BB683B
:1005A000B3F1C05F4AD0B3F1C05F08D8B3F1006FB8
:1005B00016D0B3F1805F2CD0002B69D064E0B3F18A
:1005C000205F65D0B3F1205F03D8B3F1005F4AD05C
:1005D0005AE0B3F1405F5BD0B3F1605F58D053E0B5
:1005E000FB681B6F7B61FB681A6F7B68D9437B6973
:1005F0000B401A40FB681A67FB685B6F7B61FB6806
:100600005A6F7B68D9437B690B401A40FB685A6775
:100610003AE0FB681B6F7B617A687B691A43FB6871
:100620001A67FB685B6F7B61FB685A6F7B68D94315
:100630007B690B401A40FB685A6725E0FB681B6F1B
:100640007B61FB681A6F7B68D9437B690B401A405A
:10065000FB681A67FB685B6F7B617A687B691A438A
:10066000FB685A6710E0FB681B6F7B617A687B69E7
:100670001A43FB681A67FB685B6F7B617A687B696A
:100680001A43FB685A6700BFFB687A685A6000E04B
:1006900000BF1C37BD465DF8047B704780B584B051
:1006A00000AFF860B9607A60B968F868194B98478C
:1006B0007B6803F001031A46B968F868164B98473F
:1006C0007B6803F00A03002B03D0FB68BA681A6248
:1006D00002E0FB68BA685A627B6803F00203002BF1
:1006E00004D0FB68BA68C3F8802008E07B6803F098
:1006F0000803002B03D0FB68BA68C3F88420FB68AA
:10070000BA685A61FB68BA681A6000BF1037BD4604
:1007100080BD00BF750840002905400080B584B049
:1007200000AFF860B9607A603B60B968F868124B56
:100730009847BA69B968F868104B98473B68002B2E
:1007400003D0FB68BA681A6502E0FB68BA685A65AC
:100750007B68002B03D0FB68BA681A6302E0FB6871
:10076000BA685A63FB68BA681A61FB68BA681A60AB
:1007700000BF1037BD4680BD750840002905400008
:1007800090B587B002AFF860B9607A603B60BB6833
:10079000B3F1005F16D0B3F1005F09D8B3F1805F09
:1007A00010D0B3F1C05F0DD0B3F1006F0AD03DE0BF
:1007B000B3F1405F1AD0B3F1605F17D0B3F1205F9F
:1007C0000ED033E07A68B968F8681C4B98473B68EC
:1007D00003F001031A467968F868194B984727E037
:1007E0003A687968F868174B984721E0BB68B3F11D
:1007F000605F0CBF01230023DBB21A463B6803F0A5
:100800000403002B14BF01230023DBB219463B680D
:1008100003F00103002B14BF01230023DBB200937C
:100820000B467968F868084CA04701E0002300E017
:10083000012318461437BD4690BD00BF8D0540000A
:10084000290540009D0640001D07400080B483B08C
:1008500000AF786039607B689A6B3B681340002B6F
:1008600001D1002300E0012318460C37BD465DF896
:10087000047B704780B483B000AF786039607B68D8
:100880003A685A6400BF0C37BD465DF8047B704778
:1008900080B483B000AF78607B68DB6C18460C379F
:1008A000BD465DF8047B704780B483B000AF7860CC
:1008B0007B689B6C18460C37BD465DF8047B70471F
:1008C00080B584B000AF786039607868264B98476F
:1008D000F8607868254B98470246FB681340FB6038
:1008E000FB68002B3CD00023BB6034E0204ABB688F
:1008F0001B0113441A683B689A4226D11C4ABB6804
:100900001B01134404331A68FB681340002B1CD0EE
:10091000174ABB681B0113440C331B681449BA689F
:1009200012010A4410681249BA6812010A440432DA
:100930001268114698470E4ABB681B0113440433E2
:100940001B68DB43FA681340FB60BB680133BB6084
:10095000BB68062B03D8FB68002BC7D100E000BFA3
:1009600000BF1037BD4680BD91084000A908400077
:100970005804402080B500AF0A210248024B984736
:1009800000BF80BD000E0E40C108400080B500AF22
:100990000B210248024B984700BF80BD00100E405B
:1009A000C108400080B500AF0C210248024B9847B7
:1009B00000BF80BD00120E40C108400080B500AFEE
:1009C00010210248024B984700BF80BD00140E4022
:1009D000C108400080B500AF11210248024B984782
:1009E00000BF80BD00160E40C108400080B483B037
:1009F00000AF78607B68013B032B1AD801A252F844
:100A000023F000BF150A40001B0A4000230A4000E3
:100A10002B0A400000237B600EE04FF480737B6064
:100A20000AE04FF440737B6006E04FF400737B6094
:100A300002E000237B6000BF0A490A4B1B6B23F4D2
:100A400040727B6813430B6300BF064B9B6E03F041
:100A50000803002BF9D000BF0C37BD465DF8047BBE
:100A6000704700BF00060E4080B485B000AF7860CC
:100A70001D491D4B1B6B23F070027B6813430B63F6
:100A80004FF48053FB6007E0FB68002B01D101238A
:100A900023E0FB68013BFB60134B9B6E03F00803F4
:100AA000002BF1D0104A104B1B6B23F0030343F0D3
:100AB000020313634FF48053FB6007E0FB68002BD5
:100AC00001D1012309E0FB68013BFB60064B9B6EF3
:100AD00003F00803002BF1D0002318461437BD465D
:100AE0005DF8047B704700BF00060E4080B483B001
:100AF00000AF78607B68012B05D10749064B9A68E7
:100B0000064B13438B60044B054A1A6000BF0C3739
:100B1000BD465DF8047B704710180E40000010A51C
:100B2000080000A580B400AF094B5B6903F08003A7
:100B3000002B07D0074B9B6E03F08003002B01D0E6
:100B4000012300E000231846BD465DF8047B704792
:100B500010180E4000060E4080B483B000AF7860DD
:100B60001549154B1A6A154B13430B6200BF124B04
:100B70009B6E03F40033002BF9D00F490E4B1A6A19
:100B80000F4B13407A68134343F45C130B6200BFAE
:100B9000094B9B6E03F40033002BF9D00649064B3A
:100BA0001A6A084B134043F45C130B6200BF0C3706
:100BB000BD465DF8047B704700060E400800370014
:100BC0008FFFC8FFFFFFC8FE80B483B000AF78601E
:100BD00039607B68002B08D01349134B1B6A134AFA
:100BE0001A40134B13430B6218E00F490E4B1A6A5D
:100BF000104B13403A68120292B21A430E4B134341
:100C00000B6200BF084B9B6E03F00103002BF9D071
:100C10000549054B1A6A094B13430B6200BF0C3799
:100C2000BD465DF8047B704700060E40FCFFC8FE21
:100C300002003701FCFFC8FF010037000000370148
:100C400080B400AF044B9B6E03F480331846BD465E
:100C50005DF8047B704700BF00060E4080B400AF13
:100C6000044B4FF000529A6200BFBD465DF8047B12
:100C7000704700BF00060E4080B400AF044B9B6E6F
:100C800003F002031846BD465DF8047B704700BFC1
:100C900000060E4080B400AF044B9B6E03F040038F
:100CA0001846BD465DF8047B704700BF00060E4045
:100CB00080B483B000AF78607B683F2B01D90123FB
:100CC0002FE07B681F2B13D8194B9A6901217B6891
:100CD00001FA03F31A4001217B6801FA03F39A42F7
:100CE0001ED0134A01217B6801FA03F3136117E058
:100CF0007B68203B7B600E4BD3F8082101217B6889
:100D000001FA03F31A4001217B6801FA03F39A42C6
:100D100006D0074A01217B6801FA03F3C2F80031CB
:100D2000002318460C37BD465DF8047B704700BFB2
:100D300000060E4080B483B000AF78607B683F2B24
:100D400001D901232FE07B681F2B13D8194B9A6917
:100D500001217B6801FA03F31A4001217B6801FA43
:100D600003F39A421ED1134A01217B6801FA03F36F
:100D7000536117E07B68203B7B600E4BD3F8082162
:100D800001217B6801FA03F31A4001217B6801FA13
:100D900003F39A4206D1074A01217B6801FA03F363
:100DA000C2F80431002318460C37BD465DF8047BB9
:100DB000704700BF00060E4080B483B000AF78607B
:100DC0007B68C3F312037B600549054B1A6F7B6890
:100DD00013430B6700BF0C37BD465DF8047B7047BB
:100DE00000060E4080B483B000AF7860044A7B6890
:100DF000136000BF0C37BD465DF8047B704700BF31
:100E00000400402080B483B000AF204B1B6F7B6098
:100E10007B6823F4C0037B607B6843F480037B60C2
:100E20001A4A7B6813671949184B1A6A184B1343FF
:100E30000B6200BF154B9B6E03F00803002BF9D02B
:100E400000237B6003E000BF7B6801337B607B682D
:100E5000B3F5FA7FF7D300BF0C4B1B6A03F008030E
:100E6000002BF9D0094B1B6F7B607B6823F4C00318
:100E70007B607B6843F480037B60044A7B68136774
:100E800000BF0C37BD465DF8047B704700060E407E
:100E90000400370090B599B000AF78607B68013BE3
:100EA000042B00F2A38101A252F823F0C10E4000EE
:100EB000C10E4000DD0E4000DD0E4000CB114000B1
:100EC000714A714B1B6923F0040313616F4B0122BC
:100ED0001A70BFF35F8F62B630BF87E17B68032B68
:100EE00003D100206A4B984703E04FF40010684B91
:100EF000984772B6BFF35F8F644B00221A70654B40
:100F000001221A707B68042B0CBF01230023DAB284
:100F100007F11C033B6407F11803FB6307F114039B
:100F2000BB6307F110037B6307F10C033B631346BC
:100F300087F82F30584B1B6ABB62574B1B6B7B6289
:100F4000564B1B683B623B6C002B02D03B6CBA6A71
:100F50001A60FB6B002B03D04F4B9A6AFB6B1A6035
:100F6000BB6B002B02D0BB6B00221A607B6B002B8B
:100F700002D07B6B7A6A1A603B6B002B02D03B6B12
:100F80003A6A1A604449BA6A454B13430B627B6A5A
:100F900003F00303012B0ED97B6A23F0030343F014
:100FA00001037B623C4A7B6A13633B4B9B6E03F0FD
:100FB0000803002BF9D07B6A03F07003002B0CD0E0
:100FC0007B6A23F070037B62334A7B6A1363324B84
:100FD0009B6E03F00803002BF9D0324B98472E4B41
:100FE0009B6E03F40033002BF9D02B492A4B1A6A6D
:100FF0002D4B134043F45C130B62274B9B6E03F4A1
:101000008033002BF9D0254A3B6A23F470631360C8
:1010100097F82F30002B07D01F491F4B1A6A234B1C
:10102000134043F45C130B62184B01221A70BFF398
:101030005F8F62B61E4B984772B6BFF35F8F134B3C
:1010400000221A70FC69B86979693A69FB68FC6525
:10105000B86579653A65FB640023BB64FB6D03F0FA
:101060000203002B2CD00C490B4B1B6A114A1A406F
:10107000114B13430B620849074B1A6A0F4B13407D
:1010800043F45C130B624EE000ED00E000004020F2
:10109000E50D4000C804402000060E40000C0E4044
:1010A000080037005D0C4000FFFFC8FEFEFFC8FFD0
:1010B000050E4000FCFFC8FE0200370187FFC8FF95
:1010C000FB6D03F00103002B2DD04A4B1B6A03F08C
:1010D0000103002B0DD14749464B1B6A464A1A4073
:1010E000464B13430B62434B9B6E03F00103002BF3
:1010F000F9D0404B1B6A03F08073002B0BD13D49A4
:101100003C4B1A6A3E4B13430B623A4B9B6E03F403
:101110008033002BF9D03749364B1A6A394B1340CC
:1011200043F45C130B62BA6D374B1340002B08D0AD
:10113000304ABB6D43F000539362BB6C43F0020333
:10114000BB643B6D03F00303022B05D1294B9B6E5F
:1011500003F00203002BF9D0264B1B6B7B6425495F
:101160007B6C23F070023B6D03F0700313430B6341
:10117000204B9B6E03F00803002BF9D0234AFB6C35
:1011800013601C4A3B6D13631A4B9B6E03F00803FC
:10119000002BF9D0174B9A6EBB6C1340002BF9D083
:1011A0001B4B00221A701B4B1B68002B05D0194BE0
:1011B0001B689847174B00221A60174B01221A70C0
:1011C000BFF35F8F62B600BF10E0144A134B1B6978
:1011D00043F004031361124B124A1A600E4B0122B2
:1011E0001A70BFF35F8F62B630BF00BF00BF6437B5
:1011F000BD4690BD00060E40FCFFC8FF0100370051
:101200000000370187FFC8FF0000FF07000C0E40F9
:10121000C8044020CC0440200000402000ED00E045
:1012200010180E40040000A580B483B000AF7860B1
:1012300039603B68002B06D07B685B6843F0010295
:101240007B685A6005E07B685B6823F001027B687D
:101250005A6000BF0C37BD465DF8047B704780B410
:1012600083B000AF786039607B683A681A6200BF6B
:101270000C37BD465DF8047B704780B487B000AF83
:10128000F860B9607A603B60FB689B687B6102E054
:10129000FB689B687B61FB689A687B699A42F7D11F
:1012A000BB68002B1CD07B691B0C03F03F033B6128
:1012B0003B691A0913469B0013445B001A463B69BD
:1012C00003F00F031A44BB681A607B6903F48003C0
:1012D000002B05D0BB681B6803F10C02BB681A60C9
:1012E0007B68002B11D07B691B0A03F07F033B61F5
:1012F0003B691A0913469B0013445B001A463B697D
:1013000003F00F031A447B681A603B68002B10D06F
:101310007B6903F07F033B613B691A0913469B001D
:1013200013445B001A463B6903F00F031A443B6801
:101330001A6000BF1C37BD465DF8047B7047000093
:1013400080B487B000AFF860B9607A603B6000237A
:101350007B61FB685B6803F00103012B09D1BB686B
:101360000C2B06D9BB680C3BBB607B6943F4800344
:101370007B61BB68334AA2FB0323DB081805B9680D
:10138000304BA3FB0123DA0813469B0013445B0098
:10139000CA1A130403437A6913437B617B68294AA1
:1013A000A2FB0323DB0818037968264BA3FB012368
:1013B000DA0813469B0013445B00CA1A1302034366
:1013C0007A6913437B613B681E4AA2FB0323DB0857
:1013D000180139681B4BA3FB0123DA0813469B0055
:1013E00013445B00CA1A40EA02037A6913437B6123
:1013F000FB681B6843F00102FB681A6000BFFB68D2
:101400009B6903F00103012BF9D1FB680122DA612A
:10141000FB687A699A60FB681B6823F00102FB682D
:101420001A60FB68DB6943F00402FB68DA61FB6861
:10143000DB6A03F0010318461C37BD465DF8047BE8
:10144000704700BFCDCCCCCC80B487B000AFF86083
:10145000B9607A603B6000237B61BB68002B24D0BD
:10146000FB685B6803F00103012B09D17B680C2B3F
:1014700006D97B680C3B7B607B6943F480037B610E
:101480007B682E4AA2FB0323DB08180579682B4BE7
:10149000A3FB0123DA0813469B0013445B00CA1A1E
:1014A000130403437A6913437B613B68002B14D018
:1014B0003B6A224AA2FB0323DB081803396A1F4B4D
:1014C000A3FB0123DA0813469B0013445B00CA1AEE
:1014D000130203437A6913437B617B6A002B14D0A8
:1014E000BB6A164AA2FB0323DB081801B96A134B37
:1014F000A3FB0123DA0813469B0013445B00CA1ABE
:1015000040EA02037A6913437B61FB681A690C4B5A
:101510001340FA681361FB687A691A61FB681A69FB
:10152000084B1343FA681361FB68DB6A03F004039A
:1015300018461C37BD465DF8047B7047CDCCCCCC3B
:101540007F7F7FFF8080800080B487B000AFF8602D
:10155000B9607A603B6000237B61BB68464AA2FBAE
:1015600003239B091801BB68444AA2FB03235909C2
:10157000434BA3FB0123DA0813469B0013445B0093
:10158000CA1A40EA02037A6913437B61BB683C4A8A
:10159000A2FB0323D9083A4BA3FB0123DA08134625
:1015A0009B0013445B00CA1A1003B968344BA3FBB9
:1015B0000123DA0813469B0013445B00CA1A130286
:1015C00003437A6913437B617B682D4AA2FB0323A3
:1015D000DB08180579682A4BA3FB0123DA081346B8
:1015E0009B0013445B00CA1A130403437A69134334
:1015F0007B613B6A5B057A6913437B613B68204AE8
:10160000A2FB0323DB08180739681D4BA3FB01234A
:10161000DA0813469B0013445B00CA1A13060343FF
:101620007A6913437B61FB681B6843F00202FB6825
:101630001A6000BFFB689B6903F00103012BF9D11D
:10164000FB680122DA61FB687A69DA60FB681B6873
:1016500023F00202FB681A60FB68DB6943F00402B6
:10166000FB68DA61FB68DB6A03F0020318461C378B
:10167000BD465DF8047B7047D34D62101F85EB516A
:10168000CDCCCCCC80B483B000AF78607B689B6954
:1016900018460C37BD465DF8047B704780B483B0B4
:1016A00000AF786039607B683A68DA6100BF0C3758
:1016B000BD465DF8047B704780B483B000AF7860AE
:1016C00039607B683A68DA6000BF0C37BD465DF868
:1016D000047B704780B487B000AFF860B9607A606F
:1016E000FA68BB689B0113447B617B6902221A6024
:1016F0007B694FF0FF329A627B691B6A7B697A686B
:101700005A6000BF1C37BD465DF8047B704780B44B
:1017100083B000AF786039607A683B689B011344FE
:1017200005221A6000BF0C37BD465DF8047B704788
:1017300080B485B000AFF860B9607A60FA68BB68C1
:101740009B0113441C337A681A6000BF1437BD46EE
:101750005DF8047B704780B487B000AFF860B96073
:101760007A60FA68BB689B0113447B617B697A6885
:101770005A6200BF1C37BD465DF8047B704780B4D9
:1017800085B000AF786039607A683B689B0113448C
:10179000FB60FB681B6A18461437BD465DF8047B86
:1017A000704780B48DB000AFF860B9607A603B607C
:1017B00002233B6108237B612023BB618023FB6103
:1017C000BB6BDB0B3B620023FB621AE0FB6A9B00F6
:1017D00007F13002134453F8203CBA68B2FBF3F32C
:1017E000BB62BB6A1B0C7B62FA68BB6A9A4201D976
:1017F000002323E0FA687B6A9A4206D2FB6A01332F
:10180000FB62FB6A042BE1D900E000BFFB6A042BFA
:1018100001D9002312E07B68002B08D0FB6A9B00F3
:1018200007F13002134453F8202C7B681A603B68A0
:10183000002B02D03B68FA6A1A600123184634373D
:10184000BD465DF8047B704780B483B000AFEFF312
:1018500010837B607B68002B0CBF01230023DBB26D
:101860003B6072B6BFF35F8F044B00221A703B6877
:1018700018460C37BD465DF8047B704700004020D9
:1018800080B483B000AF78607B68002B14BF012365
:101890000023DBB218460C37BD465DF8047B704769
:1018A00080B582B000AF78607868074B98470346F0
:1018B000002B05D0054B01221A70BFF35F8F62B673
:1018C00000BF0837BD4680BD8118400000004020A1
:1018D00080B584B000AF1E4BFB601E4BBB60FA6846
:1018E000BB689A420CD007E0BB681A1DBA60FA6860
:1018F000111DF96012681A60BB68174A9342F3D34E
:10190000164BBB6004E0BB681A1DBA6000221A6067
:10191000BB68134A9342F6D3124BFB60124AFB6832
:1019200023F07F039360114B98477860104A104B67
:101930001B6843F470031360BFF34F8FBFF36F8FC7
:1019400078680C4B98470C4B98470C4B9847FEE730
:10195000FC214000000040203C0440203C0440208A
:10196000FC0440200000400000ED00E04918400069
:1019700088ED00E0A118400065204000711F400084
:1019800080B400AFFEE7000080B400AF524B1B6B89
:1019900003F00303012B14D0012B02D3022B38D008
:1019A0007AE04E4B5B6903F08003002B04D04C4B74
:1019B0004FF400421A606FE0494B4FF4FA421A604C
:1019C0006AE0454B1B6A03F08073002B03D0444B45
:1019D000444A1A6060E0424B434A1A603E4B1B6A1D
:1019E00003F07003102B04D0202B08D0002B0ED056
:1019F0000EE03B4B1B685B00394A136008E0384B34
:101A00001A6813465B001344354A136000E000BFB8
:101A100042E0314B1B6A03F08073002B03D0304B44
:101A2000304A1A601CE02E4B2F4A1A602A4B1B6A60
:101A300003F07003102B04D0202B08D0002B0ED005
:101A40000EE0274B1B685B00254A136008E0244B1F
:101A50001A6813465B001344214A136000E000BF7C
:101A60001D4B1B6B03F00303022B14D11A4B9B6A13
:101A70001B0CC3F30A030133194A126802FB03F378
:101A8000174A1360144B9B6ADBB2154A1268B2FB0B
:101A9000F3F3134A136000BF0F4B1B6B03F070038B
:101AA000702B08D10E4B1B68104AA2FB03235B0866
:101AB0000B4A13600AE0084B1B6B1B0903F007037A
:101AC000074A126822FA03F3054A136000BFBD46B5
:101AD0005DF8047B704700BF00060E4010180E40F2
:101AE00008004020001BB70000093D00ABAAAAAACD
:101AF00080B483B000AF78607B68194A934204D801
:101B0000184B4FF080621A6023E07B68164A9342BC
:101B100003D8144B154A1A601BE07B68144A9342A1
:101B200003D8104B134A1A6013E07B68124A9342A1
:101B300003D80C4B114A1A600BE07B68104A9342A1
:101B400004D8084B4FF004221A6002E0054B0D4AFE
:101B50001A6000BF0C37BD465DF8047B704700BFBC
:101B6000FF2C3101000C0E40FF59620200010004FD
:101B7000FF86930300020004FFB3C40400030004C3
:101B8000FFE0F5050005000480B483B000AF034614
:101B9000FB71094997F907305B09FA7902F01F02D6
:101BA000012000FA02F241F8232000BF0C37BD46A5
:101BB0005DF8047B704700BF00E100E080B483B0B3
:101BC00000AF0346FB71094997F907305B09FA79C1
:101BD00002F01F02012000FA02F2203341F8232014
:101BE00000BF0C37BD465DF8047B704700E100E0A4
:101BF00080B483B000AF0346FB71094997F9073001
:101C00005B09FA7902F01F02012000FA02F2603348
:101C100041F8232000BF0C37BD465DF8047B7047B8
:101C200000E100E080B483B000AF03463960FB718F
:101C300097F90730002B0BDA0D49FB7903F00F03FE
:101C4000043B3A68D2B25201D2B20B441A7609E090
:101C5000084997F907303A68D2B25201D2B20B4420
:101C600083F8002300BF0C37BD465DF8047B704746
:101C700000ED00E000E100E080B483B000AF7860E8
:101C80007B68072B25D801A252F823F0AD1C400039
:101C9000B31C4000B91C4000BF1C4000C31C4000E6
:101CA000C71C4000CB1C4000CF1C40004FF4FA433F
:101CB00010E04FF400430DE04FF400430AE0084BFE
:101CC00008E0084B06E0084B04E0074B02E0064B37
:101CD00000E0002318460C37BD465DF8047B7047D2
:101CE00000093D0000127A00001BB70080B500AF6C
:101CF0000620054B9847024613469B0013449A0062
:101D00001344184680BD00BF791C400080B500AF69
:101D1000024B984703469B09184680BDED1C4000C6
:101D200080B582B000AF7860396039687868094B57
:101D300098470346002B04D039687868064B9847CB
:101D400003E039687868054B984700BF0837BD46FF
:101D500080BD00BF4D0840007105400055054000A2
:101D600080B582B000AF002109480A4B984703466E
:101D70007B607B684FF400210748084B9847084B6D
:101D80001B680133064A136000BF0837BD4680BD9B
:101D900000C000407F174000000E0E40211D400093
:101DA000D004402090B589B004AF1E481E4B984720
:101DB000F8603B463A1D07F108011A481B4CA04742
:101DC000FB6803F00203002B17D002211548184BC3
:101DD0009847184B01221A60B9687B683A68033249
:101DE000029201220192009301230A4601210D482B
:101DF000114CA0471148124B9847012109480C4B40
:101E00009847082107480A4B984710210548084B76
:101E1000984720210348064B984700BF1437BD461A
:101E200090BD00BF60180E40851640007B12400038
:101E30009D164000D40440204914400000C00040DA
:101E4000B10C400090B583B002AF0220144B98470C
:101E500000211448144B98470C23009313230322AA
:101E600040F2E2710F48114CA047002301220F21DC
:101E70000C480F4CA04702200E4B984702200E4BF7
:101E80009847002102200D4B984702200C4B9847A1
:101E9000022104480B4B984700BF0437BD4690BD54
:101EA000B10C400060180E40291240004915400056
:101EB00041134000BD1B4000F11B4000251C4000A9
:101EC000891B40005F12400090B58BB002AFF860F4
:101ED000B9607A603B601E4B9847F8610123BB6193
:101EE000BB6818461B4B9847386807F1100107F18B
:101EF0001402FB6900930B46F969174CA0477968F7
:101F00003B6943F480431A46F868144B9847796854
:101F10007B69FA69B2FBF3F23B68B2FBF3F31A4652
:101F2000F8680F4B9847BB685BB218460D4B984753
:101F30007B6810221946F8680B4B98477B68194656
:101F4000F8680A4B984700BF2437BD4690BD00BFD4
:101F50000D1D4000B10C4000A3174000D5164000F5
:101F600031174000891B4000571740000F174000F1
:101F700090B585B004AF294B9847294B4FF40042E8
:101F80005A600A20274B98470220264B9847264B39
:101F900098470A23002217212448254CA047254BA7
:101FA0004FF480429A60032302930123019301239B
:101FB000009301230F2201211F48204CA04700233A
:101FC0004FF400224FF060511D481E4CA0474FF4C3
:101FD00000301D4B9847082116481C4B98471C4B56
:101FE0001B68002B15D002201A4B98471A4B1B6810
:101FF000082BF4D1184B00221A60154B00221A60EE
:102000004FF400210E48154B98470848144B984749
:10201000E5E705200F4B9847E1E700BFAD0440001E
:1020200050180E40B10C4000451E400000C000405A
:10203000C91E400010180E4060180E4049144000A0
:10204000000E0E4081074000B90D4000B916400057
:10205000D4044020950E4000D00440205505400097
:10206000350D400070B50F4E0F4D761BB61018BFE2
:10207000002405D0013455F8043B9847A642F9D115
:102080000A4E0B4D761B00F0A7F8B61018BF0024BF
:1020900006D0013455F8043B9847A642F9D170BDEB
:1020A00070BD00BFE4214000E4214000EC2140006D
:1020B000E4214000024B13B1024800F005B870471C
:1020C00000000000D5204000002301461A461846B3
:1020D00000F01EB838B50A4C0A4D641BA4100AD093
:1020E00004F18043013B05EB8305013C55F80439BD
:1020F0009847002CF9D1BDE8384000F077B800BF10
:10210000FC214000F8214000704700BF704700BF2D
:102110002DE9F8432C4D0646286898460F4691460F
:10212000FFF7F2FF294B1C68D4F84831002B3ED052
:102130005A681F2A1CDC02F1010E76B103EB820102
:102140000124C1F88890D3F8880194402043022EDE
:10215000C3F88801C1F8088123D00232C3F804E033
:10216000286843F82270FFF7D1FF0020BDE8F8830C
:10217000174B0BB34FF4C870AFF300800346D8B1D0
:10218000D4F848210260002141600A46C4F84801A1
:102190004FF0010EC0F88811C0F88C11002EDCD071
:1021A000CCE7D3F88C110C43C3F88C41D5E704F588
:1021B000A673C4F84831BBE72868FFF7A7FF4FF0C4
:1021C000FF30BDE8F88300BF38044020D421400030
:1021D0000000000010004020F8B500BFF8BC08BCAB
:1021E0009E467047B520400065014000F8B500BF2D
:0C21F000F8BC08BC9E467047410140004E
:1021FC00010000000000200000093D00000000006C
:10220C0000000000FC02402064034020CC0340206E
:10221C0000000000000000000000000000000000B2
:10222C0000000000000000000000000000000000A2
:10223C000000000000000000000000000000000092
:10224C000000000000000000000000000000000082
:10225C000000000000000000000000000000000072
:10226C000000000000000000000000000000000062
:10227C000000000000000000000000000000000052
:10228C000000000000000000000000000000000042
:10229C000000000000000000000000000000000032
:1022AC000000000000000000010000000000000021
:1022BC000E33CDAB34126DE6ECDE05000B000000E6
:1022CC000000000000000000000000000000000002
:1022DC0000000000000000000000000000000000F2
:1022EC0000000000000000000000000000000000E2
:1022FC0000000000000000000000000000000000D2
:0C262C000000000000000000D804402066
:04000005004018D1CE
:00000001FF
