
FREERTOS_SAM_EXAMPLE1.elf:     file format elf32-littlearm

Sections:
Idx Name          Size      VMA       LMA       File off  Algn
  0 .text         00009bd4  00400000  00400000  00010000  2**6
                  CONTENTS, ALLOC, LOAD, READONLY, CODE
  1 .ARM.exidx    00000008  00409bd4  00409bd4  00019bd4  2**2
                  CONTENTS, ALLOC, LOAD, READONLY, DATA
  2 .relocate     000009b8  20400000  00409bdc  00020000  2**3
                  CONTENTS, ALLOC, LOAD, DATA
  3 .bss          00000390  204009b8  0040a594  000209b8  2**2
                  ALLOC
  4 .stack        00002000  20400d48  0040a924  000209b8  2**0
                  ALLOC
  5 .heap         00000200  20402d48  0040c924  000209b8  2**0
                  ALLOC
  6 .ARM.attributes 0000002e  00000000  00000000  000209b8  2**0
                  CONTENTS, READONLY
  7 .comment      00000059  00000000  00000000  000209e6  2**0
                  CONTENTS, READONLY
  8 .debug_info   0001dd41  00000000  00000000  00020a3f  2**0
                  CONTENTS, READONLY, DEBUGGING
  9 .debug_abbrev 00003eef  00000000  00000000  0003e780  2**0
                  CONTENTS, READONLY, DEBUGGING
 10 .debug_loc    00008c34  00000000  00000000  0004266f  2**0
                  CONTENTS, READONLY, DEBUGGING
 11 .debug_aranges 00000e60  00000000  00000000  0004b2a3  2**0
                  CONTENTS, READONLY, DEBUGGING
 12 .debug_ranges 00001028  00000000  00000000  0004c103  2**0
                  CONTENTS, READONLY, DEBUGGING
 13 .debug_macro  000216dc  00000000  00000000  0004d12b  2**0
                  CONTENTS, READONLY, DEBUGGING
 14 .debug_line   00010436  00000000  00000000  0006e807  2**0
                  CONTENTS, READONLY, DEBUGGING
 15 .debug_str    00093611  00000000  00000000  0007ec3d  2**0
                  CONTENTS, READONLY, DEBUGGING
 16 .debug_frame  0000357c  00000000  00000000  00112250  2**2
                  CONTENTS, READONLY, DEBUGGING

Disassembly of section .text:

00400000 <exception_table>:
  400000:	48 2d 40 20 c5 0c 40 00 c3 0c 40 00 c3 0c 40 00     H-@ ..@...@...@.
  400010:	c3 0c 40 00 c3 0c 40 00 c3 0c 40 00 00 00 00 00     ..@...@...@.....
	...
  40002c:	75 10 40 00 c3 0c 40 00 00 00 00 00 d1 10 40 00     u.@...@.......@.
  40003c:	39 11 40 00 c3 0c 40 00 c3 0c 40 00 c3 0c 40 00     9.@...@...@...@.
  40004c:	c3 0c 40 00 c3 0c 40 00 c3 0c 40 00 c3 0c 40 00     ..@...@...@...@.
  40005c:	c3 0c 40 00 c3 0c 40 00 00 00 00 00 f1 06 40 00     ..@...@.......@.
  40006c:	05 07 40 00 19 07 40 00 c3 0c 40 00 c3 0c 40 00     ..@...@...@...@.
  40007c:	c3 0c 40 00 2d 07 40 00 41 07 40 00 c3 0c 40 00     ..@.-.@.A.@...@.
  40008c:	c3 0c 40 00 c3 0c 40 00 c3 0c 40 00 c3 0c 40 00     ..@...@...@...@.
  40009c:	c3 0c 40 00 c3 0c 40 00 c3 0c 40 00 c3 0c 40 00     ..@...@...@...@.
  4000ac:	c3 0c 40 00 c3 0c 40 00 c3 0c 40 00 c3 0c 40 00     ..@...@...@...@.
  4000bc:	c3 0c 40 00 c3 0c 40 00 c3 0c 40 00 c3 0c 40 00     ..@...@...@...@.
  4000cc:	c3 0c 40 00 00 00 00 00 c3 0c 40 00 00 00 00 00     ..@.......@.....
  4000dc:	c3 0c 40 00 c3 0c 40 00 c3 0c 40 00 c3 0c 40 00     ..@...@...@...@.
  4000ec:	c3 0c 40 00 c3 0c 40 00 c3 0c 40 00 c3 0c 40 00     ..@...@...@...@.
  4000fc:	c3 0c 40 00 c3 0c 40 00 c3 0c 40 00 c3 0c 40 00     ..@...@...@...@.
  40010c:	c3 0c 40 00 c3 0c 40 00 00 00 00 00 00 00 00 00     ..@...@.........
  40011c:	00 00 00 00 c3 0c 40 00 c3 0c 40 00 c3 0c 40 00     ......@...@...@.
  40012c:	c3 0c 40 00 c3 0c 40 00 00 00 00 00 c3 0c 40 00     ..@...@.......@.
  40013c:	c3 0c 40 00                                         ..@.

00400140 <__do_global_dtors_aux>:
  400140:	b510      	push	{r4, lr}
  400142:	4c05      	ldr	r4, [pc, #20]	; (400158 <__do_global_dtors_aux+0x18>)
  400144:	7823      	ldrb	r3, [r4, #0]
  400146:	b933      	cbnz	r3, 400156 <__do_global_dtors_aux+0x16>
  400148:	4b04      	ldr	r3, [pc, #16]	; (40015c <__do_global_dtors_aux+0x1c>)
  40014a:	b113      	cbz	r3, 400152 <__do_global_dtors_aux+0x12>
  40014c:	4804      	ldr	r0, [pc, #16]	; (400160 <__do_global_dtors_aux+0x20>)
  40014e:	f3af 8000 	nop.w
  400152:	2301      	movs	r3, #1
  400154:	7023      	strb	r3, [r4, #0]
  400156:	bd10      	pop	{r4, pc}
  400158:	204009b8 	.word	0x204009b8
  40015c:	00000000 	.word	0x00000000
  400160:	00409bdc 	.word	0x00409bdc

00400164 <frame_dummy>:
  400164:	4b0c      	ldr	r3, [pc, #48]	; (400198 <frame_dummy+0x34>)
  400166:	b143      	cbz	r3, 40017a <frame_dummy+0x16>
  400168:	480c      	ldr	r0, [pc, #48]	; (40019c <frame_dummy+0x38>)
  40016a:	490d      	ldr	r1, [pc, #52]	; (4001a0 <frame_dummy+0x3c>)
  40016c:	b510      	push	{r4, lr}
  40016e:	f3af 8000 	nop.w
  400172:	480c      	ldr	r0, [pc, #48]	; (4001a4 <frame_dummy+0x40>)
  400174:	6803      	ldr	r3, [r0, #0]
  400176:	b923      	cbnz	r3, 400182 <frame_dummy+0x1e>
  400178:	bd10      	pop	{r4, pc}
  40017a:	480a      	ldr	r0, [pc, #40]	; (4001a4 <frame_dummy+0x40>)
  40017c:	6803      	ldr	r3, [r0, #0]
  40017e:	b933      	cbnz	r3, 40018e <frame_dummy+0x2a>
  400180:	4770      	bx	lr
  400182:	4b09      	ldr	r3, [pc, #36]	; (4001a8 <frame_dummy+0x44>)
  400184:	2b00      	cmp	r3, #0
  400186:	d0f7      	beq.n	400178 <frame_dummy+0x14>
  400188:	e8bd 4010 	ldmia.w	sp!, {r4, lr}
  40018c:	4718      	bx	r3
  40018e:	4b06      	ldr	r3, [pc, #24]	; (4001a8 <frame_dummy+0x44>)
  400190:	2b00      	cmp	r3, #0
  400192:	d0f5      	beq.n	400180 <frame_dummy+0x1c>
  400194:	4718      	bx	r3
  400196:	bf00      	nop
  400198:	00000000 	.word	0x00000000
  40019c:	00409bdc 	.word	0x00409bdc
  4001a0:	204009bc 	.word	0x204009bc
  4001a4:	00409bdc 	.word	0x00409bdc
  4001a8:	00000000 	.word	0x00000000

004001ac <sysclk_init>:
	pmc_disable_udpck();
}
#endif // CONFIG_USBCLK_SOURCE

void sysclk_init(void)
{
  4001ac:	b510      	push	{r4, lr}
	struct pll_config pllcfg;

	/* Set flash wait state to max in case the below clock switching. */
	system_init_flash(CHIP_FREQ_CPU_MAX);
  4001ae:	4810      	ldr	r0, [pc, #64]	; (4001f0 <sysclk_init+0x44>)
  4001b0:	4b10      	ldr	r3, [pc, #64]	; (4001f4 <sysclk_init+0x48>)
  4001b2:	4798      	blx	r3
		pmc_switch_mainck_to_fastrc(CKGR_MOR_MOSCRCF_12_MHz);
		break;


	case OSC_MAINCK_XTAL:
		pmc_switch_mainck_to_xtal(PMC_OSC_XTAL,
  4001b4:	213e      	movs	r1, #62	; 0x3e
  4001b6:	2000      	movs	r0, #0
  4001b8:	4b0f      	ldr	r3, [pc, #60]	; (4001f8 <sysclk_init+0x4c>)
  4001ba:	4798      	blx	r3
	case OSC_MAINCK_4M_RC:
	case OSC_MAINCK_8M_RC:
	case OSC_MAINCK_12M_RC:
	case OSC_MAINCK_XTAL:
	case OSC_MAINCK_BYPASS:
		return pmc_osc_is_ready_mainck();
  4001bc:	4c0f      	ldr	r4, [pc, #60]	; (4001fc <sysclk_init+0x50>)
  4001be:	47a0      	blx	r4
 *
 * \param id A number identifying the oscillator to wait for.
 */
static inline void osc_wait_ready(uint8_t id)
{
	while (!osc_is_ready(id)) {
  4001c0:	2800      	cmp	r0, #0
  4001c2:	d0fc      	beq.n	4001be <sysclk_init+0x12>
static inline void pll_enable(const struct pll_config *p_cfg, uint32_t ul_pll_id)
{
	Assert(ul_pll_id < NR_PLLS);

	if (ul_pll_id == PLLA_ID) {
		pmc_disable_pllack(); // Always stop PLL first!
  4001c4:	4b0e      	ldr	r3, [pc, #56]	; (400200 <sysclk_init+0x54>)
  4001c6:	4798      	blx	r3
		PMC->CKGR_PLLAR = CKGR_PLLAR_ONE | p_cfg->ctrl;
  4001c8:	4a0e      	ldr	r2, [pc, #56]	; (400204 <sysclk_init+0x58>)
  4001ca:	4b0f      	ldr	r3, [pc, #60]	; (400208 <sysclk_init+0x5c>)
  4001cc:	629a      	str	r2, [r3, #40]	; 0x28
static inline uint32_t pll_is_locked(uint32_t ul_pll_id)
{
	Assert(ul_pll_id < NR_PLLS);

	if (ul_pll_id == PLLA_ID) {
	return pmc_is_locked_pllack();
  4001ce:	4c0f      	ldr	r4, [pc, #60]	; (40020c <sysclk_init+0x60>)
  4001d0:	47a0      	blx	r4
 */
static inline int pll_wait_for_lock(unsigned int pll_id)
{
	Assert(pll_id < NR_PLLS);

	while (!pll_is_locked(pll_id)) {
  4001d2:	2800      	cmp	r0, #0
  4001d4:	d0fc      	beq.n	4001d0 <sysclk_init+0x24>
	else if (CONFIG_SYSCLK_SOURCE == SYSCLK_SRC_PLLACK) {
		pll_enable_source(CONFIG_PLL0_SOURCE);
		pll_config_defaults(&pllcfg, 0);
		pll_enable(&pllcfg, 0);
		pll_wait_for_lock(0);
		pmc_mck_set_division(CONFIG_SYSCLK_DIV);
  4001d6:	2002      	movs	r0, #2
  4001d8:	4b0d      	ldr	r3, [pc, #52]	; (400210 <sysclk_init+0x64>)
  4001da:	4798      	blx	r3
		pmc_switch_mck_to_pllack(CONFIG_SYSCLK_PRES);
  4001dc:	2000      	movs	r0, #0
  4001de:	4b0d      	ldr	r3, [pc, #52]	; (400214 <sysclk_init+0x68>)
  4001e0:	4798      	blx	r3
		pll_wait_for_lock(1);
		pmc_mck_set_division(CONFIG_SYSCLK_DIV);
		pmc_switch_mck_to_upllck(CONFIG_SYSCLK_PRES);
	}
	/* Update the SystemFrequency variable */
	SystemCoreClockUpdate();
  4001e2:	4b0d      	ldr	r3, [pc, #52]	; (400218 <sysclk_init+0x6c>)
  4001e4:	4798      	blx	r3

	/* Set a flash wait state depending on the new cpu frequency */
	system_init_flash(sysclk_get_cpu_hz());
  4001e6:	4802      	ldr	r0, [pc, #8]	; (4001f0 <sysclk_init+0x44>)
  4001e8:	4b02      	ldr	r3, [pc, #8]	; (4001f4 <sysclk_init+0x48>)
  4001ea:	4798      	blx	r3
  4001ec:	bd10      	pop	{r4, pc}
  4001ee:	bf00      	nop
  4001f0:	11e1a300 	.word	0x11e1a300
  4001f4:	00400e99 	.word	0x00400e99
  4001f8:	004007f1 	.word	0x004007f1
  4001fc:	00400845 	.word	0x00400845
  400200:	00400855 	.word	0x00400855
  400204:	20183f01 	.word	0x20183f01
  400208:	400e0600 	.word	0x400e0600
  40020c:	00400865 	.word	0x00400865
  400210:	00400755 	.word	0x00400755
  400214:	0040078d 	.word	0x0040078d
  400218:	00400d8d 	.word	0x00400d8d

0040021c <_read>:
int __attribute__((weak))
_read (int file, char * ptr, int len); // Remove GCC compiler warning

int __attribute__((weak))
_read (int file, char * ptr, int len)
{
  40021c:	e92d 41f0 	stmdb	sp!, {r4, r5, r6, r7, r8, lr}
	int nChars = 0;

	if (file != 0) {
  400220:	b980      	cbnz	r0, 400244 <_read+0x28>
  400222:	460c      	mov	r4, r1
  400224:	4690      	mov	r8, r2
		return -1;
	}

	for (; len > 0; --len) {
  400226:	2a00      	cmp	r2, #0
  400228:	dd0f      	ble.n	40024a <_read+0x2e>
  40022a:	188f      	adds	r7, r1, r2
		ptr_get(stdio_base, ptr);
  40022c:	4e08      	ldr	r6, [pc, #32]	; (400250 <_read+0x34>)
  40022e:	4d09      	ldr	r5, [pc, #36]	; (400254 <_read+0x38>)
  400230:	6830      	ldr	r0, [r6, #0]
  400232:	4621      	mov	r1, r4
  400234:	682b      	ldr	r3, [r5, #0]
  400236:	4798      	blx	r3
		ptr++;
  400238:	3401      	adds	r4, #1
	for (; len > 0; --len) {
  40023a:	42bc      	cmp	r4, r7
  40023c:	d1f8      	bne.n	400230 <_read+0x14>
		nChars++;
	}
	return nChars;
}
  40023e:	4640      	mov	r0, r8
  400240:	e8bd 81f0 	ldmia.w	sp!, {r4, r5, r6, r7, r8, pc}
		return -1;
  400244:	f04f 38ff 	mov.w	r8, #4294967295
  400248:	e7f9      	b.n	40023e <_read+0x22>
	for (; len > 0; --len) {
  40024a:	4680      	mov	r8, r0
  40024c:	e7f7      	b.n	40023e <_read+0x22>
  40024e:	bf00      	nop
  400250:	20400ccc 	.word	0x20400ccc
  400254:	20400cc4 	.word	0x20400cc4

00400258 <_write>:
int __attribute__((weak))
_write (int file, const char *ptr, int len)
{
	int nChars = 0;

	if ((file != 1) && (file != 2) && (file!=3)) {
  400258:	3801      	subs	r0, #1
  40025a:	2802      	cmp	r0, #2
  40025c:	d815      	bhi.n	40028a <_write+0x32>
{
  40025e:	e92d 41f0 	stmdb	sp!, {r4, r5, r6, r7, r8, lr}
  400262:	460e      	mov	r6, r1
  400264:	4614      	mov	r4, r2
		return -1;
	}

	for (; len != 0; --len) {
  400266:	b19a      	cbz	r2, 400290 <_write+0x38>
  400268:	460d      	mov	r5, r1
		if (ptr_put(stdio_base, *ptr++) < 0) {
  40026a:	f8df 8038 	ldr.w	r8, [pc, #56]	; 4002a4 <_write+0x4c>
  40026e:	4f0c      	ldr	r7, [pc, #48]	; (4002a0 <_write+0x48>)
  400270:	f8d8 0000 	ldr.w	r0, [r8]
  400274:	f815 1b01 	ldrb.w	r1, [r5], #1
  400278:	683b      	ldr	r3, [r7, #0]
  40027a:	4798      	blx	r3
  40027c:	2800      	cmp	r0, #0
  40027e:	db0a      	blt.n	400296 <_write+0x3e>
  400280:	1ba8      	subs	r0, r5, r6
	for (; len != 0; --len) {
  400282:	3c01      	subs	r4, #1
  400284:	d1f4      	bne.n	400270 <_write+0x18>
  400286:	e8bd 81f0 	ldmia.w	sp!, {r4, r5, r6, r7, r8, pc}
		return -1;
  40028a:	f04f 30ff 	mov.w	r0, #4294967295
  40028e:	4770      	bx	lr
	for (; len != 0; --len) {
  400290:	4610      	mov	r0, r2
  400292:	e8bd 81f0 	ldmia.w	sp!, {r4, r5, r6, r7, r8, pc}
			return -1;
  400296:	f04f 30ff 	mov.w	r0, #4294967295
		}
		++nChars;
	}
	return nChars;
}
  40029a:	e8bd 81f0 	ldmia.w	sp!, {r4, r5, r6, r7, r8, pc}
  40029e:	bf00      	nop
  4002a0:	20400cc8 	.word	0x20400cc8
  4002a4:	20400ccc 	.word	0x20400ccc

004002a8 <board_init>:
	__ISB();
}
#endif

void board_init(void)
{
  4002a8:	b5f8      	push	{r3, r4, r5, r6, r7, lr}
#ifndef CONF_BOARD_KEEP_WATCHDOG_AT_INIT
	/* Disable the watchdog */
	WDT->WDT_MR = WDT_MR_WDDIS;
  4002aa:	f44f 4200 	mov.w	r2, #32768	; 0x8000
  4002ae:	4b5c      	ldr	r3, [pc, #368]	; (400420 <board_init+0x178>)
  4002b0:	605a      	str	r2, [r3, #4]
    This function acts as a special kind of Data Memory Barrier.
    It completes when all explicit memory accesses before this instruction complete.
 */
__attribute__( ( always_inline ) ) __STATIC_INLINE void __DSB(void)
{
  __ASM volatile ("dsb");
  4002b2:	f3bf 8f4f 	dsb	sy
  __ASM volatile ("isb");
  4002b6:	f3bf 8f6f 	isb	sy
__STATIC_INLINE void SCB_EnableICache(void)
{
  #if (__ICACHE_PRESENT == 1)
    __DSB();
    __ISB();
    SCB->ICIALLU = 0;                       // invalidate I-Cache
  4002ba:	4b5a      	ldr	r3, [pc, #360]	; (400424 <board_init+0x17c>)
  4002bc:	2200      	movs	r2, #0
  4002be:	f8c3 2250 	str.w	r2, [r3, #592]	; 0x250
    SCB->CCR |=  SCB_CCR_IC_Msk;            // enable I-Cache
  4002c2:	695a      	ldr	r2, [r3, #20]
  4002c4:	f442 3200 	orr.w	r2, r2, #131072	; 0x20000
  4002c8:	615a      	str	r2, [r3, #20]
  __ASM volatile ("dsb");
  4002ca:	f3bf 8f4f 	dsb	sy
  __ASM volatile ("isb");
  4002ce:	f3bf 8f6f 	isb	sy
{
  #if (__DCACHE_PRESENT == 1)
    uint32_t ccsidr, sshift, wshift, sw;
    uint32_t sets, ways;

    ccsidr  = SCB->CCSIDR;
  4002d2:	f8d3 7080 	ldr.w	r7, [r3, #128]	; 0x80
    sets    = CCSIDR_SETS(ccsidr);
  4002d6:	f3c7 364e 	ubfx	r6, r7, #13, #15
    sshift  = CCSIDR_LSSHIFT(ccsidr) + 4;
  4002da:	f007 0007 	and.w	r0, r7, #7
  4002de:	3004      	adds	r0, #4
    ways    = CCSIDR_WAYS(ccsidr);
  4002e0:	f3c7 07c9 	ubfx	r7, r7, #3, #10
 */
__attribute__( ( always_inline ) ) __STATIC_INLINE uint8_t __CLZ(uint32_t value)
{
  uint32_t result;

  __ASM volatile ("clz %0, %1" : "=r" (result) : "r" (value) );
  4002e4:	fab7 fe87 	clz	lr, r7
    wshift  = __CLZ(ways) & 0x1f;
  4002e8:	f00e 0e1f 	and.w	lr, lr, #31
  __ASM volatile ("dsb");
  4002ec:	f3bf 8f4f 	dsb	sy
  4002f0:	f04f 34ff 	mov.w	r4, #4294967295
  4002f4:	fa04 fc00 	lsl.w	ip, r4, r0
  4002f8:	fa06 f000 	lsl.w	r0, r6, r0
  4002fc:	fa04 f40e 	lsl.w	r4, r4, lr
  400300:	fa07 fe0e 	lsl.w	lr, r7, lr

    do {                                    // invalidate D-Cache
         int32_t tmpways = ways;
         do {
              sw = ((tmpways << wshift) | (sets << sshift));
              SCB->DCISW = sw;
  400304:	461d      	mov	r5, r3
         int32_t tmpways = ways;
  400306:	463a      	mov	r2, r7
  400308:	4673      	mov	r3, lr
              sw = ((tmpways << wshift) | (sets << sshift));
  40030a:	ea40 0103 	orr.w	r1, r0, r3
              SCB->DCISW = sw;
  40030e:	f8c5 1260 	str.w	r1, [r5, #608]	; 0x260
            } while(tmpways--);
  400312:	3a01      	subs	r2, #1
  400314:	4423      	add	r3, r4
  400316:	f1b2 3fff 	cmp.w	r2, #4294967295
  40031a:	d1f6      	bne.n	40030a <board_init+0x62>
        } while(sets--);
  40031c:	3e01      	subs	r6, #1
  40031e:	4460      	add	r0, ip
  400320:	f1b6 3fff 	cmp.w	r6, #4294967295
  400324:	d1ef      	bne.n	400306 <board_init+0x5e>
  400326:	f3bf 8f4f 	dsb	sy
    __DSB();

    SCB->CCR |=  SCB_CCR_DC_Msk;            // enable D-Cache
  40032a:	4b3e      	ldr	r3, [pc, #248]	; (400424 <board_init+0x17c>)
  40032c:	695a      	ldr	r2, [r3, #20]
  40032e:	f442 3280 	orr.w	r2, r2, #65536	; 0x10000
  400332:	615a      	str	r2, [r3, #20]
  400334:	f3bf 8f4f 	dsb	sy
  __ASM volatile ("isb");
  400338:	f3bf 8f6f 	isb	sy
		*dst++ = *src++;
	}
#endif
#else
	/* TCM Configuration */
	EFC->EEFC_FCR = (EEFC_FCR_FKEY_PASSWD | EEFC_FCR_FCMD_CGPB 
  40033c:	4a3a      	ldr	r2, [pc, #232]	; (400428 <board_init+0x180>)
  40033e:	493b      	ldr	r1, [pc, #236]	; (40042c <board_init+0x184>)
  400340:	6051      	str	r1, [r2, #4]
					| EEFC_FCR_FARG(8));
	EFC->EEFC_FCR = (EEFC_FCR_FKEY_PASSWD | EEFC_FCR_FCMD_CGPB 
  400342:	f5a1 7180 	sub.w	r1, r1, #256	; 0x100
  400346:	6051      	str	r1, [r2, #4]
  __ASM volatile ("dsb");
  400348:	f3bf 8f4f 	dsb	sy
  __ASM volatile ("isb");
  40034c:	f3bf 8f6f 	isb	sy
	SCB->ITCMCR &= ~(uint32_t)(1UL);
  400350:	f8d3 2290 	ldr.w	r2, [r3, #656]	; 0x290
  400354:	f022 0201 	bic.w	r2, r2, #1
  400358:	f8c3 2290 	str.w	r2, [r3, #656]	; 0x290
	SCB->DTCMCR &= ~(uint32_t)SCB_DTCMCR_EN_Msk;
  40035c:	f8d3 2294 	ldr.w	r2, [r3, #660]	; 0x294
  400360:	f022 0201 	bic.w	r2, r2, #1
  400364:	f8c3 2294 	str.w	r2, [r3, #660]	; 0x294
  __ASM volatile ("dsb");
  400368:	f3bf 8f4f 	dsb	sy
  __ASM volatile ("isb");
  40036c:	f3bf 8f6f 	isb	sy
 *
 * \param ul_id Id (number) of the peripheral clock.
 */
static inline void sysclk_enable_peripheral_clock(uint32_t ul_id)
{
	pmc_enable_periph_clk(ul_id);
  400370:	200a      	movs	r0, #10
  400372:	4c2f      	ldr	r4, [pc, #188]	; (400430 <board_init+0x188>)
  400374:	47a0      	blx	r4
  400376:	200b      	movs	r0, #11
  400378:	47a0      	blx	r4
  40037a:	200c      	movs	r0, #12
  40037c:	47a0      	blx	r4
  40037e:	2010      	movs	r0, #16
  400380:	47a0      	blx	r4
  400382:	2011      	movs	r0, #17
  400384:	47a0      	blx	r4
		enum ioport_direction dir)
{
	Pio *base = arch_ioport_pin_to_base(pin);

	if (dir == IOPORT_DIR_OUTPUT) {
		base->PIO_OER = arch_ioport_pin_to_mask(pin);
  400386:	4b2b      	ldr	r3, [pc, #172]	; (400434 <board_init+0x18c>)
  400388:	f44f 7280 	mov.w	r2, #256	; 0x100
  40038c:	611a      	str	r2, [r3, #16]
	} else if (dir == IOPORT_DIR_INPUT) {
		base->PIO_ODR = arch_ioport_pin_to_mask(pin);
	}

	base->PIO_OWER = arch_ioport_pin_to_mask(pin);
  40038e:	f8c3 20a0 	str.w	r2, [r3, #160]	; 0xa0
		bool level)
{
	Pio *base = arch_ioport_pin_to_base(pin);

	if (level) {
		base->PIO_SODR = arch_ioport_pin_to_mask(pin);
  400392:	631a      	str	r2, [r3, #48]	; 0x30
		base->PIO_ODR = arch_ioport_pin_to_mask(pin);
  400394:	f5a3 6380 	sub.w	r3, r3, #1024	; 0x400
  400398:	f44f 6200 	mov.w	r2, #2048	; 0x800
  40039c:	615a      	str	r2, [r3, #20]
	base->PIO_OWER = arch_ioport_pin_to_mask(pin);
  40039e:	f8c3 20a0 	str.w	r2, [r3, #160]	; 0xa0
		base->PIO_PUER = mask;
  4003a2:	665a      	str	r2, [r3, #100]	; 0x64
		base->PIO_PPDDR = mask;
  4003a4:	f8c3 2090 	str.w	r2, [r3, #144]	; 0x90
		base->PIO_MDDR = mask;
  4003a8:	655a      	str	r2, [r3, #84]	; 0x54
		base->PIO_IFER = mask;
  4003aa:	621a      	str	r2, [r3, #32]
		base->PIO_IFSCER = mask;
  4003ac:	f8c3 2084 	str.w	r2, [r3, #132]	; 0x84
		base->PIO_ABCDSR[0] &= ~mask;
  4003b0:	6f19      	ldr	r1, [r3, #112]	; 0x70
  4003b2:	f421 6100 	bic.w	r1, r1, #2048	; 0x800
  4003b6:	6719      	str	r1, [r3, #112]	; 0x70
		base->PIO_ABCDSR[1] &= ~mask;
  4003b8:	6f59      	ldr	r1, [r3, #116]	; 0x74
  4003ba:	f421 6100 	bic.w	r1, r1, #2048	; 0x800
  4003be:	6759      	str	r1, [r3, #116]	; 0x74
	case IOPORT_SENSE_FALLING:
		base->PIO_ESR = mask;
		base->PIO_FELLSR = mask;
		break;
	case IOPORT_SENSE_RISING:
		base->PIO_ESR = mask;
  4003c0:	f8c3 20c0 	str.w	r2, [r3, #192]	; 0xc0
		base->PIO_REHLSR = mask;
  4003c4:	f8c3 20d4 	str.w	r2, [r3, #212]	; 0xd4
		break;
	default:
		base->PIO_AIMDR = mask;
		return;
	}
	base->PIO_AIMER = mask;
  4003c8:	f8c3 20b0 	str.w	r2, [r3, #176]	; 0xb0
		base->PIO_PUDR = mask;
  4003cc:	f44f 1200 	mov.w	r2, #2097152	; 0x200000
  4003d0:	661a      	str	r2, [r3, #96]	; 0x60
		base->PIO_PPDDR = mask;
  4003d2:	f8c3 2090 	str.w	r2, [r3, #144]	; 0x90
		base->PIO_MDDR = mask;
  4003d6:	655a      	str	r2, [r3, #84]	; 0x54
		base->PIO_IFDR = mask;
  4003d8:	625a      	str	r2, [r3, #36]	; 0x24
		base->PIO_IFSCDR = mask;
  4003da:	f8c3 2080 	str.w	r2, [r3, #128]	; 0x80
		base->PIO_ABCDSR[0] &= ~mask;
  4003de:	6f19      	ldr	r1, [r3, #112]	; 0x70
  4003e0:	f421 1100 	bic.w	r1, r1, #2097152	; 0x200000
  4003e4:	6719      	str	r1, [r3, #112]	; 0x70
		base->PIO_ABCDSR[1] &= ~mask;
  4003e6:	6f59      	ldr	r1, [r3, #116]	; 0x74
  4003e8:	f421 1100 	bic.w	r1, r1, #2097152	; 0x200000
  4003ec:	6759      	str	r1, [r3, #116]	; 0x74
	arch_ioport_port_to_base(port)->PIO_PDR = mask;
  4003ee:	605a      	str	r2, [r3, #4]
			GPIO_PUSH_BUTTON_1_SENSE);

#ifdef CONF_BOARD_UART_CONSOLE
	/* Configure UART pins */
	ioport_set_pin_peripheral_mode(USART1_RXD_GPIO, USART1_RXD_FLAGS);
	MATRIX->CCFG_SYSIO |= CCFG_SYSIO_SYSIO4;
  4003f0:	4a11      	ldr	r2, [pc, #68]	; (400438 <board_init+0x190>)
  4003f2:	f8d2 3114 	ldr.w	r3, [r2, #276]	; 0x114
  4003f6:	f043 0310 	orr.w	r3, r3, #16
  4003fa:	f8c2 3114 	str.w	r3, [r2, #276]	; 0x114
		base->PIO_PUDR = mask;
  4003fe:	4b0f      	ldr	r3, [pc, #60]	; (40043c <board_init+0x194>)
  400400:	2210      	movs	r2, #16
  400402:	661a      	str	r2, [r3, #96]	; 0x60
		base->PIO_PPDDR = mask;
  400404:	f8c3 2090 	str.w	r2, [r3, #144]	; 0x90
		base->PIO_MDDR = mask;
  400408:	655a      	str	r2, [r3, #84]	; 0x54
		base->PIO_IFDR = mask;
  40040a:	625a      	str	r2, [r3, #36]	; 0x24
		base->PIO_IFSCDR = mask;
  40040c:	f8c3 2080 	str.w	r2, [r3, #128]	; 0x80
		base->PIO_ABCDSR[0] |= mask;
  400410:	6f19      	ldr	r1, [r3, #112]	; 0x70
  400412:	4311      	orrs	r1, r2
  400414:	6719      	str	r1, [r3, #112]	; 0x70
		base->PIO_ABCDSR[1] |= mask;
  400416:	6f59      	ldr	r1, [r3, #116]	; 0x74
  400418:	4311      	orrs	r1, r2
  40041a:	6759      	str	r1, [r3, #116]	; 0x74
	arch_ioport_port_to_base(port)->PIO_PDR = mask;
  40041c:	605a      	str	r2, [r3, #4]
  40041e:	bdf8      	pop	{r3, r4, r5, r6, r7, pc}
  400420:	400e1850 	.word	0x400e1850
  400424:	e000ed00 	.word	0xe000ed00
  400428:	400e0c00 	.word	0x400e0c00
  40042c:	5a00080c 	.word	0x5a00080c
  400430:	00400875 	.word	0x00400875
  400434:	400e1200 	.word	0x400e1200
  400438:	40088000 	.word	0x40088000
  40043c:	400e1000 	.word	0x400e1000

00400440 <pio_set_debounce_filter>:
void pio_set_debounce_filter(Pio *p_pio, const uint32_t ul_mask,
		const uint32_t ul_cut_off)
{
#if (SAM3S || SAM3N || SAM4S || SAM4E || SAM4N || SAM4C || SAMG || SAM4CP || SAM4CM || SAMV71 || SAMV70 || SAME70 || SAMS70)
	/* Set Debouncing, 0 bit field no effect */
	p_pio->PIO_IFSCER = ul_mask;
  400440:	f8c0 1084 	str.w	r1, [r0, #132]	; 0x84
	/*
	 * The debouncing filter can filter a pulse of less than 1/2 Period of a
	 * programmable Divided Slow Clock:
	 * Tdiv_slclk = ((DIV+1)*2).Tslow_clock
	 */
	p_pio->PIO_SCDR = PIO_SCDR_DIV((FREQ_SLOW_CLOCK_EXT /
  400444:	0053      	lsls	r3, r2, #1
  400446:	f44f 4200 	mov.w	r2, #32768	; 0x8000
  40044a:	fbb2 f2f3 	udiv	r2, r2, r3
  40044e:	3a01      	subs	r2, #1
  400450:	f3c2 020d 	ubfx	r2, r2, #0, #14
  400454:	f8c0 208c 	str.w	r2, [r0, #140]	; 0x8c
  400458:	4770      	bx	lr

0040045a <pio_set>:
 * \param p_pio Pointer to a PIO instance.
 * \param ul_mask Bitmask of one or more pin(s) to configure.
 */
void pio_set(Pio *p_pio, const uint32_t ul_mask)
{
	p_pio->PIO_SODR = ul_mask;
  40045a:	6301      	str	r1, [r0, #48]	; 0x30
  40045c:	4770      	bx	lr

0040045e <pio_clear>:
 * \param p_pio Pointer to a PIO instance.
 * \param ul_mask Bitmask of one or more pin(s) to configure.
 */
void pio_clear(Pio *p_pio, const uint32_t ul_mask)
{
	p_pio->PIO_CODR = ul_mask;
  40045e:	6341      	str	r1, [r0, #52]	; 0x34
  400460:	4770      	bx	lr

00400462 <pio_set_peripheral>:
		const uint32_t ul_mask)
{
	uint32_t ul_sr;

	/* Disable interrupts on the pin(s) */
	p_pio->PIO_IDR = ul_mask;
  400462:	6442      	str	r2, [r0, #68]	; 0x44

#if (SAM3S || SAM3N || SAM4S || SAM4E || SAM4N || SAM4C || SAMG || SAM4CP || SAM4CM || SAMV71 || SAMV70 || SAME70 || SAMS70)
	switch (ul_type) {
  400464:	f1b1 5fc0 	cmp.w	r1, #402653184	; 0x18000000
  400468:	d03a      	beq.n	4004e0 <pio_set_peripheral+0x7e>
  40046a:	d813      	bhi.n	400494 <pio_set_peripheral+0x32>
  40046c:	f1b1 6f00 	cmp.w	r1, #134217728	; 0x8000000
  400470:	d025      	beq.n	4004be <pio_set_peripheral+0x5c>
  400472:	f1b1 5f80 	cmp.w	r1, #268435456	; 0x10000000
  400476:	d10a      	bne.n	40048e <pio_set_peripheral+0x2c>

		ul_sr = p_pio->PIO_ABCDSR[1];
		p_pio->PIO_ABCDSR[1] &= (~ul_mask & ul_sr);
		break;
	case PIO_PERIPH_B:
		ul_sr = p_pio->PIO_ABCDSR[0];
  400478:	6f03      	ldr	r3, [r0, #112]	; 0x70
		p_pio->PIO_ABCDSR[0] = (ul_mask | ul_sr);
  40047a:	4313      	orrs	r3, r2
  40047c:	6703      	str	r3, [r0, #112]	; 0x70

		ul_sr = p_pio->PIO_ABCDSR[1];
  40047e:	6f43      	ldr	r3, [r0, #116]	; 0x74
		p_pio->PIO_ABCDSR[1] &= (~ul_mask & ul_sr);
  400480:	6f41      	ldr	r1, [r0, #116]	; 0x74
  400482:	400b      	ands	r3, r1
  400484:	ea23 0302 	bic.w	r3, r3, r2
  400488:	6743      	str	r3, [r0, #116]	; 0x74
#else
#error "Unsupported device"
#endif

	/* Remove the pins from under the control of PIO */
	p_pio->PIO_PDR = ul_mask;
  40048a:	6042      	str	r2, [r0, #4]
  40048c:	4770      	bx	lr
	switch (ul_type) {
  40048e:	2900      	cmp	r1, #0
  400490:	d1fb      	bne.n	40048a <pio_set_peripheral+0x28>
  400492:	4770      	bx	lr
  400494:	f1b1 5f20 	cmp.w	r1, #671088640	; 0x28000000
  400498:	d021      	beq.n	4004de <pio_set_peripheral+0x7c>
  40049a:	d809      	bhi.n	4004b0 <pio_set_peripheral+0x4e>
  40049c:	f1b1 5f00 	cmp.w	r1, #536870912	; 0x20000000
  4004a0:	d1f3      	bne.n	40048a <pio_set_peripheral+0x28>
		ul_sr = p_pio->PIO_ABCDSR[0];
  4004a2:	6f03      	ldr	r3, [r0, #112]	; 0x70
		p_pio->PIO_ABCDSR[0] = (ul_mask | ul_sr);
  4004a4:	4313      	orrs	r3, r2
  4004a6:	6703      	str	r3, [r0, #112]	; 0x70
		ul_sr = p_pio->PIO_ABCDSR[1];
  4004a8:	6f43      	ldr	r3, [r0, #116]	; 0x74
		p_pio->PIO_ABCDSR[1] = (ul_mask | ul_sr);
  4004aa:	4313      	orrs	r3, r2
  4004ac:	6743      	str	r3, [r0, #116]	; 0x74
		break;
  4004ae:	e7ec      	b.n	40048a <pio_set_peripheral+0x28>
	switch (ul_type) {
  4004b0:	f1b1 5f40 	cmp.w	r1, #805306368	; 0x30000000
  4004b4:	d013      	beq.n	4004de <pio_set_peripheral+0x7c>
  4004b6:	f1b1 5f60 	cmp.w	r1, #939524096	; 0x38000000
  4004ba:	d010      	beq.n	4004de <pio_set_peripheral+0x7c>
  4004bc:	e7e5      	b.n	40048a <pio_set_peripheral+0x28>
{
  4004be:	b410      	push	{r4}
		ul_sr = p_pio->PIO_ABCDSR[0];
  4004c0:	6f01      	ldr	r1, [r0, #112]	; 0x70
		p_pio->PIO_ABCDSR[0] &= (~ul_mask & ul_sr);
  4004c2:	6f04      	ldr	r4, [r0, #112]	; 0x70
  4004c4:	43d3      	mvns	r3, r2
  4004c6:	4021      	ands	r1, r4
  4004c8:	461c      	mov	r4, r3
  4004ca:	4019      	ands	r1, r3
  4004cc:	6701      	str	r1, [r0, #112]	; 0x70
		ul_sr = p_pio->PIO_ABCDSR[1];
  4004ce:	6f43      	ldr	r3, [r0, #116]	; 0x74
		p_pio->PIO_ABCDSR[1] &= (~ul_mask & ul_sr);
  4004d0:	6f41      	ldr	r1, [r0, #116]	; 0x74
  4004d2:	400b      	ands	r3, r1
  4004d4:	4023      	ands	r3, r4
  4004d6:	6743      	str	r3, [r0, #116]	; 0x74
	p_pio->PIO_PDR = ul_mask;
  4004d8:	6042      	str	r2, [r0, #4]
}
  4004da:	f85d 4b04 	ldr.w	r4, [sp], #4
  4004de:	4770      	bx	lr
		ul_sr = p_pio->PIO_ABCDSR[0];
  4004e0:	6f03      	ldr	r3, [r0, #112]	; 0x70
		p_pio->PIO_ABCDSR[0] &= (~ul_mask & ul_sr);
  4004e2:	6f01      	ldr	r1, [r0, #112]	; 0x70
  4004e4:	400b      	ands	r3, r1
  4004e6:	ea23 0302 	bic.w	r3, r3, r2
  4004ea:	6703      	str	r3, [r0, #112]	; 0x70
		ul_sr = p_pio->PIO_ABCDSR[1];
  4004ec:	6f43      	ldr	r3, [r0, #116]	; 0x74
		p_pio->PIO_ABCDSR[1] = (ul_mask | ul_sr);
  4004ee:	4313      	orrs	r3, r2
  4004f0:	6743      	str	r3, [r0, #116]	; 0x74
		break;
  4004f2:	e7ca      	b.n	40048a <pio_set_peripheral+0x28>

004004f4 <pio_set_input>:
 * \param p_pio Pointer to a PIO instance.
 * \param ul_mask Interrupt sources bit map.
 */
void pio_disable_interrupt(Pio *p_pio, const uint32_t ul_mask)
{
	p_pio->PIO_IDR = ul_mask;
  4004f4:	6441      	str	r1, [r0, #68]	; 0x44
	if (ul_pull_up_enable) {
  4004f6:	f012 0f01 	tst.w	r2, #1
  4004fa:	d10d      	bne.n	400518 <pio_set_input+0x24>
		p_pio->PIO_PUDR = ul_mask;
  4004fc:	6601      	str	r1, [r0, #96]	; 0x60
	if (ul_attribute & (PIO_DEGLITCH | PIO_DEBOUNCE)) {
  4004fe:	f012 0f0a 	tst.w	r2, #10
  400502:	d00b      	beq.n	40051c <pio_set_input+0x28>
		p_pio->PIO_IFER = ul_mask;
  400504:	6201      	str	r1, [r0, #32]
	if (ul_attribute & PIO_DEGLITCH) {
  400506:	f012 0f02 	tst.w	r2, #2
  40050a:	d109      	bne.n	400520 <pio_set_input+0x2c>
		if (ul_attribute & PIO_DEBOUNCE) {
  40050c:	f012 0f08 	tst.w	r2, #8
  400510:	d008      	beq.n	400524 <pio_set_input+0x30>
			p_pio->PIO_IFSCER = ul_mask;
  400512:	f8c0 1084 	str.w	r1, [r0, #132]	; 0x84
  400516:	e005      	b.n	400524 <pio_set_input+0x30>
		p_pio->PIO_PUER = ul_mask;
  400518:	6641      	str	r1, [r0, #100]	; 0x64
  40051a:	e7f0      	b.n	4004fe <pio_set_input+0xa>
		p_pio->PIO_IFDR = ul_mask;
  40051c:	6241      	str	r1, [r0, #36]	; 0x24
  40051e:	e7f2      	b.n	400506 <pio_set_input+0x12>
		p_pio->PIO_IFSCDR = ul_mask;
  400520:	f8c0 1080 	str.w	r1, [r0, #128]	; 0x80
	p_pio->PIO_ODR = ul_mask;
  400524:	6141      	str	r1, [r0, #20]
	p_pio->PIO_PER = ul_mask;
  400526:	6001      	str	r1, [r0, #0]
  400528:	4770      	bx	lr

0040052a <pio_set_output>:
{
  40052a:	b410      	push	{r4}
  40052c:	9c01      	ldr	r4, [sp, #4]
	p_pio->PIO_IDR = ul_mask;
  40052e:	6441      	str	r1, [r0, #68]	; 0x44
	if (ul_pull_up_enable) {
  400530:	b94c      	cbnz	r4, 400546 <pio_set_output+0x1c>
		p_pio->PIO_PUDR = ul_mask;
  400532:	6601      	str	r1, [r0, #96]	; 0x60
	if (ul_multidrive_enable) {
  400534:	b14b      	cbz	r3, 40054a <pio_set_output+0x20>
		p_pio->PIO_MDER = ul_mask;
  400536:	6501      	str	r1, [r0, #80]	; 0x50
	if (ul_default_level) {
  400538:	b94a      	cbnz	r2, 40054e <pio_set_output+0x24>
		p_pio->PIO_CODR = ul_mask;
  40053a:	6341      	str	r1, [r0, #52]	; 0x34
	p_pio->PIO_OER = ul_mask;
  40053c:	6101      	str	r1, [r0, #16]
	p_pio->PIO_PER = ul_mask;
  40053e:	6001      	str	r1, [r0, #0]
}
  400540:	f85d 4b04 	ldr.w	r4, [sp], #4
  400544:	4770      	bx	lr
		p_pio->PIO_PUER = ul_mask;
  400546:	6641      	str	r1, [r0, #100]	; 0x64
  400548:	e7f4      	b.n	400534 <pio_set_output+0xa>
		p_pio->PIO_MDDR = ul_mask;
  40054a:	6541      	str	r1, [r0, #84]	; 0x54
  40054c:	e7f4      	b.n	400538 <pio_set_output+0xe>
		p_pio->PIO_SODR = ul_mask;
  40054e:	6301      	str	r1, [r0, #48]	; 0x30
  400550:	e7f4      	b.n	40053c <pio_set_output+0x12>
	...

00400554 <pio_configure>:
{
  400554:	b570      	push	{r4, r5, r6, lr}
  400556:	b082      	sub	sp, #8
  400558:	4605      	mov	r5, r0
  40055a:	4616      	mov	r6, r2
  40055c:	461c      	mov	r4, r3
	switch (ul_type) {
  40055e:	f1b1 5f00 	cmp.w	r1, #536870912	; 0x20000000
  400562:	d014      	beq.n	40058e <pio_configure+0x3a>
  400564:	d90a      	bls.n	40057c <pio_configure+0x28>
  400566:	f1b1 5f40 	cmp.w	r1, #805306368	; 0x30000000
  40056a:	d024      	beq.n	4005b6 <pio_configure+0x62>
  40056c:	f1b1 5f60 	cmp.w	r1, #939524096	; 0x38000000
  400570:	d021      	beq.n	4005b6 <pio_configure+0x62>
  400572:	f1b1 5f20 	cmp.w	r1, #671088640	; 0x28000000
  400576:	d017      	beq.n	4005a8 <pio_configure+0x54>
		return 0;
  400578:	2000      	movs	r0, #0
  40057a:	e01a      	b.n	4005b2 <pio_configure+0x5e>
	switch (ul_type) {
  40057c:	f1b1 5f80 	cmp.w	r1, #268435456	; 0x10000000
  400580:	d005      	beq.n	40058e <pio_configure+0x3a>
  400582:	f1b1 5fc0 	cmp.w	r1, #402653184	; 0x18000000
  400586:	d002      	beq.n	40058e <pio_configure+0x3a>
  400588:	f1b1 6f00 	cmp.w	r1, #134217728	; 0x8000000
  40058c:	d1f4      	bne.n	400578 <pio_configure+0x24>
		pio_set_peripheral(p_pio, ul_type, ul_mask);
  40058e:	4632      	mov	r2, r6
  400590:	4628      	mov	r0, r5
  400592:	4b11      	ldr	r3, [pc, #68]	; (4005d8 <pio_configure+0x84>)
  400594:	4798      	blx	r3
	if (ul_pull_up_enable) {
  400596:	f014 0f01 	tst.w	r4, #1
  40059a:	d102      	bne.n	4005a2 <pio_configure+0x4e>
		p_pio->PIO_PUDR = ul_mask;
  40059c:	662e      	str	r6, [r5, #96]	; 0x60
	return 1;
  40059e:	2001      	movs	r0, #1
  4005a0:	e007      	b.n	4005b2 <pio_configure+0x5e>
		p_pio->PIO_PUER = ul_mask;
  4005a2:	666e      	str	r6, [r5, #100]	; 0x64
	return 1;
  4005a4:	2001      	movs	r0, #1
  4005a6:	e004      	b.n	4005b2 <pio_configure+0x5e>
		pio_set_input(p_pio, ul_mask, ul_attribute);
  4005a8:	461a      	mov	r2, r3
  4005aa:	4631      	mov	r1, r6
  4005ac:	4b0b      	ldr	r3, [pc, #44]	; (4005dc <pio_configure+0x88>)
  4005ae:	4798      	blx	r3
	return 1;
  4005b0:	2001      	movs	r0, #1
}
  4005b2:	b002      	add	sp, #8
  4005b4:	bd70      	pop	{r4, r5, r6, pc}
		pio_set_output(p_pio, ul_mask, (ul_type == PIO_OUTPUT_1),
  4005b6:	f004 0301 	and.w	r3, r4, #1
  4005ba:	9300      	str	r3, [sp, #0]
  4005bc:	f3c4 0380 	ubfx	r3, r4, #2, #1
  4005c0:	f1b1 5f60 	cmp.w	r1, #939524096	; 0x38000000
  4005c4:	bf14      	ite	ne
  4005c6:	2200      	movne	r2, #0
  4005c8:	2201      	moveq	r2, #1
  4005ca:	4631      	mov	r1, r6
  4005cc:	4628      	mov	r0, r5
  4005ce:	4c04      	ldr	r4, [pc, #16]	; (4005e0 <pio_configure+0x8c>)
  4005d0:	47a0      	blx	r4
	return 1;
  4005d2:	2001      	movs	r0, #1
		break;
  4005d4:	e7ed      	b.n	4005b2 <pio_configure+0x5e>
  4005d6:	bf00      	nop
  4005d8:	00400463 	.word	0x00400463
  4005dc:	004004f5 	.word	0x004004f5
  4005e0:	0040052b 	.word	0x0040052b

004005e4 <pio_get_output_data_status>:
	if ((p_pio->PIO_ODSR & ul_mask) == 0) {
  4005e4:	6b83      	ldr	r3, [r0, #56]	; 0x38
  4005e6:	420b      	tst	r3, r1
}
  4005e8:	bf14      	ite	ne
  4005ea:	2001      	movne	r0, #1
  4005ec:	2000      	moveq	r0, #0
  4005ee:	4770      	bx	lr

004005f0 <pio_configure_interrupt>:
	if (ul_attr & PIO_IT_AIME) {
  4005f0:	f012 0f10 	tst.w	r2, #16
  4005f4:	d012      	beq.n	40061c <pio_configure_interrupt+0x2c>
		p_pio->PIO_AIMER = ul_mask;
  4005f6:	f8c0 10b0 	str.w	r1, [r0, #176]	; 0xb0
		if (ul_attr & PIO_IT_RE_OR_HL) {
  4005fa:	f012 0f20 	tst.w	r2, #32
  4005fe:	d007      	beq.n	400610 <pio_configure_interrupt+0x20>
			p_pio->PIO_REHLSR = ul_mask;
  400600:	f8c0 10d4 	str.w	r1, [r0, #212]	; 0xd4
		if (ul_attr & PIO_IT_EDGE) {
  400604:	f012 0f40 	tst.w	r2, #64	; 0x40
  400608:	d005      	beq.n	400616 <pio_configure_interrupt+0x26>
			p_pio->PIO_ESR = ul_mask;
  40060a:	f8c0 10c0 	str.w	r1, [r0, #192]	; 0xc0
  40060e:	4770      	bx	lr
			p_pio->PIO_FELLSR = ul_mask;
  400610:	f8c0 10d0 	str.w	r1, [r0, #208]	; 0xd0
  400614:	e7f6      	b.n	400604 <pio_configure_interrupt+0x14>
			p_pio->PIO_LSR = ul_mask;
  400616:	f8c0 10c4 	str.w	r1, [r0, #196]	; 0xc4
  40061a:	4770      	bx	lr
		p_pio->PIO_AIMDR = ul_mask;
  40061c:	f8c0 10b4 	str.w	r1, [r0, #180]	; 0xb4
  400620:	4770      	bx	lr

00400622 <pio_enable_interrupt>:
	p_pio->PIO_IER = ul_mask;
  400622:	6401      	str	r1, [r0, #64]	; 0x40
  400624:	4770      	bx	lr

00400626 <pio_get_interrupt_status>:
 *
 * \return The interrupt status value.
 */
uint32_t pio_get_interrupt_status(const Pio *p_pio)
{
	return p_pio->PIO_ISR;
  400626:	6cc0      	ldr	r0, [r0, #76]	; 0x4c
}
  400628:	4770      	bx	lr

0040062a <pio_get_interrupt_mask>:
 *
 * \return The interrupt mask value.
 */
uint32_t pio_get_interrupt_mask(const Pio *p_pio)
{
	return p_pio->PIO_IMR;
  40062a:	6c80      	ldr	r0, [r0, #72]	; 0x48
}
  40062c:	4770      	bx	lr
	...

00400630 <pio_handler_process>:
 *
 * \param p_pio PIO controller base address.
 * \param ul_id PIO controller ID.
 */
void pio_handler_process(Pio *p_pio, uint32_t ul_id)
{
  400630:	e92d 41f0 	stmdb	sp!, {r4, r5, r6, r7, r8, lr}
  400634:	4604      	mov	r4, r0
  400636:	4688      	mov	r8, r1
	uint32_t status;
	uint32_t i;

	/* Read PIO controller status */
	status = pio_get_interrupt_status(p_pio);
  400638:	4b0e      	ldr	r3, [pc, #56]	; (400674 <pio_handler_process+0x44>)
  40063a:	4798      	blx	r3
  40063c:	4605      	mov	r5, r0
	status &= pio_get_interrupt_mask(p_pio);
  40063e:	4620      	mov	r0, r4
  400640:	4b0d      	ldr	r3, [pc, #52]	; (400678 <pio_handler_process+0x48>)
  400642:	4798      	blx	r3

	/* Check pending events */
	if (status != 0) {
  400644:	4005      	ands	r5, r0
  400646:	d013      	beq.n	400670 <pio_handler_process+0x40>
  400648:	4c0c      	ldr	r4, [pc, #48]	; (40067c <pio_handler_process+0x4c>)
  40064a:	f104 0660 	add.w	r6, r4, #96	; 0x60
  40064e:	e003      	b.n	400658 <pio_handler_process+0x28>
							gs_interrupt_sources[i].mask);
					status &= ~(gs_interrupt_sources[i].mask);
				}
			}
			i++;
			if (i >= MAX_INTERRUPT_SOURCES) {
  400650:	42b4      	cmp	r4, r6
  400652:	d00d      	beq.n	400670 <pio_handler_process+0x40>
  400654:	3410      	adds	r4, #16
		while (status != 0) {
  400656:	b15d      	cbz	r5, 400670 <pio_handler_process+0x40>
			if (gs_interrupt_sources[i].id == ul_id) {
  400658:	6820      	ldr	r0, [r4, #0]
  40065a:	4540      	cmp	r0, r8
  40065c:	d1f8      	bne.n	400650 <pio_handler_process+0x20>
				if ((status & gs_interrupt_sources[i].mask) != 0) {
  40065e:	6861      	ldr	r1, [r4, #4]
  400660:	4229      	tst	r1, r5
  400662:	d0f5      	beq.n	400650 <pio_handler_process+0x20>
					gs_interrupt_sources[i].handler(gs_interrupt_sources[i].id,
  400664:	68e3      	ldr	r3, [r4, #12]
  400666:	4798      	blx	r3
					status &= ~(gs_interrupt_sources[i].mask);
  400668:	6863      	ldr	r3, [r4, #4]
  40066a:	ea25 0503 	bic.w	r5, r5, r3
  40066e:	e7ef      	b.n	400650 <pio_handler_process+0x20>
  400670:	e8bd 81f0 	ldmia.w	sp!, {r4, r5, r6, r7, r8, pc}
  400674:	00400627 	.word	0x00400627
  400678:	0040062b 	.word	0x0040062b
  40067c:	204009d4 	.word	0x204009d4

00400680 <pio_handler_set>:
 *
 * \return 0 if successful, 1 if the maximum number of sources has been defined.
 */
uint32_t pio_handler_set(Pio *p_pio, uint32_t ul_id, uint32_t ul_mask,
		uint32_t ul_attr, void (*p_handler) (uint32_t, uint32_t))
{
  400680:	b5f8      	push	{r3, r4, r5, r6, r7, lr}
    uint8_t i;
	struct s_interrupt_source *pSource;

	if (gs_ul_nb_sources >= MAX_INTERRUPT_SOURCES)
  400682:	4c18      	ldr	r4, [pc, #96]	; (4006e4 <pio_handler_set+0x64>)
  400684:	6826      	ldr	r6, [r4, #0]
  400686:	2e06      	cmp	r6, #6
  400688:	d82a      	bhi.n	4006e0 <pio_handler_set+0x60>
  40068a:	f04f 0c00 	mov.w	ip, #0
  40068e:	4664      	mov	r4, ip
		return 1;

    /* Check interrupt for this pin, if already defined, redefine it. */
	for (i = 0; i <= gs_ul_nb_sources; i++) {
		pSource = &(gs_interrupt_sources[i]);
		if (pSource->id == ul_id && pSource->mask == ul_mask) {
  400690:	4f15      	ldr	r7, [pc, #84]	; (4006e8 <pio_handler_set+0x68>)
  400692:	e004      	b.n	40069e <pio_handler_set+0x1e>
	for (i = 0; i <= gs_ul_nb_sources; i++) {
  400694:	3401      	adds	r4, #1
  400696:	b2e4      	uxtb	r4, r4
  400698:	46a4      	mov	ip, r4
  40069a:	42a6      	cmp	r6, r4
  40069c:	d309      	bcc.n	4006b2 <pio_handler_set+0x32>
		pSource = &(gs_interrupt_sources[i]);
  40069e:	46a6      	mov	lr, r4
		if (pSource->id == ul_id && pSource->mask == ul_mask) {
  4006a0:	0125      	lsls	r5, r4, #4
  4006a2:	597d      	ldr	r5, [r7, r5]
  4006a4:	428d      	cmp	r5, r1
  4006a6:	d1f5      	bne.n	400694 <pio_handler_set+0x14>
  4006a8:	eb07 1504 	add.w	r5, r7, r4, lsl #4
  4006ac:	686d      	ldr	r5, [r5, #4]
  4006ae:	4295      	cmp	r5, r2
  4006b0:	d1f0      	bne.n	400694 <pio_handler_set+0x14>
			break;
		}
	}

	/* Define new source */
	pSource->id = ul_id;
  4006b2:	4d0d      	ldr	r5, [pc, #52]	; (4006e8 <pio_handler_set+0x68>)
  4006b4:	ea4f 1e0e 	mov.w	lr, lr, lsl #4
  4006b8:	eb05 040e 	add.w	r4, r5, lr
  4006bc:	f845 100e 	str.w	r1, [r5, lr]
	pSource->mask = ul_mask;
  4006c0:	6062      	str	r2, [r4, #4]
	pSource->attr = ul_attr;
  4006c2:	60a3      	str	r3, [r4, #8]
	pSource->handler = p_handler;
  4006c4:	9906      	ldr	r1, [sp, #24]
  4006c6:	60e1      	str	r1, [r4, #12]
	if (i == gs_ul_nb_sources + 1) {
  4006c8:	3601      	adds	r6, #1
  4006ca:	4566      	cmp	r6, ip
  4006cc:	d005      	beq.n	4006da <pio_handler_set+0x5a>
  4006ce:	4611      	mov	r1, r2
		gs_ul_nb_sources++;
	}

	/* Configure interrupt mode */
	pio_configure_interrupt(p_pio, ul_mask, ul_attr);
  4006d0:	461a      	mov	r2, r3
  4006d2:	4b06      	ldr	r3, [pc, #24]	; (4006ec <pio_handler_set+0x6c>)
  4006d4:	4798      	blx	r3

	return 0;
  4006d6:	2000      	movs	r0, #0
  4006d8:	bdf8      	pop	{r3, r4, r5, r6, r7, pc}
		gs_ul_nb_sources++;
  4006da:	4902      	ldr	r1, [pc, #8]	; (4006e4 <pio_handler_set+0x64>)
  4006dc:	600e      	str	r6, [r1, #0]
  4006de:	e7f6      	b.n	4006ce <pio_handler_set+0x4e>
		return 1;
  4006e0:	2001      	movs	r0, #1
}
  4006e2:	bdf8      	pop	{r3, r4, r5, r6, r7, pc}
  4006e4:	20400a44 	.word	0x20400a44
  4006e8:	204009d4 	.word	0x204009d4
  4006ec:	004005f1 	.word	0x004005f1

004006f0 <PIOA_Handler>:
/**
 * \brief Parallel IO Controller A interrupt handler.
 * Redefined PIOA interrupt handler for NVIC interrupt table.
 */
void PIOA_Handler(void)
{
  4006f0:	b508      	push	{r3, lr}
	pio_handler_process(PIOA, ID_PIOA);
  4006f2:	210a      	movs	r1, #10
  4006f4:	4801      	ldr	r0, [pc, #4]	; (4006fc <PIOA_Handler+0xc>)
  4006f6:	4b02      	ldr	r3, [pc, #8]	; (400700 <PIOA_Handler+0x10>)
  4006f8:	4798      	blx	r3
  4006fa:	bd08      	pop	{r3, pc}
  4006fc:	400e0e00 	.word	0x400e0e00
  400700:	00400631 	.word	0x00400631

00400704 <PIOB_Handler>:
/**
 * \brief Parallel IO Controller B interrupt handler
 * Redefined PIOB interrupt handler for NVIC interrupt table.
 */
void PIOB_Handler(void)
{
  400704:	b508      	push	{r3, lr}
    pio_handler_process(PIOB, ID_PIOB);
  400706:	210b      	movs	r1, #11
  400708:	4801      	ldr	r0, [pc, #4]	; (400710 <PIOB_Handler+0xc>)
  40070a:	4b02      	ldr	r3, [pc, #8]	; (400714 <PIOB_Handler+0x10>)
  40070c:	4798      	blx	r3
  40070e:	bd08      	pop	{r3, pc}
  400710:	400e1000 	.word	0x400e1000
  400714:	00400631 	.word	0x00400631

00400718 <PIOC_Handler>:
/**
 * \brief Parallel IO Controller C interrupt handler.
 * Redefined PIOC interrupt handler for NVIC interrupt table.
 */
void PIOC_Handler(void)
{
  400718:	b508      	push	{r3, lr}
	pio_handler_process(PIOC, ID_PIOC);
  40071a:	210c      	movs	r1, #12
  40071c:	4801      	ldr	r0, [pc, #4]	; (400724 <PIOC_Handler+0xc>)
  40071e:	4b02      	ldr	r3, [pc, #8]	; (400728 <PIOC_Handler+0x10>)
  400720:	4798      	blx	r3
  400722:	bd08      	pop	{r3, pc}
  400724:	400e1200 	.word	0x400e1200
  400728:	00400631 	.word	0x00400631

0040072c <PIOD_Handler>:
/**
 * \brief Parallel IO Controller D interrupt handler.
 * Redefined PIOD interrupt handler for NVIC interrupt table.
 */
void PIOD_Handler(void)
{
  40072c:	b508      	push	{r3, lr}
	pio_handler_process(PIOD, ID_PIOD);
  40072e:	2110      	movs	r1, #16
  400730:	4801      	ldr	r0, [pc, #4]	; (400738 <PIOD_Handler+0xc>)
  400732:	4b02      	ldr	r3, [pc, #8]	; (40073c <PIOD_Handler+0x10>)
  400734:	4798      	blx	r3
  400736:	bd08      	pop	{r3, pc}
  400738:	400e1400 	.word	0x400e1400
  40073c:	00400631 	.word	0x00400631

00400740 <PIOE_Handler>:
/**
 * \brief Parallel IO Controller E interrupt handler.
 * Redefined PIOE interrupt handler for NVIC interrupt table.
 */
void PIOE_Handler(void)
{
  400740:	b508      	push	{r3, lr}
	pio_handler_process(PIOE, ID_PIOE);
  400742:	2111      	movs	r1, #17
  400744:	4801      	ldr	r0, [pc, #4]	; (40074c <PIOE_Handler+0xc>)
  400746:	4b02      	ldr	r3, [pc, #8]	; (400750 <PIOE_Handler+0x10>)
  400748:	4798      	blx	r3
  40074a:	bd08      	pop	{r3, pc}
  40074c:	400e1600 	.word	0x400e1600
  400750:	00400631 	.word	0x00400631

00400754 <pmc_mck_set_division>:
 *
 * \param ul_div Division value.
 */
void pmc_mck_set_division(uint32_t ul_div)
{
	switch (ul_div) {
  400754:	2803      	cmp	r0, #3
  400756:	d011      	beq.n	40077c <pmc_mck_set_division+0x28>
  400758:	2804      	cmp	r0, #4
  40075a:	d012      	beq.n	400782 <pmc_mck_set_division+0x2e>
		case 1:
			ul_div = PMC_MCKR_MDIV_EQ_PCK;
  40075c:	2802      	cmp	r0, #2
  40075e:	bf0c      	ite	eq
  400760:	f44f 7180 	moveq.w	r1, #256	; 0x100
  400764:	2100      	movne	r1, #0
		default:
			ul_div = PMC_MCKR_MDIV_EQ_PCK;
			break;
	}
	PMC->PMC_MCKR =
			(PMC->PMC_MCKR & (~PMC_MCKR_MDIV_Msk)) | ul_div;
  400766:	4a08      	ldr	r2, [pc, #32]	; (400788 <pmc_mck_set_division+0x34>)
  400768:	6b13      	ldr	r3, [r2, #48]	; 0x30
  40076a:	f423 7340 	bic.w	r3, r3, #768	; 0x300
  40076e:	430b      	orrs	r3, r1
	PMC->PMC_MCKR =
  400770:	6313      	str	r3, [r2, #48]	; 0x30
	while (!(PMC->PMC_SR & PMC_SR_MCKRDY));
  400772:	6e93      	ldr	r3, [r2, #104]	; 0x68
  400774:	f013 0f08 	tst.w	r3, #8
  400778:	d0fb      	beq.n	400772 <pmc_mck_set_division+0x1e>
}
  40077a:	4770      	bx	lr
			ul_div = PMC_MCKR_MDIV_PCK_DIV3;
  40077c:	f44f 7140 	mov.w	r1, #768	; 0x300
			break;
  400780:	e7f1      	b.n	400766 <pmc_mck_set_division+0x12>
			ul_div = PMC_MCKR_MDIV_PCK_DIV4;
  400782:	f44f 7100 	mov.w	r1, #512	; 0x200
			break;
  400786:	e7ee      	b.n	400766 <pmc_mck_set_division+0x12>
  400788:	400e0600 	.word	0x400e0600

0040078c <pmc_switch_mck_to_pllack>:
 */
uint32_t pmc_switch_mck_to_pllack(uint32_t ul_pres)
{
	uint32_t ul_timeout;

	PMC->PMC_MCKR = (PMC->PMC_MCKR & (~PMC_MCKR_PRES_Msk)) | ul_pres;
  40078c:	4a17      	ldr	r2, [pc, #92]	; (4007ec <pmc_switch_mck_to_pllack+0x60>)
  40078e:	6b13      	ldr	r3, [r2, #48]	; 0x30
  400790:	f023 0370 	bic.w	r3, r3, #112	; 0x70
  400794:	4318      	orrs	r0, r3
  400796:	6310      	str	r0, [r2, #48]	; 0x30
	for (ul_timeout = PMC_TIMEOUT; !(PMC->PMC_SR & PMC_SR_MCKRDY);
  400798:	6e93      	ldr	r3, [r2, #104]	; 0x68
  40079a:	f013 0f08 	tst.w	r3, #8
  40079e:	d10a      	bne.n	4007b6 <pmc_switch_mck_to_pllack+0x2a>
  4007a0:	f44f 5380 	mov.w	r3, #4096	; 0x1000
  4007a4:	4911      	ldr	r1, [pc, #68]	; (4007ec <pmc_switch_mck_to_pllack+0x60>)
  4007a6:	6e8a      	ldr	r2, [r1, #104]	; 0x68
  4007a8:	f012 0f08 	tst.w	r2, #8
  4007ac:	d103      	bne.n	4007b6 <pmc_switch_mck_to_pllack+0x2a>
			--ul_timeout) {
		if (ul_timeout == 0) {
  4007ae:	3b01      	subs	r3, #1
  4007b0:	d1f9      	bne.n	4007a6 <pmc_switch_mck_to_pllack+0x1a>
			return 1;
  4007b2:	2001      	movs	r0, #1
  4007b4:	4770      	bx	lr
		}
	}

	PMC->PMC_MCKR = (PMC->PMC_MCKR & (~PMC_MCKR_CSS_Msk)) |
  4007b6:	4a0d      	ldr	r2, [pc, #52]	; (4007ec <pmc_switch_mck_to_pllack+0x60>)
  4007b8:	6b13      	ldr	r3, [r2, #48]	; 0x30
  4007ba:	f023 0303 	bic.w	r3, r3, #3
  4007be:	f043 0302 	orr.w	r3, r3, #2
  4007c2:	6313      	str	r3, [r2, #48]	; 0x30
			PMC_MCKR_CSS_PLLA_CLK;

	for (ul_timeout = PMC_TIMEOUT; !(PMC->PMC_SR & PMC_SR_MCKRDY);
  4007c4:	6e93      	ldr	r3, [r2, #104]	; 0x68
  4007c6:	f013 0f08 	tst.w	r3, #8
  4007ca:	d10a      	bne.n	4007e2 <pmc_switch_mck_to_pllack+0x56>
  4007cc:	f44f 5380 	mov.w	r3, #4096	; 0x1000
  4007d0:	4906      	ldr	r1, [pc, #24]	; (4007ec <pmc_switch_mck_to_pllack+0x60>)
  4007d2:	6e8a      	ldr	r2, [r1, #104]	; 0x68
  4007d4:	f012 0f08 	tst.w	r2, #8
  4007d8:	d105      	bne.n	4007e6 <pmc_switch_mck_to_pllack+0x5a>
			--ul_timeout) {
		if (ul_timeout == 0) {
  4007da:	3b01      	subs	r3, #1
  4007dc:	d1f9      	bne.n	4007d2 <pmc_switch_mck_to_pllack+0x46>
			return 1;
  4007de:	2001      	movs	r0, #1
		}
	}

	return 0;
}
  4007e0:	4770      	bx	lr
	return 0;
  4007e2:	2000      	movs	r0, #0
  4007e4:	4770      	bx	lr
  4007e6:	2000      	movs	r0, #0
  4007e8:	4770      	bx	lr
  4007ea:	bf00      	nop
  4007ec:	400e0600 	.word	0x400e0600

004007f0 <pmc_switch_mainck_to_xtal>:
 */
void pmc_switch_mainck_to_xtal(uint32_t ul_bypass,
		uint32_t ul_xtal_startup_time)
{
	/* Enable Main Xtal oscillator */
	if (ul_bypass) {
  4007f0:	b9a0      	cbnz	r0, 40081c <pmc_switch_mainck_to_xtal+0x2c>
		PMC->CKGR_MOR = (PMC->CKGR_MOR & ~CKGR_MOR_MOSCXTEN) |
				CKGR_MOR_KEY_PASSWD | CKGR_MOR_MOSCXTBY |
				CKGR_MOR_MOSCSEL;
	} else {
		PMC->CKGR_MOR = (PMC->CKGR_MOR & ~CKGR_MOR_MOSCXTBY) |
  4007f2:	480e      	ldr	r0, [pc, #56]	; (40082c <pmc_switch_mainck_to_xtal+0x3c>)
  4007f4:	6a03      	ldr	r3, [r0, #32]
				CKGR_MOR_KEY_PASSWD | CKGR_MOR_MOSCXTEN |
				CKGR_MOR_MOSCXTST(ul_xtal_startup_time);
  4007f6:	0209      	lsls	r1, r1, #8
  4007f8:	b289      	uxth	r1, r1
				CKGR_MOR_KEY_PASSWD | CKGR_MOR_MOSCXTEN |
  4007fa:	4a0d      	ldr	r2, [pc, #52]	; (400830 <pmc_switch_mainck_to_xtal+0x40>)
  4007fc:	401a      	ands	r2, r3
  4007fe:	4b0d      	ldr	r3, [pc, #52]	; (400834 <pmc_switch_mainck_to_xtal+0x44>)
  400800:	4313      	orrs	r3, r2
  400802:	4319      	orrs	r1, r3
		PMC->CKGR_MOR = (PMC->CKGR_MOR & ~CKGR_MOR_MOSCXTBY) |
  400804:	6201      	str	r1, [r0, #32]
		/* Wait the Xtal to stabilize */
		while (!(PMC->PMC_SR & PMC_SR_MOSCXTS));
  400806:	4602      	mov	r2, r0
  400808:	6e93      	ldr	r3, [r2, #104]	; 0x68
  40080a:	f013 0f01 	tst.w	r3, #1
  40080e:	d0fb      	beq.n	400808 <pmc_switch_mainck_to_xtal+0x18>

		PMC->CKGR_MOR |= CKGR_MOR_KEY_PASSWD | CKGR_MOR_MOSCSEL;
  400810:	4a06      	ldr	r2, [pc, #24]	; (40082c <pmc_switch_mainck_to_xtal+0x3c>)
  400812:	6a11      	ldr	r1, [r2, #32]
  400814:	4b08      	ldr	r3, [pc, #32]	; (400838 <pmc_switch_mainck_to_xtal+0x48>)
  400816:	430b      	orrs	r3, r1
  400818:	6213      	str	r3, [r2, #32]
  40081a:	4770      	bx	lr
		PMC->CKGR_MOR = (PMC->CKGR_MOR & ~CKGR_MOR_MOSCXTEN) |
  40081c:	4903      	ldr	r1, [pc, #12]	; (40082c <pmc_switch_mainck_to_xtal+0x3c>)
  40081e:	6a0b      	ldr	r3, [r1, #32]
				CKGR_MOR_KEY_PASSWD | CKGR_MOR_MOSCXTBY |
  400820:	4a06      	ldr	r2, [pc, #24]	; (40083c <pmc_switch_mainck_to_xtal+0x4c>)
  400822:	401a      	ands	r2, r3
  400824:	4b06      	ldr	r3, [pc, #24]	; (400840 <pmc_switch_mainck_to_xtal+0x50>)
  400826:	4313      	orrs	r3, r2
		PMC->CKGR_MOR = (PMC->CKGR_MOR & ~CKGR_MOR_MOSCXTEN) |
  400828:	620b      	str	r3, [r1, #32]
  40082a:	4770      	bx	lr
  40082c:	400e0600 	.word	0x400e0600
  400830:	ffc8fffc 	.word	0xffc8fffc
  400834:	00370001 	.word	0x00370001
  400838:	01370000 	.word	0x01370000
  40083c:	fec8fffc 	.word	0xfec8fffc
  400840:	01370002 	.word	0x01370002

00400844 <pmc_osc_is_ready_mainck>:
 * \retval 1 Xtal is ready.
 * \retval 0 Xtal is not ready.
 */
uint32_t pmc_osc_is_ready_mainck(void)
{
	return PMC->PMC_SR & PMC_SR_MOSCSELS;
  400844:	4b02      	ldr	r3, [pc, #8]	; (400850 <pmc_osc_is_ready_mainck+0xc>)
  400846:	6e98      	ldr	r0, [r3, #104]	; 0x68
}
  400848:	f400 3080 	and.w	r0, r0, #65536	; 0x10000
  40084c:	4770      	bx	lr
  40084e:	bf00      	nop
  400850:	400e0600 	.word	0x400e0600

00400854 <pmc_disable_pllack>:
void pmc_disable_pllack(void)
{
#if (SAM4C || SAM4CM || SAM4CP || SAMG)
	PMC->CKGR_PLLAR = CKGR_PLLAR_MULA(0);
#else
	PMC->CKGR_PLLAR = CKGR_PLLAR_ONE | CKGR_PLLAR_MULA(0);
  400854:	f04f 5200 	mov.w	r2, #536870912	; 0x20000000
  400858:	4b01      	ldr	r3, [pc, #4]	; (400860 <pmc_disable_pllack+0xc>)
  40085a:	629a      	str	r2, [r3, #40]	; 0x28
  40085c:	4770      	bx	lr
  40085e:	bf00      	nop
  400860:	400e0600 	.word	0x400e0600

00400864 <pmc_is_locked_pllack>:
 * \retval 0 Not locked.
 * \retval 1 Locked.
 */
uint32_t pmc_is_locked_pllack(void)
{
	return (PMC->PMC_SR & PMC_SR_LOCKA);
  400864:	4b02      	ldr	r3, [pc, #8]	; (400870 <pmc_is_locked_pllack+0xc>)
  400866:	6e98      	ldr	r0, [r3, #104]	; 0x68
}
  400868:	f000 0002 	and.w	r0, r0, #2
  40086c:	4770      	bx	lr
  40086e:	bf00      	nop
  400870:	400e0600 	.word	0x400e0600

00400874 <pmc_enable_periph_clk>:
 * \retval 0 Success.
 * \retval 1 Invalid parameter.
 */
uint32_t pmc_enable_periph_clk(uint32_t ul_id)
{
	if (ul_id > MAX_PERIPH_ID) {
  400874:	283f      	cmp	r0, #63	; 0x3f
  400876:	d81e      	bhi.n	4008b6 <pmc_enable_periph_clk+0x42>
		return 1;
	}

	if (ul_id < 32) {
  400878:	281f      	cmp	r0, #31
  40087a:	d80c      	bhi.n	400896 <pmc_enable_periph_clk+0x22>
		if ((PMC->PMC_PCSR0 & (1u << ul_id)) != (1u << ul_id)) {
  40087c:	4b11      	ldr	r3, [pc, #68]	; (4008c4 <pmc_enable_periph_clk+0x50>)
  40087e:	699a      	ldr	r2, [r3, #24]
  400880:	2301      	movs	r3, #1
  400882:	4083      	lsls	r3, r0
  400884:	4393      	bics	r3, r2
  400886:	d018      	beq.n	4008ba <pmc_enable_periph_clk+0x46>
			PMC->PMC_PCER0 = 1 << ul_id;
  400888:	2301      	movs	r3, #1
  40088a:	fa03 f000 	lsl.w	r0, r3, r0
  40088e:	4b0d      	ldr	r3, [pc, #52]	; (4008c4 <pmc_enable_periph_clk+0x50>)
  400890:	6118      	str	r0, [r3, #16]
			PMC->PMC_PCER1 = 1 << ul_id;
		}
#endif
	}

	return 0;
  400892:	2000      	movs	r0, #0
  400894:	4770      	bx	lr
		ul_id -= 32;
  400896:	3820      	subs	r0, #32
		if ((PMC->PMC_PCSR1 & (1u << ul_id)) != (1u << ul_id)) {
  400898:	4b0a      	ldr	r3, [pc, #40]	; (4008c4 <pmc_enable_periph_clk+0x50>)
  40089a:	f8d3 2108 	ldr.w	r2, [r3, #264]	; 0x108
  40089e:	2301      	movs	r3, #1
  4008a0:	4083      	lsls	r3, r0
  4008a2:	4393      	bics	r3, r2
  4008a4:	d00b      	beq.n	4008be <pmc_enable_periph_clk+0x4a>
			PMC->PMC_PCER1 = 1 << ul_id;
  4008a6:	2301      	movs	r3, #1
  4008a8:	fa03 f000 	lsl.w	r0, r3, r0
  4008ac:	4b05      	ldr	r3, [pc, #20]	; (4008c4 <pmc_enable_periph_clk+0x50>)
  4008ae:	f8c3 0100 	str.w	r0, [r3, #256]	; 0x100
	return 0;
  4008b2:	2000      	movs	r0, #0
  4008b4:	4770      	bx	lr
		return 1;
  4008b6:	2001      	movs	r0, #1
  4008b8:	4770      	bx	lr
	return 0;
  4008ba:	2000      	movs	r0, #0
  4008bc:	4770      	bx	lr
  4008be:	2000      	movs	r0, #0
}
  4008c0:	4770      	bx	lr
  4008c2:	bf00      	nop
  4008c4:	400e0600 	.word	0x400e0600

004008c8 <pmc_set_flash_in_wait_mode>:
 *
 * \param ul_flash_state PMC_WAIT_MODE_FLASH_STANDBY flash in standby mode,
 * PMC_WAIT_MODE_FLASH_DEEP_POWERDOWN flash in deep power down mode.
 */
void pmc_set_flash_in_wait_mode(uint32_t ul_flash_state)
{
  4008c8:	4770      	bx	lr
	...

004008cc <pmc_enable_waitmode>:
void pmc_enable_waitmode(void)
{
	uint32_t i;

	/* Flash in wait mode */
	i = PMC->PMC_FSMR;
  4008cc:	4a10      	ldr	r2, [pc, #64]	; (400910 <pmc_enable_waitmode+0x44>)
  4008ce:	6f13      	ldr	r3, [r2, #112]	; 0x70
	i &= ~PMC_FSMR_FLPM_Msk;
  4008d0:	f423 03c0 	bic.w	r3, r3, #6291456	; 0x600000
#if !(SAMV71 || SAMV70 || SAME70 || SAMS70)
	i |= ul_flash_in_wait_mode;
#else
	i |= PMC_WAIT_MODE_FLASH_IDLE;
  4008d4:	f443 0380 	orr.w	r3, r3, #4194304	; 0x400000
#endif
	PMC->PMC_FSMR = i;
  4008d8:	6713      	str	r3, [r2, #112]	; 0x70

	/* Set the WAITMODE bit = 1 */
	PMC->CKGR_MOR |= CKGR_MOR_KEY_PASSWD | CKGR_MOR_WAITMODE;
  4008da:	6a11      	ldr	r1, [r2, #32]
  4008dc:	4b0d      	ldr	r3, [pc, #52]	; (400914 <pmc_enable_waitmode+0x48>)
  4008de:	430b      	orrs	r3, r1
  4008e0:	6213      	str	r3, [r2, #32]

	/* Waiting for Master Clock Ready MCKRDY = 1 */
	while (!(PMC->PMC_SR & PMC_SR_MCKRDY));
  4008e2:	6e93      	ldr	r3, [r2, #104]	; 0x68
  4008e4:	f013 0f08 	tst.w	r3, #8
  4008e8:	d0fb      	beq.n	4008e2 <pmc_enable_waitmode+0x16>
  4008ea:	f44f 73fa 	mov.w	r3, #500	; 0x1f4
  __ASM volatile ("nop");
  4008ee:	bf00      	nop

	/* Waiting for MOSCRCEN bit cleared is strongly recommended
	 * to ensure that the core will not execute undesired instructions
	 */
	for (i = 0; i < 500; i++) {
  4008f0:	3b01      	subs	r3, #1
  4008f2:	d1fc      	bne.n	4008ee <pmc_enable_waitmode+0x22>
		__NOP();
	}
	while (!(PMC->CKGR_MOR & CKGR_MOR_MOSCRCEN));
  4008f4:	4a06      	ldr	r2, [pc, #24]	; (400910 <pmc_enable_waitmode+0x44>)
  4008f6:	6a13      	ldr	r3, [r2, #32]
  4008f8:	f013 0f08 	tst.w	r3, #8
  4008fc:	d0fb      	beq.n	4008f6 <pmc_enable_waitmode+0x2a>

#if (!SAMG)
	/* Restore Flash in idle mode */
	i = PMC->PMC_FSMR;
  4008fe:	4a04      	ldr	r2, [pc, #16]	; (400910 <pmc_enable_waitmode+0x44>)
  400900:	6f13      	ldr	r3, [r2, #112]	; 0x70
	i &= ~PMC_FSMR_FLPM_Msk;
  400902:	f423 03c0 	bic.w	r3, r3, #6291456	; 0x600000
	i |= PMC_WAIT_MODE_FLASH_IDLE;
  400906:	f443 0380 	orr.w	r3, r3, #4194304	; 0x400000
	PMC->PMC_FSMR = i;
  40090a:	6713      	str	r3, [r2, #112]	; 0x70
  40090c:	4770      	bx	lr
  40090e:	bf00      	nop
  400910:	400e0600 	.word	0x400e0600
  400914:	00370004 	.word	0x00370004

00400918 <pmc_sleep>:
static volatile bool b_is_sleep_clock_used = false;
/** Callback invoked once when clocks are restored */
static pmc_callback_wakeup_clocks_restored_t callback_clocks_restored = NULL;

void pmc_sleep(int sleep_mode)
{
  400918:	e92d 43f8 	stmdb	sp!, {r3, r4, r5, r6, r7, r8, r9, lr}
	switch (sleep_mode) {
  40091c:	1e43      	subs	r3, r0, #1
  40091e:	2b04      	cmp	r3, #4
  400920:	f200 8107 	bhi.w	400b32 <pmc_sleep+0x21a>
  400924:	e8df f013 	tbh	[pc, r3, lsl #1]
  400928:	00050005 	.word	0x00050005
  40092c:	00150015 	.word	0x00150015
  400930:	00f6      	.short	0x00f6
	case SAM_PM_SMODE_SLEEP_WFI:
	case SAM_PM_SMODE_SLEEP_WFE:
#if (SAM4S || SAM4E || SAM4N || SAM4C || SAM4CM || SAM4CP || SAMG || SAMV71 || SAMV70 || SAMS70 || SAME70)
		SCB->SCR &= (uint32_t)~SCR_SLEEPDEEP;
  400932:	4a81      	ldr	r2, [pc, #516]	; (400b38 <pmc_sleep+0x220>)
  400934:	6913      	ldr	r3, [r2, #16]
  400936:	f023 0304 	bic.w	r3, r3, #4
  40093a:	6113      	str	r3, [r2, #16]
		cpu_irq_enable();
  40093c:	2201      	movs	r2, #1
  40093e:	4b7f      	ldr	r3, [pc, #508]	; (400b3c <pmc_sleep+0x224>)
  400940:	701a      	strb	r2, [r3, #0]
  __ASM volatile ("dmb");
  400942:	f3bf 8f5f 	dmb	sy
  This function enables IRQ interrupts by clearing the I-bit in the CPSR.
  Can only be executed in Privileged modes.
 */
__attribute__( ( always_inline ) ) __STATIC_INLINE void __enable_irq(void)
{
  __ASM volatile ("cpsie i" : : : "memory");
  400946:	b662      	cpsie	i
  __ASM volatile ("dsb");
  400948:	f3bf 8f4f 	dsb	sy
  __ASM volatile ("wfi");
  40094c:	bf30      	wfi
  40094e:	e8bd 83f8 	ldmia.w	sp!, {r3, r4, r5, r6, r7, r8, r9, pc}
  400952:	4604      	mov	r4, r0
#if defined(EFC1)
		uint32_t fmr1;
#endif
#if (SAM4S || SAM4E || SAM4N || SAM4C || SAM4CM || SAM4CP || SAMG || SAMV71 || SAMV70 || SAMS70 || SAME70)
		(sleep_mode == SAM_PM_SMODE_WAIT_FAST) ?
				pmc_set_flash_in_wait_mode(PMC_FSMR_FLPM_FLASH_STANDBY) :
  400954:	2803      	cmp	r0, #3
  400956:	bf0c      	ite	eq
  400958:	2000      	moveq	r0, #0
				pmc_set_flash_in_wait_mode(PMC_FSMR_FLPM_FLASH_DEEP_POWERDOWN);
  40095a:	f44f 1000 	movne.w	r0, #2097152	; 0x200000
  40095e:	4b78      	ldr	r3, [pc, #480]	; (400b40 <pmc_sleep+0x228>)
  400960:	4798      	blx	r3
  This function disables IRQ interrupts by setting the I-bit in the CPSR.
  Can only be executed in Privileged modes.
 */
__attribute__( ( always_inline ) ) __STATIC_INLINE void __disable_irq(void)
{
  __ASM volatile ("cpsid i" : : : "memory");
  400962:	b672      	cpsid	i
  __ASM volatile ("dmb");
  400964:	f3bf 8f5f 	dmb	sy
#endif
		cpu_irq_disable();
  400968:	2200      	movs	r2, #0
  40096a:	4b74      	ldr	r3, [pc, #464]	; (400b3c <pmc_sleep+0x224>)
  40096c:	701a      	strb	r2, [r3, #0]
		b_is_sleep_clock_used = true;
  40096e:	2201      	movs	r2, #1
  400970:	4b74      	ldr	r3, [pc, #464]	; (400b44 <pmc_sleep+0x22c>)
  400972:	701a      	strb	r2, [r3, #0]
	uint32_t mor  = PMC->CKGR_MOR;
  400974:	4b74      	ldr	r3, [pc, #464]	; (400b48 <pmc_sleep+0x230>)
  400976:	6a1f      	ldr	r7, [r3, #32]
	uint32_t mckr = PMC->PMC_MCKR;
  400978:	6b1d      	ldr	r5, [r3, #48]	; 0x30
	uint32_t fmr  = EFC0->EEFC_FMR;
  40097a:	4a74      	ldr	r2, [pc, #464]	; (400b4c <pmc_sleep+0x234>)
  40097c:	f8d2 8000 	ldr.w	r8, [r2]
		*p_pll0_setting = PMC->CKGR_PLLAR;
  400980:	6a9e      	ldr	r6, [r3, #40]	; 0x28
	PMC->CKGR_MOR = CKGR_MOR_KEY_PASSWD | mor | CKGR_MOR_MOSCRCEN;
  400982:	4a73      	ldr	r2, [pc, #460]	; (400b50 <pmc_sleep+0x238>)
  400984:	433a      	orrs	r2, r7
  400986:	621a      	str	r2, [r3, #32]
	if ((mckr & PMC_MCKR_CSS_Msk) > PMC_MCKR_CSS_MAIN_CLK) {
  400988:	f005 0903 	and.w	r9, r5, #3
  40098c:	f1b9 0f01 	cmp.w	r9, #1
  400990:	f240 8089 	bls.w	400aa6 <pmc_sleep+0x18e>
		mckr = (mckr & (~PMC_MCKR_CSS_Msk)) | PMC_MCKR_CSS_MAIN_CLK;
  400994:	f025 0103 	bic.w	r1, r5, #3
  400998:	f041 0101 	orr.w	r1, r1, #1
		PMC->PMC_MCKR = mckr;
  40099c:	6319      	str	r1, [r3, #48]	; 0x30
		while(!(PMC->PMC_SR & PMC_SR_MCKRDY));
  40099e:	461a      	mov	r2, r3
  4009a0:	6e93      	ldr	r3, [r2, #104]	; 0x68
  4009a2:	f013 0f08 	tst.w	r3, #8
  4009a6:	d0fb      	beq.n	4009a0 <pmc_sleep+0x88>
	if (mckr & PMC_MCKR_PRES_Msk) {
  4009a8:	f011 0f70 	tst.w	r1, #112	; 0x70
  4009ac:	d008      	beq.n	4009c0 <pmc_sleep+0xa8>
		mckr = (mckr & (~PMC_MCKR_PRES_Msk));
  4009ae:	f021 0170 	bic.w	r1, r1, #112	; 0x70
		PMC->PMC_MCKR = mckr;
  4009b2:	4b65      	ldr	r3, [pc, #404]	; (400b48 <pmc_sleep+0x230>)
  4009b4:	6319      	str	r1, [r3, #48]	; 0x30
		while(!(PMC->PMC_SR & PMC_SR_MCKRDY));
  4009b6:	461a      	mov	r2, r3
  4009b8:	6e93      	ldr	r3, [r2, #104]	; 0x68
  4009ba:	f013 0f08 	tst.w	r3, #8
  4009be:	d0fb      	beq.n	4009b8 <pmc_sleep+0xa0>
	pmc_disable_pllack();
  4009c0:	4b64      	ldr	r3, [pc, #400]	; (400b54 <pmc_sleep+0x23c>)
  4009c2:	4798      	blx	r3
	while (!(PMC->PMC_SR & PMC_SR_MOSCRCS));
  4009c4:	4a60      	ldr	r2, [pc, #384]	; (400b48 <pmc_sleep+0x230>)
  4009c6:	6e93      	ldr	r3, [r2, #104]	; 0x68
  4009c8:	f413 3f00 	tst.w	r3, #131072	; 0x20000
  4009cc:	d0fb      	beq.n	4009c6 <pmc_sleep+0xae>
	PMC->CKGR_MOR = (PMC->CKGR_MOR & ~CKGR_MOR_MOSCSEL) |
  4009ce:	4a5e      	ldr	r2, [pc, #376]	; (400b48 <pmc_sleep+0x230>)
  4009d0:	6a11      	ldr	r1, [r2, #32]
  4009d2:	4b61      	ldr	r3, [pc, #388]	; (400b58 <pmc_sleep+0x240>)
  4009d4:	400b      	ands	r3, r1
  4009d6:	f443 135c 	orr.w	r3, r3, #3604480	; 0x370000
  4009da:	6213      	str	r3, [r2, #32]
	while (!(PMC->PMC_SR & PMC_SR_MOSCSELS));
  4009dc:	6e93      	ldr	r3, [r2, #104]	; 0x68
  4009de:	f413 3f80 	tst.w	r3, #65536	; 0x10000
  4009e2:	d0fb      	beq.n	4009dc <pmc_sleep+0xc4>
	EFC0->EEFC_FMR = fmr & (~EEFC_FMR_FWS_Msk);
  4009e4:	f428 6370 	bic.w	r3, r8, #3840	; 0xf00
  4009e8:	4a58      	ldr	r2, [pc, #352]	; (400b4c <pmc_sleep+0x234>)
  4009ea:	6013      	str	r3, [r2, #0]
	if (disable_xtal) {
  4009ec:	2c04      	cmp	r4, #4
  4009ee:	d05c      	beq.n	400aaa <pmc_sleep+0x192>
				&fmr1,
#endif
				(sleep_mode == SAM_PM_SMODE_WAIT));

		/* Enter wait mode */
		cpu_irq_enable();
  4009f0:	4c52      	ldr	r4, [pc, #328]	; (400b3c <pmc_sleep+0x224>)
  4009f2:	2301      	movs	r3, #1
  4009f4:	7023      	strb	r3, [r4, #0]
  4009f6:	f3bf 8f5f 	dmb	sy
  __ASM volatile ("cpsie i" : : : "memory");
  4009fa:	b662      	cpsie	i

		pmc_enable_waitmode();
  4009fc:	4b57      	ldr	r3, [pc, #348]	; (400b5c <pmc_sleep+0x244>)
  4009fe:	4798      	blx	r3
  __ASM volatile ("cpsid i" : : : "memory");
  400a00:	b672      	cpsid	i
  400a02:	f3bf 8f5f 	dmb	sy

		cpu_irq_disable();
  400a06:	2300      	movs	r3, #0
  400a08:	7023      	strb	r3, [r4, #0]
	if (CKGR_MOR_MOSCXTBY == (osc_setting & CKGR_MOR_MOSCXTBY)) {
  400a0a:	f017 0f02 	tst.w	r7, #2
  400a0e:	d055      	beq.n	400abc <pmc_sleep+0x1a4>
		PMC->CKGR_MOR = (PMC->CKGR_MOR & ~CKGR_MOR_MOSCXTEN) |
  400a10:	4a4d      	ldr	r2, [pc, #308]	; (400b48 <pmc_sleep+0x230>)
  400a12:	6a13      	ldr	r3, [r2, #32]
				CKGR_MOR_KEY_PASSWD | CKGR_MOR_MOSCXTBY |
  400a14:	4952      	ldr	r1, [pc, #328]	; (400b60 <pmc_sleep+0x248>)
  400a16:	4019      	ands	r1, r3
  400a18:	4b52      	ldr	r3, [pc, #328]	; (400b64 <pmc_sleep+0x24c>)
  400a1a:	430b      	orrs	r3, r1
		PMC->CKGR_MOR = (PMC->CKGR_MOR & ~CKGR_MOR_MOSCXTEN) |
  400a1c:	6213      	str	r3, [r2, #32]
		PMC->CKGR_MOR = (PMC->CKGR_MOR & ~CKGR_MOR_MOSCRCEN &
  400a1e:	6a11      	ldr	r1, [r2, #32]
				| CKGR_MOR_KEY_PASSWD;
  400a20:	4b51      	ldr	r3, [pc, #324]	; (400b68 <pmc_sleep+0x250>)
  400a22:	400b      	ands	r3, r1
  400a24:	f443 135c 	orr.w	r3, r3, #3604480	; 0x370000
		PMC->CKGR_MOR = (PMC->CKGR_MOR & ~CKGR_MOR_MOSCRCEN &
  400a28:	6213      	str	r3, [r2, #32]
	if (pll0_setting & CKGR_PLLAR_MULA_Msk) {
  400a2a:	4b50      	ldr	r3, [pc, #320]	; (400b6c <pmc_sleep+0x254>)
  400a2c:	4033      	ands	r3, r6
  400a2e:	2b00      	cmp	r3, #0
  400a30:	d06e      	beq.n	400b10 <pmc_sleep+0x1f8>
		PMC->CKGR_PLLAR = CKGR_PLLAR_ONE | pll0_setting;
  400a32:	f046 5600 	orr.w	r6, r6, #536870912	; 0x20000000
  400a36:	4b44      	ldr	r3, [pc, #272]	; (400b48 <pmc_sleep+0x230>)
  400a38:	629e      	str	r6, [r3, #40]	; 0x28
		pll_sr |= PMC_SR_LOCKA;
  400a3a:	2102      	movs	r1, #2
	switch(mck_setting & PMC_MCKR_CSS_Msk) {
  400a3c:	f1b9 0f02 	cmp.w	r9, #2
  400a40:	d104      	bne.n	400a4c <pmc_sleep+0x134>
		while (!(PMC->PMC_SR & PMC_SR_LOCKA));
  400a42:	4a41      	ldr	r2, [pc, #260]	; (400b48 <pmc_sleep+0x230>)
  400a44:	6e93      	ldr	r3, [r2, #104]	; 0x68
  400a46:	f013 0f02 	tst.w	r3, #2
  400a4a:	d0fb      	beq.n	400a44 <pmc_sleep+0x12c>
	mckr = PMC->PMC_MCKR;
  400a4c:	4a3e      	ldr	r2, [pc, #248]	; (400b48 <pmc_sleep+0x230>)
  400a4e:	6b13      	ldr	r3, [r2, #48]	; 0x30
	PMC->PMC_MCKR = (mckr & ~PMC_MCKR_PRES_Msk)
  400a50:	f023 0370 	bic.w	r3, r3, #112	; 0x70
		| (mck_setting & PMC_MCKR_PRES_Msk);
  400a54:	f005 0070 	and.w	r0, r5, #112	; 0x70
  400a58:	4303      	orrs	r3, r0
	PMC->PMC_MCKR = (mckr & ~PMC_MCKR_PRES_Msk)
  400a5a:	6313      	str	r3, [r2, #48]	; 0x30
	while (!(PMC->PMC_SR & PMC_SR_MCKRDY));
  400a5c:	6e93      	ldr	r3, [r2, #104]	; 0x68
  400a5e:	f013 0f08 	tst.w	r3, #8
  400a62:	d0fb      	beq.n	400a5c <pmc_sleep+0x144>
	EFC0->EEFC_FMR = fmr_setting;
  400a64:	4b39      	ldr	r3, [pc, #228]	; (400b4c <pmc_sleep+0x234>)
  400a66:	f8c3 8000 	str.w	r8, [r3]
	PMC->PMC_MCKR = mck_setting;
  400a6a:	f5a3 63c0 	sub.w	r3, r3, #1536	; 0x600
  400a6e:	631d      	str	r5, [r3, #48]	; 0x30
	while (!(PMC->PMC_SR & PMC_SR_MCKRDY));
  400a70:	461a      	mov	r2, r3
  400a72:	6e93      	ldr	r3, [r2, #104]	; 0x68
  400a74:	f013 0f08 	tst.w	r3, #8
  400a78:	d0fb      	beq.n	400a72 <pmc_sleep+0x15a>
	while (!(PMC->PMC_SR & pll_sr));
  400a7a:	4a33      	ldr	r2, [pc, #204]	; (400b48 <pmc_sleep+0x230>)
  400a7c:	6e93      	ldr	r3, [r2, #104]	; 0x68
  400a7e:	420b      	tst	r3, r1
  400a80:	d0fc      	beq.n	400a7c <pmc_sleep+0x164>

#if (SAM4C || SAM4CM || SAM4CP)
		/* Restore the sub-system 1 */
		PMC->PMC_SCER = cpclk_backup | PMC_SCER_CPKEY_PASSWD;
#endif
		b_is_sleep_clock_used = false;
  400a82:	2200      	movs	r2, #0
  400a84:	4b2f      	ldr	r3, [pc, #188]	; (400b44 <pmc_sleep+0x22c>)
  400a86:	701a      	strb	r2, [r3, #0]
		if (callback_clocks_restored) {
  400a88:	4b39      	ldr	r3, [pc, #228]	; (400b70 <pmc_sleep+0x258>)
  400a8a:	681b      	ldr	r3, [r3, #0]
  400a8c:	b11b      	cbz	r3, 400a96 <pmc_sleep+0x17e>
			callback_clocks_restored();
  400a8e:	4798      	blx	r3
			callback_clocks_restored = NULL;
  400a90:	2200      	movs	r2, #0
  400a92:	4b37      	ldr	r3, [pc, #220]	; (400b70 <pmc_sleep+0x258>)
  400a94:	601a      	str	r2, [r3, #0]
		}
		cpu_irq_enable();
  400a96:	2201      	movs	r2, #1
  400a98:	4b28      	ldr	r3, [pc, #160]	; (400b3c <pmc_sleep+0x224>)
  400a9a:	701a      	strb	r2, [r3, #0]
  400a9c:	f3bf 8f5f 	dmb	sy
  __ASM volatile ("cpsie i" : : : "memory");
  400aa0:	b662      	cpsie	i
  400aa2:	e8bd 83f8 	ldmia.w	sp!, {r3, r4, r5, r6, r7, r8, r9, pc}
	uint32_t mckr = PMC->PMC_MCKR;
  400aa6:	4629      	mov	r1, r5
  400aa8:	e77e      	b.n	4009a8 <pmc_sleep+0x90>
		PMC->CKGR_MOR = (PMC->CKGR_MOR & ~CKGR_MOR_MOSCXTEN) |
  400aaa:	f5a2 62c0 	sub.w	r2, r2, #1536	; 0x600
  400aae:	6a11      	ldr	r1, [r2, #32]
  400ab0:	4b30      	ldr	r3, [pc, #192]	; (400b74 <pmc_sleep+0x25c>)
  400ab2:	400b      	ands	r3, r1
  400ab4:	f443 135c 	orr.w	r3, r3, #3604480	; 0x370000
  400ab8:	6213      	str	r3, [r2, #32]
  400aba:	e799      	b.n	4009f0 <pmc_sleep+0xd8>
	} else if (CKGR_MOR_MOSCXTEN == (osc_setting & CKGR_MOR_MOSCXTEN)) {
  400abc:	f017 0f01 	tst.w	r7, #1
  400ac0:	d0b3      	beq.n	400a2a <pmc_sleep+0x112>
		if (!(PMC->CKGR_MOR & CKGR_MOR_MOSCXTEN)) {
  400ac2:	4b21      	ldr	r3, [pc, #132]	; (400b48 <pmc_sleep+0x230>)
  400ac4:	6a1b      	ldr	r3, [r3, #32]
  400ac6:	f013 0f01 	tst.w	r3, #1
  400aca:	d10b      	bne.n	400ae4 <pmc_sleep+0x1cc>
			PMC->CKGR_MOR = (PMC->CKGR_MOR & ~CKGR_MOR_MOSCXTBY) |
  400acc:	491e      	ldr	r1, [pc, #120]	; (400b48 <pmc_sleep+0x230>)
  400ace:	6a0b      	ldr	r3, [r1, #32]
					CKGR_MOR_KEY_PASSWD | CKGR_MOR_MOSCXTEN;
  400ad0:	4a29      	ldr	r2, [pc, #164]	; (400b78 <pmc_sleep+0x260>)
  400ad2:	401a      	ands	r2, r3
  400ad4:	4b29      	ldr	r3, [pc, #164]	; (400b7c <pmc_sleep+0x264>)
  400ad6:	4313      	orrs	r3, r2
			PMC->CKGR_MOR = (PMC->CKGR_MOR & ~CKGR_MOR_MOSCXTBY) |
  400ad8:	620b      	str	r3, [r1, #32]
			while (!(PMC->PMC_SR & PMC_SR_MOSCXTS));
  400ada:	460a      	mov	r2, r1
  400adc:	6e93      	ldr	r3, [r2, #104]	; 0x68
  400ade:	f013 0f01 	tst.w	r3, #1
  400ae2:	d0fb      	beq.n	400adc <pmc_sleep+0x1c4>
		if (!(PMC->CKGR_MOR & CKGR_MOR_MOSCSEL)) {
  400ae4:	4b18      	ldr	r3, [pc, #96]	; (400b48 <pmc_sleep+0x230>)
  400ae6:	6a1b      	ldr	r3, [r3, #32]
  400ae8:	f013 7f80 	tst.w	r3, #16777216	; 0x1000000
  400aec:	d108      	bne.n	400b00 <pmc_sleep+0x1e8>
			PMC->CKGR_MOR |= CKGR_MOR_KEY_PASSWD | CKGR_MOR_MOSCSEL;
  400aee:	4a16      	ldr	r2, [pc, #88]	; (400b48 <pmc_sleep+0x230>)
  400af0:	6a11      	ldr	r1, [r2, #32]
  400af2:	4b23      	ldr	r3, [pc, #140]	; (400b80 <pmc_sleep+0x268>)
  400af4:	430b      	orrs	r3, r1
  400af6:	6213      	str	r3, [r2, #32]
			while (!(PMC->PMC_SR & PMC_SR_MOSCSELS));
  400af8:	6e93      	ldr	r3, [r2, #104]	; 0x68
  400afa:	f413 3f80 	tst.w	r3, #65536	; 0x10000
  400afe:	d0fb      	beq.n	400af8 <pmc_sleep+0x1e0>
		PMC->CKGR_MOR = (PMC->CKGR_MOR & ~CKGR_MOR_MOSCRCEN &
  400b00:	4a11      	ldr	r2, [pc, #68]	; (400b48 <pmc_sleep+0x230>)
  400b02:	6a11      	ldr	r1, [r2, #32]
					| CKGR_MOR_KEY_PASSWD;
  400b04:	4b18      	ldr	r3, [pc, #96]	; (400b68 <pmc_sleep+0x250>)
  400b06:	400b      	ands	r3, r1
  400b08:	f443 135c 	orr.w	r3, r3, #3604480	; 0x370000
		PMC->CKGR_MOR = (PMC->CKGR_MOR & ~CKGR_MOR_MOSCRCEN &
  400b0c:	6213      	str	r3, [r2, #32]
  400b0e:	e78c      	b.n	400a2a <pmc_sleep+0x112>
	uint32_t pll_sr = 0;
  400b10:	2100      	movs	r1, #0
  400b12:	e793      	b.n	400a3c <pmc_sleep+0x124>

		break;
	}
#if (!(SAMG51 || SAMG53 || SAMG54))
	case SAM_PM_SMODE_BACKUP:
		SCB->SCR |= SCR_SLEEPDEEP;
  400b14:	4a08      	ldr	r2, [pc, #32]	; (400b38 <pmc_sleep+0x220>)
  400b16:	6913      	ldr	r3, [r2, #16]
  400b18:	f043 0304 	orr.w	r3, r3, #4
  400b1c:	6113      	str	r3, [r2, #16]
#if (SAM4S || SAM4E || SAM4N || SAM4C || SAM4CM || SAM4CP || SAMG55 || SAMV71 || SAMV70 || SAMS70 || SAME70)
		SUPC->SUPC_CR = SUPC_CR_KEY_PASSWD | SUPC_CR_VROFF_STOP_VREG;
  400b1e:	4a19      	ldr	r2, [pc, #100]	; (400b84 <pmc_sleep+0x26c>)
  400b20:	4b19      	ldr	r3, [pc, #100]	; (400b88 <pmc_sleep+0x270>)
  400b22:	601a      	str	r2, [r3, #0]
		cpu_irq_enable();
  400b24:	2201      	movs	r2, #1
  400b26:	4b05      	ldr	r3, [pc, #20]	; (400b3c <pmc_sleep+0x224>)
  400b28:	701a      	strb	r2, [r3, #0]
  400b2a:	f3bf 8f5f 	dmb	sy
  400b2e:	b662      	cpsie	i
  __ASM volatile ("wfi");
  400b30:	bf30      	wfi
  400b32:	e8bd 83f8 	ldmia.w	sp!, {r3, r4, r5, r6, r7, r8, r9, pc}
  400b36:	bf00      	nop
  400b38:	e000ed00 	.word	0xe000ed00
  400b3c:	20400000 	.word	0x20400000
  400b40:	004008c9 	.word	0x004008c9
  400b44:	20400a48 	.word	0x20400a48
  400b48:	400e0600 	.word	0x400e0600
  400b4c:	400e0c00 	.word	0x400e0c00
  400b50:	00370008 	.word	0x00370008
  400b54:	00400855 	.word	0x00400855
  400b58:	fec8ffff 	.word	0xfec8ffff
  400b5c:	004008cd 	.word	0x004008cd
  400b60:	fec8fffc 	.word	0xfec8fffc
  400b64:	01370002 	.word	0x01370002
  400b68:	ffc8ff87 	.word	0xffc8ff87
  400b6c:	07ff0000 	.word	0x07ff0000
  400b70:	20400a4c 	.word	0x20400a4c
  400b74:	ffc8fffe 	.word	0xffc8fffe
  400b78:	ffc8fffc 	.word	0xffc8fffc
  400b7c:	00370001 	.word	0x00370001
  400b80:	01370000 	.word	0x01370000
  400b84:	a5000004 	.word	0xa5000004
  400b88:	400e1810 	.word	0x400e1810

00400b8c <uart_write>:
 * \retval 1 I/O Failure, UART is not ready.
 */
uint32_t uart_write(Uart *p_uart, const uint8_t uc_data)
{
	/* Check if the transmitter is ready */
	if (!(p_uart->UART_SR & UART_SR_TXRDY))
  400b8c:	6943      	ldr	r3, [r0, #20]
  400b8e:	f013 0f02 	tst.w	r3, #2
  400b92:	d002      	beq.n	400b9a <uart_write+0xe>
		return 1;

	/* Send character */
	p_uart->UART_THR = uc_data;
  400b94:	61c1      	str	r1, [r0, #28]
	return 0;
  400b96:	2000      	movs	r0, #0
  400b98:	4770      	bx	lr
		return 1;
  400b9a:	2001      	movs	r0, #1
}
  400b9c:	4770      	bx	lr

00400b9e <uart_read>:
 * \retval 1 I/O Failure, UART is not ready.
 */
uint32_t uart_read(Uart *p_uart, uint8_t *puc_data)
{
	/* Check if the receiver is ready */
	if ((p_uart->UART_SR & UART_SR_RXRDY) == 0)
  400b9e:	6943      	ldr	r3, [r0, #20]
  400ba0:	f013 0f01 	tst.w	r3, #1
  400ba4:	d003      	beq.n	400bae <uart_read+0x10>
		return 1;

	/* Read character */
	*puc_data = (uint8_t) p_uart->UART_RHR;
  400ba6:	6983      	ldr	r3, [r0, #24]
  400ba8:	700b      	strb	r3, [r1, #0]
	return 0;
  400baa:	2000      	movs	r0, #0
  400bac:	4770      	bx	lr
		return 1;
  400bae:	2001      	movs	r0, #1
}
  400bb0:	4770      	bx	lr

00400bb2 <usart_set_async_baudrate>:
 * \retval 1 Baud rate set point is out of range for the given input clock
 * frequency.
 */
uint32_t usart_set_async_baudrate(Usart *p_usart,
		uint32_t baudrate, uint32_t ul_mck)
{
  400bb2:	b410      	push	{r4}
	uint32_t cd_fp;
	uint32_t cd;
	uint32_t fp;

	/* Calculate the receiver sampling divide of baudrate clock. */
	if (ul_mck >= HIGH_FRQ_SAMPLE_DIV * baudrate) {
  400bb4:	010b      	lsls	r3, r1, #4
  400bb6:	4293      	cmp	r3, r2
  400bb8:	d914      	bls.n	400be4 <usart_set_async_baudrate+0x32>
	} else {
		over = LOW_FRQ_SAMPLE_DIV;
	}

	/* Calculate clock divider according to the fraction calculated formula. */
	cd_fp = (8 * ul_mck + (over * baudrate) / 2) / (over * baudrate);
  400bba:	00c9      	lsls	r1, r1, #3
  400bbc:	084b      	lsrs	r3, r1, #1
  400bbe:	eb03 02c2 	add.w	r2, r3, r2, lsl #3
  400bc2:	fbb2 f2f1 	udiv	r2, r2, r1
	cd = cd_fp >> 3;
  400bc6:	08d3      	lsrs	r3, r2, #3
	fp = cd_fp & 0x07;
	if (cd < MIN_CD_VALUE || cd > MAX_CD_VALUE) {
  400bc8:	1e5c      	subs	r4, r3, #1
  400bca:	f64f 71fe 	movw	r1, #65534	; 0xfffe
  400bce:	428c      	cmp	r4, r1
  400bd0:	d901      	bls.n	400bd6 <usart_set_async_baudrate+0x24>
		return 1;
  400bd2:	2001      	movs	r0, #1
  400bd4:	e017      	b.n	400c06 <usart_set_async_baudrate+0x54>
	}

	/* Configure the OVER bit in MR register. */
	if (over == 8) {
		p_usart->US_MR |= US_MR_OVER;
  400bd6:	6841      	ldr	r1, [r0, #4]
  400bd8:	f441 2100 	orr.w	r1, r1, #524288	; 0x80000
  400bdc:	6041      	str	r1, [r0, #4]
  400bde:	e00c      	b.n	400bfa <usart_set_async_baudrate+0x48>
		return 1;
  400be0:	2001      	movs	r0, #1
  400be2:	e010      	b.n	400c06 <usart_set_async_baudrate+0x54>
	cd_fp = (8 * ul_mck + (over * baudrate) / 2) / (over * baudrate);
  400be4:	0859      	lsrs	r1, r3, #1
  400be6:	eb01 02c2 	add.w	r2, r1, r2, lsl #3
  400bea:	fbb2 f2f3 	udiv	r2, r2, r3
	cd = cd_fp >> 3;
  400bee:	08d3      	lsrs	r3, r2, #3
	if (cd < MIN_CD_VALUE || cd > MAX_CD_VALUE) {
  400bf0:	1e5c      	subs	r4, r3, #1
  400bf2:	f64f 71fe 	movw	r1, #65534	; 0xfffe
  400bf6:	428c      	cmp	r4, r1
  400bf8:	d8f2      	bhi.n	400be0 <usart_set_async_baudrate+0x2e>
	}

	/* Configure the baudrate generate register. */
	p_usart->US_BRGR = (cd << US_BRGR_CD_Pos) | (fp << US_BRGR_FP_Pos);
  400bfa:	0412      	lsls	r2, r2, #16
  400bfc:	f402 22e0 	and.w	r2, r2, #458752	; 0x70000
  400c00:	431a      	orrs	r2, r3
  400c02:	6202      	str	r2, [r0, #32]

	return 0;
  400c04:	2000      	movs	r0, #0
}
  400c06:	f85d 4b04 	ldr.w	r4, [sp], #4
  400c0a:	4770      	bx	lr

00400c0c <usart_reset>:
 *
 * \param p_usart Pointer to a USART instance.
 */
void usart_disable_writeprotect(Usart *p_usart)
{
	p_usart->US_WPMR = US_WPMR_WPKEY_PASSWD;
  400c0c:	4b08      	ldr	r3, [pc, #32]	; (400c30 <usart_reset+0x24>)
  400c0e:	f8c0 30e4 	str.w	r3, [r0, #228]	; 0xe4
	p_usart->US_MR = 0;
  400c12:	2300      	movs	r3, #0
  400c14:	6043      	str	r3, [r0, #4]
	p_usart->US_RTOR = 0;
  400c16:	6243      	str	r3, [r0, #36]	; 0x24
	p_usart->US_TTGR = 0;
  400c18:	6283      	str	r3, [r0, #40]	; 0x28
	p_usart->US_CR = US_CR_RSTTX | US_CR_TXDIS;
  400c1a:	2388      	movs	r3, #136	; 0x88
  400c1c:	6003      	str	r3, [r0, #0]
	p_usart->US_CR = US_CR_RSTRX | US_CR_RXDIS;
  400c1e:	2324      	movs	r3, #36	; 0x24
  400c20:	6003      	str	r3, [r0, #0]
	p_usart->US_CR = US_CR_RSTSTA;
  400c22:	f44f 7380 	mov.w	r3, #256	; 0x100
  400c26:	6003      	str	r3, [r0, #0]
	p_usart->US_CR = US_CR_RTSDIS;
  400c28:	f44f 2300 	mov.w	r3, #524288	; 0x80000
  400c2c:	6003      	str	r3, [r0, #0]
  400c2e:	4770      	bx	lr
  400c30:	55534100 	.word	0x55534100

00400c34 <usart_init_rs232>:
{
  400c34:	b570      	push	{r4, r5, r6, lr}
  400c36:	4605      	mov	r5, r0
  400c38:	460c      	mov	r4, r1
  400c3a:	4616      	mov	r6, r2
	usart_reset(p_usart);
  400c3c:	4b0f      	ldr	r3, [pc, #60]	; (400c7c <usart_init_rs232+0x48>)
  400c3e:	4798      	blx	r3
	ul_reg_val = 0;
  400c40:	2200      	movs	r2, #0
  400c42:	4b0f      	ldr	r3, [pc, #60]	; (400c80 <usart_init_rs232+0x4c>)
  400c44:	601a      	str	r2, [r3, #0]
	if (!p_usart_opt || usart_set_async_baudrate(p_usart,
  400c46:	b1a4      	cbz	r4, 400c72 <usart_init_rs232+0x3e>
  400c48:	4632      	mov	r2, r6
  400c4a:	6821      	ldr	r1, [r4, #0]
  400c4c:	4628      	mov	r0, r5
  400c4e:	4b0d      	ldr	r3, [pc, #52]	; (400c84 <usart_init_rs232+0x50>)
  400c50:	4798      	blx	r3
  400c52:	4602      	mov	r2, r0
  400c54:	b978      	cbnz	r0, 400c76 <usart_init_rs232+0x42>
	ul_reg_val |= p_usart_opt->char_length | p_usart_opt->parity_type |
  400c56:	6863      	ldr	r3, [r4, #4]
  400c58:	68a1      	ldr	r1, [r4, #8]
  400c5a:	430b      	orrs	r3, r1
  400c5c:	6921      	ldr	r1, [r4, #16]
  400c5e:	430b      	orrs	r3, r1
			p_usart_opt->channel_mode | p_usart_opt->stop_bits;
  400c60:	68e1      	ldr	r1, [r4, #12]
  400c62:	430b      	orrs	r3, r1
	ul_reg_val |= p_usart_opt->char_length | p_usart_opt->parity_type |
  400c64:	4906      	ldr	r1, [pc, #24]	; (400c80 <usart_init_rs232+0x4c>)
  400c66:	600b      	str	r3, [r1, #0]
	p_usart->US_MR |= ul_reg_val;
  400c68:	6869      	ldr	r1, [r5, #4]
  400c6a:	430b      	orrs	r3, r1
  400c6c:	606b      	str	r3, [r5, #4]
}
  400c6e:	4610      	mov	r0, r2
  400c70:	bd70      	pop	{r4, r5, r6, pc}
		return 1;
  400c72:	2201      	movs	r2, #1
  400c74:	e7fb      	b.n	400c6e <usart_init_rs232+0x3a>
  400c76:	2201      	movs	r2, #1
  400c78:	e7f9      	b.n	400c6e <usart_init_rs232+0x3a>
  400c7a:	bf00      	nop
  400c7c:	00400c0d 	.word	0x00400c0d
  400c80:	20400a50 	.word	0x20400a50
  400c84:	00400bb3 	.word	0x00400bb3

00400c88 <usart_enable_tx>:
	p_usart->US_CR = US_CR_TXEN;
  400c88:	2340      	movs	r3, #64	; 0x40
  400c8a:	6003      	str	r3, [r0, #0]
  400c8c:	4770      	bx	lr

00400c8e <usart_enable_rx>:
	p_usart->US_CR = US_CR_RXEN;
  400c8e:	2310      	movs	r3, #16
  400c90:	6003      	str	r3, [r0, #0]
  400c92:	4770      	bx	lr

00400c94 <usart_write>:
	if (!(p_usart->US_CSR & US_CSR_TXRDY)) {
  400c94:	6943      	ldr	r3, [r0, #20]
  400c96:	f013 0f02 	tst.w	r3, #2
  400c9a:	d004      	beq.n	400ca6 <usart_write+0x12>
	p_usart->US_THR = US_THR_TXCHR(c);
  400c9c:	f3c1 0108 	ubfx	r1, r1, #0, #9
  400ca0:	61c1      	str	r1, [r0, #28]
	return 0;
  400ca2:	2000      	movs	r0, #0
  400ca4:	4770      	bx	lr
		return 1;
  400ca6:	2001      	movs	r0, #1
}
  400ca8:	4770      	bx	lr

00400caa <usart_read>:
	if (!(p_usart->US_CSR & US_CSR_RXRDY)) {
  400caa:	6943      	ldr	r3, [r0, #20]
  400cac:	f013 0f01 	tst.w	r3, #1
  400cb0:	d005      	beq.n	400cbe <usart_read+0x14>
	*c = p_usart->US_RHR & US_RHR_RXCHR_Msk;
  400cb2:	6983      	ldr	r3, [r0, #24]
  400cb4:	f3c3 0308 	ubfx	r3, r3, #0, #9
  400cb8:	600b      	str	r3, [r1, #0]
	return 0;
  400cba:	2000      	movs	r0, #0
  400cbc:	4770      	bx	lr
		return 1;
  400cbe:	2001      	movs	r0, #1
}
  400cc0:	4770      	bx	lr

00400cc2 <Dummy_Handler>:

/**
 * \brief Default interrupt handler for unused IRQs.
 */
void Dummy_Handler(void)
{
  400cc2:	e7fe      	b.n	400cc2 <Dummy_Handler>

00400cc4 <Reset_Handler>:
{
  400cc4:	b500      	push	{lr}
  400cc6:	b083      	sub	sp, #12
        if (pSrc != pDest) {
  400cc8:	4b25      	ldr	r3, [pc, #148]	; (400d60 <Reset_Handler+0x9c>)
  400cca:	4a26      	ldr	r2, [pc, #152]	; (400d64 <Reset_Handler+0xa0>)
  400ccc:	429a      	cmp	r2, r3
  400cce:	d010      	beq.n	400cf2 <Reset_Handler+0x2e>
                for (; pDest < &_erelocate;) {
  400cd0:	4b25      	ldr	r3, [pc, #148]	; (400d68 <Reset_Handler+0xa4>)
  400cd2:	4a23      	ldr	r2, [pc, #140]	; (400d60 <Reset_Handler+0x9c>)
  400cd4:	429a      	cmp	r2, r3
  400cd6:	d20c      	bcs.n	400cf2 <Reset_Handler+0x2e>
  400cd8:	3b01      	subs	r3, #1
  400cda:	1a9b      	subs	r3, r3, r2
  400cdc:	f023 0303 	bic.w	r3, r3, #3
  400ce0:	3304      	adds	r3, #4
  400ce2:	4413      	add	r3, r2
  400ce4:	491f      	ldr	r1, [pc, #124]	; (400d64 <Reset_Handler+0xa0>)
                        *pDest++ = *pSrc++;
  400ce6:	f851 0b04 	ldr.w	r0, [r1], #4
  400cea:	f842 0b04 	str.w	r0, [r2], #4
                for (; pDest < &_erelocate;) {
  400cee:	429a      	cmp	r2, r3
  400cf0:	d1f9      	bne.n	400ce6 <Reset_Handler+0x22>
        for (pDest = &_szero; pDest < &_ezero;) {
  400cf2:	4b1e      	ldr	r3, [pc, #120]	; (400d6c <Reset_Handler+0xa8>)
  400cf4:	4a1e      	ldr	r2, [pc, #120]	; (400d70 <Reset_Handler+0xac>)
  400cf6:	429a      	cmp	r2, r3
  400cf8:	d20a      	bcs.n	400d10 <Reset_Handler+0x4c>
  400cfa:	3b01      	subs	r3, #1
  400cfc:	1a9b      	subs	r3, r3, r2
  400cfe:	f023 0303 	bic.w	r3, r3, #3
  400d02:	3304      	adds	r3, #4
  400d04:	4413      	add	r3, r2
                *pDest++ = 0;
  400d06:	2100      	movs	r1, #0
  400d08:	f842 1b04 	str.w	r1, [r2], #4
        for (pDest = &_szero; pDest < &_ezero;) {
  400d0c:	4293      	cmp	r3, r2
  400d0e:	d1fb      	bne.n	400d08 <Reset_Handler+0x44>
        SCB->VTOR = ((uint32_t) pSrc & SCB_VTOR_TBLOFF_Msk);
  400d10:	4a18      	ldr	r2, [pc, #96]	; (400d74 <Reset_Handler+0xb0>)
  400d12:	4b19      	ldr	r3, [pc, #100]	; (400d78 <Reset_Handler+0xb4>)
  400d14:	f023 037f 	bic.w	r3, r3, #127	; 0x7f
  400d18:	6093      	str	r3, [r2, #8]
 */
__attribute__( ( always_inline ) ) __STATIC_INLINE uint32_t __get_PRIMASK(void)
{
  uint32_t result;

  __ASM volatile ("MRS %0, primask" : "=r" (result) );
  400d1a:	f3ef 8310 	mrs	r3, PRIMASK
static volatile uint32_t cpu_irq_critical_section_counter;
static volatile bool     cpu_irq_prev_interrupt_state;

static inline irqflags_t cpu_irq_save(void)
{
	volatile irqflags_t flags = cpu_irq_is_enabled();
  400d1e:	fab3 f383 	clz	r3, r3
  400d22:	095b      	lsrs	r3, r3, #5
  400d24:	9301      	str	r3, [sp, #4]
  __ASM volatile ("cpsid i" : : : "memory");
  400d26:	b672      	cpsid	i
  __ASM volatile ("dmb");
  400d28:	f3bf 8f5f 	dmb	sy
	cpu_irq_disable();
  400d2c:	2200      	movs	r2, #0
  400d2e:	4b13      	ldr	r3, [pc, #76]	; (400d7c <Reset_Handler+0xb8>)
  400d30:	701a      	strb	r2, [r3, #0]
	return flags;
  400d32:	9901      	ldr	r1, [sp, #4]
 */
__always_inline static void fpu_enable(void)
{
	irqflags_t flags;
	flags = cpu_irq_save();
	REG_CPACR |=  (0xFu << 20);
  400d34:	4a12      	ldr	r2, [pc, #72]	; (400d80 <Reset_Handler+0xbc>)
  400d36:	6813      	ldr	r3, [r2, #0]
  400d38:	f443 0370 	orr.w	r3, r3, #15728640	; 0xf00000
  400d3c:	6013      	str	r3, [r2, #0]
  __ASM volatile ("dsb");
  400d3e:	f3bf 8f4f 	dsb	sy
  __ASM volatile ("isb");
  400d42:	f3bf 8f6f 	isb	sy
	return (flags);
}

static inline void cpu_irq_restore(irqflags_t flags)
{
	if (cpu_irq_is_enabled_flags(flags))
  400d46:	b129      	cbz	r1, 400d54 <Reset_Handler+0x90>
		cpu_irq_enable();
  400d48:	2201      	movs	r2, #1
  400d4a:	4b0c      	ldr	r3, [pc, #48]	; (400d7c <Reset_Handler+0xb8>)
  400d4c:	701a      	strb	r2, [r3, #0]
  __ASM volatile ("dmb");
  400d4e:	f3bf 8f5f 	dmb	sy
  __ASM volatile ("cpsie i" : : : "memory");
  400d52:	b662      	cpsie	i
        __libc_init_array();
  400d54:	4b0b      	ldr	r3, [pc, #44]	; (400d84 <Reset_Handler+0xc0>)
  400d56:	4798      	blx	r3
        main();
  400d58:	4b0b      	ldr	r3, [pc, #44]	; (400d88 <Reset_Handler+0xc4>)
  400d5a:	4798      	blx	r3
  400d5c:	e7fe      	b.n	400d5c <Reset_Handler+0x98>
  400d5e:	bf00      	nop
  400d60:	20400000 	.word	0x20400000
  400d64:	00409bdc 	.word	0x00409bdc
  400d68:	204009b8 	.word	0x204009b8
  400d6c:	20400d48 	.word	0x20400d48
  400d70:	204009b8 	.word	0x204009b8
  400d74:	e000ed00 	.word	0xe000ed00
  400d78:	00400000 	.word	0x00400000
  400d7c:	20400000 	.word	0x20400000
  400d80:	e000ed88 	.word	0xe000ed88
  400d84:	00403235 	.word	0x00403235
  400d88:	0040301d 	.word	0x0040301d

00400d8c <SystemCoreClockUpdate>:
}

void SystemCoreClockUpdate( void )
{
  /* Determine clock frequency according to clock register values */
  switch (PMC->PMC_MCKR & (uint32_t) PMC_MCKR_CSS_Msk)
  400d8c:	4b3b      	ldr	r3, [pc, #236]	; (400e7c <SystemCoreClockUpdate+0xf0>)
  400d8e:	6b1b      	ldr	r3, [r3, #48]	; 0x30
  400d90:	f003 0303 	and.w	r3, r3, #3
  400d94:	2b01      	cmp	r3, #1
  400d96:	d01d      	beq.n	400dd4 <SystemCoreClockUpdate+0x48>
  400d98:	b183      	cbz	r3, 400dbc <SystemCoreClockUpdate+0x30>
  400d9a:	2b02      	cmp	r3, #2
  400d9c:	d036      	beq.n	400e0c <SystemCoreClockUpdate+0x80>

    default:
    break;
  }

  if ( (PMC->PMC_MCKR & PMC_MCKR_PRES_Msk) == PMC_MCKR_PRES_CLK_3 )
  400d9e:	4b37      	ldr	r3, [pc, #220]	; (400e7c <SystemCoreClockUpdate+0xf0>)
  400da0:	6b1b      	ldr	r3, [r3, #48]	; 0x30
  400da2:	f003 0370 	and.w	r3, r3, #112	; 0x70
  400da6:	2b70      	cmp	r3, #112	; 0x70
  400da8:	d05f      	beq.n	400e6a <SystemCoreClockUpdate+0xde>
  {
    SystemCoreClock /= 3U;
  }
  else
  {
    SystemCoreClock >>= ((PMC->PMC_MCKR & PMC_MCKR_PRES_Msk) >> PMC_MCKR_PRES_Pos);
  400daa:	4b34      	ldr	r3, [pc, #208]	; (400e7c <SystemCoreClockUpdate+0xf0>)
  400dac:	6b1a      	ldr	r2, [r3, #48]	; 0x30
  400dae:	4934      	ldr	r1, [pc, #208]	; (400e80 <SystemCoreClockUpdate+0xf4>)
  400db0:	f3c2 1202 	ubfx	r2, r2, #4, #3
  400db4:	680b      	ldr	r3, [r1, #0]
  400db6:	40d3      	lsrs	r3, r2
  400db8:	600b      	str	r3, [r1, #0]
  400dba:	4770      	bx	lr
      if ( SUPC->SUPC_SR & SUPC_SR_OSCSEL )
  400dbc:	4b31      	ldr	r3, [pc, #196]	; (400e84 <SystemCoreClockUpdate+0xf8>)
  400dbe:	695b      	ldr	r3, [r3, #20]
  400dc0:	f013 0f80 	tst.w	r3, #128	; 0x80
        SystemCoreClock = CHIP_FREQ_XTAL_32K;
  400dc4:	bf14      	ite	ne
  400dc6:	f44f 4200 	movne.w	r2, #32768	; 0x8000
        SystemCoreClock = CHIP_FREQ_SLCK_RC;
  400dca:	f44f 42fa 	moveq.w	r2, #32000	; 0x7d00
  400dce:	4b2c      	ldr	r3, [pc, #176]	; (400e80 <SystemCoreClockUpdate+0xf4>)
  400dd0:	601a      	str	r2, [r3, #0]
  400dd2:	e7e4      	b.n	400d9e <SystemCoreClockUpdate+0x12>
      if ( PMC->CKGR_MOR & CKGR_MOR_MOSCSEL )
  400dd4:	4b29      	ldr	r3, [pc, #164]	; (400e7c <SystemCoreClockUpdate+0xf0>)
  400dd6:	6a1b      	ldr	r3, [r3, #32]
  400dd8:	f013 7f80 	tst.w	r3, #16777216	; 0x1000000
  400ddc:	d003      	beq.n	400de6 <SystemCoreClockUpdate+0x5a>
        SystemCoreClock = CHIP_FREQ_XTAL_12M;
  400dde:	4a2a      	ldr	r2, [pc, #168]	; (400e88 <SystemCoreClockUpdate+0xfc>)
  400de0:	4b27      	ldr	r3, [pc, #156]	; (400e80 <SystemCoreClockUpdate+0xf4>)
  400de2:	601a      	str	r2, [r3, #0]
  400de4:	e7db      	b.n	400d9e <SystemCoreClockUpdate+0x12>
        SystemCoreClock = CHIP_FREQ_MAINCK_RC_4MHZ;
  400de6:	4a29      	ldr	r2, [pc, #164]	; (400e8c <SystemCoreClockUpdate+0x100>)
  400de8:	4b25      	ldr	r3, [pc, #148]	; (400e80 <SystemCoreClockUpdate+0xf4>)
  400dea:	601a      	str	r2, [r3, #0]
        switch ( PMC->CKGR_MOR & CKGR_MOR_MOSCRCF_Msk )
  400dec:	4b23      	ldr	r3, [pc, #140]	; (400e7c <SystemCoreClockUpdate+0xf0>)
  400dee:	6a1b      	ldr	r3, [r3, #32]
  400df0:	f003 0370 	and.w	r3, r3, #112	; 0x70
  400df4:	2b10      	cmp	r3, #16
  400df6:	d005      	beq.n	400e04 <SystemCoreClockUpdate+0x78>
  400df8:	2b20      	cmp	r3, #32
  400dfa:	d1d0      	bne.n	400d9e <SystemCoreClockUpdate+0x12>
            SystemCoreClock *= 3U;
  400dfc:	4a22      	ldr	r2, [pc, #136]	; (400e88 <SystemCoreClockUpdate+0xfc>)
  400dfe:	4b20      	ldr	r3, [pc, #128]	; (400e80 <SystemCoreClockUpdate+0xf4>)
  400e00:	601a      	str	r2, [r3, #0]
          break;
  400e02:	e7cc      	b.n	400d9e <SystemCoreClockUpdate+0x12>
            SystemCoreClock *= 2U;
  400e04:	4a22      	ldr	r2, [pc, #136]	; (400e90 <SystemCoreClockUpdate+0x104>)
  400e06:	4b1e      	ldr	r3, [pc, #120]	; (400e80 <SystemCoreClockUpdate+0xf4>)
  400e08:	601a      	str	r2, [r3, #0]
          break;
  400e0a:	e7c8      	b.n	400d9e <SystemCoreClockUpdate+0x12>
      if ( PMC->CKGR_MOR & CKGR_MOR_MOSCSEL )
  400e0c:	4b1b      	ldr	r3, [pc, #108]	; (400e7c <SystemCoreClockUpdate+0xf0>)
  400e0e:	6a1b      	ldr	r3, [r3, #32]
  400e10:	f013 7f80 	tst.w	r3, #16777216	; 0x1000000
  400e14:	d016      	beq.n	400e44 <SystemCoreClockUpdate+0xb8>
        SystemCoreClock = CHIP_FREQ_XTAL_12M ;
  400e16:	4a1c      	ldr	r2, [pc, #112]	; (400e88 <SystemCoreClockUpdate+0xfc>)
  400e18:	4b19      	ldr	r3, [pc, #100]	; (400e80 <SystemCoreClockUpdate+0xf4>)
  400e1a:	601a      	str	r2, [r3, #0]
      if ( (uint32_t) (PMC->PMC_MCKR & (uint32_t) PMC_MCKR_CSS_Msk) == PMC_MCKR_CSS_PLLA_CLK )
  400e1c:	4b17      	ldr	r3, [pc, #92]	; (400e7c <SystemCoreClockUpdate+0xf0>)
  400e1e:	6b1b      	ldr	r3, [r3, #48]	; 0x30
  400e20:	f003 0303 	and.w	r3, r3, #3
  400e24:	2b02      	cmp	r3, #2
  400e26:	d1ba      	bne.n	400d9e <SystemCoreClockUpdate+0x12>
        SystemCoreClock *= ((((PMC->CKGR_PLLAR) & CKGR_PLLAR_MULA_Msk) >> CKGR_PLLAR_MULA_Pos) + 1U);
  400e28:	4a14      	ldr	r2, [pc, #80]	; (400e7c <SystemCoreClockUpdate+0xf0>)
  400e2a:	6a91      	ldr	r1, [r2, #40]	; 0x28
        SystemCoreClock /= ((((PMC->CKGR_PLLAR) & CKGR_PLLAR_DIVA_Msk) >> CKGR_PLLAR_DIVA_Pos));
  400e2c:	6a92      	ldr	r2, [r2, #40]	; 0x28
  400e2e:	4814      	ldr	r0, [pc, #80]	; (400e80 <SystemCoreClockUpdate+0xf4>)
        SystemCoreClock *= ((((PMC->CKGR_PLLAR) & CKGR_PLLAR_MULA_Msk) >> CKGR_PLLAR_MULA_Pos) + 1U);
  400e30:	f3c1 410a 	ubfx	r1, r1, #16, #11
  400e34:	6803      	ldr	r3, [r0, #0]
  400e36:	fb01 3303 	mla	r3, r1, r3, r3
        SystemCoreClock /= ((((PMC->CKGR_PLLAR) & CKGR_PLLAR_DIVA_Msk) >> CKGR_PLLAR_DIVA_Pos));
  400e3a:	b2d2      	uxtb	r2, r2
  400e3c:	fbb3 f3f2 	udiv	r3, r3, r2
  400e40:	6003      	str	r3, [r0, #0]
  400e42:	e7ac      	b.n	400d9e <SystemCoreClockUpdate+0x12>
        SystemCoreClock = CHIP_FREQ_MAINCK_RC_4MHZ;
  400e44:	4a11      	ldr	r2, [pc, #68]	; (400e8c <SystemCoreClockUpdate+0x100>)
  400e46:	4b0e      	ldr	r3, [pc, #56]	; (400e80 <SystemCoreClockUpdate+0xf4>)
  400e48:	601a      	str	r2, [r3, #0]
        switch ( PMC->CKGR_MOR & CKGR_MOR_MOSCRCF_Msk )
  400e4a:	4b0c      	ldr	r3, [pc, #48]	; (400e7c <SystemCoreClockUpdate+0xf0>)
  400e4c:	6a1b      	ldr	r3, [r3, #32]
  400e4e:	f003 0370 	and.w	r3, r3, #112	; 0x70
  400e52:	2b10      	cmp	r3, #16
  400e54:	d005      	beq.n	400e62 <SystemCoreClockUpdate+0xd6>
  400e56:	2b20      	cmp	r3, #32
  400e58:	d1e0      	bne.n	400e1c <SystemCoreClockUpdate+0x90>
            SystemCoreClock *= 3U;
  400e5a:	4a0b      	ldr	r2, [pc, #44]	; (400e88 <SystemCoreClockUpdate+0xfc>)
  400e5c:	4b08      	ldr	r3, [pc, #32]	; (400e80 <SystemCoreClockUpdate+0xf4>)
  400e5e:	601a      	str	r2, [r3, #0]
          break;
  400e60:	e7dc      	b.n	400e1c <SystemCoreClockUpdate+0x90>
            SystemCoreClock *= 2U;
  400e62:	4a0b      	ldr	r2, [pc, #44]	; (400e90 <SystemCoreClockUpdate+0x104>)
  400e64:	4b06      	ldr	r3, [pc, #24]	; (400e80 <SystemCoreClockUpdate+0xf4>)
  400e66:	601a      	str	r2, [r3, #0]
          break;
  400e68:	e7d8      	b.n	400e1c <SystemCoreClockUpdate+0x90>
    SystemCoreClock /= 3U;
  400e6a:	4a05      	ldr	r2, [pc, #20]	; (400e80 <SystemCoreClockUpdate+0xf4>)
  400e6c:	6813      	ldr	r3, [r2, #0]
  400e6e:	4909      	ldr	r1, [pc, #36]	; (400e94 <SystemCoreClockUpdate+0x108>)
  400e70:	fba1 1303 	umull	r1, r3, r1, r3
  400e74:	085b      	lsrs	r3, r3, #1
  400e76:	6013      	str	r3, [r2, #0]
  400e78:	4770      	bx	lr
  400e7a:	bf00      	nop
  400e7c:	400e0600 	.word	0x400e0600
  400e80:	20400004 	.word	0x20400004
  400e84:	400e1810 	.word	0x400e1810
  400e88:	00b71b00 	.word	0x00b71b00
  400e8c:	003d0900 	.word	0x003d0900
  400e90:	007a1200 	.word	0x007a1200
  400e94:	aaaaaaab 	.word	0xaaaaaaab

00400e98 <system_init_flash>:
 * Initialize flash.
 */
void system_init_flash( uint32_t ul_clk )
{
  /* Set FWS for embedded Flash access according to operating frequency */
  if ( ul_clk < CHIP_FREQ_FWS_0 )
  400e98:	4b16      	ldr	r3, [pc, #88]	; (400ef4 <system_init_flash+0x5c>)
  400e9a:	4298      	cmp	r0, r3
  400e9c:	d913      	bls.n	400ec6 <system_init_flash+0x2e>
  {
    EFC->EEFC_FMR = EEFC_FMR_FWS(0)|EEFC_FMR_CLOE;
  }
  else
  {
    if (ul_clk < CHIP_FREQ_FWS_1)
  400e9e:	4b16      	ldr	r3, [pc, #88]	; (400ef8 <system_init_flash+0x60>)
  400ea0:	4298      	cmp	r0, r3
  400ea2:	d915      	bls.n	400ed0 <system_init_flash+0x38>
    {
      EFC->EEFC_FMR = EEFC_FMR_FWS(1)|EEFC_FMR_CLOE;
    }
    else
    {
      if (ul_clk < CHIP_FREQ_FWS_2)
  400ea4:	4b15      	ldr	r3, [pc, #84]	; (400efc <system_init_flash+0x64>)
  400ea6:	4298      	cmp	r0, r3
  400ea8:	d916      	bls.n	400ed8 <system_init_flash+0x40>
      {
        EFC->EEFC_FMR = EEFC_FMR_FWS(2)|EEFC_FMR_CLOE;
      }
      else
      {
        if ( ul_clk < CHIP_FREQ_FWS_3 )
  400eaa:	4b15      	ldr	r3, [pc, #84]	; (400f00 <system_init_flash+0x68>)
  400eac:	4298      	cmp	r0, r3
  400eae:	d917      	bls.n	400ee0 <system_init_flash+0x48>
        {
          EFC->EEFC_FMR = EEFC_FMR_FWS(3)|EEFC_FMR_CLOE;
        }
        else
        {
          if ( ul_clk < CHIP_FREQ_FWS_4 )
  400eb0:	4b14      	ldr	r3, [pc, #80]	; (400f04 <system_init_flash+0x6c>)
  400eb2:	4298      	cmp	r0, r3
  400eb4:	d918      	bls.n	400ee8 <system_init_flash+0x50>
          {
            EFC->EEFC_FMR = EEFC_FMR_FWS(4)|EEFC_FMR_CLOE;
          }
          else
          {
            if ( ul_clk < CHIP_FREQ_FWS_5 )
  400eb6:	4b14      	ldr	r3, [pc, #80]	; (400f08 <system_init_flash+0x70>)
  400eb8:	4298      	cmp	r0, r3
            {
              EFC->EEFC_FMR = EEFC_FMR_FWS(5)|EEFC_FMR_CLOE;
  400eba:	bf94      	ite	ls
  400ebc:	4a13      	ldrls	r2, [pc, #76]	; (400f0c <system_init_flash+0x74>)
            }
            else
            {
              EFC->EEFC_FMR = EEFC_FMR_FWS(6)|EEFC_FMR_CLOE;
  400ebe:	4a14      	ldrhi	r2, [pc, #80]	; (400f10 <system_init_flash+0x78>)
  400ec0:	4b14      	ldr	r3, [pc, #80]	; (400f14 <system_init_flash+0x7c>)
  400ec2:	601a      	str	r2, [r3, #0]
  400ec4:	4770      	bx	lr
    EFC->EEFC_FMR = EEFC_FMR_FWS(0)|EEFC_FMR_CLOE;
  400ec6:	f04f 6280 	mov.w	r2, #67108864	; 0x4000000
  400eca:	4b12      	ldr	r3, [pc, #72]	; (400f14 <system_init_flash+0x7c>)
  400ecc:	601a      	str	r2, [r3, #0]
  400ece:	4770      	bx	lr
      EFC->EEFC_FMR = EEFC_FMR_FWS(1)|EEFC_FMR_CLOE;
  400ed0:	4a11      	ldr	r2, [pc, #68]	; (400f18 <system_init_flash+0x80>)
  400ed2:	4b10      	ldr	r3, [pc, #64]	; (400f14 <system_init_flash+0x7c>)
  400ed4:	601a      	str	r2, [r3, #0]
  400ed6:	4770      	bx	lr
        EFC->EEFC_FMR = EEFC_FMR_FWS(2)|EEFC_FMR_CLOE;
  400ed8:	4a10      	ldr	r2, [pc, #64]	; (400f1c <system_init_flash+0x84>)
  400eda:	4b0e      	ldr	r3, [pc, #56]	; (400f14 <system_init_flash+0x7c>)
  400edc:	601a      	str	r2, [r3, #0]
  400ede:	4770      	bx	lr
          EFC->EEFC_FMR = EEFC_FMR_FWS(3)|EEFC_FMR_CLOE;
  400ee0:	4a0f      	ldr	r2, [pc, #60]	; (400f20 <system_init_flash+0x88>)
  400ee2:	4b0c      	ldr	r3, [pc, #48]	; (400f14 <system_init_flash+0x7c>)
  400ee4:	601a      	str	r2, [r3, #0]
  400ee6:	4770      	bx	lr
            EFC->EEFC_FMR = EEFC_FMR_FWS(4)|EEFC_FMR_CLOE;
  400ee8:	f04f 2204 	mov.w	r2, #67109888	; 0x4000400
  400eec:	4b09      	ldr	r3, [pc, #36]	; (400f14 <system_init_flash+0x7c>)
  400eee:	601a      	str	r2, [r3, #0]
  400ef0:	4770      	bx	lr
  400ef2:	bf00      	nop
  400ef4:	015ef3bf 	.word	0x015ef3bf
  400ef8:	02bde77f 	.word	0x02bde77f
  400efc:	041cdb3f 	.word	0x041cdb3f
  400f00:	057bceff 	.word	0x057bceff
  400f04:	06dac2bf 	.word	0x06dac2bf
  400f08:	0839b67f 	.word	0x0839b67f
  400f0c:	04000500 	.word	0x04000500
  400f10:	04000600 	.word	0x04000600
  400f14:	400e0c00 	.word	0x400e0c00
  400f18:	04000100 	.word	0x04000100
  400f1c:	04000200 	.word	0x04000200
  400f20:	04000300 	.word	0x04000300

00400f24 <_sbrk>:
{
	static unsigned char *heap = NULL;
	unsigned char *prev_heap;
	int ramend = (int)&__ram_end__;

	if (heap == NULL) {
  400f24:	4b0a      	ldr	r3, [pc, #40]	; (400f50 <_sbrk+0x2c>)
  400f26:	681b      	ldr	r3, [r3, #0]
  400f28:	b153      	cbz	r3, 400f40 <_sbrk+0x1c>
		heap = (unsigned char *)&_end;
	}
	prev_heap = heap;
  400f2a:	4b09      	ldr	r3, [pc, #36]	; (400f50 <_sbrk+0x2c>)
  400f2c:	681b      	ldr	r3, [r3, #0]

	if (((int)prev_heap + incr) > ramend) {
  400f2e:	181a      	adds	r2, r3, r0
  400f30:	4908      	ldr	r1, [pc, #32]	; (400f54 <_sbrk+0x30>)
  400f32:	4291      	cmp	r1, r2
  400f34:	db08      	blt.n	400f48 <_sbrk+0x24>
		return (caddr_t) -1;	
	}

	heap += incr;
  400f36:	4610      	mov	r0, r2
  400f38:	4a05      	ldr	r2, [pc, #20]	; (400f50 <_sbrk+0x2c>)
  400f3a:	6010      	str	r0, [r2, #0]

	return (caddr_t) prev_heap;
  400f3c:	4618      	mov	r0, r3
  400f3e:	4770      	bx	lr
		heap = (unsigned char *)&_end;
  400f40:	4a05      	ldr	r2, [pc, #20]	; (400f58 <_sbrk+0x34>)
  400f42:	4b03      	ldr	r3, [pc, #12]	; (400f50 <_sbrk+0x2c>)
  400f44:	601a      	str	r2, [r3, #0]
  400f46:	e7f0      	b.n	400f2a <_sbrk+0x6>
		return (caddr_t) -1;	
  400f48:	f04f 30ff 	mov.w	r0, #4294967295
}
  400f4c:	4770      	bx	lr
  400f4e:	bf00      	nop
  400f50:	20400a54 	.word	0x20400a54
  400f54:	2045fffc 	.word	0x2045fffc
  400f58:	20402f48 	.word	0x20402f48

00400f5c <_close>:
}

extern int _close(int file)
{
	return -1;
}
  400f5c:	f04f 30ff 	mov.w	r0, #4294967295
  400f60:	4770      	bx	lr

00400f62 <_fstat>:

extern int _fstat(int file, struct stat *st)
{
	st->st_mode = S_IFCHR;
  400f62:	f44f 5300 	mov.w	r3, #8192	; 0x2000
  400f66:	604b      	str	r3, [r1, #4]

	return 0;
}
  400f68:	2000      	movs	r0, #0
  400f6a:	4770      	bx	lr

00400f6c <_isatty>:

extern int _isatty(int file)
{
	return 1;
}
  400f6c:	2001      	movs	r0, #1
  400f6e:	4770      	bx	lr

00400f70 <_lseek>:

extern int _lseek(int file, int ptr, int dir)
{
	return 0;
}
  400f70:	2000      	movs	r0, #0
  400f72:	4770      	bx	lr

00400f74 <vListInitialise>:
void vListInitialise( List_t * const pxList )
{
	/* The list structure contains a list item which is used to mark the
	end of the list.  To initialise the list the list end is inserted
	as the only list entry. */
	pxList->pxIndex = ( ListItem_t * ) &( pxList->xListEnd );			/*lint !e826 !e740 The mini list structure is used as the list end to save RAM.  This is checked and valid. */
  400f74:	f100 0308 	add.w	r3, r0, #8
  400f78:	6043      	str	r3, [r0, #4]

	/* The list end value is the highest possible value in the list to
	ensure it remains at the end of the list. */
	pxList->xListEnd.xItemValue = portMAX_DELAY;
  400f7a:	f04f 32ff 	mov.w	r2, #4294967295
  400f7e:	6082      	str	r2, [r0, #8]

	/* The list end next and previous pointers point to itself so we know
	when the list is empty. */
	pxList->xListEnd.pxNext = ( ListItem_t * ) &( pxList->xListEnd );	/*lint !e826 !e740 The mini list structure is used as the list end to save RAM.  This is checked and valid. */
  400f80:	60c3      	str	r3, [r0, #12]
	pxList->xListEnd.pxPrevious = ( ListItem_t * ) &( pxList->xListEnd );/*lint !e826 !e740 The mini list structure is used as the list end to save RAM.  This is checked and valid. */
  400f82:	6103      	str	r3, [r0, #16]

	pxList->uxNumberOfItems = ( UBaseType_t ) 0U;
  400f84:	2300      	movs	r3, #0
  400f86:	6003      	str	r3, [r0, #0]
  400f88:	4770      	bx	lr

00400f8a <vListInitialiseItem>:
/*-----------------------------------------------------------*/

void vListInitialiseItem( ListItem_t * const pxItem )
{
	/* Make sure the list item is not recorded as being on a list. */
	pxItem->pvContainer = NULL;
  400f8a:	2300      	movs	r3, #0
  400f8c:	6103      	str	r3, [r0, #16]
  400f8e:	4770      	bx	lr

00400f90 <vListInsertEnd>:
}
/*-----------------------------------------------------------*/

void vListInsertEnd( List_t * const pxList, ListItem_t * const pxNewListItem )
{
ListItem_t * const pxIndex = pxList->pxIndex;
  400f90:	6843      	ldr	r3, [r0, #4]
	listTEST_LIST_ITEM_INTEGRITY( pxNewListItem );

	/* Insert a new list item into pxList, but rather than sort the list,
	makes the new list item the last item to be removed by a call to
	listGET_OWNER_OF_NEXT_ENTRY(). */
	pxNewListItem->pxNext = pxIndex;
  400f92:	604b      	str	r3, [r1, #4]
	pxNewListItem->pxPrevious = pxIndex->pxPrevious;
  400f94:	689a      	ldr	r2, [r3, #8]
  400f96:	608a      	str	r2, [r1, #8]

	/* Only used during decision coverage testing. */
	mtCOVERAGE_TEST_DELAY();

	pxIndex->pxPrevious->pxNext = pxNewListItem;
  400f98:	689a      	ldr	r2, [r3, #8]
  400f9a:	6051      	str	r1, [r2, #4]
	pxIndex->pxPrevious = pxNewListItem;
  400f9c:	6099      	str	r1, [r3, #8]

	/* Remember which list the item is in. */
	pxNewListItem->pvContainer = ( void * ) pxList;
  400f9e:	6108      	str	r0, [r1, #16]

	( pxList->uxNumberOfItems )++;
  400fa0:	6803      	ldr	r3, [r0, #0]
  400fa2:	3301      	adds	r3, #1
  400fa4:	6003      	str	r3, [r0, #0]
  400fa6:	4770      	bx	lr

00400fa8 <vListInsert>:
}
/*-----------------------------------------------------------*/

void vListInsert( List_t * const pxList, ListItem_t * const pxNewListItem )
{
  400fa8:	b430      	push	{r4, r5}
ListItem_t *pxIterator;
const TickType_t xValueOfInsertion = pxNewListItem->xItemValue;
  400faa:	680d      	ldr	r5, [r1, #0]
	new list item should be placed after it.  This ensures that TCB's which are
	stored in ready lists (all of which have the same xItemValue value) get a
	share of the CPU.  However, if the xItemValue is the same as the back marker
	the iteration loop below will not end.  Therefore the value is checked
	first, and the algorithm slightly modified if necessary. */
	if( xValueOfInsertion == portMAX_DELAY )
  400fac:	f1b5 3fff 	cmp.w	r5, #4294967295
  400fb0:	d002      	beq.n	400fb8 <vListInsert+0x10>
			4) Using a queue or semaphore before it has been initialised or
			   before the scheduler has been started (are interrupts firing
			   before vTaskStartScheduler() has been called?).
		**********************************************************************/

		for( pxIterator = ( ListItem_t * ) &( pxList->xListEnd ); pxIterator->pxNext->xItemValue <= xValueOfInsertion; pxIterator = pxIterator->pxNext ) /*lint !e826 !e740 The mini list structure is used as the list end to save RAM.  This is checked and valid. */
  400fb2:	f100 0208 	add.w	r2, r0, #8
  400fb6:	e002      	b.n	400fbe <vListInsert+0x16>
		pxIterator = pxList->xListEnd.pxPrevious;
  400fb8:	6902      	ldr	r2, [r0, #16]
  400fba:	e004      	b.n	400fc6 <vListInsert+0x1e>
		for( pxIterator = ( ListItem_t * ) &( pxList->xListEnd ); pxIterator->pxNext->xItemValue <= xValueOfInsertion; pxIterator = pxIterator->pxNext ) /*lint !e826 !e740 The mini list structure is used as the list end to save RAM.  This is checked and valid. */
  400fbc:	461a      	mov	r2, r3
  400fbe:	6853      	ldr	r3, [r2, #4]
  400fc0:	681c      	ldr	r4, [r3, #0]
  400fc2:	42a5      	cmp	r5, r4
  400fc4:	d2fa      	bcs.n	400fbc <vListInsert+0x14>
			/* There is nothing to do here, just iterating to the wanted
			insertion position. */
		}
	}

	pxNewListItem->pxNext = pxIterator->pxNext;
  400fc6:	6853      	ldr	r3, [r2, #4]
  400fc8:	604b      	str	r3, [r1, #4]
	pxNewListItem->pxNext->pxPrevious = pxNewListItem;
  400fca:	6099      	str	r1, [r3, #8]
	pxNewListItem->pxPrevious = pxIterator;
  400fcc:	608a      	str	r2, [r1, #8]
	pxIterator->pxNext = pxNewListItem;
  400fce:	6051      	str	r1, [r2, #4]

	/* Remember which list the item is in.  This allows fast removal of the
	item later. */
	pxNewListItem->pvContainer = ( void * ) pxList;
  400fd0:	6108      	str	r0, [r1, #16]

	( pxList->uxNumberOfItems )++;
  400fd2:	6803      	ldr	r3, [r0, #0]
  400fd4:	3301      	adds	r3, #1
  400fd6:	6003      	str	r3, [r0, #0]
}
  400fd8:	bc30      	pop	{r4, r5}
  400fda:	4770      	bx	lr

00400fdc <uxListRemove>:

UBaseType_t uxListRemove( ListItem_t * const pxItemToRemove )
{
/* The list item knows which list it is in.  Obtain the list from the list
item. */
List_t * const pxList = ( List_t * ) pxItemToRemove->pvContainer;
  400fdc:	6903      	ldr	r3, [r0, #16]

	pxItemToRemove->pxNext->pxPrevious = pxItemToRemove->pxPrevious;
  400fde:	6842      	ldr	r2, [r0, #4]
  400fe0:	6881      	ldr	r1, [r0, #8]
  400fe2:	6091      	str	r1, [r2, #8]
	pxItemToRemove->pxPrevious->pxNext = pxItemToRemove->pxNext;
  400fe4:	6882      	ldr	r2, [r0, #8]
  400fe6:	6841      	ldr	r1, [r0, #4]
  400fe8:	6051      	str	r1, [r2, #4]

	/* Only used during decision coverage testing. */
	mtCOVERAGE_TEST_DELAY();

	/* Make sure the index is left pointing to a valid item. */
	if( pxList->pxIndex == pxItemToRemove )
  400fea:	685a      	ldr	r2, [r3, #4]
  400fec:	4290      	cmp	r0, r2
  400fee:	d005      	beq.n	400ffc <uxListRemove+0x20>
	else
	{
		mtCOVERAGE_TEST_MARKER();
	}

	pxItemToRemove->pvContainer = NULL;
  400ff0:	2200      	movs	r2, #0
  400ff2:	6102      	str	r2, [r0, #16]
	( pxList->uxNumberOfItems )--;
  400ff4:	6818      	ldr	r0, [r3, #0]
  400ff6:	3801      	subs	r0, #1
  400ff8:	6018      	str	r0, [r3, #0]

	return pxList->uxNumberOfItems;
}
  400ffa:	4770      	bx	lr
		pxList->pxIndex = pxItemToRemove->pxPrevious;
  400ffc:	6882      	ldr	r2, [r0, #8]
  400ffe:	605a      	str	r2, [r3, #4]
  401000:	e7f6      	b.n	400ff0 <uxListRemove+0x14>

00401002 <prvTaskExitError>:

portFORCE_INLINE static void vPortRaiseBASEPRI( void )
{
uint32_t ulNewBASEPRI;

	__asm volatile
  401002:	f04f 0380 	mov.w	r3, #128	; 0x80
  401006:	b672      	cpsid	i
  401008:	f383 8811 	msr	BASEPRI, r3
  40100c:	f3bf 8f6f 	isb	sy
  401010:	f3bf 8f4f 	dsb	sy
  401014:	b662      	cpsie	i
  401016:	e7fe      	b.n	401016 <prvTaskExitError+0x14>

00401018 <prvPortStartFirstTask>:
}
/*-----------------------------------------------------------*/

static void prvPortStartFirstTask( void )
{
	__asm volatile(
  401018:	4806      	ldr	r0, [pc, #24]	; (401034 <prvPortStartFirstTask+0x1c>)
  40101a:	6800      	ldr	r0, [r0, #0]
  40101c:	6800      	ldr	r0, [r0, #0]
  40101e:	f380 8808 	msr	MSP, r0
  401022:	b662      	cpsie	i
  401024:	b661      	cpsie	f
  401026:	f3bf 8f4f 	dsb	sy
  40102a:	f3bf 8f6f 	isb	sy
  40102e:	df00      	svc	0
  401030:	bf00      	nop
  401032:	0000      	.short	0x0000
  401034:	e000ed08 	.word	0xe000ed08

00401038 <vPortEnableVFP>:
/*-----------------------------------------------------------*/

/* This is a naked function. */
static void vPortEnableVFP( void )
{
	__asm volatile
  401038:	f8df 000c 	ldr.w	r0, [pc, #12]	; 401048 <vPortEnableVFP+0x10>
  40103c:	6801      	ldr	r1, [r0, #0]
  40103e:	f441 0170 	orr.w	r1, r1, #15728640	; 0xf00000
  401042:	6001      	str	r1, [r0, #0]
  401044:	4770      	bx	lr
  401046:	0000      	.short	0x0000
  401048:	e000ed88 	.word	0xe000ed88

0040104c <pxPortInitialiseStack>:
	*pxTopOfStack = portINITIAL_XPSR;	/* xPSR */
  40104c:	f04f 7380 	mov.w	r3, #16777216	; 0x1000000
  401050:	f840 3c04 	str.w	r3, [r0, #-4]
	*pxTopOfStack = ( StackType_t ) pxCode;	/* PC */
  401054:	f840 1c08 	str.w	r1, [r0, #-8]
	*pxTopOfStack = ( StackType_t ) portTASK_RETURN_ADDRESS;	/* LR */
  401058:	4b05      	ldr	r3, [pc, #20]	; (401070 <pxPortInitialiseStack+0x24>)
  40105a:	f840 3c0c 	str.w	r3, [r0, #-12]
	*pxTopOfStack = ( StackType_t ) pvParameters;	/* R0 */
  40105e:	f840 2c20 	str.w	r2, [r0, #-32]
	*pxTopOfStack = portINITIAL_EXEC_RETURN;
  401062:	f06f 0302 	mvn.w	r3, #2
  401066:	f840 3c24 	str.w	r3, [r0, #-36]
}
  40106a:	3844      	subs	r0, #68	; 0x44
  40106c:	4770      	bx	lr
  40106e:	bf00      	nop
  401070:	00401003 	.word	0x00401003

00401074 <SVC_Handler>:
	__asm volatile (
  401074:	4b06      	ldr	r3, [pc, #24]	; (401090 <pxCurrentTCBConst2>)
  401076:	6819      	ldr	r1, [r3, #0]
  401078:	6808      	ldr	r0, [r1, #0]
  40107a:	e8b0 4ff0 	ldmia.w	r0!, {r4, r5, r6, r7, r8, r9, sl, fp, lr}
  40107e:	f380 8809 	msr	PSP, r0
  401082:	f3bf 8f6f 	isb	sy
  401086:	f04f 0000 	mov.w	r0, #0
  40108a:	f380 8811 	msr	BASEPRI, r0
  40108e:	4770      	bx	lr

00401090 <pxCurrentTCBConst2>:
  401090:	20400a58 	.word	0x20400a58
  401094:	4770      	bx	lr
  401096:	bf00      	nop

00401098 <vPortEnterCritical>:
  401098:	f04f 0380 	mov.w	r3, #128	; 0x80
  40109c:	b672      	cpsid	i
  40109e:	f383 8811 	msr	BASEPRI, r3
  4010a2:	f3bf 8f6f 	isb	sy
  4010a6:	f3bf 8f4f 	dsb	sy
  4010aa:	b662      	cpsie	i
	uxCriticalNesting++;
  4010ac:	4a02      	ldr	r2, [pc, #8]	; (4010b8 <vPortEnterCritical+0x20>)
  4010ae:	6813      	ldr	r3, [r2, #0]
  4010b0:	3301      	adds	r3, #1
  4010b2:	6013      	str	r3, [r2, #0]
  4010b4:	4770      	bx	lr
  4010b6:	bf00      	nop
  4010b8:	20400008 	.word	0x20400008

004010bc <vPortExitCritical>:
	uxCriticalNesting--;
  4010bc:	4a03      	ldr	r2, [pc, #12]	; (4010cc <vPortExitCritical+0x10>)
  4010be:	6813      	ldr	r3, [r2, #0]
  4010c0:	3b01      	subs	r3, #1
  4010c2:	6013      	str	r3, [r2, #0]
	if( uxCriticalNesting == 0 )
  4010c4:	b90b      	cbnz	r3, 4010ca <vPortExitCritical+0xe>
}
/*-----------------------------------------------------------*/

portFORCE_INLINE static void vPortSetBASEPRI( uint32_t ulNewMaskValue )
{
	__asm volatile
  4010c6:	f383 8811 	msr	BASEPRI, r3
  4010ca:	4770      	bx	lr
  4010cc:	20400008 	.word	0x20400008

004010d0 <PendSV_Handler>:
	__asm volatile
  4010d0:	f3ef 8009 	mrs	r0, PSP
  4010d4:	f3bf 8f6f 	isb	sy
  4010d8:	4b15      	ldr	r3, [pc, #84]	; (401130 <pxCurrentTCBConst>)
  4010da:	681a      	ldr	r2, [r3, #0]
  4010dc:	f01e 0f10 	tst.w	lr, #16
  4010e0:	bf08      	it	eq
  4010e2:	ed20 8a10 	vstmdbeq	r0!, {s16-s31}
  4010e6:	e920 4ff0 	stmdb	r0!, {r4, r5, r6, r7, r8, r9, sl, fp, lr}
  4010ea:	6010      	str	r0, [r2, #0]
  4010ec:	f84d 3d04 	str.w	r3, [sp, #-4]!
  4010f0:	f04f 0080 	mov.w	r0, #128	; 0x80
  4010f4:	b672      	cpsid	i
  4010f6:	f380 8811 	msr	BASEPRI, r0
  4010fa:	f3bf 8f4f 	dsb	sy
  4010fe:	f3bf 8f6f 	isb	sy
  401102:	b662      	cpsie	i
  401104:	f000 ffee 	bl	4020e4 <vTaskSwitchContext>
  401108:	f04f 0000 	mov.w	r0, #0
  40110c:	f380 8811 	msr	BASEPRI, r0
  401110:	bc08      	pop	{r3}
  401112:	6819      	ldr	r1, [r3, #0]
  401114:	6808      	ldr	r0, [r1, #0]
  401116:	e8b0 4ff0 	ldmia.w	r0!, {r4, r5, r6, r7, r8, r9, sl, fp, lr}
  40111a:	f01e 0f10 	tst.w	lr, #16
  40111e:	bf08      	it	eq
  401120:	ecb0 8a10 	vldmiaeq	r0!, {s16-s31}
  401124:	f380 8809 	msr	PSP, r0
  401128:	f3bf 8f6f 	isb	sy
  40112c:	4770      	bx	lr
  40112e:	bf00      	nop

00401130 <pxCurrentTCBConst>:
  401130:	20400a58 	.word	0x20400a58
  401134:	4770      	bx	lr
  401136:	bf00      	nop

00401138 <SysTick_Handler>:
{
  401138:	b508      	push	{r3, lr}
	__asm volatile
  40113a:	f3ef 8311 	mrs	r3, BASEPRI
  40113e:	f04f 0280 	mov.w	r2, #128	; 0x80
  401142:	b672      	cpsid	i
  401144:	f382 8811 	msr	BASEPRI, r2
  401148:	f3bf 8f6f 	isb	sy
  40114c:	f3bf 8f4f 	dsb	sy
  401150:	b662      	cpsie	i
		if( xTaskIncrementTick() != pdFALSE )
  401152:	4b05      	ldr	r3, [pc, #20]	; (401168 <SysTick_Handler+0x30>)
  401154:	4798      	blx	r3
  401156:	b118      	cbz	r0, 401160 <SysTick_Handler+0x28>
			portNVIC_INT_CTRL_REG = portNVIC_PENDSVSET_BIT;
  401158:	f04f 5280 	mov.w	r2, #268435456	; 0x10000000
  40115c:	4b03      	ldr	r3, [pc, #12]	; (40116c <SysTick_Handler+0x34>)
  40115e:	601a      	str	r2, [r3, #0]
	__asm volatile
  401160:	2300      	movs	r3, #0
  401162:	f383 8811 	msr	BASEPRI, r3
  401166:	bd08      	pop	{r3, pc}
  401168:	00401cf5 	.word	0x00401cf5
  40116c:	e000ed04 	.word	0xe000ed04

00401170 <vPortSetupTimerInterrupt>:
	portNVIC_SYSTICK_LOAD_REG = ( configSYSTICK_CLOCK_HZ / configTICK_RATE_HZ ) - 1UL;
  401170:	4a03      	ldr	r2, [pc, #12]	; (401180 <vPortSetupTimerInterrupt+0x10>)
  401172:	4b04      	ldr	r3, [pc, #16]	; (401184 <vPortSetupTimerInterrupt+0x14>)
  401174:	601a      	str	r2, [r3, #0]
	portNVIC_SYSTICK_CTRL_REG = ( portNVIC_SYSTICK_CLK_BIT | portNVIC_SYSTICK_INT_BIT | portNVIC_SYSTICK_ENABLE_BIT );
  401176:	2207      	movs	r2, #7
  401178:	3b04      	subs	r3, #4
  40117a:	601a      	str	r2, [r3, #0]
  40117c:	4770      	bx	lr
  40117e:	bf00      	nop
  401180:	00124f7f 	.word	0x00124f7f
  401184:	e000e014 	.word	0xe000e014

00401188 <xPortStartScheduler>:
{
  401188:	b508      	push	{r3, lr}
	portNVIC_SYSPRI2_REG |= portNVIC_PENDSV_PRI;
  40118a:	4b0c      	ldr	r3, [pc, #48]	; (4011bc <xPortStartScheduler+0x34>)
  40118c:	681a      	ldr	r2, [r3, #0]
  40118e:	f442 0260 	orr.w	r2, r2, #14680064	; 0xe00000
  401192:	601a      	str	r2, [r3, #0]
	portNVIC_SYSPRI2_REG |= portNVIC_SYSTICK_PRI;
  401194:	681a      	ldr	r2, [r3, #0]
  401196:	f042 4260 	orr.w	r2, r2, #3758096384	; 0xe0000000
  40119a:	601a      	str	r2, [r3, #0]
	vPortSetupTimerInterrupt();
  40119c:	4b08      	ldr	r3, [pc, #32]	; (4011c0 <xPortStartScheduler+0x38>)
  40119e:	4798      	blx	r3
	uxCriticalNesting = 0;
  4011a0:	2200      	movs	r2, #0
  4011a2:	4b08      	ldr	r3, [pc, #32]	; (4011c4 <xPortStartScheduler+0x3c>)
  4011a4:	601a      	str	r2, [r3, #0]
	vPortEnableVFP();
  4011a6:	4b08      	ldr	r3, [pc, #32]	; (4011c8 <xPortStartScheduler+0x40>)
  4011a8:	4798      	blx	r3
	*( portFPCCR ) |= portASPEN_AND_LSPEN_BITS;
  4011aa:	4a08      	ldr	r2, [pc, #32]	; (4011cc <xPortStartScheduler+0x44>)
  4011ac:	6813      	ldr	r3, [r2, #0]
  4011ae:	f043 4340 	orr.w	r3, r3, #3221225472	; 0xc0000000
  4011b2:	6013      	str	r3, [r2, #0]
	prvPortStartFirstTask();
  4011b4:	4b06      	ldr	r3, [pc, #24]	; (4011d0 <xPortStartScheduler+0x48>)
  4011b6:	4798      	blx	r3
	prvTaskExitError();
  4011b8:	4b06      	ldr	r3, [pc, #24]	; (4011d4 <xPortStartScheduler+0x4c>)
  4011ba:	4798      	blx	r3
  4011bc:	e000ed20 	.word	0xe000ed20
  4011c0:	00401171 	.word	0x00401171
  4011c4:	20400008 	.word	0x20400008
  4011c8:	00401039 	.word	0x00401039
  4011cc:	e000ef34 	.word	0xe000ef34
  4011d0:	00401019 	.word	0x00401019
  4011d4:	00401003 	.word	0x00401003

004011d8 <pvPortMalloc>:
#undef MPU_WRAPPERS_INCLUDED_FROM_API_FILE

/*-----------------------------------------------------------*/

void *pvPortMalloc( size_t xWantedSize )
{
  4011d8:	b510      	push	{r4, lr}
  4011da:	4604      	mov	r4, r0
void *pvReturn;

	vTaskSuspendAll();
  4011dc:	4b06      	ldr	r3, [pc, #24]	; (4011f8 <pvPortMalloc+0x20>)
  4011de:	4798      	blx	r3
	{
		pvReturn = malloc( xWantedSize );
  4011e0:	4620      	mov	r0, r4
  4011e2:	4b06      	ldr	r3, [pc, #24]	; (4011fc <pvPortMalloc+0x24>)
  4011e4:	4798      	blx	r3
  4011e6:	4604      	mov	r4, r0
		traceMALLOC( pvReturn, xWantedSize );
	}
	( void ) xTaskResumeAll();
  4011e8:	4b05      	ldr	r3, [pc, #20]	; (401200 <pvPortMalloc+0x28>)
  4011ea:	4798      	blx	r3

	#if( configUSE_MALLOC_FAILED_HOOK == 1 )
	{
		if( pvReturn == NULL )
  4011ec:	b10c      	cbz	r4, 4011f2 <pvPortMalloc+0x1a>
		}
	}
	#endif

	return pvReturn;
}
  4011ee:	4620      	mov	r0, r4
  4011f0:	bd10      	pop	{r4, pc}
			vApplicationMallocFailedHook();
  4011f2:	4b04      	ldr	r3, [pc, #16]	; (401204 <pvPortMalloc+0x2c>)
  4011f4:	4798      	blx	r3
	return pvReturn;
  4011f6:	e7fa      	b.n	4011ee <pvPortMalloc+0x16>
  4011f8:	00401ccd 	.word	0x00401ccd
  4011fc:	004032ad 	.word	0x004032ad
  401200:	00401e2d 	.word	0x00401e2d
  401204:	00402d03 	.word	0x00402d03

00401208 <vPortFree>:
/*-----------------------------------------------------------*/

void vPortFree( void *pv )
{
	if( pv )
  401208:	b148      	cbz	r0, 40121e <vPortFree+0x16>
{
  40120a:	b510      	push	{r4, lr}
  40120c:	4604      	mov	r4, r0
	{
		vTaskSuspendAll();
  40120e:	4b04      	ldr	r3, [pc, #16]	; (401220 <vPortFree+0x18>)
  401210:	4798      	blx	r3
		{
			free( pv );
  401212:	4620      	mov	r0, r4
  401214:	4b03      	ldr	r3, [pc, #12]	; (401224 <vPortFree+0x1c>)
  401216:	4798      	blx	r3
			traceFREE( pv, 0 );
		}
		( void ) xTaskResumeAll();
  401218:	4b03      	ldr	r3, [pc, #12]	; (401228 <vPortFree+0x20>)
  40121a:	4798      	blx	r3
  40121c:	bd10      	pop	{r4, pc}
  40121e:	4770      	bx	lr
  401220:	00401ccd 	.word	0x00401ccd
  401224:	004032bd 	.word	0x004032bd
  401228:	00401e2d 	.word	0x00401e2d

0040122c <prvCopyDataToQueue>:

#endif /* configUSE_TRACE_FACILITY */
/*-----------------------------------------------------------*/

static BaseType_t prvCopyDataToQueue( Queue_t * const pxQueue, const void *pvItemToQueue, const BaseType_t xPosition )
{
  40122c:	b538      	push	{r3, r4, r5, lr}
  40122e:	4604      	mov	r4, r0
  401230:	4615      	mov	r5, r2
BaseType_t xReturn = pdFALSE;

	if( pxQueue->uxItemSize == ( UBaseType_t ) 0 )
  401232:	6c02      	ldr	r2, [r0, #64]	; 0x40
  401234:	b962      	cbnz	r2, 401250 <prvCopyDataToQueue+0x24>
	{
		#if ( configUSE_MUTEXES == 1 )
		{
			if( pxQueue->uxQueueType == queueQUEUE_IS_MUTEX )
  401236:	6803      	ldr	r3, [r0, #0]
  401238:	b123      	cbz	r3, 401244 <prvCopyDataToQueue+0x18>
BaseType_t xReturn = pdFALSE;
  40123a:	2000      	movs	r0, #0
		{
			mtCOVERAGE_TEST_MARKER();
		}
	}

	++( pxQueue->uxMessagesWaiting );
  40123c:	6ba3      	ldr	r3, [r4, #56]	; 0x38
  40123e:	3301      	adds	r3, #1
  401240:	63a3      	str	r3, [r4, #56]	; 0x38

	return xReturn;
}
  401242:	bd38      	pop	{r3, r4, r5, pc}
				xReturn = xTaskPriorityDisinherit( ( void * ) pxQueue->pxMutexHolder );
  401244:	6840      	ldr	r0, [r0, #4]
  401246:	4b18      	ldr	r3, [pc, #96]	; (4012a8 <prvCopyDataToQueue+0x7c>)
  401248:	4798      	blx	r3
				pxQueue->pxMutexHolder = NULL;
  40124a:	2300      	movs	r3, #0
  40124c:	6063      	str	r3, [r4, #4]
  40124e:	e7f5      	b.n	40123c <prvCopyDataToQueue+0x10>
	else if( xPosition == queueSEND_TO_BACK )
  401250:	b96d      	cbnz	r5, 40126e <prvCopyDataToQueue+0x42>
		( void ) memcpy( ( void * ) pxQueue->pcWriteTo, pvItemToQueue, ( size_t ) pxQueue->uxItemSize ); /*lint !e961 !e418 MISRA exception as the casts are only redundant for some ports, plus previous logic ensures a null pointer can only be passed to memcpy() if the copy size is 0. */
  401252:	6880      	ldr	r0, [r0, #8]
  401254:	4b15      	ldr	r3, [pc, #84]	; (4012ac <prvCopyDataToQueue+0x80>)
  401256:	4798      	blx	r3
		pxQueue->pcWriteTo += pxQueue->uxItemSize;
  401258:	68a3      	ldr	r3, [r4, #8]
  40125a:	6c22      	ldr	r2, [r4, #64]	; 0x40
  40125c:	4413      	add	r3, r2
  40125e:	60a3      	str	r3, [r4, #8]
		if( pxQueue->pcWriteTo >= pxQueue->pcTail ) /*lint !e946 MISRA exception justified as comparison of pointers is the cleanest solution. */
  401260:	6862      	ldr	r2, [r4, #4]
  401262:	4293      	cmp	r3, r2
  401264:	d31c      	bcc.n	4012a0 <prvCopyDataToQueue+0x74>
			pxQueue->pcWriteTo = pxQueue->pcHead;
  401266:	6823      	ldr	r3, [r4, #0]
  401268:	60a3      	str	r3, [r4, #8]
BaseType_t xReturn = pdFALSE;
  40126a:	2000      	movs	r0, #0
  40126c:	e7e6      	b.n	40123c <prvCopyDataToQueue+0x10>
		( void ) memcpy( ( void * ) pxQueue->u.pcReadFrom, pvItemToQueue, ( size_t ) pxQueue->uxItemSize ); /*lint !e961 MISRA exception as the casts are only redundant for some ports. */
  40126e:	68c0      	ldr	r0, [r0, #12]
  401270:	4b0e      	ldr	r3, [pc, #56]	; (4012ac <prvCopyDataToQueue+0x80>)
  401272:	4798      	blx	r3
		pxQueue->u.pcReadFrom -= pxQueue->uxItemSize;
  401274:	6c22      	ldr	r2, [r4, #64]	; 0x40
  401276:	4252      	negs	r2, r2
  401278:	68e3      	ldr	r3, [r4, #12]
  40127a:	4413      	add	r3, r2
  40127c:	60e3      	str	r3, [r4, #12]
		if( pxQueue->u.pcReadFrom < pxQueue->pcHead ) /*lint !e946 MISRA exception justified as comparison of pointers is the cleanest solution. */
  40127e:	6821      	ldr	r1, [r4, #0]
  401280:	428b      	cmp	r3, r1
  401282:	d202      	bcs.n	40128a <prvCopyDataToQueue+0x5e>
			pxQueue->u.pcReadFrom = ( pxQueue->pcTail - pxQueue->uxItemSize );
  401284:	6863      	ldr	r3, [r4, #4]
  401286:	441a      	add	r2, r3
  401288:	60e2      	str	r2, [r4, #12]
		if( xPosition == queueOVERWRITE )
  40128a:	2d02      	cmp	r5, #2
  40128c:	d001      	beq.n	401292 <prvCopyDataToQueue+0x66>
BaseType_t xReturn = pdFALSE;
  40128e:	2000      	movs	r0, #0
  401290:	e7d4      	b.n	40123c <prvCopyDataToQueue+0x10>
			if( pxQueue->uxMessagesWaiting > ( UBaseType_t ) 0 )
  401292:	6ba3      	ldr	r3, [r4, #56]	; 0x38
  401294:	b133      	cbz	r3, 4012a4 <prvCopyDataToQueue+0x78>
				--( pxQueue->uxMessagesWaiting );
  401296:	6ba3      	ldr	r3, [r4, #56]	; 0x38
  401298:	3b01      	subs	r3, #1
  40129a:	63a3      	str	r3, [r4, #56]	; 0x38
BaseType_t xReturn = pdFALSE;
  40129c:	2000      	movs	r0, #0
  40129e:	e7cd      	b.n	40123c <prvCopyDataToQueue+0x10>
  4012a0:	2000      	movs	r0, #0
  4012a2:	e7cb      	b.n	40123c <prvCopyDataToQueue+0x10>
  4012a4:	2000      	movs	r0, #0
  4012a6:	e7c9      	b.n	40123c <prvCopyDataToQueue+0x10>
  4012a8:	00402435 	.word	0x00402435
  4012ac:	0040382d 	.word	0x0040382d

004012b0 <prvNotifyQueueSetContainer>:
/*-----------------------------------------------------------*/

#if ( configUSE_QUEUE_SETS == 1 )

	static BaseType_t prvNotifyQueueSetContainer( const Queue_t * const pxQueue, const BaseType_t xCopyPosition )
	{
  4012b0:	b530      	push	{r4, r5, lr}
  4012b2:	b083      	sub	sp, #12
  4012b4:	9001      	str	r0, [sp, #4]
	Queue_t *pxQueueSetContainer = pxQueue->pxQueueSetContainer;
  4012b6:	6d44      	ldr	r4, [r0, #84]	; 0x54
		/* This function must be called form a critical section. */

		configASSERT( pxQueueSetContainer );
		configASSERT( pxQueueSetContainer->uxMessagesWaiting < pxQueueSetContainer->uxLength );

		if( pxQueueSetContainer->uxMessagesWaiting < pxQueueSetContainer->uxLength )
  4012b8:	6ba2      	ldr	r2, [r4, #56]	; 0x38
  4012ba:	6be3      	ldr	r3, [r4, #60]	; 0x3c
  4012bc:	429a      	cmp	r2, r3
  4012be:	d303      	bcc.n	4012c8 <prvNotifyQueueSetContainer+0x18>
	BaseType_t xReturn = pdFALSE;
  4012c0:	2500      	movs	r5, #0
		{
			mtCOVERAGE_TEST_MARKER();
		}

		return xReturn;
	}
  4012c2:	4628      	mov	r0, r5
  4012c4:	b003      	add	sp, #12
  4012c6:	bd30      	pop	{r4, r5, pc}
  4012c8:	460a      	mov	r2, r1
			xReturn = prvCopyDataToQueue( pxQueueSetContainer, &pxQueue, xCopyPosition );
  4012ca:	a901      	add	r1, sp, #4
  4012cc:	4620      	mov	r0, r4
  4012ce:	4b0b      	ldr	r3, [pc, #44]	; (4012fc <prvNotifyQueueSetContainer+0x4c>)
  4012d0:	4798      	blx	r3
  4012d2:	4605      	mov	r5, r0
			if( pxQueueSetContainer->xTxLock == queueUNLOCKED )
  4012d4:	6ca3      	ldr	r3, [r4, #72]	; 0x48
  4012d6:	f1b3 3fff 	cmp.w	r3, #4294967295
  4012da:	d003      	beq.n	4012e4 <prvNotifyQueueSetContainer+0x34>
				( pxQueueSetContainer->xTxLock )++;
  4012dc:	6ca3      	ldr	r3, [r4, #72]	; 0x48
  4012de:	3301      	adds	r3, #1
  4012e0:	64a3      	str	r3, [r4, #72]	; 0x48
  4012e2:	e7ee      	b.n	4012c2 <prvNotifyQueueSetContainer+0x12>
				if( listLIST_IS_EMPTY( &( pxQueueSetContainer->xTasksWaitingToReceive ) ) == pdFALSE )
  4012e4:	6a63      	ldr	r3, [r4, #36]	; 0x24
  4012e6:	2b00      	cmp	r3, #0
  4012e8:	d0eb      	beq.n	4012c2 <prvNotifyQueueSetContainer+0x12>
					if( xTaskRemoveFromEventList( &( pxQueueSetContainer->xTasksWaitingToReceive ) ) != pdFALSE )
  4012ea:	f104 0024 	add.w	r0, r4, #36	; 0x24
  4012ee:	4b04      	ldr	r3, [pc, #16]	; (401300 <prvNotifyQueueSetContainer+0x50>)
  4012f0:	4798      	blx	r3
  4012f2:	2800      	cmp	r0, #0
						xReturn = pdTRUE;
  4012f4:	bf18      	it	ne
  4012f6:	2501      	movne	r5, #1
  4012f8:	e7e3      	b.n	4012c2 <prvNotifyQueueSetContainer+0x12>
  4012fa:	bf00      	nop
  4012fc:	0040122d 	.word	0x0040122d
  401300:	00402269 	.word	0x00402269

00401304 <prvCopyDataFromQueue>:
	if( pxQueue->uxItemSize != ( UBaseType_t ) 0 )
  401304:	6c02      	ldr	r2, [r0, #64]	; 0x40
  401306:	b172      	cbz	r2, 401326 <prvCopyDataFromQueue+0x22>
{
  401308:	b510      	push	{r4, lr}
		pxQueue->u.pcReadFrom += pxQueue->uxItemSize;
  40130a:	68c3      	ldr	r3, [r0, #12]
  40130c:	4413      	add	r3, r2
  40130e:	60c3      	str	r3, [r0, #12]
		if( pxQueue->u.pcReadFrom >= pxQueue->pcTail ) /*lint !e946 MISRA exception justified as use of the relational operator is the cleanest solutions. */
  401310:	6844      	ldr	r4, [r0, #4]
  401312:	42a3      	cmp	r3, r4
  401314:	d301      	bcc.n	40131a <prvCopyDataFromQueue+0x16>
			pxQueue->u.pcReadFrom = pxQueue->pcHead;
  401316:	6803      	ldr	r3, [r0, #0]
  401318:	60c3      	str	r3, [r0, #12]
  40131a:	460c      	mov	r4, r1
		( void ) memcpy( ( void * ) pvBuffer, ( void * ) pxQueue->u.pcReadFrom, ( size_t ) pxQueue->uxItemSize ); /*lint !e961 !e418 MISRA exception as the casts are only redundant for some ports.  Also previous logic ensures a null pointer can only be passed to memcpy() when the count is 0. */
  40131c:	68c1      	ldr	r1, [r0, #12]
  40131e:	4620      	mov	r0, r4
  401320:	4b01      	ldr	r3, [pc, #4]	; (401328 <prvCopyDataFromQueue+0x24>)
  401322:	4798      	blx	r3
  401324:	bd10      	pop	{r4, pc}
  401326:	4770      	bx	lr
  401328:	0040382d 	.word	0x0040382d

0040132c <prvUnlockQueue>:
{
  40132c:	b5f8      	push	{r3, r4, r5, r6, r7, lr}
  40132e:	4604      	mov	r4, r0
	taskENTER_CRITICAL();
  401330:	4b22      	ldr	r3, [pc, #136]	; (4013bc <prvUnlockQueue+0x90>)
  401332:	4798      	blx	r3
		while( pxQueue->xTxLock > queueLOCKED_UNMODIFIED )
  401334:	6ca3      	ldr	r3, [r4, #72]	; 0x48
  401336:	2b00      	cmp	r3, #0
  401338:	dd1b      	ble.n	401372 <prvUnlockQueue+0x46>
					if( prvNotifyQueueSetContainer( pxQueue, queueSEND_TO_BACK ) == pdTRUE )
  40133a:	4d21      	ldr	r5, [pc, #132]	; (4013c0 <prvUnlockQueue+0x94>)
						vTaskMissedYield();
  40133c:	4f21      	ldr	r7, [pc, #132]	; (4013c4 <prvUnlockQueue+0x98>)
						if( xTaskRemoveFromEventList( &( pxQueue->xTasksWaitingToReceive ) ) != pdFALSE )
  40133e:	4e22      	ldr	r6, [pc, #136]	; (4013c8 <prvUnlockQueue+0x9c>)
  401340:	e00b      	b.n	40135a <prvUnlockQueue+0x2e>
					if( listLIST_IS_EMPTY( &( pxQueue->xTasksWaitingToReceive ) ) == pdFALSE )
  401342:	6a63      	ldr	r3, [r4, #36]	; 0x24
  401344:	b1ab      	cbz	r3, 401372 <prvUnlockQueue+0x46>
						if( xTaskRemoveFromEventList( &( pxQueue->xTasksWaitingToReceive ) ) != pdFALSE )
  401346:	f104 0024 	add.w	r0, r4, #36	; 0x24
  40134a:	47b0      	blx	r6
  40134c:	b978      	cbnz	r0, 40136e <prvUnlockQueue+0x42>
			--( pxQueue->xTxLock );
  40134e:	6ca3      	ldr	r3, [r4, #72]	; 0x48
  401350:	3b01      	subs	r3, #1
  401352:	64a3      	str	r3, [r4, #72]	; 0x48
		while( pxQueue->xTxLock > queueLOCKED_UNMODIFIED )
  401354:	6ca3      	ldr	r3, [r4, #72]	; 0x48
  401356:	2b00      	cmp	r3, #0
  401358:	dd0b      	ble.n	401372 <prvUnlockQueue+0x46>
				if( pxQueue->pxQueueSetContainer != NULL )
  40135a:	6d63      	ldr	r3, [r4, #84]	; 0x54
  40135c:	2b00      	cmp	r3, #0
  40135e:	d0f0      	beq.n	401342 <prvUnlockQueue+0x16>
					if( prvNotifyQueueSetContainer( pxQueue, queueSEND_TO_BACK ) == pdTRUE )
  401360:	2100      	movs	r1, #0
  401362:	4620      	mov	r0, r4
  401364:	47a8      	blx	r5
  401366:	2801      	cmp	r0, #1
  401368:	d1f1      	bne.n	40134e <prvUnlockQueue+0x22>
						vTaskMissedYield();
  40136a:	47b8      	blx	r7
  40136c:	e7ef      	b.n	40134e <prvUnlockQueue+0x22>
							vTaskMissedYield();
  40136e:	47b8      	blx	r7
  401370:	e7ed      	b.n	40134e <prvUnlockQueue+0x22>
		pxQueue->xTxLock = queueUNLOCKED;
  401372:	f04f 33ff 	mov.w	r3, #4294967295
  401376:	64a3      	str	r3, [r4, #72]	; 0x48
	taskEXIT_CRITICAL();
  401378:	4b14      	ldr	r3, [pc, #80]	; (4013cc <prvUnlockQueue+0xa0>)
  40137a:	4798      	blx	r3
	taskENTER_CRITICAL();
  40137c:	4b0f      	ldr	r3, [pc, #60]	; (4013bc <prvUnlockQueue+0x90>)
  40137e:	4798      	blx	r3
		while( pxQueue->xRxLock > queueLOCKED_UNMODIFIED )
  401380:	6c63      	ldr	r3, [r4, #68]	; 0x44
  401382:	2b00      	cmp	r3, #0
  401384:	dd14      	ble.n	4013b0 <prvUnlockQueue+0x84>
			if( listLIST_IS_EMPTY( &( pxQueue->xTasksWaitingToSend ) ) == pdFALSE )
  401386:	6923      	ldr	r3, [r4, #16]
  401388:	b193      	cbz	r3, 4013b0 <prvUnlockQueue+0x84>
				if( xTaskRemoveFromEventList( &( pxQueue->xTasksWaitingToSend ) ) != pdFALSE )
  40138a:	f104 0610 	add.w	r6, r4, #16
  40138e:	4d0e      	ldr	r5, [pc, #56]	; (4013c8 <prvUnlockQueue+0x9c>)
					vTaskMissedYield();
  401390:	4f0c      	ldr	r7, [pc, #48]	; (4013c4 <prvUnlockQueue+0x98>)
  401392:	e007      	b.n	4013a4 <prvUnlockQueue+0x78>
				--( pxQueue->xRxLock );
  401394:	6c63      	ldr	r3, [r4, #68]	; 0x44
  401396:	3b01      	subs	r3, #1
  401398:	6463      	str	r3, [r4, #68]	; 0x44
		while( pxQueue->xRxLock > queueLOCKED_UNMODIFIED )
  40139a:	6c63      	ldr	r3, [r4, #68]	; 0x44
  40139c:	2b00      	cmp	r3, #0
  40139e:	dd07      	ble.n	4013b0 <prvUnlockQueue+0x84>
			if( listLIST_IS_EMPTY( &( pxQueue->xTasksWaitingToSend ) ) == pdFALSE )
  4013a0:	6923      	ldr	r3, [r4, #16]
  4013a2:	b12b      	cbz	r3, 4013b0 <prvUnlockQueue+0x84>
				if( xTaskRemoveFromEventList( &( pxQueue->xTasksWaitingToSend ) ) != pdFALSE )
  4013a4:	4630      	mov	r0, r6
  4013a6:	47a8      	blx	r5
  4013a8:	2800      	cmp	r0, #0
  4013aa:	d0f3      	beq.n	401394 <prvUnlockQueue+0x68>
					vTaskMissedYield();
  4013ac:	47b8      	blx	r7
  4013ae:	e7f1      	b.n	401394 <prvUnlockQueue+0x68>
		pxQueue->xRxLock = queueUNLOCKED;
  4013b0:	f04f 33ff 	mov.w	r3, #4294967295
  4013b4:	6463      	str	r3, [r4, #68]	; 0x44
	taskEXIT_CRITICAL();
  4013b6:	4b05      	ldr	r3, [pc, #20]	; (4013cc <prvUnlockQueue+0xa0>)
  4013b8:	4798      	blx	r3
  4013ba:	bdf8      	pop	{r3, r4, r5, r6, r7, pc}
  4013bc:	00401099 	.word	0x00401099
  4013c0:	004012b1 	.word	0x004012b1
  4013c4:	00402365 	.word	0x00402365
  4013c8:	00402269 	.word	0x00402269
  4013cc:	004010bd 	.word	0x004010bd

004013d0 <xQueueGenericReset>:
{
  4013d0:	b538      	push	{r3, r4, r5, lr}
  4013d2:	4604      	mov	r4, r0
  4013d4:	460d      	mov	r5, r1
	taskENTER_CRITICAL();
  4013d6:	4b18      	ldr	r3, [pc, #96]	; (401438 <xQueueGenericReset+0x68>)
  4013d8:	4798      	blx	r3
		pxQueue->pcTail = pxQueue->pcHead + ( pxQueue->uxLength * pxQueue->uxItemSize );
  4013da:	6822      	ldr	r2, [r4, #0]
  4013dc:	6c21      	ldr	r1, [r4, #64]	; 0x40
  4013de:	6be3      	ldr	r3, [r4, #60]	; 0x3c
  4013e0:	fb03 f301 	mul.w	r3, r3, r1
  4013e4:	18d0      	adds	r0, r2, r3
  4013e6:	6060      	str	r0, [r4, #4]
		pxQueue->uxMessagesWaiting = ( UBaseType_t ) 0U;
  4013e8:	2000      	movs	r0, #0
  4013ea:	63a0      	str	r0, [r4, #56]	; 0x38
		pxQueue->pcWriteTo = pxQueue->pcHead;
  4013ec:	60a2      	str	r2, [r4, #8]
		pxQueue->u.pcReadFrom = pxQueue->pcHead + ( ( pxQueue->uxLength - ( UBaseType_t ) 1U ) * pxQueue->uxItemSize );
  4013ee:	1a5b      	subs	r3, r3, r1
  4013f0:	4413      	add	r3, r2
  4013f2:	60e3      	str	r3, [r4, #12]
		pxQueue->xRxLock = queueUNLOCKED;
  4013f4:	f04f 33ff 	mov.w	r3, #4294967295
  4013f8:	6463      	str	r3, [r4, #68]	; 0x44
		pxQueue->xTxLock = queueUNLOCKED;
  4013fa:	64a3      	str	r3, [r4, #72]	; 0x48
		if( xNewQueue == pdFALSE )
  4013fc:	b9a5      	cbnz	r5, 401428 <xQueueGenericReset+0x58>
			if( listLIST_IS_EMPTY( &( pxQueue->xTasksWaitingToSend ) ) == pdFALSE )
  4013fe:	6923      	ldr	r3, [r4, #16]
  401400:	b91b      	cbnz	r3, 40140a <xQueueGenericReset+0x3a>
	taskEXIT_CRITICAL();
  401402:	4b0e      	ldr	r3, [pc, #56]	; (40143c <xQueueGenericReset+0x6c>)
  401404:	4798      	blx	r3
}
  401406:	2001      	movs	r0, #1
  401408:	bd38      	pop	{r3, r4, r5, pc}
				if( xTaskRemoveFromEventList( &( pxQueue->xTasksWaitingToSend ) ) == pdTRUE )
  40140a:	f104 0010 	add.w	r0, r4, #16
  40140e:	4b0c      	ldr	r3, [pc, #48]	; (401440 <xQueueGenericReset+0x70>)
  401410:	4798      	blx	r3
  401412:	2801      	cmp	r0, #1
  401414:	d1f5      	bne.n	401402 <xQueueGenericReset+0x32>
					queueYIELD_IF_USING_PREEMPTION();
  401416:	f04f 5280 	mov.w	r2, #268435456	; 0x10000000
  40141a:	4b0a      	ldr	r3, [pc, #40]	; (401444 <xQueueGenericReset+0x74>)
  40141c:	601a      	str	r2, [r3, #0]
  40141e:	f3bf 8f4f 	dsb	sy
  401422:	f3bf 8f6f 	isb	sy
  401426:	e7ec      	b.n	401402 <xQueueGenericReset+0x32>
			vListInitialise( &( pxQueue->xTasksWaitingToSend ) );
  401428:	f104 0010 	add.w	r0, r4, #16
  40142c:	4d06      	ldr	r5, [pc, #24]	; (401448 <xQueueGenericReset+0x78>)
  40142e:	47a8      	blx	r5
			vListInitialise( &( pxQueue->xTasksWaitingToReceive ) );
  401430:	f104 0024 	add.w	r0, r4, #36	; 0x24
  401434:	47a8      	blx	r5
  401436:	e7e4      	b.n	401402 <xQueueGenericReset+0x32>
  401438:	00401099 	.word	0x00401099
  40143c:	004010bd 	.word	0x004010bd
  401440:	00402269 	.word	0x00402269
  401444:	e000ed04 	.word	0xe000ed04
  401448:	00400f75 	.word	0x00400f75

0040144c <xQueueGenericCreate>:
{
  40144c:	b5f8      	push	{r3, r4, r5, r6, r7, lr}
  40144e:	4605      	mov	r5, r0
  401450:	4617      	mov	r7, r2
	if( uxItemSize == ( UBaseType_t ) 0 )
  401452:	460e      	mov	r6, r1
  401454:	b159      	cbz	r1, 40146e <xQueueGenericCreate+0x22>
		xQueueSizeInBytes = ( size_t ) ( uxQueueLength * uxItemSize ) + ( size_t ) 1; /*lint !e961 MISRA exception as the casts are only redundant for some ports. */
  401456:	fb00 f001 	mul.w	r0, r0, r1
	pxNewQueue = ( Queue_t * ) pvPortMalloc( sizeof( Queue_t ) + xQueueSizeInBytes );
  40145a:	3059      	adds	r0, #89	; 0x59
  40145c:	4b0d      	ldr	r3, [pc, #52]	; (401494 <xQueueGenericCreate+0x48>)
  40145e:	4798      	blx	r3
	if( pxNewQueue != NULL )
  401460:	4604      	mov	r4, r0
  401462:	b118      	cbz	r0, 40146c <xQueueGenericCreate+0x20>
			pxNewQueue->pcHead = ( ( int8_t * ) pxNewQueue ) + sizeof( Queue_t );
  401464:	f100 0358 	add.w	r3, r0, #88	; 0x58
  401468:	6003      	str	r3, [r0, #0]
  40146a:	e006      	b.n	40147a <xQueueGenericCreate+0x2e>
  40146c:	bdf8      	pop	{r3, r4, r5, r6, r7, pc}
	pxNewQueue = ( Queue_t * ) pvPortMalloc( sizeof( Queue_t ) + xQueueSizeInBytes );
  40146e:	2058      	movs	r0, #88	; 0x58
  401470:	4b08      	ldr	r3, [pc, #32]	; (401494 <xQueueGenericCreate+0x48>)
  401472:	4798      	blx	r3
	if( pxNewQueue != NULL )
  401474:	4604      	mov	r4, r0
  401476:	b160      	cbz	r0, 401492 <xQueueGenericCreate+0x46>
			pxNewQueue->pcHead = ( int8_t * ) pxNewQueue;
  401478:	6024      	str	r4, [r4, #0]
		pxNewQueue->uxLength = uxQueueLength;
  40147a:	63e5      	str	r5, [r4, #60]	; 0x3c
		pxNewQueue->uxItemSize = uxItemSize;
  40147c:	6426      	str	r6, [r4, #64]	; 0x40
		( void ) xQueueGenericReset( pxNewQueue, pdTRUE );
  40147e:	2101      	movs	r1, #1
  401480:	4620      	mov	r0, r4
  401482:	4b05      	ldr	r3, [pc, #20]	; (401498 <xQueueGenericCreate+0x4c>)
  401484:	4798      	blx	r3
			pxNewQueue->ucQueueType = ucQueueType;
  401486:	f884 7050 	strb.w	r7, [r4, #80]	; 0x50
			pxNewQueue->pxQueueSetContainer = NULL;
  40148a:	2300      	movs	r3, #0
  40148c:	6563      	str	r3, [r4, #84]	; 0x54
  40148e:	4620      	mov	r0, r4
	return xReturn;
  401490:	bdf8      	pop	{r3, r4, r5, r6, r7, pc}
}
  401492:	bdf8      	pop	{r3, r4, r5, r6, r7, pc}
  401494:	004011d9 	.word	0x004011d9
  401498:	004013d1 	.word	0x004013d1

0040149c <xQueueGenericSend>:
{
  40149c:	e92d 4ff0 	stmdb	sp!, {r4, r5, r6, r7, r8, r9, sl, fp, lr}
  4014a0:	b085      	sub	sp, #20
  4014a2:	4604      	mov	r4, r0
  4014a4:	468a      	mov	sl, r1
  4014a6:	9201      	str	r2, [sp, #4]
  4014a8:	461f      	mov	r7, r3
BaseType_t xEntryTimeSet = pdFALSE, xYieldRequired;
  4014aa:	2600      	movs	r6, #0
		taskENTER_CRITICAL();
  4014ac:	4d4a      	ldr	r5, [pc, #296]	; (4015d8 <xQueueGenericSend+0x13c>)
					vTaskSetTimeOutState( &xTimeOut );
  4014ae:	f8df 8154 	ldr.w	r8, [pc, #340]	; 401604 <xQueueGenericSend+0x168>
					portYIELD_WITHIN_API();
  4014b2:	f8df 9134 	ldr.w	r9, [pc, #308]	; 4015e8 <xQueueGenericSend+0x14c>
  4014b6:	e04a      	b.n	40154e <xQueueGenericSend+0xb2>
				xYieldRequired = prvCopyDataToQueue( pxQueue, pvItemToQueue, xCopyPosition );
  4014b8:	463a      	mov	r2, r7
  4014ba:	4651      	mov	r1, sl
  4014bc:	4620      	mov	r0, r4
  4014be:	4b47      	ldr	r3, [pc, #284]	; (4015dc <xQueueGenericSend+0x140>)
  4014c0:	4798      	blx	r3
					if( pxQueue->pxQueueSetContainer != NULL )
  4014c2:	6d63      	ldr	r3, [r4, #84]	; 0x54
  4014c4:	b1a3      	cbz	r3, 4014f0 <xQueueGenericSend+0x54>
						if( prvNotifyQueueSetContainer( pxQueue, xCopyPosition ) == pdTRUE )
  4014c6:	4639      	mov	r1, r7
  4014c8:	4620      	mov	r0, r4
  4014ca:	4b45      	ldr	r3, [pc, #276]	; (4015e0 <xQueueGenericSend+0x144>)
  4014cc:	4798      	blx	r3
  4014ce:	2801      	cmp	r0, #1
  4014d0:	d005      	beq.n	4014de <xQueueGenericSend+0x42>
				taskEXIT_CRITICAL();
  4014d2:	4b44      	ldr	r3, [pc, #272]	; (4015e4 <xQueueGenericSend+0x148>)
  4014d4:	4798      	blx	r3
				return pdPASS;
  4014d6:	2001      	movs	r0, #1
}
  4014d8:	b005      	add	sp, #20
  4014da:	e8bd 8ff0 	ldmia.w	sp!, {r4, r5, r6, r7, r8, r9, sl, fp, pc}
							queueYIELD_IF_USING_PREEMPTION();
  4014de:	f04f 5280 	mov.w	r2, #268435456	; 0x10000000
  4014e2:	4b41      	ldr	r3, [pc, #260]	; (4015e8 <xQueueGenericSend+0x14c>)
  4014e4:	601a      	str	r2, [r3, #0]
  4014e6:	f3bf 8f4f 	dsb	sy
  4014ea:	f3bf 8f6f 	isb	sy
  4014ee:	e7f0      	b.n	4014d2 <xQueueGenericSend+0x36>
						if( listLIST_IS_EMPTY( &( pxQueue->xTasksWaitingToReceive ) ) == pdFALSE )
  4014f0:	6a63      	ldr	r3, [r4, #36]	; 0x24
  4014f2:	b953      	cbnz	r3, 40150a <xQueueGenericSend+0x6e>
						else if( xYieldRequired != pdFALSE )
  4014f4:	2800      	cmp	r0, #0
  4014f6:	d0ec      	beq.n	4014d2 <xQueueGenericSend+0x36>
							queueYIELD_IF_USING_PREEMPTION();
  4014f8:	f04f 5280 	mov.w	r2, #268435456	; 0x10000000
  4014fc:	4b3a      	ldr	r3, [pc, #232]	; (4015e8 <xQueueGenericSend+0x14c>)
  4014fe:	601a      	str	r2, [r3, #0]
  401500:	f3bf 8f4f 	dsb	sy
  401504:	f3bf 8f6f 	isb	sy
  401508:	e7e3      	b.n	4014d2 <xQueueGenericSend+0x36>
							if( xTaskRemoveFromEventList( &( pxQueue->xTasksWaitingToReceive ) ) == pdTRUE )
  40150a:	f104 0024 	add.w	r0, r4, #36	; 0x24
  40150e:	4b37      	ldr	r3, [pc, #220]	; (4015ec <xQueueGenericSend+0x150>)
  401510:	4798      	blx	r3
  401512:	2801      	cmp	r0, #1
  401514:	d1dd      	bne.n	4014d2 <xQueueGenericSend+0x36>
								queueYIELD_IF_USING_PREEMPTION();
  401516:	f04f 5280 	mov.w	r2, #268435456	; 0x10000000
  40151a:	4b33      	ldr	r3, [pc, #204]	; (4015e8 <xQueueGenericSend+0x14c>)
  40151c:	601a      	str	r2, [r3, #0]
  40151e:	f3bf 8f4f 	dsb	sy
  401522:	f3bf 8f6f 	isb	sy
  401526:	e7d4      	b.n	4014d2 <xQueueGenericSend+0x36>
					taskEXIT_CRITICAL();
  401528:	4b2e      	ldr	r3, [pc, #184]	; (4015e4 <xQueueGenericSend+0x148>)
  40152a:	4798      	blx	r3
					return errQUEUE_FULL;
  40152c:	2000      	movs	r0, #0
  40152e:	e7d3      	b.n	4014d8 <xQueueGenericSend+0x3c>
					vTaskSetTimeOutState( &xTimeOut );
  401530:	a802      	add	r0, sp, #8
  401532:	47c0      	blx	r8
  401534:	e017      	b.n	401566 <xQueueGenericSend+0xca>
		prvLockQueue( pxQueue );
  401536:	2300      	movs	r3, #0
  401538:	6463      	str	r3, [r4, #68]	; 0x44
  40153a:	e01d      	b.n	401578 <xQueueGenericSend+0xdc>
  40153c:	2300      	movs	r3, #0
  40153e:	64a3      	str	r3, [r4, #72]	; 0x48
  401540:	e01e      	b.n	401580 <xQueueGenericSend+0xe4>
				prvUnlockQueue( pxQueue );
  401542:	4620      	mov	r0, r4
  401544:	4b2a      	ldr	r3, [pc, #168]	; (4015f0 <xQueueGenericSend+0x154>)
  401546:	4798      	blx	r3
				( void ) xTaskResumeAll();
  401548:	4b2a      	ldr	r3, [pc, #168]	; (4015f4 <xQueueGenericSend+0x158>)
  40154a:	4798      	blx	r3
  40154c:	2601      	movs	r6, #1
		taskENTER_CRITICAL();
  40154e:	47a8      	blx	r5
			if( ( pxQueue->uxMessagesWaiting < pxQueue->uxLength ) || ( xCopyPosition == queueOVERWRITE ) )
  401550:	6ba2      	ldr	r2, [r4, #56]	; 0x38
  401552:	6be3      	ldr	r3, [r4, #60]	; 0x3c
  401554:	429a      	cmp	r2, r3
  401556:	d3af      	bcc.n	4014b8 <xQueueGenericSend+0x1c>
  401558:	2f02      	cmp	r7, #2
  40155a:	d0ad      	beq.n	4014b8 <xQueueGenericSend+0x1c>
				if( xTicksToWait == ( TickType_t ) 0 )
  40155c:	9b01      	ldr	r3, [sp, #4]
  40155e:	2b00      	cmp	r3, #0
  401560:	d0e2      	beq.n	401528 <xQueueGenericSend+0x8c>
				else if( xEntryTimeSet == pdFALSE )
  401562:	2e00      	cmp	r6, #0
  401564:	d0e4      	beq.n	401530 <xQueueGenericSend+0x94>
		taskEXIT_CRITICAL();
  401566:	4b1f      	ldr	r3, [pc, #124]	; (4015e4 <xQueueGenericSend+0x148>)
  401568:	4798      	blx	r3
		vTaskSuspendAll();
  40156a:	4b23      	ldr	r3, [pc, #140]	; (4015f8 <xQueueGenericSend+0x15c>)
  40156c:	4798      	blx	r3
		prvLockQueue( pxQueue );
  40156e:	47a8      	blx	r5
  401570:	6c63      	ldr	r3, [r4, #68]	; 0x44
  401572:	f1b3 3fff 	cmp.w	r3, #4294967295
  401576:	d0de      	beq.n	401536 <xQueueGenericSend+0x9a>
  401578:	6ca3      	ldr	r3, [r4, #72]	; 0x48
  40157a:	f1b3 3fff 	cmp.w	r3, #4294967295
  40157e:	d0dd      	beq.n	40153c <xQueueGenericSend+0xa0>
  401580:	4b18      	ldr	r3, [pc, #96]	; (4015e4 <xQueueGenericSend+0x148>)
  401582:	4798      	blx	r3
		if( xTaskCheckForTimeOut( &xTimeOut, &xTicksToWait ) == pdFALSE )
  401584:	a901      	add	r1, sp, #4
  401586:	a802      	add	r0, sp, #8
  401588:	4b1c      	ldr	r3, [pc, #112]	; (4015fc <xQueueGenericSend+0x160>)
  40158a:	4798      	blx	r3
  40158c:	b9e0      	cbnz	r0, 4015c8 <xQueueGenericSend+0x12c>
	taskENTER_CRITICAL();
  40158e:	47a8      	blx	r5
		if( pxQueue->uxMessagesWaiting == pxQueue->uxLength )
  401590:	f8d4 b038 	ldr.w	fp, [r4, #56]	; 0x38
  401594:	6be6      	ldr	r6, [r4, #60]	; 0x3c
	taskEXIT_CRITICAL();
  401596:	4b13      	ldr	r3, [pc, #76]	; (4015e4 <xQueueGenericSend+0x148>)
  401598:	4798      	blx	r3
			if( prvIsQueueFull( pxQueue ) != pdFALSE )
  40159a:	45b3      	cmp	fp, r6
  40159c:	d1d1      	bne.n	401542 <xQueueGenericSend+0xa6>
				vTaskPlaceOnEventList( &( pxQueue->xTasksWaitingToSend ), xTicksToWait );
  40159e:	9901      	ldr	r1, [sp, #4]
  4015a0:	f104 0010 	add.w	r0, r4, #16
  4015a4:	4b16      	ldr	r3, [pc, #88]	; (401600 <xQueueGenericSend+0x164>)
  4015a6:	4798      	blx	r3
				prvUnlockQueue( pxQueue );
  4015a8:	4620      	mov	r0, r4
  4015aa:	4b11      	ldr	r3, [pc, #68]	; (4015f0 <xQueueGenericSend+0x154>)
  4015ac:	4798      	blx	r3
				if( xTaskResumeAll() == pdFALSE )
  4015ae:	4b11      	ldr	r3, [pc, #68]	; (4015f4 <xQueueGenericSend+0x158>)
  4015b0:	4798      	blx	r3
  4015b2:	2800      	cmp	r0, #0
  4015b4:	d1ca      	bne.n	40154c <xQueueGenericSend+0xb0>
					portYIELD_WITHIN_API();
  4015b6:	f04f 5380 	mov.w	r3, #268435456	; 0x10000000
  4015ba:	f8c9 3000 	str.w	r3, [r9]
  4015be:	f3bf 8f4f 	dsb	sy
  4015c2:	f3bf 8f6f 	isb	sy
  4015c6:	e7c1      	b.n	40154c <xQueueGenericSend+0xb0>
			prvUnlockQueue( pxQueue );
  4015c8:	4620      	mov	r0, r4
  4015ca:	4b09      	ldr	r3, [pc, #36]	; (4015f0 <xQueueGenericSend+0x154>)
  4015cc:	4798      	blx	r3
			( void ) xTaskResumeAll();
  4015ce:	4b09      	ldr	r3, [pc, #36]	; (4015f4 <xQueueGenericSend+0x158>)
  4015d0:	4798      	blx	r3
			return errQUEUE_FULL;
  4015d2:	2000      	movs	r0, #0
  4015d4:	e780      	b.n	4014d8 <xQueueGenericSend+0x3c>
  4015d6:	bf00      	nop
  4015d8:	00401099 	.word	0x00401099
  4015dc:	0040122d 	.word	0x0040122d
  4015e0:	004012b1 	.word	0x004012b1
  4015e4:	004010bd 	.word	0x004010bd
  4015e8:	e000ed04 	.word	0xe000ed04
  4015ec:	00402269 	.word	0x00402269
  4015f0:	0040132d 	.word	0x0040132d
  4015f4:	00401e2d 	.word	0x00401e2d
  4015f8:	00401ccd 	.word	0x00401ccd
  4015fc:	00402301 	.word	0x00402301
  401600:	00402195 	.word	0x00402195
  401604:	004022e9 	.word	0x004022e9

00401608 <xQueueGenericSendFromISR>:
{
  401608:	b5f8      	push	{r3, r4, r5, r6, r7, lr}
	__asm volatile
  40160a:	f3ef 8711 	mrs	r7, BASEPRI
  40160e:	f04f 0480 	mov.w	r4, #128	; 0x80
  401612:	b672      	cpsid	i
  401614:	f384 8811 	msr	BASEPRI, r4
  401618:	f3bf 8f6f 	isb	sy
  40161c:	f3bf 8f4f 	dsb	sy
  401620:	b662      	cpsie	i
		if( ( pxQueue->uxMessagesWaiting < pxQueue->uxLength ) || ( xCopyPosition == queueOVERWRITE ) )
  401622:	6b85      	ldr	r5, [r0, #56]	; 0x38
  401624:	6bc4      	ldr	r4, [r0, #60]	; 0x3c
  401626:	42a5      	cmp	r5, r4
  401628:	d305      	bcc.n	401636 <xQueueGenericSendFromISR+0x2e>
  40162a:	2b02      	cmp	r3, #2
  40162c:	d003      	beq.n	401636 <xQueueGenericSendFromISR+0x2e>
			xReturn = errQUEUE_FULL;
  40162e:	2000      	movs	r0, #0
	__asm volatile
  401630:	f387 8811 	msr	BASEPRI, r7
}
  401634:	bdf8      	pop	{r3, r4, r5, r6, r7, pc}
  401636:	461d      	mov	r5, r3
  401638:	4616      	mov	r6, r2
  40163a:	4604      	mov	r4, r0
			( void ) prvCopyDataToQueue( pxQueue, pvItemToQueue, xCopyPosition );
  40163c:	461a      	mov	r2, r3
  40163e:	4b13      	ldr	r3, [pc, #76]	; (40168c <xQueueGenericSendFromISR+0x84>)
  401640:	4798      	blx	r3
			if( pxQueue->xTxLock == queueUNLOCKED )
  401642:	6ca3      	ldr	r3, [r4, #72]	; 0x48
  401644:	f1b3 3fff 	cmp.w	r3, #4294967295
  401648:	d004      	beq.n	401654 <xQueueGenericSendFromISR+0x4c>
				++( pxQueue->xTxLock );
  40164a:	6ca3      	ldr	r3, [r4, #72]	; 0x48
  40164c:	3301      	adds	r3, #1
  40164e:	64a3      	str	r3, [r4, #72]	; 0x48
			xReturn = pdPASS;
  401650:	2001      	movs	r0, #1
  401652:	e7ed      	b.n	401630 <xQueueGenericSendFromISR+0x28>
					if( pxQueue->pxQueueSetContainer != NULL )
  401654:	6d63      	ldr	r3, [r4, #84]	; 0x54
  401656:	b143      	cbz	r3, 40166a <xQueueGenericSendFromISR+0x62>
						if( prvNotifyQueueSetContainer( pxQueue, xCopyPosition ) == pdTRUE )
  401658:	4629      	mov	r1, r5
  40165a:	4620      	mov	r0, r4
  40165c:	4b0c      	ldr	r3, [pc, #48]	; (401690 <xQueueGenericSendFromISR+0x88>)
  40165e:	4798      	blx	r3
							if( pxHigherPriorityTaskWoken != NULL )
  401660:	b186      	cbz	r6, 401684 <xQueueGenericSendFromISR+0x7c>
  401662:	2801      	cmp	r0, #1
  401664:	d10e      	bne.n	401684 <xQueueGenericSendFromISR+0x7c>
								*pxHigherPriorityTaskWoken = pdTRUE;
  401666:	6030      	str	r0, [r6, #0]
  401668:	e7e2      	b.n	401630 <xQueueGenericSendFromISR+0x28>
						if( listLIST_IS_EMPTY( &( pxQueue->xTasksWaitingToReceive ) ) == pdFALSE )
  40166a:	6a63      	ldr	r3, [r4, #36]	; 0x24
  40166c:	b90b      	cbnz	r3, 401672 <xQueueGenericSendFromISR+0x6a>
			xReturn = pdPASS;
  40166e:	2001      	movs	r0, #1
  401670:	e7de      	b.n	401630 <xQueueGenericSendFromISR+0x28>
							if( xTaskRemoveFromEventList( &( pxQueue->xTasksWaitingToReceive ) ) != pdFALSE )
  401672:	f104 0024 	add.w	r0, r4, #36	; 0x24
  401676:	4b07      	ldr	r3, [pc, #28]	; (401694 <xQueueGenericSendFromISR+0x8c>)
  401678:	4798      	blx	r3
								if( pxHigherPriorityTaskWoken != NULL )
  40167a:	b12e      	cbz	r6, 401688 <xQueueGenericSendFromISR+0x80>
  40167c:	b120      	cbz	r0, 401688 <xQueueGenericSendFromISR+0x80>
									*pxHigherPriorityTaskWoken = pdTRUE;
  40167e:	2001      	movs	r0, #1
  401680:	6030      	str	r0, [r6, #0]
  401682:	e7d5      	b.n	401630 <xQueueGenericSendFromISR+0x28>
			xReturn = pdPASS;
  401684:	2001      	movs	r0, #1
  401686:	e7d3      	b.n	401630 <xQueueGenericSendFromISR+0x28>
  401688:	2001      	movs	r0, #1
  40168a:	e7d1      	b.n	401630 <xQueueGenericSendFromISR+0x28>
  40168c:	0040122d 	.word	0x0040122d
  401690:	004012b1 	.word	0x004012b1
  401694:	00402269 	.word	0x00402269

00401698 <xQueueGiveFromISR>:
{
  401698:	b538      	push	{r3, r4, r5, lr}
	__asm volatile
  40169a:	f3ef 8411 	mrs	r4, BASEPRI
  40169e:	f04f 0380 	mov.w	r3, #128	; 0x80
  4016a2:	b672      	cpsid	i
  4016a4:	f383 8811 	msr	BASEPRI, r3
  4016a8:	f3bf 8f6f 	isb	sy
  4016ac:	f3bf 8f4f 	dsb	sy
  4016b0:	b662      	cpsie	i
		if( pxQueue->uxMessagesWaiting < pxQueue->uxLength )
  4016b2:	6b82      	ldr	r2, [r0, #56]	; 0x38
  4016b4:	6bc3      	ldr	r3, [r0, #60]	; 0x3c
  4016b6:	429a      	cmp	r2, r3
  4016b8:	d224      	bcs.n	401704 <xQueueGiveFromISR+0x6c>
			++( pxQueue->uxMessagesWaiting );
  4016ba:	6b83      	ldr	r3, [r0, #56]	; 0x38
  4016bc:	3301      	adds	r3, #1
  4016be:	6383      	str	r3, [r0, #56]	; 0x38
			if( pxQueue->xTxLock == queueUNLOCKED )
  4016c0:	6c83      	ldr	r3, [r0, #72]	; 0x48
  4016c2:	f1b3 3fff 	cmp.w	r3, #4294967295
  4016c6:	d006      	beq.n	4016d6 <xQueueGiveFromISR+0x3e>
				++( pxQueue->xTxLock );
  4016c8:	6c83      	ldr	r3, [r0, #72]	; 0x48
  4016ca:	3301      	adds	r3, #1
  4016cc:	6483      	str	r3, [r0, #72]	; 0x48
			xReturn = pdPASS;
  4016ce:	2001      	movs	r0, #1
	__asm volatile
  4016d0:	f384 8811 	msr	BASEPRI, r4
}
  4016d4:	bd38      	pop	{r3, r4, r5, pc}
  4016d6:	460d      	mov	r5, r1
					if( pxQueue->pxQueueSetContainer != NULL )
  4016d8:	6d43      	ldr	r3, [r0, #84]	; 0x54
  4016da:	b13b      	cbz	r3, 4016ec <xQueueGiveFromISR+0x54>
						if( prvNotifyQueueSetContainer( pxQueue, queueSEND_TO_BACK ) == pdTRUE )
  4016dc:	2100      	movs	r1, #0
  4016de:	4b0c      	ldr	r3, [pc, #48]	; (401710 <xQueueGiveFromISR+0x78>)
  4016e0:	4798      	blx	r3
							if( pxHigherPriorityTaskWoken != NULL )
  4016e2:	b18d      	cbz	r5, 401708 <xQueueGiveFromISR+0x70>
  4016e4:	2801      	cmp	r0, #1
  4016e6:	d10f      	bne.n	401708 <xQueueGiveFromISR+0x70>
								*pxHigherPriorityTaskWoken = pdTRUE;
  4016e8:	6028      	str	r0, [r5, #0]
  4016ea:	e7f1      	b.n	4016d0 <xQueueGiveFromISR+0x38>
						if( listLIST_IS_EMPTY( &( pxQueue->xTasksWaitingToReceive ) ) == pdFALSE )
  4016ec:	6a43      	ldr	r3, [r0, #36]	; 0x24
  4016ee:	b90b      	cbnz	r3, 4016f4 <xQueueGiveFromISR+0x5c>
			xReturn = pdPASS;
  4016f0:	2001      	movs	r0, #1
  4016f2:	e7ed      	b.n	4016d0 <xQueueGiveFromISR+0x38>
							if( xTaskRemoveFromEventList( &( pxQueue->xTasksWaitingToReceive ) ) != pdFALSE )
  4016f4:	3024      	adds	r0, #36	; 0x24
  4016f6:	4b07      	ldr	r3, [pc, #28]	; (401714 <xQueueGiveFromISR+0x7c>)
  4016f8:	4798      	blx	r3
								if( pxHigherPriorityTaskWoken != NULL )
  4016fa:	b13d      	cbz	r5, 40170c <xQueueGiveFromISR+0x74>
  4016fc:	b130      	cbz	r0, 40170c <xQueueGiveFromISR+0x74>
									*pxHigherPriorityTaskWoken = pdTRUE;
  4016fe:	2001      	movs	r0, #1
  401700:	6028      	str	r0, [r5, #0]
  401702:	e7e5      	b.n	4016d0 <xQueueGiveFromISR+0x38>
			xReturn = errQUEUE_FULL;
  401704:	2000      	movs	r0, #0
  401706:	e7e3      	b.n	4016d0 <xQueueGiveFromISR+0x38>
			xReturn = pdPASS;
  401708:	2001      	movs	r0, #1
  40170a:	e7e1      	b.n	4016d0 <xQueueGiveFromISR+0x38>
  40170c:	2001      	movs	r0, #1
  40170e:	e7df      	b.n	4016d0 <xQueueGiveFromISR+0x38>
  401710:	004012b1 	.word	0x004012b1
  401714:	00402269 	.word	0x00402269

00401718 <xQueueGenericReceive>:
{
  401718:	e92d 47f0 	stmdb	sp!, {r4, r5, r6, r7, r8, r9, sl, lr}
  40171c:	b084      	sub	sp, #16
  40171e:	4604      	mov	r4, r0
  401720:	468a      	mov	sl, r1
  401722:	9201      	str	r2, [sp, #4]
  401724:	4699      	mov	r9, r3
BaseType_t xEntryTimeSet = pdFALSE;
  401726:	2600      	movs	r6, #0
		taskENTER_CRITICAL();
  401728:	4d4d      	ldr	r5, [pc, #308]	; (401860 <xQueueGenericReceive+0x148>)
					vTaskSetTimeOutState( &xTimeOut );
  40172a:	f8df 8164 	ldr.w	r8, [pc, #356]	; 401890 <xQueueGenericReceive+0x178>
					portYIELD_WITHIN_API();
  40172e:	4f4d      	ldr	r7, [pc, #308]	; (401864 <xQueueGenericReceive+0x14c>)
  401730:	e054      	b.n	4017dc <xQueueGenericReceive+0xc4>
				pcOriginalReadPosition = pxQueue->u.pcReadFrom;
  401732:	68e5      	ldr	r5, [r4, #12]
				prvCopyDataFromQueue( pxQueue, pvBuffer );
  401734:	4651      	mov	r1, sl
  401736:	4620      	mov	r0, r4
  401738:	4b4b      	ldr	r3, [pc, #300]	; (401868 <xQueueGenericReceive+0x150>)
  40173a:	4798      	blx	r3
				if( xJustPeeking == pdFALSE )
  40173c:	f1b9 0f00 	cmp.w	r9, #0
  401740:	d11f      	bne.n	401782 <xQueueGenericReceive+0x6a>
					--( pxQueue->uxMessagesWaiting );
  401742:	6ba3      	ldr	r3, [r4, #56]	; 0x38
  401744:	3b01      	subs	r3, #1
  401746:	63a3      	str	r3, [r4, #56]	; 0x38
						if( pxQueue->uxQueueType == queueQUEUE_IS_MUTEX )
  401748:	6823      	ldr	r3, [r4, #0]
  40174a:	b13b      	cbz	r3, 40175c <xQueueGenericReceive+0x44>
					if( listLIST_IS_EMPTY( &( pxQueue->xTasksWaitingToSend ) ) == pdFALSE )
  40174c:	6923      	ldr	r3, [r4, #16]
  40174e:	b94b      	cbnz	r3, 401764 <xQueueGenericReceive+0x4c>
				taskEXIT_CRITICAL();
  401750:	4b46      	ldr	r3, [pc, #280]	; (40186c <xQueueGenericReceive+0x154>)
  401752:	4798      	blx	r3
				return pdPASS;
  401754:	2001      	movs	r0, #1
}
  401756:	b004      	add	sp, #16
  401758:	e8bd 87f0 	ldmia.w	sp!, {r4, r5, r6, r7, r8, r9, sl, pc}
							pxQueue->pxMutexHolder = ( int8_t * ) pvTaskIncrementMutexHeldCount(); /*lint !e961 Cast is not redundant as TaskHandle_t is a typedef. */
  40175c:	4b44      	ldr	r3, [pc, #272]	; (401870 <xQueueGenericReceive+0x158>)
  40175e:	4798      	blx	r3
  401760:	6060      	str	r0, [r4, #4]
  401762:	e7f3      	b.n	40174c <xQueueGenericReceive+0x34>
						if( xTaskRemoveFromEventList( &( pxQueue->xTasksWaitingToSend ) ) == pdTRUE )
  401764:	f104 0010 	add.w	r0, r4, #16
  401768:	4b42      	ldr	r3, [pc, #264]	; (401874 <xQueueGenericReceive+0x15c>)
  40176a:	4798      	blx	r3
  40176c:	2801      	cmp	r0, #1
  40176e:	d1ef      	bne.n	401750 <xQueueGenericReceive+0x38>
							queueYIELD_IF_USING_PREEMPTION();
  401770:	f04f 5280 	mov.w	r2, #268435456	; 0x10000000
  401774:	4b3b      	ldr	r3, [pc, #236]	; (401864 <xQueueGenericReceive+0x14c>)
  401776:	601a      	str	r2, [r3, #0]
  401778:	f3bf 8f4f 	dsb	sy
  40177c:	f3bf 8f6f 	isb	sy
  401780:	e7e6      	b.n	401750 <xQueueGenericReceive+0x38>
					pxQueue->u.pcReadFrom = pcOriginalReadPosition;
  401782:	60e5      	str	r5, [r4, #12]
					if( listLIST_IS_EMPTY( &( pxQueue->xTasksWaitingToReceive ) ) == pdFALSE )
  401784:	6a63      	ldr	r3, [r4, #36]	; 0x24
  401786:	2b00      	cmp	r3, #0
  401788:	d0e2      	beq.n	401750 <xQueueGenericReceive+0x38>
						if( xTaskRemoveFromEventList( &( pxQueue->xTasksWaitingToReceive ) ) != pdFALSE )
  40178a:	f104 0024 	add.w	r0, r4, #36	; 0x24
  40178e:	4b39      	ldr	r3, [pc, #228]	; (401874 <xQueueGenericReceive+0x15c>)
  401790:	4798      	blx	r3
  401792:	2800      	cmp	r0, #0
  401794:	d0dc      	beq.n	401750 <xQueueGenericReceive+0x38>
							queueYIELD_IF_USING_PREEMPTION();
  401796:	f04f 5280 	mov.w	r2, #268435456	; 0x10000000
  40179a:	4b32      	ldr	r3, [pc, #200]	; (401864 <xQueueGenericReceive+0x14c>)
  40179c:	601a      	str	r2, [r3, #0]
  40179e:	f3bf 8f4f 	dsb	sy
  4017a2:	f3bf 8f6f 	isb	sy
  4017a6:	e7d3      	b.n	401750 <xQueueGenericReceive+0x38>
					taskEXIT_CRITICAL();
  4017a8:	4b30      	ldr	r3, [pc, #192]	; (40186c <xQueueGenericReceive+0x154>)
  4017aa:	4798      	blx	r3
					return errQUEUE_EMPTY;
  4017ac:	2000      	movs	r0, #0
  4017ae:	e7d2      	b.n	401756 <xQueueGenericReceive+0x3e>
					vTaskSetTimeOutState( &xTimeOut );
  4017b0:	a802      	add	r0, sp, #8
  4017b2:	47c0      	blx	r8
  4017b4:	e01b      	b.n	4017ee <xQueueGenericReceive+0xd6>
		prvLockQueue( pxQueue );
  4017b6:	2300      	movs	r3, #0
  4017b8:	6463      	str	r3, [r4, #68]	; 0x44
  4017ba:	e021      	b.n	401800 <xQueueGenericReceive+0xe8>
  4017bc:	2300      	movs	r3, #0
  4017be:	64a3      	str	r3, [r4, #72]	; 0x48
  4017c0:	e022      	b.n	401808 <xQueueGenericReceive+0xf0>
						taskENTER_CRITICAL();
  4017c2:	47a8      	blx	r5
							vTaskPriorityInherit( ( void * ) pxQueue->pxMutexHolder );
  4017c4:	6860      	ldr	r0, [r4, #4]
  4017c6:	4b2c      	ldr	r3, [pc, #176]	; (401878 <xQueueGenericReceive+0x160>)
  4017c8:	4798      	blx	r3
						taskEXIT_CRITICAL();
  4017ca:	4b28      	ldr	r3, [pc, #160]	; (40186c <xQueueGenericReceive+0x154>)
  4017cc:	4798      	blx	r3
  4017ce:	e02b      	b.n	401828 <xQueueGenericReceive+0x110>
				prvUnlockQueue( pxQueue );
  4017d0:	4620      	mov	r0, r4
  4017d2:	4b2a      	ldr	r3, [pc, #168]	; (40187c <xQueueGenericReceive+0x164>)
  4017d4:	4798      	blx	r3
				( void ) xTaskResumeAll();
  4017d6:	4b2a      	ldr	r3, [pc, #168]	; (401880 <xQueueGenericReceive+0x168>)
  4017d8:	4798      	blx	r3
  4017da:	2601      	movs	r6, #1
		taskENTER_CRITICAL();
  4017dc:	47a8      	blx	r5
			if( pxQueue->uxMessagesWaiting > ( UBaseType_t ) 0 )
  4017de:	6ba3      	ldr	r3, [r4, #56]	; 0x38
  4017e0:	2b00      	cmp	r3, #0
  4017e2:	d1a6      	bne.n	401732 <xQueueGenericReceive+0x1a>
				if( xTicksToWait == ( TickType_t ) 0 )
  4017e4:	9b01      	ldr	r3, [sp, #4]
  4017e6:	2b00      	cmp	r3, #0
  4017e8:	d0de      	beq.n	4017a8 <xQueueGenericReceive+0x90>
				else if( xEntryTimeSet == pdFALSE )
  4017ea:	2e00      	cmp	r6, #0
  4017ec:	d0e0      	beq.n	4017b0 <xQueueGenericReceive+0x98>
		taskEXIT_CRITICAL();
  4017ee:	4b1f      	ldr	r3, [pc, #124]	; (40186c <xQueueGenericReceive+0x154>)
  4017f0:	4798      	blx	r3
		vTaskSuspendAll();
  4017f2:	4b24      	ldr	r3, [pc, #144]	; (401884 <xQueueGenericReceive+0x16c>)
  4017f4:	4798      	blx	r3
		prvLockQueue( pxQueue );
  4017f6:	47a8      	blx	r5
  4017f8:	6c63      	ldr	r3, [r4, #68]	; 0x44
  4017fa:	f1b3 3fff 	cmp.w	r3, #4294967295
  4017fe:	d0da      	beq.n	4017b6 <xQueueGenericReceive+0x9e>
  401800:	6ca3      	ldr	r3, [r4, #72]	; 0x48
  401802:	f1b3 3fff 	cmp.w	r3, #4294967295
  401806:	d0d9      	beq.n	4017bc <xQueueGenericReceive+0xa4>
  401808:	4b18      	ldr	r3, [pc, #96]	; (40186c <xQueueGenericReceive+0x154>)
  40180a:	4798      	blx	r3
		if( xTaskCheckForTimeOut( &xTimeOut, &xTicksToWait ) == pdFALSE )
  40180c:	a901      	add	r1, sp, #4
  40180e:	a802      	add	r0, sp, #8
  401810:	4b1d      	ldr	r3, [pc, #116]	; (401888 <xQueueGenericReceive+0x170>)
  401812:	4798      	blx	r3
  401814:	b9e0      	cbnz	r0, 401850 <xQueueGenericReceive+0x138>
	taskENTER_CRITICAL();
  401816:	47a8      	blx	r5
		if( pxQueue->uxMessagesWaiting == ( UBaseType_t )  0 )
  401818:	6ba6      	ldr	r6, [r4, #56]	; 0x38
	taskEXIT_CRITICAL();
  40181a:	4b14      	ldr	r3, [pc, #80]	; (40186c <xQueueGenericReceive+0x154>)
  40181c:	4798      	blx	r3
			if( prvIsQueueEmpty( pxQueue ) != pdFALSE )
  40181e:	2e00      	cmp	r6, #0
  401820:	d1d6      	bne.n	4017d0 <xQueueGenericReceive+0xb8>
					if( pxQueue->uxQueueType == queueQUEUE_IS_MUTEX )
  401822:	6823      	ldr	r3, [r4, #0]
  401824:	2b00      	cmp	r3, #0
  401826:	d0cc      	beq.n	4017c2 <xQueueGenericReceive+0xaa>
				vTaskPlaceOnEventList( &( pxQueue->xTasksWaitingToReceive ), xTicksToWait );
  401828:	9901      	ldr	r1, [sp, #4]
  40182a:	f104 0024 	add.w	r0, r4, #36	; 0x24
  40182e:	4b17      	ldr	r3, [pc, #92]	; (40188c <xQueueGenericReceive+0x174>)
  401830:	4798      	blx	r3
				prvUnlockQueue( pxQueue );
  401832:	4620      	mov	r0, r4
  401834:	4b11      	ldr	r3, [pc, #68]	; (40187c <xQueueGenericReceive+0x164>)
  401836:	4798      	blx	r3
				if( xTaskResumeAll() == pdFALSE )
  401838:	4b11      	ldr	r3, [pc, #68]	; (401880 <xQueueGenericReceive+0x168>)
  40183a:	4798      	blx	r3
  40183c:	2800      	cmp	r0, #0
  40183e:	d1cc      	bne.n	4017da <xQueueGenericReceive+0xc2>
					portYIELD_WITHIN_API();
  401840:	f04f 5380 	mov.w	r3, #268435456	; 0x10000000
  401844:	603b      	str	r3, [r7, #0]
  401846:	f3bf 8f4f 	dsb	sy
  40184a:	f3bf 8f6f 	isb	sy
  40184e:	e7c4      	b.n	4017da <xQueueGenericReceive+0xc2>
			prvUnlockQueue( pxQueue );
  401850:	4620      	mov	r0, r4
  401852:	4b0a      	ldr	r3, [pc, #40]	; (40187c <xQueueGenericReceive+0x164>)
  401854:	4798      	blx	r3
			( void ) xTaskResumeAll();
  401856:	4b0a      	ldr	r3, [pc, #40]	; (401880 <xQueueGenericReceive+0x168>)
  401858:	4798      	blx	r3
			return errQUEUE_EMPTY;
  40185a:	2000      	movs	r0, #0
  40185c:	e77b      	b.n	401756 <xQueueGenericReceive+0x3e>
  40185e:	bf00      	nop
  401860:	00401099 	.word	0x00401099
  401864:	e000ed04 	.word	0xe000ed04
  401868:	00401305 	.word	0x00401305
  40186c:	004010bd 	.word	0x004010bd
  401870:	004025c9 	.word	0x004025c9
  401874:	00402269 	.word	0x00402269
  401878:	00402391 	.word	0x00402391
  40187c:	0040132d 	.word	0x0040132d
  401880:	00401e2d 	.word	0x00401e2d
  401884:	00401ccd 	.word	0x00401ccd
  401888:	00402301 	.word	0x00402301
  40188c:	00402195 	.word	0x00402195
  401890:	004022e9 	.word	0x004022e9

00401894 <vQueueAddToRegistry>:
	{
  401894:	b410      	push	{r4}
			if( xQueueRegistry[ ux ].pcQueueName == NULL )
  401896:	4b0b      	ldr	r3, [pc, #44]	; (4018c4 <vQueueAddToRegistry+0x30>)
  401898:	681b      	ldr	r3, [r3, #0]
  40189a:	b153      	cbz	r3, 4018b2 <vQueueAddToRegistry+0x1e>
  40189c:	2301      	movs	r3, #1
  40189e:	4c09      	ldr	r4, [pc, #36]	; (4018c4 <vQueueAddToRegistry+0x30>)
  4018a0:	f854 2033 	ldr.w	r2, [r4, r3, lsl #3]
  4018a4:	b132      	cbz	r2, 4018b4 <vQueueAddToRegistry+0x20>
		for( ux = ( UBaseType_t ) 0U; ux < ( UBaseType_t ) configQUEUE_REGISTRY_SIZE; ux++ )
  4018a6:	3301      	adds	r3, #1
  4018a8:	2b08      	cmp	r3, #8
  4018aa:	d1f9      	bne.n	4018a0 <vQueueAddToRegistry+0xc>
	}
  4018ac:	f85d 4b04 	ldr.w	r4, [sp], #4
  4018b0:	4770      	bx	lr
		for( ux = ( UBaseType_t ) 0U; ux < ( UBaseType_t ) configQUEUE_REGISTRY_SIZE; ux++ )
  4018b2:	2300      	movs	r3, #0
				xQueueRegistry[ ux ].pcQueueName = pcQueueName;
  4018b4:	4a03      	ldr	r2, [pc, #12]	; (4018c4 <vQueueAddToRegistry+0x30>)
  4018b6:	f842 1033 	str.w	r1, [r2, r3, lsl #3]
				xQueueRegistry[ ux ].xHandle = xQueue;
  4018ba:	eb02 03c3 	add.w	r3, r2, r3, lsl #3
  4018be:	6058      	str	r0, [r3, #4]
				break;
  4018c0:	e7f4      	b.n	4018ac <vQueueAddToRegistry+0x18>
  4018c2:	bf00      	nop
  4018c4:	20400cd0 	.word	0x20400cd0

004018c8 <vQueueWaitForMessageRestricted>:
	{
  4018c8:	b570      	push	{r4, r5, r6, lr}
  4018ca:	4604      	mov	r4, r0
  4018cc:	460d      	mov	r5, r1
  4018ce:	4616      	mov	r6, r2
		prvLockQueue( pxQueue );
  4018d0:	4b0f      	ldr	r3, [pc, #60]	; (401910 <vQueueWaitForMessageRestricted+0x48>)
  4018d2:	4798      	blx	r3
  4018d4:	6c63      	ldr	r3, [r4, #68]	; 0x44
  4018d6:	f1b3 3fff 	cmp.w	r3, #4294967295
  4018da:	d00b      	beq.n	4018f4 <vQueueWaitForMessageRestricted+0x2c>
  4018dc:	6ca3      	ldr	r3, [r4, #72]	; 0x48
  4018de:	f1b3 3fff 	cmp.w	r3, #4294967295
  4018e2:	d00a      	beq.n	4018fa <vQueueWaitForMessageRestricted+0x32>
  4018e4:	4b0b      	ldr	r3, [pc, #44]	; (401914 <vQueueWaitForMessageRestricted+0x4c>)
  4018e6:	4798      	blx	r3
		if( pxQueue->uxMessagesWaiting == ( UBaseType_t ) 0U )
  4018e8:	6ba3      	ldr	r3, [r4, #56]	; 0x38
  4018ea:	b14b      	cbz	r3, 401900 <vQueueWaitForMessageRestricted+0x38>
		prvUnlockQueue( pxQueue );
  4018ec:	4620      	mov	r0, r4
  4018ee:	4b0a      	ldr	r3, [pc, #40]	; (401918 <vQueueWaitForMessageRestricted+0x50>)
  4018f0:	4798      	blx	r3
  4018f2:	bd70      	pop	{r4, r5, r6, pc}
		prvLockQueue( pxQueue );
  4018f4:	2300      	movs	r3, #0
  4018f6:	6463      	str	r3, [r4, #68]	; 0x44
  4018f8:	e7f0      	b.n	4018dc <vQueueWaitForMessageRestricted+0x14>
  4018fa:	2300      	movs	r3, #0
  4018fc:	64a3      	str	r3, [r4, #72]	; 0x48
  4018fe:	e7f1      	b.n	4018e4 <vQueueWaitForMessageRestricted+0x1c>
			vTaskPlaceOnEventListRestricted( &( pxQueue->xTasksWaitingToReceive ), xTicksToWait, xWaitIndefinitely );
  401900:	4632      	mov	r2, r6
  401902:	4629      	mov	r1, r5
  401904:	f104 0024 	add.w	r0, r4, #36	; 0x24
  401908:	4b04      	ldr	r3, [pc, #16]	; (40191c <vQueueWaitForMessageRestricted+0x54>)
  40190a:	4798      	blx	r3
  40190c:	e7ee      	b.n	4018ec <vQueueWaitForMessageRestricted+0x24>
  40190e:	bf00      	nop
  401910:	00401099 	.word	0x00401099
  401914:	004010bd 	.word	0x004010bd
  401918:	0040132d 	.word	0x0040132d
  40191c:	00402201 	.word	0x00402201

00401920 <prvListTaskWithinSingleList>:
/*-----------------------------------------------------------*/

#if ( configUSE_TRACE_FACILITY == 1 )

	static UBaseType_t prvListTaskWithinSingleList( TaskStatus_t *pxTaskStatusArray, List_t *pxList, eTaskState eState )
	{
  401920:	e92d 4ff0 	stmdb	sp!, {r4, r5, r6, r7, r8, r9, sl, fp, lr}
	volatile TCB_t *pxNextTCB, *pxFirstTCB;
	UBaseType_t uxTask = 0;

		if( listCURRENT_LIST_LENGTH( pxList ) > ( UBaseType_t ) 0 )
  401924:	680f      	ldr	r7, [r1, #0]
  401926:	2f00      	cmp	r7, #0
  401928:	d050      	beq.n	4019cc <prvListTaskWithinSingleList+0xac>
		{
			listGET_OWNER_OF_NEXT_ENTRY( pxFirstTCB, pxList );
  40192a:	684b      	ldr	r3, [r1, #4]
  40192c:	685b      	ldr	r3, [r3, #4]
  40192e:	604b      	str	r3, [r1, #4]
  401930:	f101 0e08 	add.w	lr, r1, #8
  401934:	4573      	cmp	r3, lr
  401936:	d008      	beq.n	40194a <prvListTaskWithinSingleList+0x2a>
  401938:	684b      	ldr	r3, [r1, #4]
  40193a:	f8d3 c00c 	ldr.w	ip, [r3, #12]
  40193e:	4606      	mov	r6, r0
	UBaseType_t uxTask = 0;
  401940:	2700      	movs	r7, #0
					be reported as being in the Blocked state. */
					if( eState == eSuspended )
					{
						if( listLIST_ITEM_CONTAINER( &( pxNextTCB->xEventListItem ) ) != NULL )
						{
							pxTaskStatusArray[ uxTask ].eCurrentState = eBlocked;
  401942:	f04f 0802 	mov.w	r8, #2
				{
					pxTaskStatusArray[ uxTask ].ulRunTimeCounter = pxNextTCB->ulRunTimeCounter;
				}
				#else
				{
					pxTaskStatusArray[ uxTask ].ulRunTimeCounter = 0;
  401946:	4638      	mov	r0, r7
  401948:	e020      	b.n	40198c <prvListTaskWithinSingleList+0x6c>
			listGET_OWNER_OF_NEXT_ENTRY( pxFirstTCB, pxList );
  40194a:	68cb      	ldr	r3, [r1, #12]
  40194c:	604b      	str	r3, [r1, #4]
  40194e:	e7f3      	b.n	401938 <prvListTaskWithinSingleList+0x18>
				listGET_OWNER_OF_NEXT_ENTRY( pxNextTCB, pxList );
  401950:	68cb      	ldr	r3, [r1, #12]
  401952:	604b      	str	r3, [r1, #4]
  401954:	e01f      	b.n	401996 <prvListTaskWithinSingleList+0x76>
					pxTaskStatusArray[ uxTask ].uxBasePriority = pxNextTCB->uxBasePriority;
  401956:	f8d9 3048 	ldr.w	r3, [r9, #72]	; 0x48
  40195a:	f8ca 3014 	str.w	r3, [sl, #20]
					pxTaskStatusArray[ uxTask ].ulRunTimeCounter = 0;
  40195e:	f8ca 0018 	str.w	r0, [sl, #24]
				{
					pxTaskStatusArray[ uxTask ].usStackHighWaterMark = prvTaskCheckFreeStackSpace( ( uint8_t * ) pxNextTCB->pxEndOfStack );
				}
				#else
				{
					pxTaskStatusArray[ uxTask ].usStackHighWaterMark = prvTaskCheckFreeStackSpace( ( uint8_t * ) pxNextTCB->pxStack );
  401962:	f8d9 b030 	ldr.w	fp, [r9, #48]	; 0x30

	static uint16_t prvTaskCheckFreeStackSpace( const uint8_t * pucStackByte )
	{
	uint32_t ulCount = 0U;

		while( *pucStackByte == ( uint8_t ) tskSTACK_FILL_BYTE )
  401966:	f89b 3000 	ldrb.w	r3, [fp]
  40196a:	2ba5      	cmp	r3, #165	; 0xa5
  40196c:	d12c      	bne.n	4019c8 <prvListTaskWithinSingleList+0xa8>
  40196e:	f10b 0301 	add.w	r3, fp, #1
  401972:	eba3 050b 	sub.w	r5, r3, fp
  401976:	f813 4b01 	ldrb.w	r4, [r3], #1
  40197a:	2ca5      	cmp	r4, #165	; 0xa5
  40197c:	d0f9      	beq.n	401972 <prvListTaskWithinSingleList+0x52>
		{
			pucStackByte -= portSTACK_GROWTH;
			ulCount++;
		}

		ulCount /= ( uint32_t ) sizeof( StackType_t ); /*lint !e961 Casting is not redundant on smaller architectures. */
  40197e:	08ad      	lsrs	r5, r5, #2

		return ( uint16_t ) ulCount;
  401980:	f8aa 501c 	strh.w	r5, [sl, #28]
				uxTask++;
  401984:	3701      	adds	r7, #1
  401986:	3620      	adds	r6, #32
			} while( pxNextTCB != pxFirstTCB );
  401988:	45cc      	cmp	ip, r9
  40198a:	d01f      	beq.n	4019cc <prvListTaskWithinSingleList+0xac>
				listGET_OWNER_OF_NEXT_ENTRY( pxNextTCB, pxList );
  40198c:	684b      	ldr	r3, [r1, #4]
  40198e:	685b      	ldr	r3, [r3, #4]
  401990:	604b      	str	r3, [r1, #4]
  401992:	459e      	cmp	lr, r3
  401994:	d0dc      	beq.n	401950 <prvListTaskWithinSingleList+0x30>
  401996:	684b      	ldr	r3, [r1, #4]
  401998:	f8d3 900c 	ldr.w	r9, [r3, #12]
  40199c:	46b2      	mov	sl, r6
				pxTaskStatusArray[ uxTask ].xHandle = ( TaskHandle_t ) pxNextTCB;
  40199e:	f8c6 9000 	str.w	r9, [r6]
				pxTaskStatusArray[ uxTask ].pcTaskName = ( const char * ) &( pxNextTCB->pcTaskName [ 0 ] );
  4019a2:	f109 0334 	add.w	r3, r9, #52	; 0x34
  4019a6:	6073      	str	r3, [r6, #4]
				pxTaskStatusArray[ uxTask ].xTaskNumber = pxNextTCB->uxTCBNumber;
  4019a8:	f8d9 3040 	ldr.w	r3, [r9, #64]	; 0x40
  4019ac:	60b3      	str	r3, [r6, #8]
				pxTaskStatusArray[ uxTask ].eCurrentState = eState;
  4019ae:	7332      	strb	r2, [r6, #12]
				pxTaskStatusArray[ uxTask ].uxCurrentPriority = pxNextTCB->uxPriority;
  4019b0:	f8d9 302c 	ldr.w	r3, [r9, #44]	; 0x2c
  4019b4:	6133      	str	r3, [r6, #16]
					if( eState == eSuspended )
  4019b6:	2a03      	cmp	r2, #3
  4019b8:	d1cd      	bne.n	401956 <prvListTaskWithinSingleList+0x36>
						if( listLIST_ITEM_CONTAINER( &( pxNextTCB->xEventListItem ) ) != NULL )
  4019ba:	f8d9 3028 	ldr.w	r3, [r9, #40]	; 0x28
  4019be:	2b00      	cmp	r3, #0
  4019c0:	d0c9      	beq.n	401956 <prvListTaskWithinSingleList+0x36>
							pxTaskStatusArray[ uxTask ].eCurrentState = eBlocked;
  4019c2:	f886 800c 	strb.w	r8, [r6, #12]
  4019c6:	e7c6      	b.n	401956 <prvListTaskWithinSingleList+0x36>
	uint32_t ulCount = 0U;
  4019c8:	4605      	mov	r5, r0
  4019ca:	e7d8      	b.n	40197e <prvListTaskWithinSingleList+0x5e>
	}
  4019cc:	4638      	mov	r0, r7
  4019ce:	e8bd 8ff0 	ldmia.w	sp!, {r4, r5, r6, r7, r8, r9, sl, fp, pc}
	...

004019d4 <prvResetNextTaskUnblockTime>:

static void prvResetNextTaskUnblockTime( void )
{
TCB_t *pxTCB;

	if( listLIST_IS_EMPTY( pxDelayedTaskList ) != pdFALSE )
  4019d4:	4b08      	ldr	r3, [pc, #32]	; (4019f8 <prvResetNextTaskUnblockTime+0x24>)
  4019d6:	681b      	ldr	r3, [r3, #0]
  4019d8:	681b      	ldr	r3, [r3, #0]
  4019da:	b13b      	cbz	r3, 4019ec <prvResetNextTaskUnblockTime+0x18>
	{
		/* The new current delayed list is not empty, get the value of
		the item at the head of the delayed list.  This is the time at
		which the task at the head of the delayed list should be removed
		from the Blocked state. */
		( pxTCB ) = ( TCB_t * ) listGET_OWNER_OF_HEAD_ENTRY( pxDelayedTaskList );
  4019dc:	4b06      	ldr	r3, [pc, #24]	; (4019f8 <prvResetNextTaskUnblockTime+0x24>)
  4019de:	681b      	ldr	r3, [r3, #0]
  4019e0:	68db      	ldr	r3, [r3, #12]
		xNextTaskUnblockTime = listGET_LIST_ITEM_VALUE( &( ( pxTCB )->xGenericListItem ) );
  4019e2:	68db      	ldr	r3, [r3, #12]
  4019e4:	685a      	ldr	r2, [r3, #4]
  4019e6:	4b05      	ldr	r3, [pc, #20]	; (4019fc <prvResetNextTaskUnblockTime+0x28>)
  4019e8:	601a      	str	r2, [r3, #0]
  4019ea:	4770      	bx	lr
		xNextTaskUnblockTime = portMAX_DELAY;
  4019ec:	f04f 32ff 	mov.w	r2, #4294967295
  4019f0:	4b02      	ldr	r3, [pc, #8]	; (4019fc <prvResetNextTaskUnblockTime+0x28>)
  4019f2:	601a      	str	r2, [r3, #0]
  4019f4:	4770      	bx	lr
  4019f6:	bf00      	nop
  4019f8:	20400a5c 	.word	0x20400a5c
  4019fc:	20400b08 	.word	0x20400b08

00401a00 <prvAddCurrentTaskToDelayedList>:
{
  401a00:	b510      	push	{r4, lr}
	listSET_LIST_ITEM_VALUE( &( pxCurrentTCB->xGenericListItem ), xTimeToWake );
  401a02:	4b0f      	ldr	r3, [pc, #60]	; (401a40 <prvAddCurrentTaskToDelayedList+0x40>)
  401a04:	681b      	ldr	r3, [r3, #0]
  401a06:	6058      	str	r0, [r3, #4]
	if( xTimeToWake < xTickCount )
  401a08:	4b0e      	ldr	r3, [pc, #56]	; (401a44 <prvAddCurrentTaskToDelayedList+0x44>)
  401a0a:	681b      	ldr	r3, [r3, #0]
  401a0c:	4298      	cmp	r0, r3
  401a0e:	d30e      	bcc.n	401a2e <prvAddCurrentTaskToDelayedList+0x2e>
  401a10:	4604      	mov	r4, r0
		vListInsert( pxDelayedTaskList, &( pxCurrentTCB->xGenericListItem ) );
  401a12:	4b0d      	ldr	r3, [pc, #52]	; (401a48 <prvAddCurrentTaskToDelayedList+0x48>)
  401a14:	6818      	ldr	r0, [r3, #0]
  401a16:	4b0a      	ldr	r3, [pc, #40]	; (401a40 <prvAddCurrentTaskToDelayedList+0x40>)
  401a18:	6819      	ldr	r1, [r3, #0]
  401a1a:	3104      	adds	r1, #4
  401a1c:	4b0b      	ldr	r3, [pc, #44]	; (401a4c <prvAddCurrentTaskToDelayedList+0x4c>)
  401a1e:	4798      	blx	r3
		if( xTimeToWake < xNextTaskUnblockTime )
  401a20:	4b0b      	ldr	r3, [pc, #44]	; (401a50 <prvAddCurrentTaskToDelayedList+0x50>)
  401a22:	681b      	ldr	r3, [r3, #0]
  401a24:	429c      	cmp	r4, r3
  401a26:	d201      	bcs.n	401a2c <prvAddCurrentTaskToDelayedList+0x2c>
			xNextTaskUnblockTime = xTimeToWake;
  401a28:	4b09      	ldr	r3, [pc, #36]	; (401a50 <prvAddCurrentTaskToDelayedList+0x50>)
  401a2a:	601c      	str	r4, [r3, #0]
  401a2c:	bd10      	pop	{r4, pc}
		vListInsert( pxOverflowDelayedTaskList, &( pxCurrentTCB->xGenericListItem ) );
  401a2e:	4b09      	ldr	r3, [pc, #36]	; (401a54 <prvAddCurrentTaskToDelayedList+0x54>)
  401a30:	6818      	ldr	r0, [r3, #0]
  401a32:	4b03      	ldr	r3, [pc, #12]	; (401a40 <prvAddCurrentTaskToDelayedList+0x40>)
  401a34:	6819      	ldr	r1, [r3, #0]
  401a36:	3104      	adds	r1, #4
  401a38:	4b04      	ldr	r3, [pc, #16]	; (401a4c <prvAddCurrentTaskToDelayedList+0x4c>)
  401a3a:	4798      	blx	r3
  401a3c:	bd10      	pop	{r4, pc}
  401a3e:	bf00      	nop
  401a40:	20400a58 	.word	0x20400a58
  401a44:	20400b50 	.word	0x20400b50
  401a48:	20400a5c 	.word	0x20400a5c
  401a4c:	00400fa9 	.word	0x00400fa9
  401a50:	20400b08 	.word	0x20400b08
  401a54:	20400a60 	.word	0x20400a60

00401a58 <xTaskGenericCreate>:
{
  401a58:	e92d 4ff0 	stmdb	sp!, {r4, r5, r6, r7, r8, r9, sl, fp, lr}
  401a5c:	b083      	sub	sp, #12
  401a5e:	9000      	str	r0, [sp, #0]
  401a60:	460e      	mov	r6, r1
  401a62:	4617      	mov	r7, r2
  401a64:	9301      	str	r3, [sp, #4]
  401a66:	f8dd b030 	ldr.w	fp, [sp, #48]	; 0x30
  401a6a:	f8dd a034 	ldr.w	sl, [sp, #52]	; 0x34
  401a6e:	9d0e      	ldr	r5, [sp, #56]	; 0x38
		pxStack = ( StackType_t * ) pvPortMallocAligned( ( ( ( size_t ) usStackDepth ) * sizeof( StackType_t ) ), puxStackBuffer ); /*lint !e961 MISRA exception as the casts are only redundant for some ports. */
  401a70:	2d00      	cmp	r5, #0
  401a72:	f000 8089 	beq.w	401b88 <xTaskGenericCreate+0x130>
			pxNewTCB = ( TCB_t * ) pvPortMalloc( sizeof( TCB_t ) );
  401a76:	2058      	movs	r0, #88	; 0x58
  401a78:	4b5f      	ldr	r3, [pc, #380]	; (401bf8 <xTaskGenericCreate+0x1a0>)
  401a7a:	4798      	blx	r3
			if( pxNewTCB != NULL )
  401a7c:	4604      	mov	r4, r0
  401a7e:	2800      	cmp	r0, #0
  401a80:	f000 8088 	beq.w	401b94 <xTaskGenericCreate+0x13c>
				pxNewTCB->pxStack = pxStack;
  401a84:	6305      	str	r5, [r0, #48]	; 0x30
			( void ) memset( pxNewTCB->pxStack, ( int ) tskSTACK_FILL_BYTE, ( size_t ) usStackDepth * sizeof( StackType_t ) );
  401a86:	00ba      	lsls	r2, r7, #2
  401a88:	21a5      	movs	r1, #165	; 0xa5
  401a8a:	4628      	mov	r0, r5
  401a8c:	4b5b      	ldr	r3, [pc, #364]	; (401bfc <xTaskGenericCreate+0x1a4>)
  401a8e:	4798      	blx	r3
			pxTopOfStack = pxNewTCB->pxStack + ( usStackDepth - ( uint16_t ) 1 );
  401a90:	f06f 4340 	mvn.w	r3, #3221225472	; 0xc0000000
  401a94:	443b      	add	r3, r7
  401a96:	6b25      	ldr	r5, [r4, #48]	; 0x30
  401a98:	eb05 0583 	add.w	r5, r5, r3, lsl #2
			pxTopOfStack = ( StackType_t * ) ( ( ( portPOINTER_SIZE_TYPE ) pxTopOfStack ) & ( ~( ( portPOINTER_SIZE_TYPE ) portBYTE_ALIGNMENT_MASK ) ) ); /*lint !e923 MISRA exception.  Avoiding casts between pointers and integers is not practical.  Size differences accounted for using portPOINTER_SIZE_TYPE type. */
  401a9c:	f025 0507 	bic.w	r5, r5, #7
		pxTCB->pcTaskName[ x ] = pcName[ x ];
  401aa0:	7833      	ldrb	r3, [r6, #0]
  401aa2:	f884 3034 	strb.w	r3, [r4, #52]	; 0x34
		if( pcName[ x ] == 0x00 )
  401aa6:	7833      	ldrb	r3, [r6, #0]
  401aa8:	b15b      	cbz	r3, 401ac2 <xTaskGenericCreate+0x6a>
  401aaa:	4633      	mov	r3, r6
  401aac:	f104 0234 	add.w	r2, r4, #52	; 0x34
  401ab0:	3609      	adds	r6, #9
		pxTCB->pcTaskName[ x ] = pcName[ x ];
  401ab2:	7859      	ldrb	r1, [r3, #1]
  401ab4:	f802 1f01 	strb.w	r1, [r2, #1]!
		if( pcName[ x ] == 0x00 )
  401ab8:	f813 1f01 	ldrb.w	r1, [r3, #1]!
  401abc:	b109      	cbz	r1, 401ac2 <xTaskGenericCreate+0x6a>
	for( x = ( UBaseType_t ) 0; x < ( UBaseType_t ) configMAX_TASK_NAME_LEN; x++ )
  401abe:	42b3      	cmp	r3, r6
  401ac0:	d1f7      	bne.n	401ab2 <xTaskGenericCreate+0x5a>
	pxTCB->pcTaskName[ configMAX_TASK_NAME_LEN - 1 ] = '\0';
  401ac2:	2700      	movs	r7, #0
  401ac4:	f884 703d 	strb.w	r7, [r4, #61]	; 0x3d
  401ac8:	465e      	mov	r6, fp
  401aca:	2e04      	cmp	r6, #4
  401acc:	bf28      	it	cs
  401ace:	2604      	movcs	r6, #4
	pxTCB->uxPriority = uxPriority;
  401ad0:	62e6      	str	r6, [r4, #44]	; 0x2c
		pxTCB->uxBasePriority = uxPriority;
  401ad2:	64a6      	str	r6, [r4, #72]	; 0x48
		pxTCB->uxMutexesHeld = 0;
  401ad4:	64e7      	str	r7, [r4, #76]	; 0x4c
	vListInitialiseItem( &( pxTCB->xGenericListItem ) );
  401ad6:	f104 0804 	add.w	r8, r4, #4
  401ada:	4640      	mov	r0, r8
  401adc:	f8df 9170 	ldr.w	r9, [pc, #368]	; 401c50 <xTaskGenericCreate+0x1f8>
  401ae0:	47c8      	blx	r9
	vListInitialiseItem( &( pxTCB->xEventListItem ) );
  401ae2:	f104 0018 	add.w	r0, r4, #24
  401ae6:	47c8      	blx	r9
	listSET_LIST_ITEM_OWNER( &( pxTCB->xGenericListItem ), pxTCB );
  401ae8:	6124      	str	r4, [r4, #16]
	listSET_LIST_ITEM_VALUE( &( pxTCB->xEventListItem ), ( TickType_t ) configMAX_PRIORITIES - ( TickType_t ) uxPriority ); /*lint !e961 MISRA exception as the casts are only redundant for some ports. */
  401aea:	f1c6 0605 	rsb	r6, r6, #5
  401aee:	61a6      	str	r6, [r4, #24]
	listSET_LIST_ITEM_OWNER( &( pxTCB->xEventListItem ), pxTCB );
  401af0:	6264      	str	r4, [r4, #36]	; 0x24
		pxTCB->ulNotifiedValue = 0;
  401af2:	6527      	str	r7, [r4, #80]	; 0x50
		pxTCB->eNotifyState = eNotWaitingNotification;
  401af4:	f884 7054 	strb.w	r7, [r4, #84]	; 0x54
			pxNewTCB->pxTopOfStack = pxPortInitialiseStack( pxTopOfStack, pxTaskCode, pvParameters );
  401af8:	9a01      	ldr	r2, [sp, #4]
  401afa:	9900      	ldr	r1, [sp, #0]
  401afc:	4628      	mov	r0, r5
  401afe:	4b40      	ldr	r3, [pc, #256]	; (401c00 <xTaskGenericCreate+0x1a8>)
  401b00:	4798      	blx	r3
  401b02:	6020      	str	r0, [r4, #0]
		if( ( void * ) pxCreatedTask != NULL )
  401b04:	f1ba 0f00 	cmp.w	sl, #0
  401b08:	d001      	beq.n	401b0e <xTaskGenericCreate+0xb6>
			*pxCreatedTask = ( TaskHandle_t ) pxNewTCB;
  401b0a:	f8ca 4000 	str.w	r4, [sl]
		taskENTER_CRITICAL();
  401b0e:	4b3d      	ldr	r3, [pc, #244]	; (401c04 <xTaskGenericCreate+0x1ac>)
  401b10:	4798      	blx	r3
			uxCurrentNumberOfTasks++;
  401b12:	4a3d      	ldr	r2, [pc, #244]	; (401c08 <xTaskGenericCreate+0x1b0>)
  401b14:	6813      	ldr	r3, [r2, #0]
  401b16:	3301      	adds	r3, #1
  401b18:	6013      	str	r3, [r2, #0]
			if( pxCurrentTCB == NULL )
  401b1a:	4b3c      	ldr	r3, [pc, #240]	; (401c0c <xTaskGenericCreate+0x1b4>)
  401b1c:	681b      	ldr	r3, [r3, #0]
  401b1e:	2b00      	cmp	r3, #0
  401b20:	d03e      	beq.n	401ba0 <xTaskGenericCreate+0x148>
				if( xSchedulerRunning == pdFALSE )
  401b22:	4b3b      	ldr	r3, [pc, #236]	; (401c10 <xTaskGenericCreate+0x1b8>)
  401b24:	681b      	ldr	r3, [r3, #0]
  401b26:	b933      	cbnz	r3, 401b36 <xTaskGenericCreate+0xde>
					if( pxCurrentTCB->uxPriority <= uxPriority )
  401b28:	4b38      	ldr	r3, [pc, #224]	; (401c0c <xTaskGenericCreate+0x1b4>)
  401b2a:	681b      	ldr	r3, [r3, #0]
  401b2c:	6adb      	ldr	r3, [r3, #44]	; 0x2c
  401b2e:	459b      	cmp	fp, r3
  401b30:	d301      	bcc.n	401b36 <xTaskGenericCreate+0xde>
						pxCurrentTCB = pxNewTCB;
  401b32:	4b36      	ldr	r3, [pc, #216]	; (401c0c <xTaskGenericCreate+0x1b4>)
  401b34:	601c      	str	r4, [r3, #0]
			uxTaskNumber++;
  401b36:	4a37      	ldr	r2, [pc, #220]	; (401c14 <xTaskGenericCreate+0x1bc>)
  401b38:	6813      	ldr	r3, [r2, #0]
  401b3a:	3301      	adds	r3, #1
  401b3c:	6013      	str	r3, [r2, #0]
				pxNewTCB->uxTCBNumber = uxTaskNumber;
  401b3e:	6423      	str	r3, [r4, #64]	; 0x40
			prvAddTaskToReadyList( pxNewTCB );
  401b40:	6ae0      	ldr	r0, [r4, #44]	; 0x2c
  401b42:	4a35      	ldr	r2, [pc, #212]	; (401c18 <xTaskGenericCreate+0x1c0>)
  401b44:	6811      	ldr	r1, [r2, #0]
  401b46:	2301      	movs	r3, #1
  401b48:	4083      	lsls	r3, r0
  401b4a:	430b      	orrs	r3, r1
  401b4c:	6013      	str	r3, [r2, #0]
  401b4e:	eb00 0080 	add.w	r0, r0, r0, lsl #2
  401b52:	4641      	mov	r1, r8
  401b54:	4b31      	ldr	r3, [pc, #196]	; (401c1c <xTaskGenericCreate+0x1c4>)
  401b56:	eb03 0080 	add.w	r0, r3, r0, lsl #2
  401b5a:	4b31      	ldr	r3, [pc, #196]	; (401c20 <xTaskGenericCreate+0x1c8>)
  401b5c:	4798      	blx	r3
		taskEXIT_CRITICAL();
  401b5e:	4b31      	ldr	r3, [pc, #196]	; (401c24 <xTaskGenericCreate+0x1cc>)
  401b60:	4798      	blx	r3
		if( xSchedulerRunning != pdFALSE )
  401b62:	4b2b      	ldr	r3, [pc, #172]	; (401c10 <xTaskGenericCreate+0x1b8>)
  401b64:	681b      	ldr	r3, [r3, #0]
  401b66:	2b00      	cmp	r3, #0
  401b68:	d040      	beq.n	401bec <xTaskGenericCreate+0x194>
			if( pxCurrentTCB->uxPriority < uxPriority )
  401b6a:	4b28      	ldr	r3, [pc, #160]	; (401c0c <xTaskGenericCreate+0x1b4>)
  401b6c:	681b      	ldr	r3, [r3, #0]
  401b6e:	6adb      	ldr	r3, [r3, #44]	; 0x2c
  401b70:	459b      	cmp	fp, r3
  401b72:	d93f      	bls.n	401bf4 <xTaskGenericCreate+0x19c>
				taskYIELD_IF_USING_PREEMPTION();
  401b74:	f04f 5280 	mov.w	r2, #268435456	; 0x10000000
  401b78:	4b2b      	ldr	r3, [pc, #172]	; (401c28 <xTaskGenericCreate+0x1d0>)
  401b7a:	601a      	str	r2, [r3, #0]
  401b7c:	f3bf 8f4f 	dsb	sy
  401b80:	f3bf 8f6f 	isb	sy
			xReturn = pdPASS;
  401b84:	2001      	movs	r0, #1
  401b86:	e032      	b.n	401bee <xTaskGenericCreate+0x196>
		pxStack = ( StackType_t * ) pvPortMallocAligned( ( ( ( size_t ) usStackDepth ) * sizeof( StackType_t ) ), puxStackBuffer ); /*lint !e961 MISRA exception as the casts are only redundant for some ports. */
  401b88:	0090      	lsls	r0, r2, #2
  401b8a:	4b1b      	ldr	r3, [pc, #108]	; (401bf8 <xTaskGenericCreate+0x1a0>)
  401b8c:	4798      	blx	r3
		if( pxStack != NULL )
  401b8e:	4605      	mov	r5, r0
  401b90:	b118      	cbz	r0, 401b9a <xTaskGenericCreate+0x142>
  401b92:	e770      	b.n	401a76 <xTaskGenericCreate+0x1e>
				vPortFree( pxStack );
  401b94:	4628      	mov	r0, r5
  401b96:	4b25      	ldr	r3, [pc, #148]	; (401c2c <xTaskGenericCreate+0x1d4>)
  401b98:	4798      	blx	r3
		xReturn = errCOULD_NOT_ALLOCATE_REQUIRED_MEMORY;
  401b9a:	f04f 30ff 	mov.w	r0, #4294967295
  401b9e:	e026      	b.n	401bee <xTaskGenericCreate+0x196>
				pxCurrentTCB =  pxNewTCB;
  401ba0:	4b1a      	ldr	r3, [pc, #104]	; (401c0c <xTaskGenericCreate+0x1b4>)
  401ba2:	601c      	str	r4, [r3, #0]
				if( uxCurrentNumberOfTasks == ( UBaseType_t ) 1 )
  401ba4:	6813      	ldr	r3, [r2, #0]
  401ba6:	2b01      	cmp	r3, #1
  401ba8:	d1c5      	bne.n	401b36 <xTaskGenericCreate+0xde>
		vListInitialise( &( pxReadyTasksLists[ uxPriority ] ) );
  401baa:	4e1c      	ldr	r6, [pc, #112]	; (401c1c <xTaskGenericCreate+0x1c4>)
  401bac:	4630      	mov	r0, r6
  401bae:	4d20      	ldr	r5, [pc, #128]	; (401c30 <xTaskGenericCreate+0x1d8>)
  401bb0:	47a8      	blx	r5
  401bb2:	f106 0014 	add.w	r0, r6, #20
  401bb6:	47a8      	blx	r5
  401bb8:	f106 0028 	add.w	r0, r6, #40	; 0x28
  401bbc:	47a8      	blx	r5
  401bbe:	f106 003c 	add.w	r0, r6, #60	; 0x3c
  401bc2:	47a8      	blx	r5
  401bc4:	f106 0050 	add.w	r0, r6, #80	; 0x50
  401bc8:	47a8      	blx	r5
	vListInitialise( &xDelayedTaskList1 );
  401bca:	4f1a      	ldr	r7, [pc, #104]	; (401c34 <xTaskGenericCreate+0x1dc>)
  401bcc:	4638      	mov	r0, r7
  401bce:	47a8      	blx	r5
	vListInitialise( &xDelayedTaskList2 );
  401bd0:	4e19      	ldr	r6, [pc, #100]	; (401c38 <xTaskGenericCreate+0x1e0>)
  401bd2:	4630      	mov	r0, r6
  401bd4:	47a8      	blx	r5
	vListInitialise( &xPendingReadyList );
  401bd6:	4819      	ldr	r0, [pc, #100]	; (401c3c <xTaskGenericCreate+0x1e4>)
  401bd8:	47a8      	blx	r5
		vListInitialise( &xTasksWaitingTermination );
  401bda:	4819      	ldr	r0, [pc, #100]	; (401c40 <xTaskGenericCreate+0x1e8>)
  401bdc:	47a8      	blx	r5
		vListInitialise( &xSuspendedTaskList );
  401bde:	4819      	ldr	r0, [pc, #100]	; (401c44 <xTaskGenericCreate+0x1ec>)
  401be0:	47a8      	blx	r5
	pxDelayedTaskList = &xDelayedTaskList1;
  401be2:	4b19      	ldr	r3, [pc, #100]	; (401c48 <xTaskGenericCreate+0x1f0>)
  401be4:	601f      	str	r7, [r3, #0]
	pxOverflowDelayedTaskList = &xDelayedTaskList2;
  401be6:	4b19      	ldr	r3, [pc, #100]	; (401c4c <xTaskGenericCreate+0x1f4>)
  401be8:	601e      	str	r6, [r3, #0]
  401bea:	e7a4      	b.n	401b36 <xTaskGenericCreate+0xde>
			xReturn = pdPASS;
  401bec:	2001      	movs	r0, #1
}
  401bee:	b003      	add	sp, #12
  401bf0:	e8bd 8ff0 	ldmia.w	sp!, {r4, r5, r6, r7, r8, r9, sl, fp, pc}
			xReturn = pdPASS;
  401bf4:	2001      	movs	r0, #1
	return xReturn;
  401bf6:	e7fa      	b.n	401bee <xTaskGenericCreate+0x196>
  401bf8:	004011d9 	.word	0x004011d9
  401bfc:	00403961 	.word	0x00403961
  401c00:	0040104d 	.word	0x0040104d
  401c04:	00401099 	.word	0x00401099
  401c08:	20400ac8 	.word	0x20400ac8
  401c0c:	20400a58 	.word	0x20400a58
  401c10:	20400b24 	.word	0x20400b24
  401c14:	20400ad4 	.word	0x20400ad4
  401c18:	20400adc 	.word	0x20400adc
  401c1c:	20400a64 	.word	0x20400a64
  401c20:	00400f91 	.word	0x00400f91
  401c24:	004010bd 	.word	0x004010bd
  401c28:	e000ed04 	.word	0xe000ed04
  401c2c:	00401209 	.word	0x00401209
  401c30:	00400f75 	.word	0x00400f75
  401c34:	20400ae0 	.word	0x20400ae0
  401c38:	20400af4 	.word	0x20400af4
  401c3c:	20400b10 	.word	0x20400b10
  401c40:	20400b3c 	.word	0x20400b3c
  401c44:	20400b28 	.word	0x20400b28
  401c48:	20400a5c 	.word	0x20400a5c
  401c4c:	20400a60 	.word	0x20400a60
  401c50:	00400f8b 	.word	0x00400f8b

00401c54 <vTaskStartScheduler>:
{
  401c54:	b510      	push	{r4, lr}
  401c56:	b084      	sub	sp, #16
		xReturn = xTaskCreate( prvIdleTask, "IDLE", tskIDLE_STACK_SIZE, ( void * ) NULL, ( tskIDLE_PRIORITY | portPRIVILEGE_BIT ), NULL );  /*lint !e961 MISRA exception, justified as it is not a redundant explicit cast to all supported compilers. */
  401c58:	2300      	movs	r3, #0
  401c5a:	9303      	str	r3, [sp, #12]
  401c5c:	9302      	str	r3, [sp, #8]
  401c5e:	9301      	str	r3, [sp, #4]
  401c60:	9300      	str	r3, [sp, #0]
  401c62:	2282      	movs	r2, #130	; 0x82
  401c64:	4911      	ldr	r1, [pc, #68]	; (401cac <vTaskStartScheduler+0x58>)
  401c66:	4812      	ldr	r0, [pc, #72]	; (401cb0 <vTaskStartScheduler+0x5c>)
  401c68:	4c12      	ldr	r4, [pc, #72]	; (401cb4 <vTaskStartScheduler+0x60>)
  401c6a:	47a0      	blx	r4
		if( xReturn == pdPASS )
  401c6c:	2801      	cmp	r0, #1
  401c6e:	d001      	beq.n	401c74 <vTaskStartScheduler+0x20>
}
  401c70:	b004      	add	sp, #16
  401c72:	bd10      	pop	{r4, pc}
			xReturn = xTimerCreateTimerTask();
  401c74:	4b10      	ldr	r3, [pc, #64]	; (401cb8 <vTaskStartScheduler+0x64>)
  401c76:	4798      	blx	r3
	if( xReturn == pdPASS )
  401c78:	2801      	cmp	r0, #1
  401c7a:	d1f9      	bne.n	401c70 <vTaskStartScheduler+0x1c>
	__asm volatile
  401c7c:	f04f 0380 	mov.w	r3, #128	; 0x80
  401c80:	b672      	cpsid	i
  401c82:	f383 8811 	msr	BASEPRI, r3
  401c86:	f3bf 8f6f 	isb	sy
  401c8a:	f3bf 8f4f 	dsb	sy
  401c8e:	b662      	cpsie	i
		xNextTaskUnblockTime = portMAX_DELAY;
  401c90:	f04f 32ff 	mov.w	r2, #4294967295
  401c94:	4b09      	ldr	r3, [pc, #36]	; (401cbc <vTaskStartScheduler+0x68>)
  401c96:	601a      	str	r2, [r3, #0]
		xSchedulerRunning = pdTRUE;
  401c98:	2201      	movs	r2, #1
  401c9a:	4b09      	ldr	r3, [pc, #36]	; (401cc0 <vTaskStartScheduler+0x6c>)
  401c9c:	601a      	str	r2, [r3, #0]
		xTickCount = ( TickType_t ) 0U;
  401c9e:	2200      	movs	r2, #0
  401ca0:	4b08      	ldr	r3, [pc, #32]	; (401cc4 <vTaskStartScheduler+0x70>)
  401ca2:	601a      	str	r2, [r3, #0]
		if( xPortStartScheduler() != pdFALSE )
  401ca4:	4b08      	ldr	r3, [pc, #32]	; (401cc8 <vTaskStartScheduler+0x74>)
  401ca6:	4798      	blx	r3
}
  401ca8:	e7e2      	b.n	401c70 <vTaskStartScheduler+0x1c>
  401caa:	bf00      	nop
  401cac:	00409758 	.word	0x00409758
  401cb0:	00401f9d 	.word	0x00401f9d
  401cb4:	00401a59 	.word	0x00401a59
  401cb8:	004026a1 	.word	0x004026a1
  401cbc:	20400b08 	.word	0x20400b08
  401cc0:	20400b24 	.word	0x20400b24
  401cc4:	20400b50 	.word	0x20400b50
  401cc8:	00401189 	.word	0x00401189

00401ccc <vTaskSuspendAll>:
	++uxSchedulerSuspended;
  401ccc:	4a02      	ldr	r2, [pc, #8]	; (401cd8 <vTaskSuspendAll+0xc>)
  401cce:	6813      	ldr	r3, [r2, #0]
  401cd0:	3301      	adds	r3, #1
  401cd2:	6013      	str	r3, [r2, #0]
  401cd4:	4770      	bx	lr
  401cd6:	bf00      	nop
  401cd8:	20400ad0 	.word	0x20400ad0

00401cdc <xTaskGetTickCount>:
		xTicks = xTickCount;
  401cdc:	4b01      	ldr	r3, [pc, #4]	; (401ce4 <xTaskGetTickCount+0x8>)
  401cde:	6818      	ldr	r0, [r3, #0]
}
  401ce0:	4770      	bx	lr
  401ce2:	bf00      	nop
  401ce4:	20400b50 	.word	0x20400b50

00401ce8 <uxTaskGetNumberOfTasks>:
	return uxCurrentNumberOfTasks;
  401ce8:	4b01      	ldr	r3, [pc, #4]	; (401cf0 <uxTaskGetNumberOfTasks+0x8>)
  401cea:	6818      	ldr	r0, [r3, #0]
}
  401cec:	4770      	bx	lr
  401cee:	bf00      	nop
  401cf0:	20400ac8 	.word	0x20400ac8

00401cf4 <xTaskIncrementTick>:
{
  401cf4:	e92d 47f0 	stmdb	sp!, {r4, r5, r6, r7, r8, r9, sl, lr}
	if( uxSchedulerSuspended == ( UBaseType_t ) pdFALSE )
  401cf8:	4b3d      	ldr	r3, [pc, #244]	; (401df0 <xTaskIncrementTick+0xfc>)
  401cfa:	681b      	ldr	r3, [r3, #0]
  401cfc:	2b00      	cmp	r3, #0
  401cfe:	d16e      	bne.n	401dde <xTaskIncrementTick+0xea>
		++xTickCount;
  401d00:	4b3c      	ldr	r3, [pc, #240]	; (401df4 <xTaskIncrementTick+0x100>)
  401d02:	681a      	ldr	r2, [r3, #0]
  401d04:	3201      	adds	r2, #1
  401d06:	601a      	str	r2, [r3, #0]
			const TickType_t xConstTickCount = xTickCount;
  401d08:	f8d3 a000 	ldr.w	sl, [r3]
			if( xConstTickCount == ( TickType_t ) 0U )
  401d0c:	f1ba 0f00 	cmp.w	sl, #0
  401d10:	d01b      	beq.n	401d4a <xTaskIncrementTick+0x56>
			if( xConstTickCount >= xNextTaskUnblockTime )
  401d12:	4b39      	ldr	r3, [pc, #228]	; (401df8 <xTaskIncrementTick+0x104>)
  401d14:	681b      	ldr	r3, [r3, #0]
  401d16:	459a      	cmp	sl, r3
  401d18:	d224      	bcs.n	401d64 <xTaskIncrementTick+0x70>
BaseType_t xSwitchRequired = pdFALSE;
  401d1a:	2600      	movs	r6, #0
			if( listCURRENT_LIST_LENGTH( &( pxReadyTasksLists[ pxCurrentTCB->uxPriority ] ) ) > ( UBaseType_t ) 1 )
  401d1c:	4b37      	ldr	r3, [pc, #220]	; (401dfc <xTaskIncrementTick+0x108>)
  401d1e:	681b      	ldr	r3, [r3, #0]
  401d20:	6adb      	ldr	r3, [r3, #44]	; 0x2c
  401d22:	eb03 0383 	add.w	r3, r3, r3, lsl #2
  401d26:	4a36      	ldr	r2, [pc, #216]	; (401e00 <xTaskIncrementTick+0x10c>)
  401d28:	f852 3023 	ldr.w	r3, [r2, r3, lsl #2]
				xSwitchRequired = pdTRUE;
  401d2c:	2b02      	cmp	r3, #2
  401d2e:	bf28      	it	cs
  401d30:	2601      	movcs	r6, #1
			if( uxPendedTicks == ( UBaseType_t ) 0U )
  401d32:	4b34      	ldr	r3, [pc, #208]	; (401e04 <xTaskIncrementTick+0x110>)
  401d34:	681b      	ldr	r3, [r3, #0]
  401d36:	2b00      	cmp	r3, #0
  401d38:	d04e      	beq.n	401dd8 <xTaskIncrementTick+0xe4>
		if( xYieldPending != pdFALSE )
  401d3a:	4b33      	ldr	r3, [pc, #204]	; (401e08 <xTaskIncrementTick+0x114>)
  401d3c:	681b      	ldr	r3, [r3, #0]
			xSwitchRequired = pdTRUE;
  401d3e:	2b00      	cmp	r3, #0
}
  401d40:	bf0c      	ite	eq
  401d42:	4630      	moveq	r0, r6
  401d44:	2001      	movne	r0, #1
  401d46:	e8bd 87f0 	ldmia.w	sp!, {r4, r5, r6, r7, r8, r9, sl, pc}
				taskSWITCH_DELAYED_LISTS();
  401d4a:	4a30      	ldr	r2, [pc, #192]	; (401e0c <xTaskIncrementTick+0x118>)
  401d4c:	6811      	ldr	r1, [r2, #0]
  401d4e:	4b30      	ldr	r3, [pc, #192]	; (401e10 <xTaskIncrementTick+0x11c>)
  401d50:	6818      	ldr	r0, [r3, #0]
  401d52:	6010      	str	r0, [r2, #0]
  401d54:	6019      	str	r1, [r3, #0]
  401d56:	4a2f      	ldr	r2, [pc, #188]	; (401e14 <xTaskIncrementTick+0x120>)
  401d58:	6813      	ldr	r3, [r2, #0]
  401d5a:	3301      	adds	r3, #1
  401d5c:	6013      	str	r3, [r2, #0]
  401d5e:	4b2e      	ldr	r3, [pc, #184]	; (401e18 <xTaskIncrementTick+0x124>)
  401d60:	4798      	blx	r3
  401d62:	e7d6      	b.n	401d12 <xTaskIncrementTick+0x1e>
  401d64:	2600      	movs	r6, #0
					if( listLIST_IS_EMPTY( pxDelayedTaskList ) != pdFALSE )
  401d66:	4f29      	ldr	r7, [pc, #164]	; (401e0c <xTaskIncrementTick+0x118>)
						( void ) uxListRemove( &( pxTCB->xGenericListItem ) );
  401d68:	f8df 90b8 	ldr.w	r9, [pc, #184]	; 401e24 <xTaskIncrementTick+0x130>
						prvAddTaskToReadyList( pxTCB );
  401d6c:	f8df 80b8 	ldr.w	r8, [pc, #184]	; 401e28 <xTaskIncrementTick+0x134>
  401d70:	e021      	b.n	401db6 <xTaskIncrementTick+0xc2>
						xNextTaskUnblockTime = portMAX_DELAY;
  401d72:	f04f 32ff 	mov.w	r2, #4294967295
  401d76:	4b20      	ldr	r3, [pc, #128]	; (401df8 <xTaskIncrementTick+0x104>)
  401d78:	601a      	str	r2, [r3, #0]
						break;
  401d7a:	e7cf      	b.n	401d1c <xTaskIncrementTick+0x28>
							xNextTaskUnblockTime = xItemValue;
  401d7c:	4a1e      	ldr	r2, [pc, #120]	; (401df8 <xTaskIncrementTick+0x104>)
  401d7e:	6013      	str	r3, [r2, #0]
							break;
  401d80:	e7cc      	b.n	401d1c <xTaskIncrementTick+0x28>
							( void ) uxListRemove( &( pxTCB->xEventListItem ) );
  401d82:	f104 0018 	add.w	r0, r4, #24
  401d86:	47c8      	blx	r9
						prvAddTaskToReadyList( pxTCB );
  401d88:	6ae0      	ldr	r0, [r4, #44]	; 0x2c
  401d8a:	f8d8 2000 	ldr.w	r2, [r8]
  401d8e:	2301      	movs	r3, #1
  401d90:	4083      	lsls	r3, r0
  401d92:	4313      	orrs	r3, r2
  401d94:	f8c8 3000 	str.w	r3, [r8]
  401d98:	eb00 0080 	add.w	r0, r0, r0, lsl #2
  401d9c:	4629      	mov	r1, r5
  401d9e:	4b18      	ldr	r3, [pc, #96]	; (401e00 <xTaskIncrementTick+0x10c>)
  401da0:	eb03 0080 	add.w	r0, r3, r0, lsl #2
  401da4:	4b1d      	ldr	r3, [pc, #116]	; (401e1c <xTaskIncrementTick+0x128>)
  401da6:	4798      	blx	r3
							if( pxTCB->uxPriority >= pxCurrentTCB->uxPriority )
  401da8:	4b14      	ldr	r3, [pc, #80]	; (401dfc <xTaskIncrementTick+0x108>)
  401daa:	681b      	ldr	r3, [r3, #0]
  401dac:	6ae2      	ldr	r2, [r4, #44]	; 0x2c
  401dae:	6adb      	ldr	r3, [r3, #44]	; 0x2c
								xSwitchRequired = pdTRUE;
  401db0:	429a      	cmp	r2, r3
  401db2:	bf28      	it	cs
  401db4:	2601      	movcs	r6, #1
					if( listLIST_IS_EMPTY( pxDelayedTaskList ) != pdFALSE )
  401db6:	683b      	ldr	r3, [r7, #0]
  401db8:	681b      	ldr	r3, [r3, #0]
  401dba:	2b00      	cmp	r3, #0
  401dbc:	d0d9      	beq.n	401d72 <xTaskIncrementTick+0x7e>
						pxTCB = ( TCB_t * ) listGET_OWNER_OF_HEAD_ENTRY( pxDelayedTaskList );
  401dbe:	683b      	ldr	r3, [r7, #0]
  401dc0:	68db      	ldr	r3, [r3, #12]
  401dc2:	68dc      	ldr	r4, [r3, #12]
						xItemValue = listGET_LIST_ITEM_VALUE( &( pxTCB->xGenericListItem ) );
  401dc4:	6863      	ldr	r3, [r4, #4]
						if( xConstTickCount < xItemValue )
  401dc6:	459a      	cmp	sl, r3
  401dc8:	d3d8      	bcc.n	401d7c <xTaskIncrementTick+0x88>
						( void ) uxListRemove( &( pxTCB->xGenericListItem ) );
  401dca:	1d25      	adds	r5, r4, #4
  401dcc:	4628      	mov	r0, r5
  401dce:	47c8      	blx	r9
						if( listLIST_ITEM_CONTAINER( &( pxTCB->xEventListItem ) ) != NULL )
  401dd0:	6aa3      	ldr	r3, [r4, #40]	; 0x28
  401dd2:	2b00      	cmp	r3, #0
  401dd4:	d1d5      	bne.n	401d82 <xTaskIncrementTick+0x8e>
  401dd6:	e7d7      	b.n	401d88 <xTaskIncrementTick+0x94>
				vApplicationTickHook();
  401dd8:	4b11      	ldr	r3, [pc, #68]	; (401e20 <xTaskIncrementTick+0x12c>)
  401dda:	4798      	blx	r3
  401ddc:	e7ad      	b.n	401d3a <xTaskIncrementTick+0x46>
		++uxPendedTicks;
  401dde:	4a09      	ldr	r2, [pc, #36]	; (401e04 <xTaskIncrementTick+0x110>)
  401de0:	6813      	ldr	r3, [r2, #0]
  401de2:	3301      	adds	r3, #1
  401de4:	6013      	str	r3, [r2, #0]
			vApplicationTickHook();
  401de6:	4b0e      	ldr	r3, [pc, #56]	; (401e20 <xTaskIncrementTick+0x12c>)
  401de8:	4798      	blx	r3
BaseType_t xSwitchRequired = pdFALSE;
  401dea:	2600      	movs	r6, #0
  401dec:	e7a5      	b.n	401d3a <xTaskIncrementTick+0x46>
  401dee:	bf00      	nop
  401df0:	20400ad0 	.word	0x20400ad0
  401df4:	20400b50 	.word	0x20400b50
  401df8:	20400b08 	.word	0x20400b08
  401dfc:	20400a58 	.word	0x20400a58
  401e00:	20400a64 	.word	0x20400a64
  401e04:	20400acc 	.word	0x20400acc
  401e08:	20400b54 	.word	0x20400b54
  401e0c:	20400a5c 	.word	0x20400a5c
  401e10:	20400a60 	.word	0x20400a60
  401e14:	20400b0c 	.word	0x20400b0c
  401e18:	004019d5 	.word	0x004019d5
  401e1c:	00400f91 	.word	0x00400f91
  401e20:	00402d01 	.word	0x00402d01
  401e24:	00400fdd 	.word	0x00400fdd
  401e28:	20400adc 	.word	0x20400adc

00401e2c <xTaskResumeAll>:
{
  401e2c:	e92d 43f8 	stmdb	sp!, {r3, r4, r5, r6, r7, r8, r9, lr}
	taskENTER_CRITICAL();
  401e30:	4b2f      	ldr	r3, [pc, #188]	; (401ef0 <xTaskResumeAll+0xc4>)
  401e32:	4798      	blx	r3
		--uxSchedulerSuspended;
  401e34:	4b2f      	ldr	r3, [pc, #188]	; (401ef4 <xTaskResumeAll+0xc8>)
  401e36:	681a      	ldr	r2, [r3, #0]
  401e38:	3a01      	subs	r2, #1
  401e3a:	601a      	str	r2, [r3, #0]
		if( uxSchedulerSuspended == ( UBaseType_t ) pdFALSE )
  401e3c:	681b      	ldr	r3, [r3, #0]
  401e3e:	2b00      	cmp	r3, #0
  401e40:	d150      	bne.n	401ee4 <xTaskResumeAll+0xb8>
			if( uxCurrentNumberOfTasks > ( UBaseType_t ) 0U )
  401e42:	4b2d      	ldr	r3, [pc, #180]	; (401ef8 <xTaskResumeAll+0xcc>)
  401e44:	681b      	ldr	r3, [r3, #0]
  401e46:	b333      	cbz	r3, 401e96 <xTaskResumeAll+0x6a>
				while( listLIST_IS_EMPTY( &xPendingReadyList ) == pdFALSE )
  401e48:	4e2c      	ldr	r6, [pc, #176]	; (401efc <xTaskResumeAll+0xd0>)
					( void ) uxListRemove( &( pxTCB->xEventListItem ) );
  401e4a:	f8df 80d4 	ldr.w	r8, [pc, #212]	; 401f20 <xTaskResumeAll+0xf4>
					prvAddTaskToReadyList( pxTCB );
  401e4e:	4f2c      	ldr	r7, [pc, #176]	; (401f00 <xTaskResumeAll+0xd4>)
  401e50:	f8df 90d0 	ldr.w	r9, [pc, #208]	; 401f24 <xTaskResumeAll+0xf8>
				while( listLIST_IS_EMPTY( &xPendingReadyList ) == pdFALSE )
  401e54:	6833      	ldr	r3, [r6, #0]
  401e56:	b303      	cbz	r3, 401e9a <xTaskResumeAll+0x6e>
					pxTCB = ( TCB_t * ) listGET_OWNER_OF_HEAD_ENTRY( ( &xPendingReadyList ) );
  401e58:	68f3      	ldr	r3, [r6, #12]
  401e5a:	68dc      	ldr	r4, [r3, #12]
					( void ) uxListRemove( &( pxTCB->xEventListItem ) );
  401e5c:	f104 0018 	add.w	r0, r4, #24
  401e60:	47c0      	blx	r8
					( void ) uxListRemove( &( pxTCB->xGenericListItem ) );
  401e62:	1d25      	adds	r5, r4, #4
  401e64:	4628      	mov	r0, r5
  401e66:	47c0      	blx	r8
					prvAddTaskToReadyList( pxTCB );
  401e68:	6ae0      	ldr	r0, [r4, #44]	; 0x2c
  401e6a:	683a      	ldr	r2, [r7, #0]
  401e6c:	2301      	movs	r3, #1
  401e6e:	4083      	lsls	r3, r0
  401e70:	4313      	orrs	r3, r2
  401e72:	603b      	str	r3, [r7, #0]
  401e74:	eb00 0080 	add.w	r0, r0, r0, lsl #2
  401e78:	4629      	mov	r1, r5
  401e7a:	eb09 0080 	add.w	r0, r9, r0, lsl #2
  401e7e:	4b21      	ldr	r3, [pc, #132]	; (401f04 <xTaskResumeAll+0xd8>)
  401e80:	4798      	blx	r3
					if( pxTCB->uxPriority >= pxCurrentTCB->uxPriority )
  401e82:	4b21      	ldr	r3, [pc, #132]	; (401f08 <xTaskResumeAll+0xdc>)
  401e84:	681b      	ldr	r3, [r3, #0]
  401e86:	6ae2      	ldr	r2, [r4, #44]	; 0x2c
  401e88:	6adb      	ldr	r3, [r3, #44]	; 0x2c
  401e8a:	429a      	cmp	r2, r3
  401e8c:	d3e2      	bcc.n	401e54 <xTaskResumeAll+0x28>
						xYieldPending = pdTRUE;
  401e8e:	2201      	movs	r2, #1
  401e90:	4b1e      	ldr	r3, [pc, #120]	; (401f0c <xTaskResumeAll+0xe0>)
  401e92:	601a      	str	r2, [r3, #0]
  401e94:	e7de      	b.n	401e54 <xTaskResumeAll+0x28>
BaseType_t xAlreadyYielded = pdFALSE;
  401e96:	2400      	movs	r4, #0
  401e98:	e025      	b.n	401ee6 <xTaskResumeAll+0xba>
				if( uxPendedTicks > ( UBaseType_t ) 0U )
  401e9a:	4b1d      	ldr	r3, [pc, #116]	; (401f10 <xTaskResumeAll+0xe4>)
  401e9c:	681b      	ldr	r3, [r3, #0]
  401e9e:	b18b      	cbz	r3, 401ec4 <xTaskResumeAll+0x98>
					while( uxPendedTicks > ( UBaseType_t ) 0U )
  401ea0:	4b1b      	ldr	r3, [pc, #108]	; (401f10 <xTaskResumeAll+0xe4>)
  401ea2:	681b      	ldr	r3, [r3, #0]
  401ea4:	b173      	cbz	r3, 401ec4 <xTaskResumeAll+0x98>
						if( xTaskIncrementTick() != pdFALSE )
  401ea6:	4d1b      	ldr	r5, [pc, #108]	; (401f14 <xTaskResumeAll+0xe8>)
							xYieldPending = pdTRUE;
  401ea8:	4e18      	ldr	r6, [pc, #96]	; (401f0c <xTaskResumeAll+0xe0>)
						--uxPendedTicks;
  401eaa:	4c19      	ldr	r4, [pc, #100]	; (401f10 <xTaskResumeAll+0xe4>)
  401eac:	e004      	b.n	401eb8 <xTaskResumeAll+0x8c>
  401eae:	6823      	ldr	r3, [r4, #0]
  401eb0:	3b01      	subs	r3, #1
  401eb2:	6023      	str	r3, [r4, #0]
					while( uxPendedTicks > ( UBaseType_t ) 0U )
  401eb4:	6823      	ldr	r3, [r4, #0]
  401eb6:	b12b      	cbz	r3, 401ec4 <xTaskResumeAll+0x98>
						if( xTaskIncrementTick() != pdFALSE )
  401eb8:	47a8      	blx	r5
  401eba:	2800      	cmp	r0, #0
  401ebc:	d0f7      	beq.n	401eae <xTaskResumeAll+0x82>
							xYieldPending = pdTRUE;
