Archive member included to satisfy reference by file (symbol)

c:/program files (x86)/atmel/studio/7.0/toolchain/arm/arm-gnu-toolchain/bin/../lib/gcc/arm-none-eabi/6.3.1/../../../../arm-none-eabi/lib/thumb/v7e-m\libc.a(lib_a-exit.o)
                              c:/program files (x86)/atmel/studio/7.0/toolchain/arm/arm-gnu-toolchain/bin/../lib/gcc/arm-none-eabi/6.3.1/../../../../arm-none-eabi/lib/thumb/v7e-m/crt0.o (exit)
c:/program files (x86)/atmel/studio/7.0/toolchain/arm/arm-gnu-toolchain/bin/../lib/gcc/arm-none-eabi/6.3.1/../../../../arm-none-eabi/lib/thumb/v7e-m\libc.a(lib_a-impure.o)
                              c:/program files (x86)/atmel/studio/7.0/toolchain/arm/arm-gnu-toolchain/bin/../lib/gcc/arm-none-eabi/6.3.1/../../../../arm-none-eabi/lib/thumb/v7e-m\libc.a(lib_a-exit.o) (_global_impure_ptr)
c:/program files (x86)/atmel/studio/7.0/toolchain/arm/arm-gnu-toolchain/bin/../lib/gcc/arm-none-eabi/6.3.1/../../../../arm-none-eabi/lib/thumb/v7e-m\libc.a(lib_a-init.o)
                              c:/program files (x86)/atmel/studio/7.0/toolchain/arm/arm-gnu-toolchain/bin/../lib/gcc/arm-none-eabi/6.3.1/../../../../arm-none-eabi/lib/thumb/v7e-m/crt0.o (__libc_init_array)
c:/program files (x86)/atmel/studio/7.0/toolchain/arm/arm-gnu-toolchain/bin/../lib/gcc/arm-none-eabi/6.3.1/../../../../arm-none-eabi/lib/thumb/v7e-m\libc.a(lib_a-iprintf.o)
                              src/ASF/common/components/wifi/winc1500/bus_wrapper/source/nm_bus_wrapper_same70.o (iprintf)
c:/program files (x86)/atmel/studio/7.0/toolchain/arm/arm-gnu-toolchain/bin/../lib/gcc/arm-none-eabi/6.3.1/../../../../arm-none-eabi/lib/thumb/v7e-m\libc.a(lib_a-memset.o)
                              c:/program files (x86)/atmel/studio/7.0/toolchain/arm/arm-gnu-toolchain/bin/../lib/gcc/arm-none-eabi/6.3.1/../../../../arm-none-eabi/lib/thumb/v7e-m/crt0.o (memset)
c:/program files (x86)/atmel/studio/7.0/toolchain/arm/arm-gnu-toolchain/bin/../lib/gcc/arm-none-eabi/6.3.1/../../../../arm-none-eabi/lib/thumb/v7e-m\libc.a(lib_a-setbuf.o)
                              src/main.o (setbuf)
c:/program files (x86)/atmel/studio/7.0/toolchain/arm/arm-gnu-toolchain/bin/../lib/gcc/arm-none-eabi/6.3.1/../../../../arm-none-eabi/lib/thumb/v7e-m\libc.a(lib_a-setvbuf.o)
                              c:/program files (x86)/atmel/studio/7.0/toolchain/arm/arm-gnu-toolchain/bin/../lib/gcc/arm-none-eabi/6.3.1/../../../../arm-none-eabi/lib/thumb/v7e-m\libc.a(lib_a-setbuf.o) (setvbuf)
c:/program files (x86)/atmel/studio/7.0/toolchain/arm/arm-gnu-toolchain/bin/../lib/gcc/arm-none-eabi/6.3.1/../../../../arm-none-eabi/lib/thumb/v7e-m\libc.a(lib_a-strlen.o)
                              src/main.o (strlen)
c:/program files (x86)/atmel/studio/7.0/toolchain/arm/arm-gnu-toolchain/bin/../lib/gcc/arm-none-eabi/6.3.1/../../../../arm-none-eabi/lib/thumb/v7e-m\libc.a(lib_a-vfiprintf.o)
                              c:/program files (x86)/atmel/studio/7.0/toolchain/arm/arm-gnu-toolchain/bin/../lib/gcc/arm-none-eabi/6.3.1/../../../../arm-none-eabi/lib/thumb/v7e-m\libc.a(lib_a-iprintf.o) (_vfiprintf_r)
c:/program files (x86)/atmel/studio/7.0/toolchain/arm/arm-gnu-toolchain/bin/../lib/gcc/arm-none-eabi/6.3.1/../../../../arm-none-eabi/lib/thumb/v7e-m\libc.a(lib_a-wsetup.o)
                              c:/program files (x86)/atmel/studio/7.0/toolchain/arm/arm-gnu-toolchain/bin/../lib/gcc/arm-none-eabi/6.3.1/../../../../arm-none-eabi/lib/thumb/v7e-m\libc.a(lib_a-vfiprintf.o) (__swsetup_r)
c:/program files (x86)/atmel/studio/7.0/toolchain/arm/arm-gnu-toolchain/bin/../lib/gcc/arm-none-eabi/6.3.1/../../../../arm-none-eabi/lib/thumb/v7e-m\libc.a(lib_a-__call_atexit.o)
                              c:/program files (x86)/atmel/studio/7.0/toolchain/arm/arm-gnu-toolchain/bin/../lib/gcc/arm-none-eabi/6.3.1/../../../../arm-none-eabi/lib/thumb/v7e-m\libc.a(lib_a-exit.o) (__call_exitprocs)
c:/program files (x86)/atmel/studio/7.0/toolchain/arm/arm-gnu-toolchain/bin/../lib/gcc/arm-none-eabi/6.3.1/../../../../arm-none-eabi/lib/thumb/v7e-m\libc.a(lib_a-atexit.o)
                              c:/program files (x86)/atmel/studio/7.0/toolchain/arm/arm-gnu-toolchain/bin/../lib/gcc/arm-none-eabi/6.3.1/../../../../arm-none-eabi/lib/thumb/v7e-m\libc.a(lib_a-__call_atexit.o) (atexit)
c:/program files (x86)/atmel/studio/7.0/toolchain/arm/arm-gnu-toolchain/bin/../lib/gcc/arm-none-eabi/6.3.1/../../../../arm-none-eabi/lib/thumb/v7e-m\libc.a(lib_a-fflush.o)
                              c:/program files (x86)/atmel/studio/7.0/toolchain/arm/arm-gnu-toolchain/bin/../lib/gcc/arm-none-eabi/6.3.1/../../../../arm-none-eabi/lib/thumb/v7e-m\libc.a(lib_a-setvbuf.o) (_fflush_r)
c:/program files (x86)/atmel/studio/7.0/toolchain/arm/arm-gnu-toolchain/bin/../lib/gcc/arm-none-eabi/6.3.1/../../../../arm-none-eabi/lib/thumb/v7e-m\libc.a(lib_a-findfp.o)
                              c:/program files (x86)/atmel/studio/7.0/toolchain/arm/arm-gnu-toolchain/bin/../lib/gcc/arm-none-eabi/6.3.1/../../../../arm-none-eabi/lib/thumb/v7e-m\libc.a(lib_a-setvbuf.o) (__sinit)
c:/program files (x86)/atmel/studio/7.0/toolchain/arm/arm-gnu-toolchain/bin/../lib/gcc/arm-none-eabi/6.3.1/../../../../arm-none-eabi/lib/thumb/v7e-m\libc.a(lib_a-fini.o)
                              c:/program files (x86)/atmel/studio/7.0/toolchain/arm/arm-gnu-toolchain/bin/../lib/gcc/arm-none-eabi/6.3.1/../../../../arm-none-eabi/lib/thumb/v7e-m\libc.a(lib_a-__call_atexit.o) (__libc_fini_array)
c:/program files (x86)/atmel/studio/7.0/toolchain/arm/arm-gnu-toolchain/bin/../lib/gcc/arm-none-eabi/6.3.1/../../../../arm-none-eabi/lib/thumb/v7e-m\libc.a(lib_a-fputwc.o)
                              c:/program files (x86)/atmel/studio/7.0/toolchain/arm/arm-gnu-toolchain/bin/../lib/gcc/arm-none-eabi/6.3.1/../../../../arm-none-eabi/lib/thumb/v7e-m\libc.a(lib_a-vfiprintf.o) (_fputwc_r)
c:/program files (x86)/atmel/studio/7.0/toolchain/arm/arm-gnu-toolchain/bin/../lib/gcc/arm-none-eabi/6.3.1/../../../../arm-none-eabi/lib/thumb/v7e-m\libc.a(lib_a-freer.o)
                              c:/program files (x86)/atmel/studio/7.0/toolchain/arm/arm-gnu-toolchain/bin/../lib/gcc/arm-none-eabi/6.3.1/../../../../arm-none-eabi/lib/thumb/v7e-m\libc.a(lib_a-setvbuf.o) (_free_r)
c:/program files (x86)/atmel/studio/7.0/toolchain/arm/arm-gnu-toolchain/bin/../lib/gcc/arm-none-eabi/6.3.1/../../../../arm-none-eabi/lib/thumb/v7e-m\libc.a(lib_a-fvwrite.o)
                              c:/program files (x86)/atmel/studio/7.0/toolchain/arm/arm-gnu-toolchain/bin/../lib/gcc/arm-none-eabi/6.3.1/../../../../arm-none-eabi/lib/thumb/v7e-m\libc.a(lib_a-vfiprintf.o) (__sfvwrite_r)
c:/program files (x86)/atmel/studio/7.0/toolchain/arm/arm-gnu-toolchain/bin/../lib/gcc/arm-none-eabi/6.3.1/../../../../arm-none-eabi/lib/thumb/v7e-m\libc.a(lib_a-fwalk.o)
                              c:/program files (x86)/atmel/studio/7.0/toolchain/arm/arm-gnu-toolchain/bin/../lib/gcc/arm-none-eabi/6.3.1/../../../../arm-none-eabi/lib/thumb/v7e-m\libc.a(lib_a-findfp.o) (_fwalk)
c:/program files (x86)/atmel/studio/7.0/toolchain/arm/arm-gnu-toolchain/bin/../lib/gcc/arm-none-eabi/6.3.1/../../../../arm-none-eabi/lib/thumb/v7e-m\libc.a(lib_a-locale.o)
                              c:/program files (x86)/atmel/studio/7.0/toolchain/arm/arm-gnu-toolchain/bin/../lib/gcc/arm-none-eabi/6.3.1/../../../../arm-none-eabi/lib/thumb/v7e-m\libc.a(lib_a-fputwc.o) (__locale_mb_cur_max)
c:/program files (x86)/atmel/studio/7.0/toolchain/arm/arm-gnu-toolchain/bin/../lib/gcc/arm-none-eabi/6.3.1/../../../../arm-none-eabi/lib/thumb/v7e-m\libc.a(lib_a-lock.o)
                              c:/program files (x86)/atmel/studio/7.0/toolchain/arm/arm-gnu-toolchain/bin/../lib/gcc/arm-none-eabi/6.3.1/../../../../arm-none-eabi/lib/thumb/v7e-m\libc.a(lib_a-vfiprintf.o) (__retarget_lock_init_recursive)
c:/program files (x86)/atmel/studio/7.0/toolchain/arm/arm-gnu-toolchain/bin/../lib/gcc/arm-none-eabi/6.3.1/../../../../arm-none-eabi/lib/thumb/v7e-m\libc.a(lib_a-makebuf.o)
                              c:/program files (x86)/atmel/studio/7.0/toolchain/arm/arm-gnu-toolchain/bin/../lib/gcc/arm-none-eabi/6.3.1/../../../../arm-none-eabi/lib/thumb/v7e-m\libc.a(lib_a-setvbuf.o) (__swhatbuf_r)
c:/program files (x86)/atmel/studio/7.0/toolchain/arm/arm-gnu-toolchain/bin/../lib/gcc/arm-none-eabi/6.3.1/../../../../arm-none-eabi/lib/thumb/v7e-m\libc.a(lib_a-malloc.o)
                              c:/program files (x86)/atmel/studio/7.0/toolchain/arm/arm-gnu-toolchain/bin/../lib/gcc/arm-none-eabi/6.3.1/../../../../arm-none-eabi/lib/thumb/v7e-m\libc.a(lib_a-setvbuf.o) (malloc)
c:/program files (x86)/atmel/studio/7.0/toolchain/arm/arm-gnu-toolchain/bin/../lib/gcc/arm-none-eabi/6.3.1/../../../../arm-none-eabi/lib/thumb/v7e-m\libc.a(lib_a-mallocr.o)
                              c:/program files (x86)/atmel/studio/7.0/toolchain/arm/arm-gnu-toolchain/bin/../lib/gcc/arm-none-eabi/6.3.1/../../../../arm-none-eabi/lib/thumb/v7e-m\libc.a(lib_a-findfp.o) (_malloc_r)
c:/program files (x86)/atmel/studio/7.0/toolchain/arm/arm-gnu-toolchain/bin/../lib/gcc/arm-none-eabi/6.3.1/../../../../arm-none-eabi/lib/thumb/v7e-m\libc.a(lib_a-mbtowc_r.o)
                              c:/program files (x86)/atmel/studio/7.0/toolchain/arm/arm-gnu-toolchain/bin/../lib/gcc/arm-none-eabi/6.3.1/../../../../arm-none-eabi/lib/thumb/v7e-m\libc.a(lib_a-locale.o) (__ascii_mbtowc)
c:/program files (x86)/atmel/studio/7.0/toolchain/arm/arm-gnu-toolchain/bin/../lib/gcc/arm-none-eabi/6.3.1/../../../../arm-none-eabi/lib/thumb/v7e-m\libc.a(lib_a-memchr.o)
                              c:/program files (x86)/atmel/studio/7.0/toolchain/arm/arm-gnu-toolchain/bin/../lib/gcc/arm-none-eabi/6.3.1/../../../../arm-none-eabi/lib/thumb/v7e-m\libc.a(lib_a-vfiprintf.o) (memchr)
c:/program files (x86)/atmel/studio/7.0/toolchain/arm/arm-gnu-toolchain/bin/../lib/gcc/arm-none-eabi/6.3.1/../../../../arm-none-eabi/lib/thumb/v7e-m\libc.a(lib_a-memcpy.o)
                              c:/program files (x86)/atmel/studio/7.0/toolchain/arm/arm-gnu-toolchain/bin/../lib/gcc/arm-none-eabi/6.3.1/../../../../arm-none-eabi/lib/thumb/v7e-m\libc.a(lib_a-fvwrite.o) (memcpy)
c:/program files (x86)/atmel/studio/7.0/toolchain/arm/arm-gnu-toolchain/bin/../lib/gcc/arm-none-eabi/6.3.1/../../../../arm-none-eabi/lib/thumb/v7e-m\libc.a(lib_a-memmove.o)
                              c:/program files (x86)/atmel/studio/7.0/toolchain/arm/arm-gnu-toolchain/bin/../lib/gcc/arm-none-eabi/6.3.1/../../../../arm-none-eabi/lib/thumb/v7e-m\libc.a(lib_a-fvwrite.o) (memmove)
c:/program files (x86)/atmel/studio/7.0/toolchain/arm/arm-gnu-toolchain/bin/../lib/gcc/arm-none-eabi/6.3.1/../../../../arm-none-eabi/lib/thumb/v7e-m\libc.a(lib_a-mlock.o)
                              c:/program files (x86)/atmel/studio/7.0/toolchain/arm/arm-gnu-toolchain/bin/../lib/gcc/arm-none-eabi/6.3.1/../../../../arm-none-eabi/lib/thumb/v7e-m\libc.a(lib_a-freer.o) (__malloc_lock)
c:/program files (x86)/atmel/studio/7.0/toolchain/arm/arm-gnu-toolchain/bin/../lib/gcc/arm-none-eabi/6.3.1/../../../../arm-none-eabi/lib/thumb/v7e-m\libc.a(lib_a-reallocr.o)
                              c:/program files (x86)/atmel/studio/7.0/toolchain/arm/arm-gnu-toolchain/bin/../lib/gcc/arm-none-eabi/6.3.1/../../../../arm-none-eabi/lib/thumb/v7e-m\libc.a(lib_a-fvwrite.o) (_realloc_r)
c:/program files (x86)/atmel/studio/7.0/toolchain/arm/arm-gnu-toolchain/bin/../lib/gcc/arm-none-eabi/6.3.1/../../../../arm-none-eabi/lib/thumb/v7e-m\libc.a(lib_a-sbrkr.o)
                              c:/program files (x86)/atmel/studio/7.0/toolchain/arm/arm-gnu-toolchain/bin/../lib/gcc/arm-none-eabi/6.3.1/../../../../arm-none-eabi/lib/thumb/v7e-m\libc.a(lib_a-freer.o) (_sbrk_r)
c:/program files (x86)/atmel/studio/7.0/toolchain/arm/arm-gnu-toolchain/bin/../lib/gcc/arm-none-eabi/6.3.1/../../../../arm-none-eabi/lib/thumb/v7e-m\libc.a(lib_a-stdio.o)
                              c:/program files (x86)/atmel/studio/7.0/toolchain/arm/arm-gnu-toolchain/bin/../lib/gcc/arm-none-eabi/6.3.1/../../../../arm-none-eabi/lib/thumb/v7e-m\libc.a(lib_a-findfp.o) (__sread)
c:/program files (x86)/atmel/studio/7.0/toolchain/arm/arm-gnu-toolchain/bin/../lib/gcc/arm-none-eabi/6.3.1/../../../../arm-none-eabi/lib/thumb/v7e-m\libc.a(lib_a-strcmp.o)
                              c:/program files (x86)/atmel/studio/7.0/toolchain/arm/arm-gnu-toolchain/bin/../lib/gcc/arm-none-eabi/6.3.1/../../../../arm-none-eabi/lib/thumb/v7e-m\libc.a(lib_a-locale.o) (strcmp)
c:/program files (x86)/atmel/studio/7.0/toolchain/arm/arm-gnu-toolchain/bin/../lib/gcc/arm-none-eabi/6.3.1/../../../../arm-none-eabi/lib/thumb/v7e-m\libc.a(lib_a-wbuf.o)
                              c:/program files (x86)/atmel/studio/7.0/toolchain/arm/arm-gnu-toolchain/bin/../lib/gcc/arm-none-eabi/6.3.1/../../../../arm-none-eabi/lib/thumb/v7e-m\libc.a(lib_a-fputwc.o) (__swbuf_r)
c:/program files (x86)/atmel/studio/7.0/toolchain/arm/arm-gnu-toolchain/bin/../lib/gcc/arm-none-eabi/6.3.1/../../../../arm-none-eabi/lib/thumb/v7e-m\libc.a(lib_a-wcrtomb.o)
                              c:/program files (x86)/atmel/studio/7.0/toolchain/arm/arm-gnu-toolchain/bin/../lib/gcc/arm-none-eabi/6.3.1/../../../../arm-none-eabi/lib/thumb/v7e-m\libc.a(lib_a-fputwc.o) (_wcrtomb_r)
c:/program files (x86)/atmel/studio/7.0/toolchain/arm/arm-gnu-toolchain/bin/../lib/gcc/arm-none-eabi/6.3.1/../../../../arm-none-eabi/lib/thumb/v7e-m\libc.a(lib_a-wctomb_r.o)
                              c:/program files (x86)/atmel/studio/7.0/toolchain/arm/arm-gnu-toolchain/bin/../lib/gcc/arm-none-eabi/6.3.1/../../../../arm-none-eabi/lib/thumb/v7e-m\libc.a(lib_a-locale.o) (__ascii_wctomb)
c:/program files (x86)/atmel/studio/7.0/toolchain/arm/arm-gnu-toolchain/bin/../lib/gcc/arm-none-eabi/6.3.1/../../../../arm-none-eabi/lib/thumb/v7e-m\libc.a(lib_a-writer.o)
                              c:/program files (x86)/atmel/studio/7.0/toolchain/arm/arm-gnu-toolchain/bin/../lib/gcc/arm-none-eabi/6.3.1/../../../../arm-none-eabi/lib/thumb/v7e-m\libc.a(lib_a-stdio.o) (_write_r)
c:/program files (x86)/atmel/studio/7.0/toolchain/arm/arm-gnu-toolchain/bin/../lib/gcc/arm-none-eabi/6.3.1/../../../../arm-none-eabi/lib/thumb/v7e-m\libc.a(lib_a-__atexit.o)
                              c:/program files (x86)/atmel/studio/7.0/toolchain/arm/arm-gnu-toolchain/bin/../lib/gcc/arm-none-eabi/6.3.1/../../../../arm-none-eabi/lib/thumb/v7e-m\libc.a(lib_a-atexit.o) (__register_exitproc)
c:/program files (x86)/atmel/studio/7.0/toolchain/arm/arm-gnu-toolchain/bin/../lib/gcc/arm-none-eabi/6.3.1/../../../../arm-none-eabi/lib/thumb/v7e-m\libc.a(lib_a-closer.o)
                              c:/program files (x86)/atmel/studio/7.0/toolchain/arm/arm-gnu-toolchain/bin/../lib/gcc/arm-none-eabi/6.3.1/../../../../arm-none-eabi/lib/thumb/v7e-m\libc.a(lib_a-stdio.o) (_close_r)
c:/program files (x86)/atmel/studio/7.0/toolchain/arm/arm-gnu-toolchain/bin/../lib/gcc/arm-none-eabi/6.3.1/../../../../arm-none-eabi/lib/thumb/v7e-m\libc.a(lib_a-ctype_.o)
                              c:/program files (x86)/atmel/studio/7.0/toolchain/arm/arm-gnu-toolchain/bin/../lib/gcc/arm-none-eabi/6.3.1/../../../../arm-none-eabi/lib/thumb/v7e-m\libc.a(lib_a-locale.o) (_ctype_)
c:/program files (x86)/atmel/studio/7.0/toolchain/arm/arm-gnu-toolchain/bin/../lib/gcc/arm-none-eabi/6.3.1/../../../../arm-none-eabi/lib/thumb/v7e-m\libc.a(lib_a-fclose.o)
                              c:/program files (x86)/atmel/studio/7.0/toolchain/arm/arm-gnu-toolchain/bin/../lib/gcc/arm-none-eabi/6.3.1/../../../../arm-none-eabi/lib/thumb/v7e-m\libc.a(lib_a-findfp.o) (_fclose_r)
c:/program files (x86)/atmel/studio/7.0/toolchain/arm/arm-gnu-toolchain/bin/../lib/gcc/arm-none-eabi/6.3.1/../../../../arm-none-eabi/lib/thumb/v7e-m\libc.a(lib_a-fstatr.o)
                              c:/program files (x86)/atmel/studio/7.0/toolchain/arm/arm-gnu-toolchain/bin/../lib/gcc/arm-none-eabi/6.3.1/../../../../arm-none-eabi/lib/thumb/v7e-m\libc.a(lib_a-makebuf.o) (_fstat_r)
c:/program files (x86)/atmel/studio/7.0/toolchain/arm/arm-gnu-toolchain/bin/../lib/gcc/arm-none-eabi/6.3.1/../../../../arm-none-eabi/lib/thumb/v7e-m\libc.a(lib_a-isattyr.o)
                              c:/program files (x86)/atmel/studio/7.0/toolchain/arm/arm-gnu-toolchain/bin/../lib/gcc/arm-none-eabi/6.3.1/../../../../arm-none-eabi/lib/thumb/v7e-m\libc.a(lib_a-makebuf.o) (_isatty_r)
c:/program files (x86)/atmel/studio/7.0/toolchain/arm/arm-gnu-toolchain/bin/../lib/gcc/arm-none-eabi/6.3.1/../../../../arm-none-eabi/lib/thumb/v7e-m\libc.a(lib_a-lseekr.o)
                              c:/program files (x86)/atmel/studio/7.0/toolchain/arm/arm-gnu-toolchain/bin/../lib/gcc/arm-none-eabi/6.3.1/../../../../arm-none-eabi/lib/thumb/v7e-m\libc.a(lib_a-stdio.o) (_lseek_r)
c:/program files (x86)/atmel/studio/7.0/toolchain/arm/arm-gnu-toolchain/bin/../lib/gcc/arm-none-eabi/6.3.1/../../../../arm-none-eabi/lib/thumb/v7e-m\libc.a(lib_a-readr.o)
                              c:/program files (x86)/atmel/studio/7.0/toolchain/arm/arm-gnu-toolchain/bin/../lib/gcc/arm-none-eabi/6.3.1/../../../../arm-none-eabi/lib/thumb/v7e-m\libc.a(lib_a-stdio.o) (_read_r)
c:/program files (x86)/atmel/studio/7.0/toolchain/arm/arm-gnu-toolchain/bin/../lib/gcc/arm-none-eabi/6.3.1/../../../../arm-none-eabi/lib/thumb/v7e-m\libc.a(lib_a-reent.o)
                              c:/program files (x86)/atmel/studio/7.0/toolchain/arm/arm-gnu-toolchain/bin/../lib/gcc/arm-none-eabi/6.3.1/../../../../arm-none-eabi/lib/thumb/v7e-m\libc.a(lib_a-sbrkr.o) (errno)
c:/program files (x86)/atmel/studio/7.0/toolchain/arm/arm-gnu-toolchain/bin/../lib/gcc/arm-none-eabi/6.3.1/thumb/v7e-m\libgcc.a(_aeabi_uldivmod.o)
                              c:/program files (x86)/atmel/studio/7.0/toolchain/arm/arm-gnu-toolchain/bin/../lib/gcc/arm-none-eabi/6.3.1/../../../../arm-none-eabi/lib/thumb/v7e-m\libc.a(lib_a-vfiprintf.o) (__aeabi_uldivmod)
c:/program files (x86)/atmel/studio/7.0/toolchain/arm/arm-gnu-toolchain/bin/../lib/gcc/arm-none-eabi/6.3.1/thumb/v7e-m\libgcc.a(_udivmoddi4.o)
                              c:/program files (x86)/atmel/studio/7.0/toolchain/arm/arm-gnu-toolchain/bin/../lib/gcc/arm-none-eabi/6.3.1/thumb/v7e-m\libgcc.a(_aeabi_uldivmod.o) (__udivmoddi4)
c:/program files (x86)/atmel/studio/7.0/toolchain/arm/arm-gnu-toolchain/bin/../lib/gcc/arm-none-eabi/6.3.1/thumb/v7e-m\libgcc.a(_dvmd_tls.o)
                              c:/program files (x86)/atmel/studio/7.0/toolchain/arm/arm-gnu-toolchain/bin/../lib/gcc/arm-none-eabi/6.3.1/thumb/v7e-m\libgcc.a(_aeabi_uldivmod.o) (__aeabi_ldiv0)

Allocating common symbols
Common symbol       size              file

__lock___atexit_recursive_mutex
                    0x1               c:/program files (x86)/atmel/studio/7.0/toolchain/arm/arm-gnu-toolchain/bin/../lib/gcc/arm-none-eabi/6.3.1/../../../../arm-none-eabi/lib/thumb/v7e-m\libc.a(lib_a-lock.o)
__lock___arc4random_mutex
                    0x1               c:/program files (x86)/atmel/studio/7.0/toolchain/arm/arm-gnu-toolchain/bin/../lib/gcc/arm-none-eabi/6.3.1/../../../../arm-none-eabi/lib/thumb/v7e-m\libc.a(lib_a-lock.o)
errno               0x4               c:/program files (x86)/atmel/studio/7.0/toolchain/arm/arm-gnu-toolchain/bin/../lib/gcc/arm-none-eabi/6.3.1/../../../../arm-none-eabi/lib/thumb/v7e-m\libc.a(lib_a-reent.o)
gu16BufferSize      0x2               src/ASF/common/components/wifi/winc1500/socket/source/socket.o
ptr_get             0x4               src/ASF/common/utils/stdio/read.o
__lock___env_recursive_mutex
                    0x1               c:/program files (x86)/atmel/studio/7.0/toolchain/arm/arm-gnu-toolchain/bin/../lib/gcc/arm-none-eabi/6.3.1/../../../../arm-none-eabi/lib/thumb/v7e-m\libc.a(lib_a-lock.o)
__lock___sinit_recursive_mutex
                    0x1               c:/program files (x86)/atmel/studio/7.0/toolchain/arm/arm-gnu-toolchain/bin/../lib/gcc/arm-none-eabi/6.3.1/../../../../arm-none-eabi/lib/thumb/v7e-m\libc.a(lib_a-lock.o)
gsockerrno          0x1               src/ASF/common/components/wifi/winc1500/socket/source/socket.o
ptr_put             0x4               src/ASF/common/utils/stdio/write.o
__lock___malloc_recursive_mutex
                    0x1               c:/program files (x86)/atmel/studio/7.0/toolchain/arm/arm-gnu-toolchain/bin/../lib/gcc/arm-none-eabi/6.3.1/../../../../arm-none-eabi/lib/thumb/v7e-m\libc.a(lib_a-lock.o)
pio_capture_enable_flag
                    0x4               src/ASF/sam/drivers/pio/pio.o
gu8OpCode           0x1               src/ASF/common/components/wifi/winc1500/socket/source/socket.o
stdio_base          0x4               src/ASF/common/utils/stdio/write.o
gastrSockets        0xb0              src/ASF/common/components/wifi/winc1500/socket/source/socket.o
gpfAppSocketCb      0x4               src/ASF/common/components/wifi/winc1500/socket/source/socket.o
__lock___at_quick_exit_mutex
                    0x1               c:/program files (x86)/atmel/studio/7.0/toolchain/arm/arm-gnu-toolchain/bin/../lib/gcc/arm-none-eabi/6.3.1/../../../../arm-none-eabi/lib/thumb/v7e-m\libc.a(lib_a-lock.o)
gfpPingCb           0x4               src/ASF/common/components/wifi/winc1500/socket/source/socket.o
__lock___dd_hash_mutex
                    0x1               c:/program files (x86)/atmel/studio/7.0/toolchain/arm/arm-gnu-toolchain/bin/../lib/gcc/arm-none-eabi/6.3.1/../../../../arm-none-eabi/lib/thumb/v7e-m\libc.a(lib_a-lock.o)
__lock___tz_mutex   0x1               c:/program files (x86)/atmel/studio/7.0/toolchain/arm/arm-gnu-toolchain/bin/../lib/gcc/arm-none-eabi/6.3.1/../../../../arm-none-eabi/lib/thumb/v7e-m\libc.a(lib_a-lock.o)
gpfAppResolveCb     0x4               src/ASF/common/components/wifi/winc1500/socket/source/socket.o
__lock___sfp_recursive_mutex
                    0x1               c:/program files (x86)/atmel/studio/7.0/toolchain/arm/arm-gnu-toolchain/bin/../lib/gcc/arm-none-eabi/6.3.1/../../../../arm-none-eabi/lib/thumb/v7e-m\libc.a(lib_a-lock.o)

Discarded input sections

 .text          0x00000000        0x0 c:/program files (x86)/atmel/studio/7.0/toolchain/arm/arm-gnu-toolchain/bin/../lib/gcc/arm-none-eabi/6.3.1/thumb/v7e-m/crti.o
 .data          0x00000000        0x0 c:/program files (x86)/atmel/studio/7.0/toolchain/arm/arm-gnu-toolchain/bin/../lib/gcc/arm-none-eabi/6.3.1/thumb/v7e-m/crti.o
 .bss           0x00000000        0x0 c:/program files (x86)/atmel/studio/7.0/toolchain/arm/arm-gnu-toolchain/bin/../lib/gcc/arm-none-eabi/6.3.1/thumb/v7e-m/crti.o
 .data          0x00000000        0x4 c:/program files (x86)/atmel/studio/7.0/toolchain/arm/arm-gnu-toolchain/bin/../lib/gcc/arm-none-eabi/6.3.1/thumb/v7e-m/crtbegin.o
 .text          0x00000000       0x74 c:/program files (x86)/atmel/studio/7.0/toolchain/arm/arm-gnu-toolchain/bin/../lib/gcc/arm-none-eabi/6.3.1/../../../../arm-none-eabi/lib/thumb/v7e-m/crt0.o
 .data          0x00000000        0x0 c:/program files (x86)/atmel/studio/7.0/toolchain/arm/arm-gnu-toolchain/bin/../lib/gcc/arm-none-eabi/6.3.1/../../../../arm-none-eabi/lib/thumb/v7e-m/crt0.o
 .bss           0x00000000        0x0 c:/program files (x86)/atmel/studio/7.0/toolchain/arm/arm-gnu-toolchain/bin/../lib/gcc/arm-none-eabi/6.3.1/../../../../arm-none-eabi/lib/thumb/v7e-m/crt0.o
 .ARM.extab     0x00000000        0x0 c:/program files (x86)/atmel/studio/7.0/toolchain/arm/arm-gnu-toolchain/bin/../lib/gcc/arm-none-eabi/6.3.1/../../../../arm-none-eabi/lib/thumb/v7e-m/crt0.o
 .ARM.exidx     0x00000000        0x8 c:/program files (x86)/atmel/studio/7.0/toolchain/arm/arm-gnu-toolchain/bin/../lib/gcc/arm-none-eabi/6.3.1/../../../../arm-none-eabi/lib/thumb/v7e-m/crt0.o
 .ARM.attributes
                0x00000000       0x1c c:/program files (x86)/atmel/studio/7.0/toolchain/arm/arm-gnu-toolchain/bin/../lib/gcc/arm-none-eabi/6.3.1/../../../../arm-none-eabi/lib/thumb/v7e-m/crt0.o
 .group         0x00000000        0x8 src/ASF/common/components/wifi/winc1500/bsp/source/nm_bsp_same70.o
 .group         0x00000000        0x8 src/ASF/common/components/wifi/winc1500/bsp/source/nm_bsp_same70.o
 .group         0x00000000        0x8 src/ASF/common/components/wifi/winc1500/bsp/source/nm_bsp_same70.o
 .group         0x00000000        0x8 src/ASF/common/components/wifi/winc1500/bsp/source/nm_bsp_same70.o
 .group         0x00000000        0x8 src/ASF/common/components/wifi/winc1500/bsp/source/nm_bsp_same70.o
 .group         0x00000000        0x8 src/ASF/common/components/wifi/winc1500/bsp/source/nm_bsp_same70.o
 .group         0x00000000        0x8 src/ASF/common/components/wifi/winc1500/bsp/source/nm_bsp_same70.o
Memory Configuration

Name             Origin             Length             Attributes
rom              0x00400000         0x00200000         xr
ram              0x20400000         0x00060000         xrw
*default*        0x00000000         0xffffffff

Linker script and memory map

LOAD c:/program files (x86)/atmel/studio/7.0/toolchain/arm/arm-gnu-toolchain/bin/../lib/gcc/arm-none-eabi/6.3.1/thumb/v7e-m/crti.o
LOAD c:/program files (x86)/atmel/studio/7.0/toolchain/arm/arm-gnu-toolchain/bin/../lib/gcc/arm-none-eabi/6.3.1/thumb/v7e-m/crtbegin.o
LOAD c:/program files (x86)/atmel/studio/7.0/toolchain/arm/arm-gnu-toolchain/bin/../lib/gcc/arm-none-eabi/6.3.1/../../../../arm-none-eabi/lib/thumb/v7e-m/crt0.o
LOAD src/ASF/common/components/wifi/winc1500/bsp/source/nm_bsp_same70.o
LOAD src/ASF/common/components/wifi/winc1500/bus_wrapper/source/nm_bus_wrapper_same70.o
LOAD src/ASF/common/components/wifi/winc1500/common/source/nm_common.o
LOAD src/ASF/common/components/wifi/winc1500/driver/source/m2m_ate_mode.o
LOAD src/ASF/common/components/wifi/winc1500/driver/source/m2m_crypto.o
LOAD src/ASF/common/components/wifi/winc1500/driver/source/m2m_hif.o
LOAD src/ASF/common/components/wifi/winc1500/driver/source/m2m_ota.o
LOAD src/ASF/common/components/wifi/winc1500/driver/source/m2m_periph.o
LOAD src/ASF/common/components/wifi/winc1500/driver/source/m2m_wifi.o
LOAD src/ASF/common/components/wifi/winc1500/driver/source/nmasic.o
LOAD src/ASF/common/components/wifi/winc1500/driver/source/nmbus.o
LOAD src/ASF/common/components/wifi/winc1500/driver/source/nmdrv.o
LOAD src/ASF/common/components/wifi/winc1500/driver/source/nmi2c.o
LOAD src/ASF/common/components/wifi/winc1500/driver/source/nmspi.o
LOAD src/ASF/common/components/wifi/winc1500/driver/source/nmuart.o
LOAD src/ASF/common/components/wifi/winc1500/socket/source/socket.o
LOAD src/ASF/common/components/wifi/winc1500/spi_flash/source/spi_flash.o
LOAD src/ASF/common/services/clock/same70/sysclk.o
LOAD src/ASF/common/services/delay/sam/cycle_counter.o
LOAD src/ASF/common/services/serial/usart_serial.o
LOAD src/ASF/common/utils/interrupt/interrupt_sam_nvic.o
LOAD src/ASF/common/utils/stdio/read.o
LOAD src/ASF/common/utils/stdio/write.o
LOAD src/ASF/sam/boards/same70_xplained/init.o
LOAD src/ASF/sam/drivers/matrix/matrix.o
LOAD src/ASF/sam/drivers/mpu/mpu.o
LOAD src/ASF/sam/drivers/pio/pio.o
LOAD src/ASF/sam/drivers/pio/pio_handler.o
LOAD src/ASF/sam/drivers/pmc/pmc.o
LOAD src/ASF/sam/drivers/pmc/sleep.o
LOAD src/ASF/sam/drivers/spi/spi.o
LOAD src/ASF/sam/drivers/tc/tc.o
LOAD src/ASF/sam/drivers/twihs/twihs.o
LOAD src/ASF/sam/drivers/uart/uart.o
LOAD src/ASF/sam/drivers/usart/usart.o
LOAD src/ASF/sam/utils/cmsis/same70/source/templates/gcc/startup_same70.o
LOAD src/ASF/sam/utils/cmsis/same70/source/templates/system_same70.o
LOAD src/ASF/sam/utils/syscalls/gcc/syscalls.o
LOAD src/main.o
START GROUP
LOAD ../src/ASF/thirdparty/CMSIS/Lib/GCC\libarm_cortexM7lfsp_math_softfp.a
LOAD c:/program files (x86)/atmel/studio/7.0/toolchain/arm/arm-gnu-toolchain/bin/../lib/gcc/arm-none-eabi/6.3.1/../../../../arm-none-eabi/lib/thumb/v7e-m\libm.a
END GROUP
START GROUP
LOAD c:/program files (x86)/atmel/studio/7.0/toolchain/arm/arm-gnu-toolchain/bin/../lib/gcc/arm-none-eabi/6.3.1/thumb/v7e-m\libgcc.a
LOAD c:/program files (x86)/atmel/studio/7.0/toolchain/arm/arm-gnu-toolchain/bin/../lib/gcc/arm-none-eabi/6.3.1/../../../../arm-none-eabi/lib/thumb/v7e-m\libc.a
END GROUP
LOAD c:/program files (x86)/atmel/studio/7.0/toolchain/arm/arm-gnu-toolchain/bin/../lib/gcc/arm-none-eabi/6.3.1/thumb/v7e-m/crtend.o
LOAD c:/program files (x86)/atmel/studio/7.0/toolchain/arm/arm-gnu-toolchain/bin/../lib/gcc/arm-none-eabi/6.3.1/thumb/v7e-m/crtn.o
                0x00002000                STACK_SIZE = DEFINED (STACK_SIZE)?STACK_SIZE:0x2000
                0x2045fffc                __ram_end__ = ((ORIGIN (ram) + LENGTH (ram)) - 0x4)
                0x00000200                HEAP_SIZE = DEFINED (HEAP_SIZE)?HEAP_SIZE:0x200

.text           0x00400000     0x7f54
                0x00400000                . = ALIGN (0x4)
                0x00400000                _sfixed = .
 *(.vectors .vectors.*)
 .vectors       0x00400000      0x140 src/ASF/sam/utils/cmsis/same70/source/templates/gcc/startup_same70.o
                0x00400000                exception_table
 *(.text .text.* .gnu.linkonce.t.*)
 .text          0x00400140       0x6c c:/program files (x86)/atmel/studio/7.0/toolchain/arm/arm-gnu-toolchain/bin/../lib/gcc/arm-none-eabi/6.3.1/thumb/v7e-m/crtbegin.o
 .text.chip_isr
                0x004001ac       0x1c src/ASF/common/components/wifi/winc1500/bsp/source/nm_bsp_same70.o
 .text.nm_bsp_sleep
                0x004001c8       0x24 src/ASF/common/components/wifi/winc1500/bsp/source/nm_bsp_same70.o
                0x004001c8                nm_bsp_sleep
 .text.nm_bsp_reset
                0x004001ec       0x38 src/ASF/common/components/wifi/winc1500/bsp/source/nm_bsp_same70.o
                0x004001ec                nm_bsp_reset
 .text.nm_bsp_init
                0x00400224       0x70 src/ASF/common/components/wifi/winc1500/bsp/source/nm_bsp_same70.o
                0x00400224                nm_bsp_init
 .text.nm_bsp_register_isr
                0x00400294       0x80 src/ASF/common/components/wifi/winc1500/bsp/source/nm_bsp_same70.o
                0x00400294                nm_bsp_register_isr
 .text.nm_bsp_interrupt_ctrl
                0x00400314       0x28 src/ASF/common/components/wifi/winc1500/bsp/source/nm_bsp_same70.o
                0x00400314                nm_bsp_interrupt_ctrl
 .text.nm_bus_init
                0x0040033c      0x11c src/ASF/common/components/wifi/winc1500/bus_wrapper/source/nm_bus_wrapper_same70.o
                0x0040033c                nm_bus_init
 .text.nm_bus_ioctl
                0x00400458       0xd4 src/ASF/common/components/wifi/winc1500/bus_wrapper/source/nm_bus_wrapper_same70.o
                0x00400458                nm_bus_ioctl
 .text.nm_bus_deinit
                0x0040052c       0x40 src/ASF/common/components/wifi/winc1500/bus_wrapper/source/nm_bus_wrapper_same70.o
                0x0040052c                nm_bus_deinit
 .text.m2m_memcpy
                0x0040056c       0x14 src/ASF/common/components/wifi/winc1500/common/source/nm_common.o
                0x0040056c                m2m_memcpy
 .text.m2m_memset
                0x00400580        0xe src/ASF/common/components/wifi/winc1500/common/source/nm_common.o
                0x00400580                m2m_memset
 .text.m2m_strlen
                0x0040058e       0x1a src/ASF/common/components/wifi/winc1500/common/source/nm_common.o
                0x0040058e                m2m_strlen
 .text.isr      0x004005a8       0x10 src/ASF/common/components/wifi/winc1500/driver/source/m2m_hif.o
 .text.m2m_hif_cb
                0x004005b8        0x2 src/ASF/common/components/wifi/winc1500/driver/source/m2m_hif.o
 *fill*         0x004005ba        0x2 
 .text.hif_set_rx_done
                0x004005bc       0x40 src/ASF/common/components/wifi/winc1500/driver/source/m2m_hif.o
 .text.hif_chip_wake
                0x004005fc       0x5c src/ASF/common/components/wifi/winc1500/driver/source/m2m_hif.o
                0x004005fc                hif_chip_wake
 .text.hif_chip_sleep
                0x00400658       0x8c src/ASF/common/components/wifi/winc1500/driver/source/m2m_hif.o
                0x00400658                hif_chip_sleep
 .text.hif_send
                0x004006e4      0x1e0 src/ASF/common/components/wifi/winc1500/driver/source/m2m_hif.o
                0x004006e4                hif_send
 .text.hif_handle_isr
                0x004008c4      0x310 src/ASF/common/components/wifi/winc1500/driver/source/m2m_hif.o
                0x004008c4                hif_handle_isr
 .text.hif_receive
                0x00400bd4      0x114 src/ASF/common/components/wifi/winc1500/driver/source/m2m_hif.o
                0x00400bd4                hif_receive
 .text.hif_register_cb
                0x00400ce8       0x90 src/ASF/common/components/wifi/winc1500/driver/source/m2m_hif.o
                0x00400ce8                hif_register_cb
 .text.hif_init
                0x00400d78       0x50 src/ASF/common/components/wifi/winc1500/driver/source/m2m_hif.o
                0x00400d78                hif_init
 .text.m2m_wifi_cb
                0x00400dc8      0x29c src/ASF/common/components/wifi/winc1500/driver/source/m2m_wifi.o
 .text.m2m_wifi_init
                0x00401064       0xfc src/ASF/common/components/wifi/winc1500/driver/source/m2m_wifi.o
                0x00401064                m2m_wifi_init
 .text.m2m_wifi_handle_events
                0x00401160        0xc src/ASF/common/components/wifi/winc1500/driver/source/m2m_wifi.o
                0x00401160                m2m_wifi_handle_events
 .text.m2m_wifi_connect_sc
                0x0040116c      0x250 src/ASF/common/components/wifi/winc1500/driver/source/m2m_wifi.o
                0x0040116c                m2m_wifi_connect_sc
 .text.m2m_wifi_connect
                0x004013bc       0x1c src/ASF/common/components/wifi/winc1500/driver/source/m2m_wifi.o
                0x004013bc                m2m_wifi_connect
 .text.m2m_wifi_request_dhcp_client
                0x004013d8        0x4 src/ASF/common/components/wifi/winc1500/driver/source/m2m_wifi.o
                0x004013d8                m2m_wifi_request_dhcp_client
 .text.chip_apply_conf
                0x004013dc       0x3c src/ASF/common/components/wifi/winc1500/driver/source/nmasic.o
                0x004013dc                chip_apply_conf
 .text.nm_clkless_wake
                0x00401418      0x12c src/ASF/common/components/wifi/winc1500/driver/source/nmasic.o
                0x00401418                nm_clkless_wake
 .text.enable_interrupts
                0x00401544       0x68 src/ASF/common/components/wifi/winc1500/driver/source/nmasic.o
                0x00401544                enable_interrupts
 .text.nmi_get_chipid
                0x004015ac       0xb4 src/ASF/common/components/wifi/winc1500/driver/source/nmasic.o
                0x004015ac                nmi_get_chipid
 .text.wait_for_bootrom
                0x00401660       0xdc src/ASF/common/components/wifi/winc1500/driver/source/nmasic.o
                0x00401660                wait_for_bootrom
 .text.wait_for_firmware_start
                0x0040173c       0x80 src/ASF/common/components/wifi/winc1500/driver/source/nmasic.o
                0x0040173c                wait_for_firmware_start
 .text.chip_deinit
                0x004017bc       0xc8 src/ASF/common/components/wifi/winc1500/driver/source/nmasic.o
                0x004017bc                chip_deinit
 .text.nm_bus_iface_init
                0x00401884        0xc src/ASF/common/components/wifi/winc1500/driver/source/nmbus.o
                0x00401884                nm_bus_iface_init
 .text.nm_bus_iface_deinit
                0x00401890        0xc src/ASF/common/components/wifi/winc1500/driver/source/nmbus.o
                0x00401890                nm_bus_iface_deinit
 .text.nm_read_reg
                0x0040189c        0xc src/ASF/common/components/wifi/winc1500/driver/source/nmbus.o
                0x0040189c                nm_read_reg
 .text.nm_read_reg_with_ret
                0x004018a8        0xc src/ASF/common/components/wifi/winc1500/driver/source/nmbus.o
                0x004018a8                nm_read_reg_with_ret
 .text.nm_write_reg
                0x004018b4        0xc src/ASF/common/components/wifi/winc1500/driver/source/nmbus.o
                0x004018b4                nm_write_reg
 .text.nm_read_block
                0x004018c0       0x5c src/ASF/common/components/wifi/winc1500/driver/source/nmbus.o
                0x004018c0                nm_read_block
 .text.nm_write_block
                0x0040191c       0x5c src/ASF/common/components/wifi/winc1500/driver/source/nmbus.o
                0x0040191c                nm_write_block
 .text.nm_get_firmware_info
                0x00401978       0xb0 src/ASF/common/components/wifi/winc1500/driver/source/nmdrv.o
                0x00401978                nm_get_firmware_info
 .text.nm_drv_init
                0x00401a28       0xcc src/ASF/common/components/wifi/winc1500/driver/source/nmdrv.o
                0x00401a28                nm_drv_init
 .text.nm_drv_deinit
                0x00401af4       0x94 src/ASF/common/components/wifi/winc1500/driver/source/nmdrv.o
                0x00401af4                nm_drv_deinit
 .text.nmi_spi_read
                0x00401b88       0x20 src/ASF/common/components/wifi/winc1500/driver/source/nmspi.o
 .text.spi_cmd_rsp
                0x00401ba8       0xc4 src/ASF/common/components/wifi/winc1500/driver/source/nmspi.o
 .text.spi_data_read
                0x00401c6c      0x118 src/ASF/common/components/wifi/winc1500/driver/source/nmspi.o
 .text.nmi_spi_write
                0x00401d84       0x20 src/ASF/common/components/wifi/winc1500/driver/source/nmspi.o
 .text.spi_cmd  0x00401da4      0x1b0 src/ASF/common/components/wifi/winc1500/driver/source/nmspi.o
 .text.spi_write_reg
                0x00401f54       0x94 src/ASF/common/components/wifi/winc1500/driver/source/nmspi.o
 .text.spi_read_reg
                0x00401fe8       0xfc src/ASF/common/components/wifi/winc1500/driver/source/nmspi.o
 .text.nm_spi_deinit
                0x004020e4        0xc src/ASF/common/components/wifi/winc1500/driver/source/nmspi.o
                0x004020e4                nm_spi_deinit
 .text.nm_spi_read_reg
                0x004020f0       0x18 src/ASF/common/components/wifi/winc1500/driver/source/nmspi.o
                0x004020f0                nm_spi_read_reg
 .text.nm_spi_read_reg_with_ret
                0x00402108       0x18 src/ASF/common/components/wifi/winc1500/driver/source/nmspi.o
                0x00402108                nm_spi_read_reg_with_ret
 .text.nm_spi_write_reg
                0x00402120       0x18 src/ASF/common/components/wifi/winc1500/driver/source/nmspi.o
                0x00402120                nm_spi_write_reg
 .text.nm_spi_init
                0x00402138      0x114 src/ASF/common/components/wifi/winc1500/driver/source/nmspi.o
                0x00402138                nm_spi_init
 .text.nm_spi_read_block
                0x0040224c       0xc8 src/ASF/common/components/wifi/winc1500/driver/source/nmspi.o
                0x0040224c                nm_spi_read_block
 .text.nm_spi_write_block
                0x00402314      0x188 src/ASF/common/components/wifi/winc1500/driver/source/nmspi.o
                0x00402314                nm_spi_write_block
 .text.Socket_ReadSocketData
                0x0040249c       0xbc src/ASF/common/components/wifi/winc1500/socket/source/socket.o
                0x0040249c                Socket_ReadSocketData
 .text.m2m_ip_cb
                0x00402558      0x2bc src/ASF/common/components/wifi/winc1500/socket/source/socket.o
 .text.socketInit
                0x00402814       0x44 src/ASF/common/components/wifi/winc1500/socket/source/socket.o
                0x00402814                socketInit
 .text.registerSocketCallback
                0x00402858       0x14 src/ASF/common/components/wifi/winc1500/socket/source/socket.o
                0x00402858                registerSocketCallback
 .text.socket   0x0040286c       0xe0 src/ASF/common/components/wifi/winc1500/socket/source/socket.o
                0x0040286c                socket
 .text.connect  0x0040294c       0x90 src/ASF/common/components/wifi/winc1500/socket/source/socket.o
                0x0040294c                connect
 .text.send     0x004029dc       0x9c src/ASF/common/components/wifi/winc1500/socket/source/socket.o
                0x004029dc                send
 .text.recv     0x00402a78       0xa0 src/ASF/common/components/wifi/winc1500/socket/source/socket.o
                0x00402a78                recv
 .text.close    0x00402b18       0x80 src/ASF/common/components/wifi/winc1500/socket/source/socket.o
                0x00402b18                close
 .text.spi_flash_enable
                0x00402b98       0xe4 src/ASF/common/components/wifi/winc1500/spi_flash/source/spi_flash.o
                0x00402b98                spi_flash_enable
 .text.sysclk_init
                0x00402c7c       0x70 src/ASF/common/services/clock/same70/sysclk.o
                0x00402c7c                sysclk_init
 .text._read    0x00402cec       0x3c src/ASF/common/utils/stdio/read.o
                0x00402cec                _read
 .text._write   0x00402d28       0x50 src/ASF/common/utils/stdio/write.o
                0x00402d28                _write
 .text.board_init
                0x00402d78      0x198 src/ASF/sam/boards/same70_xplained/init.o
                0x00402d78                board_init
 .text.pio_pull_up
                0x00402f10        0xa src/ASF/sam/drivers/pio/pio.o
                0x00402f10                pio_pull_up
 .text.pio_set_peripheral
                0x00402f1a       0x92 src/ASF/sam/drivers/pio/pio.o
                0x00402f1a                pio_set_peripheral
 .text.pio_set_input
                0x00402fac       0x36 src/ASF/sam/drivers/pio/pio.o
                0x00402fac                pio_set_input
 .text.pio_set_output
                0x00402fe2       0x28 src/ASF/sam/drivers/pio/pio.o
                0x00402fe2                pio_set_output
 .text.pio_configure_interrupt
                0x0040300a       0x32 src/ASF/sam/drivers/pio/pio.o
                0x0040300a                pio_configure_interrupt
 .text.pio_enable_interrupt
                0x0040303c        0x4 src/ASF/sam/drivers/pio/pio.o
                0x0040303c                pio_enable_interrupt
 .text.pio_disable_interrupt
                0x00403040        0x4 src/ASF/sam/drivers/pio/pio.o
                0x00403040                pio_disable_interrupt
 .text.pio_get_interrupt_status
                0x00403044        0x4 src/ASF/sam/drivers/pio/pio.o
                0x00403044                pio_get_interrupt_status
 .text.pio_get_interrupt_mask
                0x00403048        0x4 src/ASF/sam/drivers/pio/pio.o
                0x00403048                pio_get_interrupt_mask
 .text.pio_configure_pin
                0x0040304c      0x130 src/ASF/sam/drivers/pio/pio.o
                0x0040304c                pio_configure_pin
 .text.pio_handler_process
                0x0040317c       0x50 src/ASF/sam/drivers/pio/pio_handler.o
                0x0040317c                pio_handler_process
 .text.pio_handler_set
                0x004031cc       0x70 src/ASF/sam/drivers/pio/pio_handler.o
                0x004031cc                pio_handler_set
 .text.PIOA_Handler
                0x0040323c       0x14 src/ASF/sam/drivers/pio/pio_handler.o
                0x0040323c                PIOA_Handler
 .text.PIOB_Handler
                0x00403250       0x14 src/ASF/sam/drivers/pio/pio_handler.o
                0x00403250                PIOB_Handler
 .text.PIOC_Handler
                0x00403264       0x14 src/ASF/sam/drivers/pio/pio_handler.o
                0x00403264                PIOC_Handler
 .text.PIOD_Handler
                0x00403278       0x14 src/ASF/sam/drivers/pio/pio_handler.o
                0x00403278                PIOD_Handler
 .text.PIOE_Handler
                0x0040328c       0x14 src/ASF/sam/drivers/pio/pio_handler.o
                0x0040328c                PIOE_Handler
 .text.pio_handler_set_priority
                0x004032a0       0x84 src/ASF/sam/drivers/pio/pio_handler.o
                0x004032a0                pio_handler_set_priority
 .text.pmc_mck_set_division
                0x00403324       0x38 src/ASF/sam/drivers/pmc/pmc.o
                0x00403324                pmc_mck_set_division
 .text.pmc_switch_mck_to_pllack
                0x0040335c       0x64 src/ASF/sam/drivers/pmc/pmc.o
                0x0040335c                pmc_switch_mck_to_pllack
 .text.pmc_switch_mainck_to_xtal
                0x004033c0       0x54 src/ASF/sam/drivers/pmc/pmc.o
                0x004033c0                pmc_switch_mainck_to_xtal
 .text.pmc_osc_is_ready_mainck
                0x00403414       0x10 src/ASF/sam/drivers/pmc/pmc.o
                0x00403414                pmc_osc_is_ready_mainck
 .text.pmc_disable_pllack
                0x00403424       0x10 src/ASF/sam/drivers/pmc/pmc.o
                0x00403424                pmc_disable_pllack
 .text.pmc_is_locked_pllack
                0x00403434       0x10 src/ASF/sam/drivers/pmc/pmc.o
                0x00403434                pmc_is_locked_pllack
 .text.pmc_enable_periph_clk
                0x00403444       0x54 src/ASF/sam/drivers/pmc/pmc.o
                0x00403444                pmc_enable_periph_clk
 .text.spi_enable_clock
                0x00403498       0x2c src/ASF/sam/drivers/spi/spi.o
                0x00403498                spi_enable_clock
 .text.spi_set_peripheral_chip_select_value
                0x004034c4       0x16 src/ASF/sam/drivers/spi/spi.o
                0x004034c4                spi_set_peripheral_chip_select_value
 .text.spi_read
                0x004034da       0x30 src/ASF/sam/drivers/spi/spi.o
                0x004034da                spi_read
 .text.spi_write
                0x0040350a       0x34 src/ASF/sam/drivers/spi/spi.o
                0x0040350a                spi_write
 .text.spi_set_clock_polarity
                0x0040353e       0x1e src/ASF/sam/drivers/spi/spi.o
                0x0040353e                spi_set_clock_polarity
 .text.spi_set_clock_phase
                0x0040355c       0x1e src/ASF/sam/drivers/spi/spi.o
                0x0040355c                spi_set_clock_phase
 .text.spi_set_bits_per_transfer
                0x0040357a       0x14 src/ASF/sam/drivers/spi/spi.o
                0x0040357a                spi_set_bits_per_transfer
 .text.spi_calc_baudrate_div
                0x0040358e       0x16 src/ASF/sam/drivers/spi/spi.o
                0x0040358e                spi_calc_baudrate_div
 .text.spi_set_baudrate_div
                0x004035a4       0x28 src/ASF/sam/drivers/spi/spi.o
                0x004035a4                spi_set_baudrate_div
 .text.spi_set_transfer_delay
                0x004035cc       0x1e src/ASF/sam/drivers/spi/spi.o
                0x004035cc                spi_set_transfer_delay
 .text.uart_write
                0x004035ea       0x12 src/ASF/sam/drivers/uart/uart.o
                0x004035ea                uart_write
 .text.uart_read
                0x004035fc       0x14 src/ASF/sam/drivers/uart/uart.o
                0x004035fc                uart_read
 .text.usart_set_async_baudrate
                0x00403610       0x5a src/ASF/sam/drivers/usart/usart.o
                0x00403610                usart_set_async_baudrate
 *fill*         0x0040366a        0x2 
 .text.usart_reset
                0x0040366c       0x28 src/ASF/sam/drivers/usart/usart.o
                0x0040366c                usart_reset
 .text.usart_init_rs232
                0x00403694       0x54 src/ASF/sam/drivers/usart/usart.o
                0x00403694                usart_init_rs232
 .text.usart_enable_tx
                0x004036e8        0x6 src/ASF/sam/drivers/usart/usart.o
                0x004036e8                usart_enable_tx
 .text.usart_enable_rx
                0x004036ee        0x6 src/ASF/sam/drivers/usart/usart.o
                0x004036ee                usart_enable_rx
 .text.usart_write
                0x004036f4       0x16 src/ASF/sam/drivers/usart/usart.o
                0x004036f4                usart_write
 .text.usart_read
                0x0040370a       0x18 src/ASF/sam/drivers/usart/usart.o
                0x0040370a                usart_read
 .text.Dummy_Handler
                0x00403722        0x2 src/ASF/sam/utils/cmsis/same70/source/templates/gcc/startup_same70.o
                0x00403722                DACC_Handler
                0x00403722                DebugMon_Handler
                0x00403722                UART3_Handler
                0x00403722                UART2_Handler
                0x00403722                TRNG_Handler
                0x00403722                HardFault_Handler
                0x00403722                TC2_Handler
                0x00403722                SysTick_Handler
                0x00403722                AFEC1_Handler
                0x00403722                PendSV_Handler
                0x00403722                NMI_Handler
                0x00403722                TC7_Handler
                0x00403722                QSPI_Handler
                0x00403722                ISI_Handler
                0x00403722                TC9_Handler
                0x00403722                RSWDT_Handler
                0x00403722                MCAN1_Handler
                0x00403722                USART0_Handler
                0x00403722                RTT_Handler
                0x00403722                USBHS_Handler
                0x00403722                RTC_Handler
                0x00403722                UsageFault_Handler
                0x00403722                TC6_Handler
                0x00403722                WDT_Handler
                0x00403722                TC4_Handler
                0x00403722                TC1_Handler
                0x00403722                HSMCI_Handler
                0x00403722                UART1_Handler
                0x00403722                TC3_Handler
                0x00403722                Dummy_Handler
                0x00403722                TWIHS1_Handler
                0x00403722                XDMAC_Handler
                0x00403722                UART4_Handler
                0x00403722                PWM1_Handler
                0x00403722                USART1_Handler
                0x00403722                PWM0_Handler
                0x00403722                AFEC0_Handler
                0x00403722                SSC_Handler
                0x00403722                TC11_Handler
                0x00403722                ACC_Handler
                0x00403722                PMC_Handler
                0x00403722                GMAC_Handler
                0x00403722                MemManage_Handler
                0x00403722                SUPC_Handler
                0x00403722                SVC_Handler
                0x00403722                TC8_Handler
                0x00403722                EFC_Handler
                0x00403722                USART2_Handler
                0x00403722                SDRAMC_Handler
                0x00403722                SPI1_Handler
                0x00403722                MCAN0_Handler
                0x00403722                TC10_Handler
                0x00403722                TWIHS2_Handler
                0x00403722                UART0_Handler
                0x00403722                BusFault_Handler
                0x00403722                RSTC_Handler
                0x00403722                TC0_Handler
                0x00403722                TC5_Handler
                0x00403722                ICM_Handler
                0x00403722                AES_Handler
                0x00403722                TWIHS0_Handler
                0x00403722                SPI0_Handler
 .text.Reset_Handler
                0x00403724       0xc8 src/ASF/sam/utils/cmsis/same70/source/templates/gcc/startup_same70.o
                0x00403724                Reset_Handler
 .text.SystemCoreClockUpdate
                0x004037ec      0x10c src/ASF/sam/utils/cmsis/same70/source/templates/system_same70.o
                0x004037ec                SystemCoreClockUpdate
 .text.system_init_flash
                0x004038f8       0x74 src/ASF/sam/utils/cmsis/same70/source/templates/system_same70.o
                0x004038f8                system_init_flash
 .text._sbrk    0x0040396c       0x38 src/ASF/sam/utils/syscalls/gcc/syscalls.o
                0x0040396c                _sbrk
 .text._close   0x004039a4        0x6 src/ASF/sam/utils/syscalls/gcc/syscalls.o
                0x004039a4                _close
 .text._fstat   0x004039aa        0xa src/ASF/sam/utils/syscalls/gcc/syscalls.o
                0x004039aa                _fstat
 .text._isatty  0x004039b4        0x4 src/ASF/sam/utils/syscalls/gcc/syscalls.o
                0x004039b4                _isatty
 .text._lseek   0x004039b8        0x4 src/ASF/sam/utils/syscalls/gcc/syscalls.o
                0x004039b8                _lseek
 .text.resolve_cb
                0x004039bc       0x30 src/main.o
 .text.socket_cb
                0x004039ec      0x128 src/main.o
 .text.wifi_cb  0x00403b14       0x68 src/main.o
 .text.usart_serial_getchar
                0x00403b7c       0xdc src/main.o
 .text.usart_serial_putchar
                0x00403c58       0xd4 src/main.o
 .text.inet_aton
                0x00403d2c       0x7c src/main.o
                0x00403d2c                inet_aton
 .text.main     0x00403da8      0x1e8 src/main.o
                0x00403da8                main
 .text.__libc_init_array
                0x00403f90       0x50 c:/program files (x86)/atmel/studio/7.0/toolchain/arm/arm-gnu-toolchain/bin/../lib/gcc/arm-none-eabi/6.3.1/../../../../arm-none-eabi/lib/thumb/v7e-m\libc.a(lib_a-init.o)
                0x00403f90                __libc_init_array
 .text.iprintf  0x00403fe0       0x28 c:/program files (x86)/atmel/studio/7.0/toolchain/arm/arm-gnu-toolchain/bin/../lib/gcc/arm-none-eabi/6.3.1/../../../../arm-none-eabi/lib/thumb/v7e-m\libc.a(lib_a-iprintf.o)
                0x00403fe0                iprintf
 .text.memset   0x00404008       0x9c c:/program files (x86)/atmel/studio/7.0/toolchain/arm/arm-gnu-toolchain/bin/../lib/gcc/arm-none-eabi/6.3.1/../../../../arm-none-eabi/lib/thumb/v7e-m\libc.a(lib_a-memset.o)
                0x00404008                memset
 .text.setbuf   0x004040a4       0x10 c:/program files (x86)/atmel/studio/7.0/toolchain/arm/arm-gnu-toolchain/bin/../lib/gcc/arm-none-eabi/6.3.1/../../../../arm-none-eabi/lib/thumb/v7e-m\libc.a(lib_a-setbuf.o)
                0x004040a4                setbuf
 .text.setvbuf  0x004040b4      0x190 c:/program files (x86)/atmel/studio/7.0/toolchain/arm/arm-gnu-toolchain/bin/../lib/gcc/arm-none-eabi/6.3.1/../../../../arm-none-eabi/lib/thumb/v7e-m\libc.a(lib_a-setvbuf.o)
                0x004040b4                setvbuf
 *fill*         0x00404244       0x3c 
 .text          0x00404280       0xdc c:/program files (x86)/atmel/studio/7.0/toolchain/arm/arm-gnu-toolchain/bin/../lib/gcc/arm-none-eabi/6.3.1/../../../../arm-none-eabi/lib/thumb/v7e-m\libc.a(lib_a-strlen.o)
                0x00404280                strlen
 .text.__sprint_r.part.0
                0x0040435c       0x80 c:/program files (x86)/atmel/studio/7.0/toolchain/arm/arm-gnu-toolchain/bin/../lib/gcc/arm-none-eabi/6.3.1/../../../../arm-none-eabi/lib/thumb/v7e-m\libc.a(lib_a-vfiprintf.o)
 .text._vfiprintf_r
                0x004043dc      0xc90 c:/program files (x86)/atmel/studio/7.0/toolchain/arm/arm-gnu-toolchain/bin/../lib/gcc/arm-none-eabi/6.3.1/../../../../arm-none-eabi/lib/thumb/v7e-m\libc.a(lib_a-vfiprintf.o)
                0x004043dc                _vfiprintf_r
 .text.__sbprintf
                0x0040506c       0x84 c:/program files (x86)/atmel/studio/7.0/toolchain/arm/arm-gnu-toolchain/bin/../lib/gcc/arm-none-eabi/6.3.1/../../../../arm-none-eabi/lib/thumb/v7e-m\libc.a(lib_a-vfiprintf.o)
 .text.__swsetup_r
                0x004050f0       0xc8 c:/program files (x86)/atmel/studio/7.0/toolchain/arm/arm-gnu-toolchain/bin/../lib/gcc/arm-none-eabi/6.3.1/../../../../arm-none-eabi/lib/thumb/v7e-m\libc.a(lib_a-wsetup.o)
                0x004050f0                __swsetup_r
 .text.startup.register_fini
                0x004051b8       0x14 c:/program files (x86)/atmel/studio/7.0/toolchain/arm/arm-gnu-toolchain/bin/../lib/gcc/arm-none-eabi/6.3.1/../../../../arm-none-eabi/lib/thumb/v7e-m\libc.a(lib_a-__call_atexit.o)
 .text.atexit   0x004051cc        0xc c:/program files (x86)/atmel/studio/7.0/toolchain/arm/arm-gnu-toolchain/bin/../lib/gcc/arm-none-eabi/6.3.1/../../../../arm-none-eabi/lib/thumb/v7e-m\libc.a(lib_a-atexit.o)
                0x004051cc                atexit
 .text.__sflush_r
                0x004051d8      0x140 c:/program files (x86)/atmel/studio/7.0/toolchain/arm/arm-gnu-toolchain/bin/../lib/gcc/arm-none-eabi/6.3.1/../../../../arm-none-eabi/lib/thumb/v7e-m\libc.a(lib_a-fflush.o)
                0x004051d8                __sflush_r
 .text._fflush_r
                0x00405318       0x54 c:/program files (x86)/atmel/studio/7.0/toolchain/arm/arm-gnu-toolchain/bin/../lib/gcc/arm-none-eabi/6.3.1/../../../../arm-none-eabi/lib/thumb/v7e-m\libc.a(lib_a-fflush.o)
                0x00405318                _fflush_r
 .text._cleanup_r
                0x0040536c        0xc c:/program files (x86)/atmel/studio/7.0/toolchain/arm/arm-gnu-toolchain/bin/../lib/gcc/arm-none-eabi/6.3.1/../../../../arm-none-eabi/lib/thumb/v7e-m\libc.a(lib_a-findfp.o)
                0x0040536c                _cleanup_r
 .text.std.isra.0
                0x00405378       0x50 c:/program files (x86)/atmel/studio/7.0/toolchain/arm/arm-gnu-toolchain/bin/../lib/gcc/arm-none-eabi/6.3.1/../../../../arm-none-eabi/lib/thumb/v7e-m\libc.a(lib_a-findfp.o)
 .text.__sinit  0x004053c8       0x58 c:/program files (x86)/atmel/studio/7.0/toolchain/arm/arm-gnu-toolchain/bin/../lib/gcc/arm-none-eabi/6.3.1/../../../../arm-none-eabi/lib/thumb/v7e-m\libc.a(lib_a-findfp.o)
                0x004053c8                __sinit
 .text.__sfp_lock_acquire
                0x00405420        0xc c:/program files (x86)/atmel/studio/7.0/toolchain/arm/arm-gnu-toolchain/bin/../lib/gcc/arm-none-eabi/6.3.1/../../../../arm-none-eabi/lib/thumb/v7e-m\libc.a(lib_a-findfp.o)
                0x00405420                __sfp_lock_acquire
 .text.__sfp_lock_release
                0x0040542c        0xc c:/program files (x86)/atmel/studio/7.0/toolchain/arm/arm-gnu-toolchain/bin/../lib/gcc/arm-none-eabi/6.3.1/../../../../arm-none-eabi/lib/thumb/v7e-m\libc.a(lib_a-findfp.o)
                0x0040542c                __sfp_lock_release
 .text.__libc_fini_array
                0x00405438       0x34 c:/program files (x86)/atmel/studio/7.0/toolchain/arm/arm-gnu-toolchain/bin/../lib/gcc/arm-none-eabi/6.3.1/../../../../arm-none-eabi/lib/thumb/v7e-m\libc.a(lib_a-fini.o)
                0x00405438                __libc_fini_array
 .text.__fputwc
                0x0040546c       0xa0 c:/program files (x86)/atmel/studio/7.0/toolchain/arm/arm-gnu-toolchain/bin/../lib/gcc/arm-none-eabi/6.3.1/../../../../arm-none-eabi/lib/thumb/v7e-m\libc.a(lib_a-fputwc.o)
                0x0040546c                __fputwc
 .text._fputwc_r
                0x0040550c       0x68 c:/program files (x86)/atmel/studio/7.0/toolchain/arm/arm-gnu-toolchain/bin/../lib/gcc/arm-none-eabi/6.3.1/../../../../arm-none-eabi/lib/thumb/v7e-m\libc.a(lib_a-fputwc.o)
                0x0040550c                _fputwc_r
 .text._malloc_trim_r
                0x00405574       0xa0 c:/program files (x86)/atmel/studio/7.0/toolchain/arm/arm-gnu-toolchain/bin/../lib/gcc/arm-none-eabi/6.3.1/../../../../arm-none-eabi/lib/thumb/v7e-m\libc.a(lib_a-freer.o)
                0x00405574                _malloc_trim_r
 .text._free_r  0x00405614      0x1cc c:/program files (x86)/atmel/studio/7.0/toolchain/arm/arm-gnu-toolchain/bin/../lib/gcc/arm-none-eabi/6.3.1/../../../../arm-none-eabi/lib/thumb/v7e-m\libc.a(lib_a-freer.o)
                0x00405614                _free_r
 .text.__sfvwrite_r
                0x004057e0      0x2f0 c:/program files (x86)/atmel/studio/7.0/toolchain/arm/arm-gnu-toolchain/bin/../lib/gcc/arm-none-eabi/6.3.1/../../../../arm-none-eabi/lib/thumb/v7e-m\libc.a(lib_a-fvwrite.o)
                0x004057e0                __sfvwrite_r
 .text._fwalk_reent
                0x00405ad0       0x54 c:/program files (x86)/atmel/studio/7.0/toolchain/arm/arm-gnu-toolchain/bin/../lib/gcc/arm-none-eabi/6.3.1/../../../../arm-none-eabi/lib/thumb/v7e-m\libc.a(lib_a-fwalk.o)
                0x00405ad0                _fwalk_reent
 .text.__locale_mb_cur_max
                0x00405b24       0x1c c:/program files (x86)/atmel/studio/7.0/toolchain/arm/arm-gnu-toolchain/bin/../lib/gcc/arm-none-eabi/6.3.1/../../../../arm-none-eabi/lib/thumb/v7e-m\libc.a(lib_a-locale.o)
                0x00405b24                __locale_mb_cur_max
 .text.__retarget_lock_init_recursive
                0x00405b40        0x4 c:/program files (x86)/atmel/studio/7.0/toolchain/arm/arm-gnu-toolchain/bin/../lib/gcc/arm-none-eabi/6.3.1/../../../../arm-none-eabi/lib/thumb/v7e-m\libc.a(lib_a-lock.o)
                0x00405b40                __retarget_lock_init_recursive
 .text.__retarget_lock_close_recursive
                0x00405b44        0x4 c:/program files (x86)/atmel/studio/7.0/toolchain/arm/arm-gnu-toolchain/bin/../lib/gcc/arm-none-eabi/6.3.1/../../../../arm-none-eabi/lib/thumb/v7e-m\libc.a(lib_a-lock.o)
                0x00405b44                __retarget_lock_close_recursive
 .text.__retarget_lock_acquire_recursive
                0x00405b48        0x4 c:/program files (x86)/atmel/studio/7.0/toolchain/arm/arm-gnu-toolchain/bin/../lib/gcc/arm-none-eabi/6.3.1/../../../../arm-none-eabi/lib/thumb/v7e-m\libc.a(lib_a-lock.o)
                0x00405b48                __retarget_lock_acquire_recursive
 .text.__retarget_lock_release_recursive
                0x00405b4c        0x4 c:/program files (x86)/atmel/studio/7.0/toolchain/arm/arm-gnu-toolchain/bin/../lib/gcc/arm-none-eabi/6.3.1/../../../../arm-none-eabi/lib/thumb/v7e-m\libc.a(lib_a-lock.o)
                0x00405b4c                __retarget_lock_release_recursive
 .text.__swhatbuf_r
                0x00405b50       0x5c c:/program files (x86)/atmel/studio/7.0/toolchain/arm/arm-gnu-toolchain/bin/../lib/gcc/arm-none-eabi/6.3.1/../../../../arm-none-eabi/lib/thumb/v7e-m\libc.a(lib_a-makebuf.o)
                0x00405b50                __swhatbuf_r
 .text.__smakebuf_r
                0x00405bac       0x94 c:/program files (x86)/atmel/studio/7.0/toolchain/arm/arm-gnu-toolchain/bin/../lib/gcc/arm-none-eabi/6.3.1/../../../../arm-none-eabi/lib/thumb/v7e-m\libc.a(lib_a-makebuf.o)
                0x00405bac                __smakebuf_r
 .text.malloc   0x00405c40       0x10 c:/program files (x86)/atmel/studio/7.0/toolchain/arm/arm-gnu-toolchain/bin/../lib/gcc/arm-none-eabi/6.3.1/../../../../arm-none-eabi/lib/thumb/v7e-m\libc.a(lib_a-malloc.o)
                0x00405c40                malloc
 .text._malloc_r
                0x00405c50      0x560 c:/program files (x86)/atmel/studio/7.0/toolchain/arm/arm-gnu-toolchain/bin/../lib/gcc/arm-none-eabi/6.3.1/../../../../arm-none-eabi/lib/thumb/v7e-m\libc.a(lib_a-mallocr.o)
                0x00405c50                _malloc_r
 .text.__ascii_mbtowc
                0x004061b0       0x2c c:/program files (x86)/atmel/studio/7.0/toolchain/arm/arm-gnu-toolchain/bin/../lib/gcc/arm-none-eabi/6.3.1/../../../../arm-none-eabi/lib/thumb/v7e-m\libc.a(lib_a-mbtowc_r.o)
                0x004061b0                __ascii_mbtowc
 *fill*         0x004061dc        0x4 
 .text          0x004061e0       0xa0 c:/program files (x86)/atmel/studio/7.0/toolchain/arm/arm-gnu-toolchain/bin/../lib/gcc/arm-none-eabi/6.3.1/../../../../arm-none-eabi/lib/thumb/v7e-m\libc.a(lib_a-memchr.o)
                0x004061e0                memchr
 .text          0x00406280      0x134 c:/program files (x86)/atmel/studio/7.0/toolchain/arm/arm-gnu-toolchain/bin/../lib/gcc/arm-none-eabi/6.3.1/../../../../arm-none-eabi/lib/thumb/v7e-m\libc.a(lib_a-memcpy.o)
                0x00406280                memcpy
 .text.memmove  0x004063b4       0xc8 c:/program files (x86)/atmel/studio/7.0/toolchain/arm/arm-gnu-toolchain/bin/../lib/gcc/arm-none-eabi/6.3.1/../../../../arm-none-eabi/lib/thumb/v7e-m\libc.a(lib_a-memmove.o)
                0x004063b4                memmove
 .text.__malloc_lock
                0x0040647c        0xc c:/program files (x86)/atmel/studio/7.0/toolchain/arm/arm-gnu-toolchain/bin/../lib/gcc/arm-none-eabi/6.3.1/../../../../arm-none-eabi/lib/thumb/v7e-m\libc.a(lib_a-mlock.o)
                0x0040647c                __malloc_lock
 .text.__malloc_unlock
                0x00406488        0xc c:/program files (x86)/atmel/studio/7.0/toolchain/arm/arm-gnu-toolchain/bin/../lib/gcc/arm-none-eabi/6.3.1/../../../../arm-none-eabi/lib/thumb/v7e-m\libc.a(lib_a-mlock.o)
                0x00406488                __malloc_unlock
 .text._realloc_r
                0x00406494      0x34c c:/program files (x86)/atmel/studio/7.0/toolchain/arm/arm-gnu-toolchain/bin/../lib/gcc/arm-none-eabi/6.3.1/../../../../arm-none-eabi/lib/thumb/v7e-m\libc.a(lib_a-reallocr.o)
                0x00406494                _realloc_r
 .text._sbrk_r  0x004067e0       0x24 c:/program files (x86)/atmel/studio/7.0/toolchain/arm/arm-gnu-toolchain/bin/../lib/gcc/arm-none-eabi/6.3.1/../../../../arm-none-eabi/lib/thumb/v7e-m\libc.a(lib_a-sbrkr.o)
                0x004067e0                _sbrk_r
 .text.__sread  0x00406804       0x24 c:/program files (x86)/atmel/studio/7.0/toolchain/arm/arm-gnu-toolchain/bin/../lib/gcc/arm-none-eabi/6.3.1/../../../../arm-none-eabi/lib/thumb/v7e-m\libc.a(lib_a-stdio.o)
                0x00406804                __sread
 .text.__swrite
                0x00406828       0x3c c:/program files (x86)/atmel/studio/7.0/toolchain/arm/arm-gnu-toolchain/bin/../lib/gcc/arm-none-eabi/6.3.1/../../../../arm-none-eabi/lib/thumb/v7e-m\libc.a(lib_a-stdio.o)
                0x00406828                __swrite
 .text.__sseek  0x00406864       0x20 c:/program files (x86)/atmel/studio/7.0/toolchain/arm/arm-gnu-toolchain/bin/../lib/gcc/arm-none-eabi/6.3.1/../../../../arm-none-eabi/lib/thumb/v7e-m\libc.a(lib_a-stdio.o)
                0x00406864                __sseek
 .text.__sclose
                0x00406884        0x8 c:/program files (x86)/atmel/studio/7.0/toolchain/arm/arm-gnu-toolchain/bin/../lib/gcc/arm-none-eabi/6.3.1/../../../../arm-none-eabi/lib/thumb/v7e-m\libc.a(lib_a-stdio.o)
                0x00406884                __sclose
 .text.__swbuf_r
                0x0040688c       0xb0 c:/program files (x86)/atmel/studio/7.0/toolchain/arm/arm-gnu-toolchain/bin/../lib/gcc/arm-none-eabi/6.3.1/../../../../arm-none-eabi/lib/thumb/v7e-m\libc.a(lib_a-wbuf.o)
                0x0040688c                __swbuf_r
 .text._wcrtomb_r
                0x0040693c       0x54 c:/program files (x86)/atmel/studio/7.0/toolchain/arm/arm-gnu-toolchain/bin/../lib/gcc/arm-none-eabi/6.3.1/../../../../arm-none-eabi/lib/thumb/v7e-m\libc.a(lib_a-wcrtomb.o)
                0x0040693c                _wcrtomb_r
 .text.__ascii_wctomb
                0x00406990       0x1c c:/program files (x86)/atmel/studio/7.0/toolchain/arm/arm-gnu-toolchain/bin/../lib/gcc/arm-none-eabi/6.3.1/../../../../arm-none-eabi/lib/thumb/v7e-m\libc.a(lib_a-wctomb_r.o)
                0x00406990                __ascii_wctomb
 .text._write_r
                0x004069ac       0x2c c:/program files (x86)/atmel/studio/7.0/toolchain/arm/arm-gnu-toolchain/bin/../lib/gcc/arm-none-eabi/6.3.1/../../../../arm-none-eabi/lib/thumb/v7e-m\libc.a(lib_a-writer.o)
                0x004069ac                _write_r
 .text.__register_exitproc
                0x004069d8       0xc4 c:/program files (x86)/atmel/studio/7.0/toolchain/arm/arm-gnu-toolchain/bin/../lib/gcc/arm-none-eabi/6.3.1/../../../../arm-none-eabi/lib/thumb/v7e-m\libc.a(lib_a-__atexit.o)
                0x004069d8                __register_exitproc
 .text._close_r
                0x00406a9c       0x24 c:/program files (x86)/atmel/studio/7.0/toolchain/arm/arm-gnu-toolchain/bin/../lib/gcc/arm-none-eabi/6.3.1/../../../../arm-none-eabi/lib/thumb/v7e-m\libc.a(lib_a-closer.o)
                0x00406a9c                _close_r
 .text._fclose_r
                0x00406ac0       0xc4 c:/program files (x86)/atmel/studio/7.0/toolchain/arm/arm-gnu-toolchain/bin/../lib/gcc/arm-none-eabi/6.3.1/../../../../arm-none-eabi/lib/thumb/v7e-m\libc.a(lib_a-fclose.o)
                0x00406ac0                _fclose_r
 .text._fstat_r
                0x00406b84       0x28 c:/program files (x86)/atmel/studio/7.0/toolchain/arm/arm-gnu-toolchain/bin/../lib/gcc/arm-none-eabi/6.3.1/../../../../arm-none-eabi/lib/thumb/v7e-m\libc.a(lib_a-fstatr.o)
                0x00406b84                _fstat_r
 .text._isatty_r
                0x00406bac       0x24 c:/program files (x86)/atmel/studio/7.0/toolchain/arm/arm-gnu-toolchain/bin/../lib/gcc/arm-none-eabi/6.3.1/../../../../arm-none-eabi/lib/thumb/v7e-m\libc.a(lib_a-isattyr.o)
                0x00406bac                _isatty_r
 .text._lseek_r
                0x00406bd0       0x2c c:/program files (x86)/atmel/studio/7.0/toolchain/arm/arm-gnu-toolchain/bin/../lib/gcc/arm-none-eabi/6.3.1/../../../../arm-none-eabi/lib/thumb/v7e-m\libc.a(lib_a-lseekr.o)
                0x00406bd0                _lseek_r
 .text._read_r  0x00406bfc       0x2c c:/program files (x86)/atmel/studio/7.0/toolchain/arm/arm-gnu-toolchain/bin/../lib/gcc/arm-none-eabi/6.3.1/../../../../arm-none-eabi/lib/thumb/v7e-m\libc.a(lib_a-readr.o)
                0x00406bfc                _read_r
 .text          0x00406c28       0x30 c:/program files (x86)/atmel/studio/7.0/toolchain/arm/arm-gnu-toolchain/bin/../lib/gcc/arm-none-eabi/6.3.1/thumb/v7e-m\libgcc.a(_aeabi_uldivmod.o)
                0x00406c28                __aeabi_uldivmod
 .text          0x00406c58      0x2dc c:/program files (x86)/atmel/studio/7.0/toolchain/arm/arm-gnu-toolchain/bin/../lib/gcc/arm-none-eabi/6.3.1/thumb/v7e-m\libgcc.a(_udivmoddi4.o)
                0x00406c58                __udivmoddi4
 .text          0x00406f34        0x4 c:/program files (x86)/atmel/studio/7.0/toolchain/arm/arm-gnu-toolchain/bin/../lib/gcc/arm-none-eabi/6.3.1/thumb/v7e-m\libgcc.a(_dvmd_tls.o)
                0x00406f34                __aeabi_idiv0
                0x00406f34                __aeabi_ldiv0
 *(.glue_7t)
 .glue_7t       0x00406f38        0x0 linker stubs
 *(.glue_7)
 .glue_7        0x00406f38        0x0 linker stubs
 *(.rodata .rodata* .gnu.linkonce.r.*)
 .rodata.__FUNCTION__.10799
                0x00406f38        0xd src/ASF/common/components/wifi/winc1500/bus_wrapper/source/nm_bus_wrapper_same70.o
 *fill*         0x00406f45        0x3 
 .rodata.nm_bus_ioctl.str1.4
                0x00406f48       0x2e src/ASF/common/components/wifi/winc1500/bus_wrapper/source/nm_bus_wrapper_same70.o
 *fill*         0x00406f76        0x2 
 .rodata.__FUNCTION__.9901
                0x00406f78        0x9 src/ASF/common/components/wifi/winc1500/driver/source/m2m_hif.o
 *fill*         0x00406f81        0x3 
 .rodata.__FUNCTION__.9911
                0x00406f84        0x8 src/ASF/common/components/wifi/winc1500/driver/source/m2m_hif.o
 .rodata.__FUNCTION__.9917
                0x00406f8c        0xf src/ASF/common/components/wifi/winc1500/driver/source/m2m_hif.o
 *fill*         0x00406f9b        0x1 
 .rodata.__FUNCTION__.9932
                0x00406f9c        0xc src/ASF/common/components/wifi/winc1500/driver/source/m2m_hif.o
 .rodata.__FUNCTION__.9947
                0x00406fa8       0x10 src/ASF/common/components/wifi/winc1500/driver/source/m2m_hif.o
 .rodata.hif_handle_isr.str1.4
                0x00406fb8      0x15f src/ASF/common/components/wifi/winc1500/driver/source/m2m_hif.o
 *fill*         0x00407117        0x1 
 .rodata.hif_receive.str1.4
                0x00407118       0xa8 src/ASF/common/components/wifi/winc1500/driver/source/m2m_hif.o
 .rodata.hif_register_cb.str1.4
                0x004071c0        0xa src/ASF/common/components/wifi/winc1500/driver/source/m2m_hif.o
 *fill*         0x004071ca        0x2 
 .rodata.hif_send.str1.4
                0x004071cc       0x1d src/ASF/common/components/wifi/winc1500/driver/source/m2m_hif.o
                                 0x36 (size before relaxing)
 *fill*         0x004071e9        0x3 
 .rodata.__FUNCTION__.9874
                0x004071ec        0xc src/ASF/common/components/wifi/winc1500/driver/source/m2m_wifi.o
 .rodata.__FUNCTION__.9898
                0x004071f8        0xe src/ASF/common/components/wifi/winc1500/driver/source/m2m_wifi.o
 *fill*         0x00407206        0x2 
 .rodata.__FUNCTION__.9926
                0x00407208       0x14 src/ASF/common/components/wifi/winc1500/driver/source/m2m_wifi.o
 .rodata.m2m_wifi_cb.str1.4
                0x0040721c       0x40 src/ASF/common/components/wifi/winc1500/driver/source/m2m_wifi.o
                                 0x58 (size before relaxing)
 .rodata.m2m_wifi_connect_sc.str1.4
                0x0040725c       0xac src/ASF/common/components/wifi/winc1500/driver/source/m2m_wifi.o
 .rodata.m2m_wifi_init.str1.4
                0x00407308       0x6f src/ASF/common/components/wifi/winc1500/driver/source/m2m_wifi.o
 *fill*         0x00407377        0x1 
 .rodata.__FUNCTION__.9711
                0x00407378       0x10 src/ASF/common/components/wifi/winc1500/driver/source/nmasic.o
 .rodata.__FUNCTION__.9805
                0x00407388        0xc src/ASF/common/components/wifi/winc1500/driver/source/nmasic.o
 .rodata.chip_deinit.str1.4
                0x00407394       0x51 src/ASF/common/components/wifi/winc1500/driver/source/nmasic.o
 *fill*         0x004073e5        0x3 
 .rodata.nm_clkless_wake.str1.4
                0x004073e8       0x62 src/ASF/common/components/wifi/winc1500/driver/source/nmasic.o
                                 0x7a (size before relaxing)
 *fill*         0x0040744a        0x2 
 .rodata.wait_for_bootrom.str1.4
                0x0040744c        0xe src/ASF/common/components/wifi/winc1500/driver/source/nmasic.o
 *fill*         0x0040745a        0x2 
 .rodata.__FUNCTION__.9792
                0x0040745c        0xc src/ASF/common/components/wifi/winc1500/driver/source/nmdrv.o
 .rodata.__FUNCTION__.9799
                0x00407468        0xe src/ASF/common/components/wifi/winc1500/driver/source/nmdrv.o
 *fill*         0x00407476        0x2 
 .rodata.nm_drv_deinit.str1.4
                0x00407478       0x5f src/ASF/common/components/wifi/winc1500/driver/source/nmdrv.o
 *fill*         0x004074d7        0x1 
 .rodata.nm_drv_init.str1.4
                0x004074d8       0x1f src/ASF/common/components/wifi/winc1500/driver/source/nmdrv.o
 *fill*         0x004074f7        0x1 
 .rodata.nm_drv_init_download_mode.str1.4
                0x004074f8       0x29 src/ASF/common/components/wifi/winc1500/driver/source/nmdrv.o
                                 0x4d (size before relaxing)
 *fill*         0x00407521        0x3 
 .rodata.__FUNCTION__.9176
                0x00407524        0x8 src/ASF/common/components/wifi/winc1500/driver/source/nmspi.o
 .rodata.__FUNCTION__.9184
                0x0040752c        0xc src/ASF/common/components/wifi/winc1500/driver/source/nmspi.o
 .rodata.__FUNCTION__.9200
                0x00407538        0xe src/ASF/common/components/wifi/winc1500/driver/source/nmspi.o
 *fill*         0x00407546        0x2 
 .rodata.__FUNCTION__.9215
                0x00407548        0xf src/ASF/common/components/wifi/winc1500/driver/source/nmspi.o
 *fill*         0x00407557        0x1 
 .rodata.__FUNCTION__.9225
                0x00407558        0xe src/ASF/common/components/wifi/winc1500/driver/source/nmspi.o
 *fill*         0x00407566        0x2 
 .rodata.__FUNCTION__.9233
                0x00407568        0xd src/ASF/common/components/wifi/winc1500/driver/source/nmspi.o
 *fill*         0x00407575        0x3 
 .rodata.__FUNCTION__.9242
                0x00407578        0xd src/ASF/common/components/wifi/winc1500/driver/source/nmspi.o
 *fill*         0x00407585        0x3 
 .rodata.__FUNCTION__.9250
                0x00407588        0xc src/ASF/common/components/wifi/winc1500/driver/source/nmspi.o
 .rodata.__FUNCTION__.9267
                0x00407594        0xc src/ASF/common/components/wifi/winc1500/driver/source/nmspi.o
 .rodata.crc7_syndrome_table
                0x004075a0      0x100 src/ASF/common/components/wifi/winc1500/driver/source/nmspi.o
 .rodata.nm_spi_init.str1.4
                0x004076a0       0xd9 src/ASF/common/components/wifi/winc1500/driver/source/nmspi.o
 *fill*         0x00407779        0x3 
 .rodata.nm_spi_read_block.str1.4
                0x0040777c       0x8e src/ASF/common/components/wifi/winc1500/driver/source/nmspi.o
 *fill*         0x0040780a        0x2 
 .rodata.nm_spi_write_block.str1.4
                0x0040780c      0x133 src/ASF/common/components/wifi/winc1500/driver/source/nmspi.o
 *fill*         0x0040793f        0x1 
 .rodata.spi_cmd.str1.4
                0x00407940       0x2b src/ASF/common/components/wifi/winc1500/driver/source/nmspi.o
 *fill*         0x0040796b        0x1 
 .rodata.spi_cmd_rsp.str1.4
                0x0040796c       0x33 src/ASF/common/components/wifi/winc1500/driver/source/nmspi.o
                                 0x4a (size before relaxing)
 *fill*         0x0040799f        0x1 
 .rodata.spi_data_read.str1.4
                0x004079a0       0xcd src/ASF/common/components/wifi/winc1500/driver/source/nmspi.o
 *fill*         0x00407a6d        0x3 
 .rodata.spi_read_reg.str1.4
                0x00407a70       0x80 src/ASF/common/components/wifi/winc1500/driver/source/nmspi.o
 .rodata.spi_write_reg.str1.4
                0x00407af0       0x61 src/ASF/common/components/wifi/winc1500/driver/source/nmspi.o
 *fill*         0x00407b51        0x3 
 .rodata.Socket_ReadSocketData.str1.4
                0x00407b54       0x14 src/ASF/common/components/wifi/winc1500/socket/source/socket.o
                                 0x22 (size before relaxing)
 .rodata.main.str1.4
                0x00407b68      0x14b src/main.o
 *fill*         0x00407cb3        0x1 
 .rodata.resolve_cb.str1.4
                0x00407cb4       0x2d src/main.o
 *fill*         0x00407ce1        0x3 
 .rodata.socket_cb.str1.4
                0x00407ce4       0x75 src/main.o
 *fill*         0x00407d59        0x3 
 .rodata.wifi_cb.str1.4
                0x00407d5c       0x69 src/main.o
 *fill*         0x00407dc5        0x3 
 .rodata._global_impure_ptr
                0x00407dc8        0x4 c:/program files (x86)/atmel/studio/7.0/toolchain/arm/arm-gnu-toolchain/bin/../lib/gcc/arm-none-eabi/6.3.1/../../../../arm-none-eabi/lib/thumb/v7e-m\libc.a(lib_a-impure.o)
                0x00407dc8                _global_impure_ptr
 .rodata._vfiprintf_r.str1.4
                0x00407dcc       0x2f c:/program files (x86)/atmel/studio/7.0/toolchain/arm/arm-gnu-toolchain/bin/../lib/gcc/arm-none-eabi/6.3.1/../../../../arm-none-eabi/lib/thumb/v7e-m\libc.a(lib_a-vfiprintf.o)
 *fill*         0x00407dfb        0x1 
 .rodata.blanks.7217
                0x00407dfc       0x10 c:/program files (x86)/atmel/studio/7.0/toolchain/arm/arm-gnu-toolchain/bin/../lib/gcc/arm-none-eabi/6.3.1/../../../../arm-none-eabi/lib/thumb/v7e-m\libc.a(lib_a-vfiprintf.o)
 .rodata.zeroes.7218
                0x00407e0c       0x10 c:/program files (x86)/atmel/studio/7.0/toolchain/arm/arm-gnu-toolchain/bin/../lib/gcc/arm-none-eabi/6.3.1/../../../../arm-none-eabi/lib/thumb/v7e-m\libc.a(lib_a-vfiprintf.o)
 .rodata._setlocale_r.str1.4
                0x00407e1c        0xa c:/program files (x86)/atmel/studio/7.0/toolchain/arm/arm-gnu-toolchain/bin/../lib/gcc/arm-none-eabi/6.3.1/../../../../arm-none-eabi/lib/thumb/v7e-m\libc.a(lib_a-locale.o)
                                  0xd (size before relaxing)
 *fill*         0x00407e26        0x2 
 .rodata.str1.4
                0x00407e28        0x4 c:/program files (x86)/atmel/studio/7.0/toolchain/arm/arm-gnu-toolchain/bin/../lib/gcc/arm-none-eabi/6.3.1/../../../../arm-none-eabi/lib/thumb/v7e-m\libc.a(lib_a-locale.o)
                                  0x2 (size before relaxing)
 .rodata._ctype_
                0x00407e2c      0x101 c:/program files (x86)/atmel/studio/7.0/toolchain/arm/arm-gnu-toolchain/bin/../lib/gcc/arm-none-eabi/6.3.1/../../../../arm-none-eabi/lib/thumb/v7e-m\libc.a(lib_a-ctype_.o)
                0x00407e2c                _ctype_
 *(.ARM.extab* .gnu.linkonce.armextab.*)
                0x00407f30                . = ALIGN (0x4)
 *fill*         0x00407f2d        0x3 
 *(.init)
 .init          0x00407f30        0x4 c:/program files (x86)/atmel/studio/7.0/toolchain/arm/arm-gnu-toolchain/bin/../lib/gcc/arm-none-eabi/6.3.1/thumb/v7e-m/crti.o
                0x00407f30                _init
 .init          0x00407f34        0x8 c:/program files (x86)/atmel/studio/7.0/toolchain/arm/arm-gnu-toolchain/bin/../lib/gcc/arm-none-eabi/6.3.1/thumb/v7e-m/crtn.o
                0x00407f3c                . = ALIGN (0x4)
                0x00407f3c                __preinit_array_start = .
 *(.preinit_array)
                0x00407f3c                __preinit_array_end = .
                0x00407f3c                . = ALIGN (0x4)
                0x00407f3c                __init_array_start = .
 *(SORT(.init_array.*))
 .init_array.00000
                0x00407f3c        0x4 c:/program files (x86)/atmel/studio/7.0/toolchain/arm/arm-gnu-toolchain/bin/../lib/gcc/arm-none-eabi/6.3.1/../../../../arm-none-eabi/lib/thumb/v7e-m\libc.a(lib_a-__call_atexit.o)
 *(.init_array)
 .init_array    0x00407f40        0x4 c:/program files (x86)/atmel/studio/7.0/toolchain/arm/arm-gnu-toolchain/bin/../lib/gcc/arm-none-eabi/6.3.1/thumb/v7e-m/crtbegin.o
                0x00407f44                __init_array_end = .
                0x00407f44                . = ALIGN (0x4)
 *crtbegin.o(.ctors)
 *(EXCLUDE_FILE(*crtend.o) .ctors)
 *(SORT(.ctors.*))
 *crtend.o(.ctors)
                0x00407f44                . = ALIGN (0x4)
 *(.fini)
 .fini          0x00407f44        0x4 c:/program files (x86)/atmel/studio/7.0/toolchain/arm/arm-gnu-toolchain/bin/../lib/gcc/arm-none-eabi/6.3.1/thumb/v7e-m/crti.o
                0x00407f44                _fini
 .fini          0x00407f48        0x8 c:/program files (x86)/atmel/studio/7.0/toolchain/arm/arm-gnu-toolchain/bin/../lib/gcc/arm-none-eabi/6.3.1/thumb/v7e-m/crtn.o
                0x00407f50                . = ALIGN (0x4)
                0x00407f50                __fini_array_start = .
 *(.fini_array)
 .fini_array    0x00407f50        0x4 c:/program files (x86)/atmel/studio/7.0/toolchain/arm/arm-gnu-toolchain/bin/../lib/gcc/arm-none-eabi/6.3.1/thumb/v7e-m/crtbegin.o
 *(SORT(.fini_array.*))
                0x00407f54                __fini_array_end = .
 *crtbegin.o(.dtors)
 *(EXCLUDE_FILE(*crtend.o) .dtors)
 *(SORT(.dtors.*))
 *crtend.o(.dtors)
                0x00407f54                . = ALIGN (0x4)
                0x00407f54                _efixed = .
                [!provide]                PROVIDE (__exidx_start, .)

.vfp11_veneer   0x00407f54        0x0
 .vfp11_veneer  0x00407f54        0x0 linker stubs

.v4_bx          0x00407f54        0x0
 .v4_bx         0x00407f54        0x0 linker stubs

.iplt           0x00407f54        0x0
 .iplt          0x00407f54        0x0 c:/program files (x86)/atmel/studio/7.0/toolchain/arm/arm-gnu-toolchain/bin/../lib/gcc/arm-none-eabi/6.3.1/thumb/v7e-m/crtbegin.o

.ARM.exidx      0x00407f54        0x8
 *(.ARM.exidx* .gnu.linkonce.armexidx.*)
 .ARM.exidx     0x00407f54        0x8 c:/program files (x86)/atmel/studio/7.0/toolchain/arm/arm-gnu-toolchain/bin/../lib/gcc/arm-none-eabi/6.3.1/thumb/v7e-m\libgcc.a(_udivmoddi4.o)
                [!provide]                PROVIDE (__exidx_end, .)

.eh_frame       0x00407f5c        0x0
 .eh_frame      0x00407f5c        0x0 c:/program files (x86)/atmel/studio/7.0/toolchain/arm/arm-gnu-toolchain/bin/../lib/gcc/arm-none-eabi/6.3.1/thumb/v7e-m/crtbegin.o

.rel.dyn        0x00407f5c        0x0
 .rel.iplt      0x00407f5c        0x0 c:/program files (x86)/atmel/studio/7.0/toolchain/arm/arm-gnu-toolchain/bin/../lib/gcc/arm-none-eabi/6.3.1/thumb/v7e-m/crtbegin.o

.jcr            0x00407f5c        0x0
 .jcr           0x00407f5c        0x0 c:/program files (x86)/atmel/studio/7.0/toolchain/arm/arm-gnu-toolchain/bin/../lib/gcc/arm-none-eabi/6.3.1/thumb/v7e-m/crtbegin.o

.igot.plt       0x00407f5c        0x0
 .igot.plt      0x00407f5c        0x0 c:/program files (x86)/atmel/studio/7.0/toolchain/arm/arm-gnu-toolchain/bin/../lib/gcc/arm-none-eabi/6.3.1/thumb/v7e-m/crtbegin.o
                0x00407f5c                . = ALIGN (0x4)
                0x00407f5c                _etext = .

.relocate       0x20400000      0x9d0 load address 0x00407f5c
                0x20400000                . = ALIGN (0x4)
                0x20400000                _srelocate = .
 *(.ramfunc .ramfunc.*)
 .ramfunc       0x20400000        0xa src/ASF/common/services/delay/sam/cycle_counter.o
                0x20400000                portable_delay_cycles
 *(.data .data.*)
 *fill*         0x2040000a        0x2 
 .data.egstrNmBusCapabilities
                0x2040000c        0x2 src/ASF/common/components/wifi/winc1500/bus_wrapper/source/nm_bus_wrapper_same70.o
                0x2040000c                egstrNmBusCapabilities
 *fill*         0x2040000e        0x2 
 .data.clk_status_reg_adr
                0x20400010        0x4 src/ASF/common/components/wifi/winc1500/driver/source/nmasic.o
 .data.g_interrupt_enabled
                0x20400014        0x1 src/ASF/common/utils/interrupt/interrupt_sam_nvic.o
                0x20400014                g_interrupt_enabled
 *fill*         0x20400015        0x3 
 .data.SystemCoreClock
                0x20400018        0x4 src/ASF/sam/utils/cmsis/same70/source/templates/system_same70.o
                0x20400018                SystemCoreClock
 .data.tcp_client_socket
                0x2040001c        0x1 src/main.o
 *fill*         0x2040001d        0x3 
 .data._impure_ptr
                0x20400020        0x4 c:/program files (x86)/atmel/studio/7.0/toolchain/arm/arm-gnu-toolchain/bin/../lib/gcc/arm-none-eabi/6.3.1/../../../../arm-none-eabi/lib/thumb/v7e-m\libc.a(lib_a-impure.o)
                0x20400020                _impure_ptr
 *fill*         0x20400024        0x4 
 .data.impure_data
                0x20400028      0x428 c:/program files (x86)/atmel/studio/7.0/toolchain/arm/arm-gnu-toolchain/bin/../lib/gcc/arm-none-eabi/6.3.1/../../../../arm-none-eabi/lib/thumb/v7e-m\libc.a(lib_a-impure.o)
 .data.__atexit_recursive_mutex
                0x20400450        0x4 c:/program files (x86)/atmel/studio/7.0/toolchain/arm/arm-gnu-toolchain/bin/../lib/gcc/arm-none-eabi/6.3.1/../../../../arm-none-eabi/lib/thumb/v7e-m\libc.a(lib_a-__call_atexit.o)
                0x20400450                __atexit_recursive_mutex
 .data.__global_locale
                0x20400454      0x16c c:/program files (x86)/atmel/studio/7.0/toolchain/arm/arm-gnu-toolchain/bin/../lib/gcc/arm-none-eabi/6.3.1/../../../../arm-none-eabi/lib/thumb/v7e-m\libc.a(lib_a-locale.o)
                0x20400454                __global_locale
 .data.__malloc_av_
                0x204005c0      0x408 c:/program files (x86)/atmel/studio/7.0/toolchain/arm/arm-gnu-toolchain/bin/../lib/gcc/arm-none-eabi/6.3.1/../../../../arm-none-eabi/lib/thumb/v7e-m\libc.a(lib_a-mallocr.o)
                0x204005c0                __malloc_av_
 .data.__malloc_sbrk_base
                0x204009c8        0x4 c:/program files (x86)/atmel/studio/7.0/toolchain/arm/arm-gnu-toolchain/bin/../lib/gcc/arm-none-eabi/6.3.1/../../../../arm-none-eabi/lib/thumb/v7e-m\libc.a(lib_a-mallocr.o)
                0x204009c8                __malloc_sbrk_base
 .data.__malloc_trim_threshold
                0x204009cc        0x4 c:/program files (x86)/atmel/studio/7.0/toolchain/arm/arm-gnu-toolchain/bin/../lib/gcc/arm-none-eabi/6.3.1/../../../../arm-none-eabi/lib/thumb/v7e-m\libc.a(lib_a-mallocr.o)
                0x204009cc                __malloc_trim_threshold
                0x204009d0                . = ALIGN (0x4)
                0x204009d0                _erelocate = .

.bss            0x204009d0      0x774 load address 0x0040892c
                0x204009d0                . = ALIGN (0x4)
                0x204009d0                _sbss = .
                0x204009d0                _szero = .
 *(.bss .bss.*)
 .bss           0x204009d0       0x1c c:/program files (x86)/atmel/studio/7.0/toolchain/arm/arm-gnu-toolchain/bin/../lib/gcc/arm-none-eabi/6.3.1/thumb/v7e-m/crtbegin.o
 .bss.gpfIsr    0x204009ec        0x4 src/ASF/common/components/wifi/winc1500/bsp/source/nm_bsp_same70.o
 .bss.gu8ChipMode
                0x204009f0        0x1 src/ASF/common/components/wifi/winc1500/driver/source/m2m_hif.o
 .bss.gu8ChipSleep
                0x204009f1        0x1 src/ASF/common/components/wifi/winc1500/driver/source/m2m_hif.o
 .bss.gu8HifSizeDone
                0x204009f2        0x1 src/ASF/common/components/wifi/winc1500/driver/source/m2m_hif.o
 .bss.gu8Interrupt
                0x204009f3        0x1 src/ASF/common/components/wifi/winc1500/driver/source/m2m_hif.o
 .bss.pfCryptoCb
                0x204009f4        0x4 src/ASF/common/components/wifi/winc1500/driver/source/m2m_hif.o
                0x204009f4                pfCryptoCb
 .bss.pfHifCb   0x204009f8        0x4 src/ASF/common/components/wifi/winc1500/driver/source/m2m_hif.o
                0x204009f8                pfHifCb
 .bss.pfIpCb    0x204009fc        0x4 src/ASF/common/components/wifi/winc1500/driver/source/m2m_hif.o
                0x204009fc                pfIpCb
 .bss.pfOtaCb   0x20400a00        0x4 src/ASF/common/components/wifi/winc1500/driver/source/m2m_hif.o
                0x20400a00                pfOtaCb
 .bss.pfSigmaCb
                0x20400a04        0x4 src/ASF/common/components/wifi/winc1500/driver/source/m2m_hif.o
                0x20400a04                pfSigmaCb
 .bss.pfWifiCb  0x20400a08        0x4 src/ASF/common/components/wifi/winc1500/driver/source/m2m_hif.o
                0x20400a08                pfWifiCb
 .bss.gpfAppWifiCb
                0x20400a0c        0x4 src/ASF/common/components/wifi/winc1500/driver/source/m2m_wifi.o
 .bss.gu8ChNum  0x20400a10        0x1 src/ASF/common/components/wifi/winc1500/driver/source/m2m_wifi.o
 .bss.gu8scanInProgress
                0x20400a11        0x1 src/ASF/common/components/wifi/winc1500/driver/source/m2m_wifi.o
 *fill*         0x20400a12        0x2 
 .bss.chipid.9739
                0x20400a14        0x4 src/ASF/common/components/wifi/winc1500/driver/source/nmasic.o
 .bss.gu8Crc_off
                0x20400a18        0x1 src/ASF/common/components/wifi/winc1500/driver/source/nmspi.o
 .bss.gbSocketInit
                0x20400a19        0x1 src/ASF/common/components/wifi/winc1500/socket/source/socket.o
                0x20400a19                gbSocketInit
 .bss.gu16SessionID
                0x20400a1a        0x2 src/ASF/common/components/wifi/winc1500/socket/source/socket.o
                0x20400a1a                gu16SessionID
 .bss.gs_interrupt_sources
                0x20400a1c       0x70 src/ASF/sam/drivers/pio/pio_handler.o
 .bss.gs_ul_nb_sources
                0x20400a8c        0x4 src/ASF/sam/drivers/pio/pio_handler.o
 .bss.ul_reg_val.9325
                0x20400a90        0x4 src/ASF/sam/drivers/usart/usart.o
 .bss.heap.6420
                0x20400a94        0x4 src/ASF/sam/utils/syscalls/gcc/syscalls.o
 .bss.gau8ReceivedBuffer
                0x20400a98      0x578 src/main.o
 .bss.gbTcpConnection
                0x20401010        0x1 src/main.o
 *fill*         0x20401011        0x3 
 .bss.gu32HostIp
                0x20401014        0x4 src/main.o
                0x20401014                gu32HostIp
 .bss.wifi_connected
                0x20401018        0x1 src/main.o
 *fill*         0x20401019        0x3 
 .bss.__malloc_current_mallinfo
                0x2040101c       0x28 c:/program files (x86)/atmel/studio/7.0/toolchain/arm/arm-gnu-toolchain/bin/../lib/gcc/arm-none-eabi/6.3.1/../../../../arm-none-eabi/lib/thumb/v7e-m\libc.a(lib_a-mallocr.o)
                0x2040101c                __malloc_current_mallinfo
 .bss.__malloc_max_sbrked_mem
                0x20401044        0x4 c:/program files (x86)/atmel/studio/7.0/toolchain/arm/arm-gnu-toolchain/bin/../lib/gcc/arm-none-eabi/6.3.1/../../../../arm-none-eabi/lib/thumb/v7e-m\libc.a(lib_a-mallocr.o)
                0x20401044                __malloc_max_sbrked_mem
 .bss.__malloc_max_total_mem
                0x20401048        0x4 c:/program files (x86)/atmel/studio/7.0/toolchain/arm/arm-gnu-toolchain/bin/../lib/gcc/arm-none-eabi/6.3.1/../../../../arm-none-eabi/lib/thumb/v7e-m\libc.a(lib_a-mallocr.o)
                0x20401048                __malloc_max_total_mem
 .bss.__malloc_top_pad
                0x2040104c        0x4 c:/program files (x86)/atmel/studio/7.0/toolchain/arm/arm-gnu-toolchain/bin/../lib/gcc/arm-none-eabi/6.3.1/../../../../arm-none-eabi/lib/thumb/v7e-m\libc.a(lib_a-mallocr.o)
                0x2040104c                __malloc_top_pad
 *(COMMON)
 COMMON         0x20401050       0xc0 src/ASF/common/components/wifi/winc1500/socket/source/socket.o
                0x20401050                gu16BufferSize
                0x20401052                gsockerrno
                0x20401053                gu8OpCode
                0x20401054                gastrSockets
                0x20401104                gpfAppSocketCb
                0x20401108                gfpPingCb
                0x2040110c                gpfAppResolveCb
 COMMON         0x20401110        0x4 src/ASF/common/utils/stdio/read.o
                0x20401110                ptr_get
 COMMON         0x20401114        0x8 src/ASF/common/utils/stdio/write.o
                0x20401114                ptr_put
                0x20401118                stdio_base
 COMMON         0x2040111c       0x21 c:/program files (x86)/atmel/studio/7.0/toolchain/arm/arm-gnu-toolchain/bin/../lib/gcc/arm-none-eabi/6.3.1/../../../../arm-none-eabi/lib/thumb/v7e-m\libc.a(lib_a-lock.o)
                0x2040111c                __lock___atexit_recursive_mutex
                0x20401120                __lock___arc4random_mutex
                0x20401124                __lock___env_recursive_mutex
                0x20401128                __lock___sinit_recursive_mutex
                0x2040112c                __lock___malloc_recursive_mutex
                0x20401130                __lock___at_quick_exit_mutex
                0x20401134                __lock___dd_hash_mutex
                0x20401138                __lock___tz_mutex
                0x2040113c                __lock___sfp_recursive_mutex
 *fill*         0x2040113d        0x3 
 COMMON         0x20401140        0x4 c:/program files (x86)/atmel/studio/7.0/toolchain/arm/arm-gnu-toolchain/bin/../lib/gcc/arm-none-eabi/6.3.1/../../../../arm-none-eabi/lib/thumb/v7e-m\libc.a(lib_a-reent.o)
                0x20401140                errno
                0x20401144                . = ALIGN (0x4)
                0x20401144                _ebss = .
                0x20401144                _ezero = .

.stack          0x20401144     0x2004 load address 0x004090a0
                0x20401148                . = ALIGN (0x8)
 *fill*         0x20401144        0x4 
                0x20401148                _sstack = .
                0x20403148                . = (. + STACK_SIZE)
 *fill*         0x20401148     0x2000 
                0x20403148                . = ALIGN (0x8)
                0x20403148                _estack = .

.heap           0x20403148      0x200 load address 0x0040b0a4
                0x20403148                . = ALIGN (0x8)
                0x20403148                _sheap = .
                0x20403348                . = (. + HEAP_SIZE)
 *fill*         0x20403148      0x200 
                0x20403348                . = ALIGN (0x8)
                0x20403348                _eheap = .
                0x20403348                . = ALIGN (0x4)
                0x20403348                _end = .
                0x2045ffff                _ram_end_ = ((ORIGIN (ram) + LENGTH (ram)) - 0x1)
OUTPUT(WIFI-simpleGet-EXT1.elf elf32-littlearm)

.ARM.attributes
                0x00000000       0x2e
 .ARM.attributes
                0x00000000       0x1e c:/program files (x86)/atmel/studio/7.0/toolchain/arm/arm-gnu-toolchain/bin/../lib/gcc/arm-none-eabi/6.3.1/thumb/v7e-m/crti.o
 .ARM.attributes
                0x0000001e       0x2e c:/program files (x86)/atmel/studio/7.0/toolchain/arm/arm-gnu-toolchain/bin/../lib/gcc/arm-none-eabi/6.3.1/thumb/v7e-m/crtbegin.o
 .ARM.attributes
                0x0000004c       0x37 src/ASF/common/components/wifi/winc1500/bsp/source/nm_bsp_same70.o
 .ARM.attributes
                0x00000083       0x37 src/ASF/common/components/wifi/winc1500/bus_wrapper/source/nm_bus_wrapper_same70.o
 .ARM.attributes
                0x000000ba       0x37 src/ASF/common/components/wifi/winc1500/common/source/nm_common.o
 .ARM.attributes
                0x000000f1       0x37 src/ASF/common/components/wifi/winc1500/driver/source/m2m_hif.o
 .ARM.attributes
                0x00000128       0x37 src/ASF/common/components/wifi/winc1500/driver/source/m2m_wifi.o
 .ARM.attributes
                0x0000015f       0x37 src/ASF/common/components/wifi/winc1500/driver/source/nmasic.o
 .ARM.attributes
                0x00000196       0x37 src/ASF/common/components/wifi/winc1500/driver/source/nmbus.o
 .ARM.attributes
                0x000001cd       0x37 src/ASF/common/components/wifi/winc1500/driver/source/nmdrv.o
 .ARM.attributes
                0x00000204       0x37 src/ASF/common/components/wifi/winc1500/driver/source/nmspi.o
 .ARM.attributes
                0x0000023b       0x37 src/ASF/common/components/wifi/winc1500/socket/source/socket.o
 .ARM.attributes
                0x00000272       0x37 src/ASF/common/components/wifi/winc1500/spi_flash/source/spi_flash.o
 .ARM.attributes
                0x000002a9       0x37 src/ASF/common/services/clock/same70/sysclk.o
 .ARM.attributes
                0x000002e0       0x37 src/ASF/common/services/delay/sam/cycle_counter.o
 .ARM.attributes
                0x00000317       0x37 src/ASF/common/utils/interrupt/interrupt_sam_nvic.o
 .ARM.attributes
                0x0000034e       0x37 src/ASF/common/utils/stdio/read.o
 .ARM.attributes
                0x00000385       0x37 src/ASF/common/utils/stdio/write.o
 .ARM.attributes
                0x000003bc       0x37 src/ASF/sam/boards/same70_xplained/init.o
 .ARM.attributes
                0x000003f3       0x37 src/ASF/sam/drivers/pio/pio.o
 .ARM.attributes
                0x0000042a       0x37 src/ASF/sam/drivers/pio/pio_handler.o
 .ARM.attributes
                0x00000461       0x37 src/ASF/sam/drivers/pmc/pmc.o
 .ARM.attributes
                0x00000498       0x37 src/ASF/sam/drivers/spi/spi.o
 .ARM.attributes
                0x000004cf       0x37 src/ASF/sam/drivers/uart/uart.o
 .ARM.attributes
                0x00000506       0x37 src/ASF/sam/drivers/usart/usart.o
 .ARM.attributes
                0x0000053d       0x37 src/ASF/sam/utils/cmsis/same70/source/templates/gcc/startup_same70.o
 .ARM.attributes
                0x00000574       0x37 src/ASF/sam/utils/cmsis/same70/source/templates/system_same70.o
 .ARM.attributes
                0x000005ab       0x37 src/ASF/sam/utils/syscalls/gcc/syscalls.o
 .ARM.attributes
                0x000005e2       0x37 src/main.o
 .ARM.attributes
                0x00000619       0x2e c:/program files (x86)/atmel/studio/7.0/toolchain/arm/arm-gnu-toolchain/bin/../lib/gcc/arm-none-eabi/6.3.1/../../../../arm-none-eabi/lib/thumb/v7e-m\libc.a(lib_a-impure.o)
 .ARM.attributes
                0x00000647       0x2e c:/program files (x86)/atmel/studio/7.0/toolchain/arm/arm-gnu-toolchain/bin/../lib/gcc/arm-none-eabi/6.3.1/../../../../arm-none-eabi/lib/thumb/v7e-m\libc.a(lib_a-init.o)
 .ARM.attributes
                0x00000675       0x2e c:/program files (x86)/atmel/studio/7.0/toolchain/arm/arm-gnu-toolchain/bin/../lib/gcc/arm-none-eabi/6.3.1/../../../../arm-none-eabi/lib/thumb/v7e-m\libc.a(lib_a-iprintf.o)
 .ARM.attributes
                0x000006a3       0x2e c:/program files (x86)/atmel/studio/7.0/toolchain/arm/arm-gnu-toolchain/bin/../lib/gcc/arm-none-eabi/6.3.1/../../../../arm-none-eabi/lib/thumb/v7e-m\libc.a(lib_a-memset.o)
 .ARM.attributes
                0x000006d1       0x2e c:/program files (x86)/atmel/studio/7.0/toolchain/arm/arm-gnu-toolchain/bin/../lib/gcc/arm-none-eabi/6.3.1/../../../../arm-none-eabi/lib/thumb/v7e-m\libc.a(lib_a-setbuf.o)
 .ARM.attributes
                0x000006ff       0x2e c:/program files (x86)/atmel/studio/7.0/toolchain/arm/arm-gnu-toolchain/bin/../lib/gcc/arm-none-eabi/6.3.1/../../../../arm-none-eabi/lib/thumb/v7e-m\libc.a(lib_a-setvbuf.o)
 .ARM.attributes
                0x0000072d       0x1c c:/program files (x86)/atmel/studio/7.0/toolchain/arm/arm-gnu-toolchain/bin/../lib/gcc/arm-none-eabi/6.3.1/../../../../arm-none-eabi/lib/thumb/v7e-m\libc.a(lib_a-strlen.o)
 .ARM.attributes
                0x00000749       0x2e c:/program files (x86)/atmel/studio/7.0/toolchain/arm/arm-gnu-toolchain/bin/../lib/gcc/arm-none-eabi/6.3.1/../../../../arm-none-eabi/lib/thumb/v7e-m\libc.a(lib_a-vfiprintf.o)
 .ARM.attributes
                0x00000777       0x2e c:/program files (x86)/atmel/studio/7.0/toolchain/arm/arm-gnu-toolchain/bin/../lib/gcc/arm-none-eabi/6.3.1/../../../../arm-none-eabi/lib/thumb/v7e-m\libc.a(lib_a-wsetup.o)
 .ARM.attributes
                0x000007a5       0x2e c:/program files (x86)/atmel/studio/7.0/toolchain/arm/arm-gnu-toolchain/bin/../lib/gcc/arm-none-eabi/6.3.1/../../../../arm-none-eabi/lib/thumb/v7e-m\libc.a(lib_a-__call_atexit.o)
 .ARM.attributes
                0x000007d3       0x2e c:/program files (x86)/atmel/studio/7.0/toolchain/arm/arm-gnu-toolchain/bin/../lib/gcc/arm-none-eabi/6.3.1/../../../../arm-none-eabi/lib/thumb/v7e-m\libc.a(lib_a-atexit.o)
 .ARM.attributes
                0x00000801       0x2e c:/program files (x86)/atmel/studio/7.0/toolchain/arm/arm-gnu-toolchain/bin/../lib/gcc/arm-none-eabi/6.3.1/../../../../arm-none-eabi/lib/thumb/v7e-m\libc.a(lib_a-fflush.o)
 .ARM.attributes
                0x0000082f       0x2e c:/program files (x86)/atmel/studio/7.0/toolchain/arm/arm-gnu-toolchain/bin/../lib/gcc/arm-none-eabi/6.3.1/../../../../arm-none-eabi/lib/thumb/v7e-m\libc.a(lib_a-findfp.o)
 .ARM.attributes
                0x0000085d       0x2e c:/program files (x86)/atmel/studio/7.0/toolchain/arm/arm-gnu-toolchain/bin/../lib/gcc/arm-none-eabi/6.3.1/../../../../arm-none-eabi/lib/thumb/v7e-m\libc.a(lib_a-fini.o)
 .ARM.attributes
                0x0000088b       0x2e c:/program files (x86)/atmel/studio/7.0/toolchain/arm/arm-gnu-toolchain/bin/../lib/gcc/arm-none-eabi/6.3.1/../../../../arm-none-eabi/lib/thumb/v7e-m\libc.a(lib_a-fputwc.o)
 .ARM.attributes
                0x000008b9       0x2e c:/program files (x86)/atmel/studio/7.0/toolchain/arm/arm-gnu-toolchain/bin/../lib/gcc/arm-none-eabi/6.3.1/../../../../arm-none-eabi/lib/thumb/v7e-m\libc.a(lib_a-freer.o)
 .ARM.attributes
                0x000008e7       0x2e c:/program files (x86)/atmel/studio/7.0/toolchain/arm/arm-gnu-toolchain/bin/../lib/gcc/arm-none-eabi/6.3.1/../../../../arm-none-eabi/lib/thumb/v7e-m\libc.a(lib_a-fvwrite.o)
 .ARM.attributes
                0x00000915       0x2e c:/program files (x86)/atmel/studio/7.0/toolchain/arm/arm-gnu-toolchain/bin/../lib/gcc/arm-none-eabi/6.3.1/../../../../arm-none-eabi/lib/thumb/v7e-m\libc.a(lib_a-fwalk.o)
 .ARM.attributes
                0x00000943       0x2e c:/program files (x86)/atmel/studio/7.0/toolchain/arm/arm-gnu-toolchain/bin/../lib/gcc/arm-none-eabi/6.3.1/../../../../arm-none-eabi/lib/thumb/v7e-m\libc.a(lib_a-locale.o)
 .ARM.attributes
                0x00000971       0x2e c:/program files (x86)/atmel/studio/7.0/toolchain/arm/arm-gnu-toolchain/bin/../lib/gcc/arm-none-eabi/6.3.1/../../../../arm-none-eabi/lib/thumb/v7e-m\libc.a(lib_a-lock.o)
 .ARM.attributes
                0x0000099f       0x2e c:/program files (x86)/atmel/studio/7.0/toolchain/arm/arm-gnu-toolchain/bin/../lib/gcc/arm-none-eabi/6.3.1/../../../../arm-none-eabi/lib/thumb/v7e-m\libc.a(lib_a-makebuf.o)
 .ARM.attributes
                0x000009cd       0x2e c:/program files (x86)/atmel/studio/7.0/toolchain/arm/arm-gnu-toolchain/bin/../lib/gcc/arm-none-eabi/6.3.1/../../../../arm-none-eabi/lib/thumb/v7e-m\libc.a(lib_a-malloc.o)
 .ARM.attributes
                0x000009fb       0x2e c:/program files (x86)/atmel/studio/7.0/toolchain/arm/arm-gnu-toolchain/bin/../lib/gcc/arm-none-eabi/6.3.1/../../../../arm-none-eabi/lib/thumb/v7e-m\libc.a(lib_a-mallocr.o)
 .ARM.attributes
                0x00000a29       0x2e c:/program files (x86)/atmel/studio/7.0/toolchain/arm/arm-gnu-toolchain/bin/../lib/gcc/arm-none-eabi/6.3.1/../../../../arm-none-eabi/lib/thumb/v7e-m\libc.a(lib_a-mbtowc_r.o)
 .ARM.attributes
                0x00000a57       0x1c c:/program files (x86)/atmel/studio/7.0/toolchain/arm/arm-gnu-toolchain/bin/../lib/gcc/arm-none-eabi/6.3.1/../../../../arm-none-eabi/lib/thumb/v7e-m\libc.a(lib_a-memchr.o)
 .ARM.attributes
                0x00000a73       0x1c c:/program files (x86)/atmel/studio/7.0/toolchain/arm/arm-gnu-toolchain/bin/../lib/gcc/arm-none-eabi/6.3.1/../../../../arm-none-eabi/lib/thumb/v7e-m\libc.a(lib_a-memcpy.o)
 .ARM.attributes
                0x00000a8f       0x2e c:/program files (x86)/atmel/studio/7.0/toolchain/arm/arm-gnu-toolchain/bin/../lib/gcc/arm-none-eabi/6.3.1/../../../../arm-none-eabi/lib/thumb/v7e-m\libc.a(lib_a-memmove.o)
 .ARM.attributes
                0x00000abd       0x2e c:/program files (x86)/atmel/studio/7.0/toolchain/arm/arm-gnu-toolchain/bin/../lib/gcc/arm-none-eabi/6.3.1/../../../../arm-none-eabi/lib/thumb/v7e-m\libc.a(lib_a-mlock.o)
 .ARM.attributes
                0x00000aeb       0x2e c:/program files (x86)/atmel/studio/7.0/toolchain/arm/arm-gnu-toolchain/bin/../lib/gcc/arm-none-eabi/6.3.1/../../../../arm-none-eabi/lib/thumb/v7e-m\libc.a(lib_a-reallocr.o)
 .ARM.attributes
                0x00000b19       0x2e c:/program files (x86)/atmel/studio/7.0/toolchain/arm/arm-gnu-toolchain/bin/../lib/gcc/arm-none-eabi/6.3.1/../../../../arm-none-eabi/lib/thumb/v7e-m\libc.a(lib_a-sbrkr.o)
 .ARM.attributes
                0x00000b47       0x2e c:/program files (x86)/atmel/studio/7.0/toolchain/arm/arm-gnu-toolchain/bin/../lib/gcc/arm-none-eabi/6.3.1/../../../../arm-none-eabi/lib/thumb/v7e-m\libc.a(lib_a-stdio.o)
 .ARM.attributes
                0x00000b75       0x2e c:/program files (x86)/atmel/studio/7.0/toolchain/arm/arm-gnu-toolchain/bin/../lib/gcc/arm-none-eabi/6.3.1/../../../../arm-none-eabi/lib/thumb/v7e-m\libc.a(lib_a-wbuf.o)
 .ARM.attributes
                0x00000ba3       0x2e c:/program files (x86)/atmel/studio/7.0/toolchain/arm/arm-gnu-toolchain/bin/../lib/gcc/arm-none-eabi/6.3.1/../../../../arm-none-eabi/lib/thumb/v7e-m\libc.a(lib_a-wcrtomb.o)
 .ARM.attributes
                0x00000bd1       0x2e c:/program files (x86)/atmel/studio/7.0/toolchain/arm/arm-gnu-toolchain/bin/../lib/gcc/arm-none-eabi/6.3.1/../../../../arm-none-eabi/lib/thumb/v7e-m\libc.a(lib_a-wctomb_r.o)
 .ARM.attributes
                0x00000bff       0x2e c:/program files (x86)/atmel/studio/7.0/toolchain/arm/arm-gnu-toolchain/bin/../lib/gcc/arm-none-eabi/6.3.1/../../../../arm-none-eabi/lib/thumb/v7e-m\libc.a(lib_a-writer.o)
 .ARM.attributes
                0x00000c2d       0x2e c:/program files (x86)/atmel/studio/7.0/toolchain/arm/arm-gnu-toolchain/bin/../lib/gcc/arm-none-eabi/6.3.1/../../../../arm-none-eabi/lib/thumb/v7e-m\libc.a(lib_a-__atexit.o)
 .ARM.attributes
                0x00000c5b       0x2e c:/program files (x86)/atmel/studio/7.0/toolchain/arm/arm-gnu-toolchain/bin/../lib/gcc/arm-none-eabi/6.3.1/../../../../arm-none-eabi/lib/thumb/v7e-m\libc.a(lib_a-closer.o)
 .ARM.attributes
                0x00000c89       0x2e c:/program files (x86)/atmel/studio/7.0/toolchain/arm/arm-gnu-toolchain/bin/../lib/gcc/arm-none-eabi/6.3.1/../../../../arm-none-eabi/lib/thumb/v7e-m\libc.a(lib_a-ctype_.o)
 .ARM.attributes
                0x00000cb7       0x2e c:/program files (x86)/atmel/studio/7.0/toolchain/arm/arm-gnu-toolchain/bin/../lib/gcc/arm-none-eabi/6.3.1/../../../../arm-none-eabi/lib/thumb/v7e-m\libc.a(lib_a-fclose.o)
 .ARM.attributes
                0x00000ce5       0x2e c:/program files (x86)/atmel/studio/7.0/toolchain/arm/arm-gnu-toolchain/bin/../lib/gcc/arm-none-eabi/6.3.1/../../../../arm-none-eabi/lib/thumb/v7e-m\libc.a(lib_a-fstatr.o)
 .ARM.attributes
                0x00000d13       0x2e c:/program files (x86)/atmel/studio/7.0/toolchain/arm/arm-gnu-toolchain/bin/../lib/gcc/arm-none-eabi/6.3.1/../../../../arm-none-eabi/lib/thumb/v7e-m\libc.a(lib_a-isattyr.o)
 .ARM.attributes
                0x00000d41       0x2e c:/program files (x86)/atmel/studio/7.0/toolchain/arm/arm-gnu-toolchain/bin/../lib/gcc/arm-none-eabi/6.3.1/../../../../arm-none-eabi/lib/thumb/v7e-m\libc.a(lib_a-lseekr.o)
 .ARM.attributes
                0x00000d6f       0x2e c:/program files (x86)/atmel/studio/7.0/toolchain/arm/arm-gnu-toolchain/bin/../lib/gcc/arm-none-eabi/6.3.1/../../../../arm-none-eabi/lib/thumb/v7e-m\libc.a(lib_a-readr.o)
 .ARM.attributes
                0x00000d9d       0x2e c:/program files (x86)/atmel/studio/7.0/toolchain/arm/arm-gnu-toolchain/bin/../lib/gcc/arm-none-eabi/6.3.1/../../../../arm-none-eabi/lib/thumb/v7e-m\libc.a(lib_a-reent.o)
 .ARM.attributes
                0x00000dcb       0x1e c:/program files (x86)/atmel/studio/7.0/toolchain/arm/arm-gnu-toolchain/bin/../lib/gcc/arm-none-eabi/6.3.1/thumb/v7e-m\libgcc.a(_aeabi_uldivmod.o)
 .ARM.attributes
                0x00000de9       0x2e c:/program files (x86)/atmel/studio/7.0/toolchain/arm/arm-gnu-toolchain/bin/../lib/gcc/arm-none-eabi/6.3.1/thumb/v7e-m\libgcc.a(_udivmoddi4.o)
 .ARM.attributes
                0x00000e17       0x1e c:/program files (x86)/atmel/studio/7.0/toolchain/arm/arm-gnu-toolchain/bin/../lib/gcc/arm-none-eabi/6.3.1/thumb/v7e-m\libgcc.a(_dvmd_tls.o)
 .ARM.attributes
                0x00000e35       0x1e c:/program files (x86)/atmel/studio/7.0/toolchain/arm/arm-gnu-toolchain/bin/../lib/gcc/arm-none-eabi/6.3.1/thumb/v7e-m/crtn.o

.comment        0x00000000       0x59
 .comment       0x00000000       0x59 src/ASF/common/components/wifi/winc1500/bsp/source/nm_bsp_same70.o
                                 0x5a (size before relaxing)
 .comment       0x00000059       0x5a src/ASF/common/components/wifi/winc1500/bus_wrapper/source/nm_bus_wrapper_same70.o
 .comment       0x00000059       0x5a src/ASF/common/components/wifi/winc1500/common/source/nm_common.o
 .comment       0x00000059       0x5a src/ASF/common/components/wifi/winc1500/driver/source/m2m_hif.o
 .comment       0x00000059       0x5a src/ASF/common/components/wifi/winc1500/driver/source/m2m_wifi.o
 .comment       0x00000059       0x5a src/ASF/common/components/wifi/winc1500/driver/source/nmasic.o
 .comment       0x00000059       0x5a src/ASF/common/components/wifi/winc1500/driver/source/nmbus.o
 .comment       0x00000059       0x5a src/ASF/common/components/wifi/winc1500/driver/source/nmdrv.o
 .comment       0x00000059       0x5a src/ASF/common/components/wifi/winc1500/driver/source/nmspi.o
 .comment       0x00000059       0x5a src/ASF/common/components/wifi/winc1500/socket/source/socket.o
 .comment       0x00000059       0x5a src/ASF/common/components/wifi/winc1500/spi_flash/source/spi_flash.o
 .comment       0x00000059       0x5a src/ASF/common/services/clock/same70/sysclk.o
 .comment       0x00000059       0x5a src/ASF/common/services/delay/sam/cycle_counter.o
 .comment       0x00000059       0x5a src/ASF/common/utils/interrupt/interrupt_sam_nvic.o
 .comment       0x00000059       0x5a src/ASF/common/utils/stdio/read.o
 .comment       0x00000059       0x5a src/ASF/common/utils/stdio/write.o
 .comment       0x00000059       0x5a src/ASF/sam/boards/same70_xplained/init.o
 .comment       0x00000059       0x5a src/ASF/sam/drivers/pio/pio.o
 .comment       0x00000059       0x5a src/ASF/sam/drivers/pio/pio_handler.o
 .comment       0x00000059       0x5a src/ASF/sam/drivers/pmc/pmc.o
 .comment       0x00000059       0x5a src/ASF/sam/drivers/spi/spi.o
 .comment       0x00000059       0x5a src/ASF/sam/drivers/uart/uart.o
 .comment       0x00000059       0x5a src/ASF/sam/drivers/usart/usart.o
 .comment       0x00000059       0x5a src/ASF/sam/utils/cmsis/same70/source/templates/gcc/startup_same70.o
 .comment       0x00000059       0x5a src/ASF/sam/utils/cmsis/same70/source/templates/system_same70.o
 .comment       0x00000059       0x5a src/ASF/sam/utils/syscalls/gcc/syscalls.o
 .comment       0x00000059       0x5a src/main.o

.debug_info     0x00000000    0x291e8
 .debug_info    0x00000000     0x1c52 src/ASF/common/components/wifi/winc1500/bsp/source/nm_bsp_same70.o
 .debug_info    0x00001c52     0x1cb6 src/ASF/common/components/wifi/winc1500/bus_wrapper/source/nm_bus_wrapper_same70.o
 .debug_info    0x00003908      0xcb5 src/ASF/common/components/wifi/winc1500/common/source/nm_common.o
 .debug_info    0x000045bd     0x19a2 src/ASF/common/components/wifi/winc1500/driver/source/m2m_hif.o
 .debug_info    0x00005f5f     0x43ce src/ASF/common/components/wifi/winc1500/driver/source/m2m_wifi.o
 .debug_info    0x0000a32d     0x1fbb src/ASF/common/components/wifi/winc1500/driver/source/nmasic.o
 .debug_info    0x0000c2e8      0xf14 src/ASF/common/components/wifi/winc1500/driver/source/nmbus.o
 .debug_info    0x0000d1fc     0x13ca src/ASF/common/components/wifi/winc1500/driver/source/nmdrv.o
 .debug_info    0x0000e5c6     0x210d src/ASF/common/components/wifi/winc1500/driver/source/nmspi.o
 .debug_info    0x000106d3     0x299a src/ASF/common/components/wifi/winc1500/socket/source/socket.o
 .debug_info    0x0001306d     0x1c5b src/ASF/common/components/wifi/winc1500/spi_flash/source/spi_flash.o
 .debug_info    0x00014cc8     0x1267 src/ASF/common/services/clock/same70/sysclk.o
 .debug_info    0x00015f2f      0xa45 src/ASF/common/services/delay/sam/cycle_counter.o
 .debug_info    0x00016974      0xb01 src/ASF/common/utils/interrupt/interrupt_sam_nvic.o
 .debug_info    0x00017475      0xac9 src/ASF/common/utils/stdio/read.o
 .debug_info    0x00017f3e      0xac6 src/ASF/common/utils/stdio/write.o
 .debug_info    0x00018a04     0x201f src/ASF/sam/boards/same70_xplained/init.o
 .debug_info    0x0001aa23     0x2150 src/ASF/sam/drivers/pio/pio.o
 .debug_info    0x0001cb73     0x1b22 src/ASF/sam/drivers/pio/pio_handler.o
 .debug_info    0x0001e695     0x1dd6 src/ASF/sam/drivers/pmc/pmc.o
 .debug_info    0x0002046b     0x115d src/ASF/sam/drivers/spi/spi.o
 .debug_info    0x000215c8     0x103b src/ASF/sam/drivers/uart/uart.o
 .debug_info    0x00022603     0x2324 src/ASF/sam/drivers/usart/usart.o
 .debug_info    0x00024927     0x156a src/ASF/sam/utils/cmsis/same70/source/templates/gcc/startup_same70.o
 .debug_info    0x00025e91      0x55b src/ASF/sam/utils/cmsis/same70/source/templates/system_same70.o
 .debug_info    0x000263ec      0xdb0 src/ASF/sam/utils/syscalls/gcc/syscalls.o
 .debug_info    0x0002719c     0x204c src/main.o

.debug_abbrev   0x00000000     0x53b8
 .debug_abbrev  0x00000000      0x381 src/ASF/common/components/wifi/winc1500/bsp/source/nm_bsp_same70.o
 .debug_abbrev  0x00000381      0x3e7 src/ASF/common/components/wifi/winc1500/bus_wrapper/source/nm_bus_wrapper_same70.o
 .debug_abbrev  0x00000768      0x27d src/ASF/common/components/wifi/winc1500/common/source/nm_common.o
 .debug_abbrev  0x000009e5      0x42d src/ASF/common/components/wifi/winc1500/driver/source/m2m_hif.o
 .debug_abbrev  0x00000e12      0x39a src/ASF/common/components/wifi/winc1500/driver/source/m2m_wifi.o
 .debug_abbrev  0x000011ac      0x38a src/ASF/common/components/wifi/winc1500/driver/source/nmasic.o
 .debug_abbrev  0x00001536      0x2bb src/ASF/common/components/wifi/winc1500/driver/source/nmbus.o
 .debug_abbrev  0x000017f1      0x2ca src/ASF/common/components/wifi/winc1500/driver/source/nmdrv.o
 .debug_abbrev  0x00001abb      0x40a src/ASF/common/components/wifi/winc1500/driver/source/nmspi.o
 .debug_abbrev  0x00001ec5      0x3b8 src/ASF/common/components/wifi/winc1500/socket/source/socket.o
 .debug_abbrev  0x0000227d      0x3e9 src/ASF/common/components/wifi/winc1500/spi_flash/source/spi_flash.o
 .debug_abbrev  0x00002666      0x31f src/ASF/common/services/clock/same70/sysclk.o
 .debug_abbrev  0x00002985      0x1b3 src/ASF/common/services/delay/sam/cycle_counter.o
 .debug_abbrev  0x00002b38      0x212 src/ASF/common/utils/interrupt/interrupt_sam_nvic.o
 .debug_abbrev  0x00002d4a      0x1fe src/ASF/common/utils/stdio/read.o
 .debug_abbrev  0x00002f48      0x1e9 src/ASF/common/utils/stdio/write.o
 .debug_abbrev  0x00003131      0x368 src/ASF/sam/boards/same70_xplained/init.o
 .debug_abbrev  0x00003499      0x410 src/ASF/sam/drivers/pio/pio.o
 .debug_abbrev  0x000038a9      0x32f src/ASF/sam/drivers/pio/pio_handler.o
 .debug_abbrev  0x00003bd8      0x369 src/ASF/sam/drivers/pmc/pmc.o
 .debug_abbrev  0x00003f41      0x3a5 src/ASF/sam/drivers/spi/spi.o
 .debug_abbrev  0x000042e6      0x26e src/ASF/sam/drivers/uart/uart.o
 .debug_abbrev  0x00004554      0x3bd src/ASF/sam/drivers/usart/usart.o
 .debug_abbrev  0x00004911      0x2e4 src/ASF/sam/utils/cmsis/same70/source/templates/gcc/startup_same70.o
 .debug_abbrev  0x00004bf5      0x102 src/ASF/sam/utils/cmsis/same70/source/templates/system_same70.o
 .debug_abbrev  0x00004cf7      0x264 src/ASF/sam/utils/syscalls/gcc/syscalls.o
 .debug_abbrev  0x00004f5b      0x45d src/main.o

.debug_loc      0x00000000     0xdaa1
 .debug_loc     0x00000000      0x3fc src/ASF/common/components/wifi/winc1500/bsp/source/nm_bsp_same70.o
 .debug_loc     0x000003fc      0x4ab src/ASF/common/components/wifi/winc1500/bus_wrapper/source/nm_bus_wrapper_same70.o
 .debug_loc     0x000008a7      0x5b3 src/ASF/common/components/wifi/winc1500/common/source/nm_common.o
 .debug_loc     0x00000e5a      0x90b src/ASF/common/components/wifi/winc1500/driver/source/m2m_hif.o
 .debug_loc     0x00001765     0x214a src/ASF/common/components/wifi/winc1500/driver/source/m2m_wifi.o
 .debug_loc     0x000038af      0xd05 src/ASF/common/components/wifi/winc1500/driver/source/nmasic.o
 .debug_loc     0x000045b4      0x539 src/ASF/common/components/wifi/winc1500/driver/source/nmbus.o
 .debug_loc     0x00004aed      0x6c9 src/ASF/common/components/wifi/winc1500/driver/source/nmdrv.o
 .debug_loc     0x000051b6     0x11cd src/ASF/common/components/wifi/winc1500/driver/source/nmspi.o
 .debug_loc     0x00006383     0x20e7 src/ASF/common/components/wifi/winc1500/socket/source/socket.o
 .debug_loc     0x0000846a      0xcb4 src/ASF/common/components/wifi/winc1500/spi_flash/source/spi_flash.o
 .debug_loc     0x0000911e      0x183 src/ASF/common/services/clock/same70/sysclk.o
 .debug_loc     0x000092a1       0xb3 src/ASF/common/utils/stdio/read.o
 .debug_loc     0x00009354      0x12b src/ASF/common/utils/stdio/write.o
 .debug_loc     0x0000947f      0x261 src/ASF/sam/boards/same70_xplained/init.o
 .debug_loc     0x000096e0      0xea4 src/ASF/sam/drivers/pio/pio.o
 .debug_loc     0x0000a584      0x588 src/ASF/sam/drivers/pio/pio_handler.o
 .debug_loc     0x0000ab0c      0xce3 src/ASF/sam/drivers/pmc/pmc.o
 .debug_loc     0x0000b7ef      0x610 src/ASF/sam/drivers/spi/spi.o
 .debug_loc     0x0000bdff      0x2a3 src/ASF/sam/drivers/uart/uart.o
 .debug_loc     0x0000c0a2      0xf35 src/ASF/sam/drivers/usart/usart.o
 .debug_loc     0x0000cfd7       0x77 src/ASF/sam/utils/cmsis/same70/source/templates/gcc/startup_same70.o
 .debug_loc     0x0000d04e       0xfd src/ASF/sam/utils/syscalls/gcc/syscalls.o
 .debug_loc     0x0000d14b      0x956 src/main.o

.debug_aranges  0x00000000     0x1060
 .debug_aranges
                0x00000000       0x48 src/ASF/common/components/wifi/winc1500/bsp/source/nm_bsp_same70.o
 .debug_aranges
                0x00000048       0x30 src/ASF/common/components/wifi/winc1500/bus_wrapper/source/nm_bus_wrapper_same70.o
 .debug_aranges
                0x00000078       0x50 src/ASF/common/components/wifi/winc1500/common/source/nm_common.o
 .debug_aranges
                0x000000c8       0x80 src/ASF/common/components/wifi/winc1500/driver/source/m2m_hif.o
 .debug_aranges
                0x00000148      0x1a8 src/ASF/common/components/wifi/winc1500/driver/source/m2m_wifi.o
 .debug_aranges
                0x000002f0       0xd0 src/ASF/common/components/wifi/winc1500/driver/source/nmasic.o
 .debug_aranges
                0x000003c0       0x58 src/ASF/common/components/wifi/winc1500/driver/source/nmbus.o
 .debug_aranges
                0x00000418       0x48 src/ASF/common/components/wifi/winc1500/driver/source/nmdrv.o
 .debug_aranges
                0x00000460       0x88 src/ASF/common/components/wifi/winc1500/driver/source/nmspi.o
 .debug_aranges
                0x000004e8       0xc0 src/ASF/common/components/wifi/winc1500/socket/source/socket.o
 .debug_aranges
                0x000005a8       0x60 src/ASF/common/components/wifi/winc1500/spi_flash/source/spi_flash.o
 .debug_aranges
                0x00000608       0x40 src/ASF/common/services/clock/same70/sysclk.o
 .debug_aranges
                0x00000648       0x20 src/ASF/common/services/delay/sam/cycle_counter.o
 .debug_aranges
                0x00000668       0x28 src/ASF/common/utils/interrupt/interrupt_sam_nvic.o
 .debug_aranges
                0x00000690       0x20 src/ASF/common/utils/stdio/read.o
 .debug_aranges
                0x000006b0       0x20 src/ASF/common/utils/stdio/write.o
 .debug_aranges
                0x000006d0       0x20 src/ASF/sam/boards/same70_xplained/init.o
 .debug_aranges
                0x000006f0      0x1a8 src/ASF/sam/drivers/pio/pio.o
 .debug_aranges
                0x00000898       0x60 src/ASF/sam/drivers/pio/pio_handler.o
 .debug_aranges
                0x000008f8      0x250 src/ASF/sam/drivers/pmc/pmc.o
 .debug_aranges
                0x00000b48       0x90 src/ASF/sam/drivers/spi/spi.o
 .debug_aranges
                0x00000bd8       0xd8 src/ASF/sam/drivers/uart/uart.o
 .debug_aranges
                0x00000cb0      0x2a8 src/ASF/sam/drivers/usart/usart.o
 .debug_aranges
                0x00000f58       0x28 src/ASF/sam/utils/cmsis/same70/source/templates/gcc/startup_same70.o
 .debug_aranges
                0x00000f80       0x30 src/ASF/sam/utils/cmsis/same70/source/templates/system_same70.o
 .debug_aranges
                0x00000fb0       0x60 src/ASF/sam/utils/syscalls/gcc/syscalls.o
 .debug_aranges
                0x00001010       0x50 src/main.o

.debug_ranges   0x00000000     0x1258
 .debug_ranges  0x00000000       0x38 src/ASF/common/components/wifi/winc1500/bsp/source/nm_bsp_same70.o
 .debug_ranges  0x00000038       0x50 src/ASF/common/components/wifi/winc1500/bus_wrapper/source/nm_bus_wrapper_same70.o
 .debug_ranges  0x00000088       0x58 src/ASF/common/components/wifi/winc1500/common/source/nm_common.o
 .debug_ranges  0x000000e0      0x108 src/ASF/common/components/wifi/winc1500/driver/source/m2m_hif.o
 .debug_ranges  0x000001e8      0x1f8 src/ASF/common/components/wifi/winc1500/driver/source/m2m_wifi.o
 .debug_ranges  0x000003e0       0xd8 src/ASF/common/components/wifi/winc1500/driver/source/nmasic.o
 .debug_ranges  0x000004b8       0x48 src/ASF/common/components/wifi/winc1500/driver/source/nmbus.o
 .debug_ranges  0x00000500       0x38 src/ASF/common/components/wifi/winc1500/driver/source/nmdrv.o
 .debug_ranges  0x00000538       0xc8 src/ASF/common/components/wifi/winc1500/driver/source/nmspi.o
 .debug_ranges  0x00000600      0x158 src/ASF/common/components/wifi/winc1500/socket/source/socket.o
 .debug_ranges  0x00000758       0x68 src/ASF/common/components/wifi/winc1500/spi_flash/source/spi_flash.o
 .debug_ranges  0x000007c0       0x30 src/ASF/common/services/clock/same70/sysclk.o
 .debug_ranges  0x000007f0       0x10 src/ASF/common/services/delay/sam/cycle_counter.o
 .debug_ranges  0x00000800       0x18 src/ASF/common/utils/interrupt/interrupt_sam_nvic.o
 .debug_ranges  0x00000818       0x10 src/ASF/common/utils/stdio/read.o
 .debug_ranges  0x00000828       0x10 src/ASF/common/utils/stdio/write.o
 .debug_ranges  0x00000838       0x10 src/ASF/sam/boards/same70_xplained/init.o
 .debug_ranges  0x00000848      0x2a0 src/ASF/sam/drivers/pio/pio.o
 .debug_ranges  0x00000ae8       0x68 src/ASF/sam/drivers/pio/pio_handler.o
 .debug_ranges  0x00000b50      0x240 src/ASF/sam/drivers/pmc/pmc.o
 .debug_ranges  0x00000d90       0x80 src/ASF/sam/drivers/spi/spi.o
 .debug_ranges  0x00000e10       0xc8 src/ASF/sam/drivers/uart/uart.o
 .debug_ranges  0x00000ed8      0x298 src/ASF/sam/drivers/usart/usart.o
 .debug_ranges  0x00001170       0x18 src/ASF/sam/utils/cmsis/same70/source/templates/gcc/startup_same70.o
 .debug_ranges  0x00001188       0x20 src/ASF/sam/utils/cmsis/same70/source/templates/system_same70.o
 .debug_ranges  0x000011a8       0x50 src/ASF/sam/utils/syscalls/gcc/syscalls.o
 .debug_ranges  0x000011f8       0x60 src/main.o

.debug_macro    0x00000000    0x249f0
 .debug_macro   0x00000000      0x82c src/ASF/common/components/wifi/winc1500/bsp/source/nm_bsp_same70.o
 .debug_macro   0x0000082c      0x8ce src/ASF/common/components/wifi/winc1500/bsp/source/nm_bsp_same70.o
 .debug_macro   0x000010fa       0x30 src/ASF/common/components/wifi/winc1500/bsp/source/nm_bsp_same70.o
 .debug_macro   0x0000112a      0x16d src/ASF/common/components/wifi/winc1500/bsp/source/nm_bsp_same70.o
 .debug_macro   0x00001297      0x652 src/ASF/common/components/wifi/winc1500/bsp/source/nm_bsp_same70.o
 .debug_macro   0x000018e9       0x76 src/ASF/common/components/wifi/winc1500/bsp/source/nm_bsp_same70.o
 .debug_macro   0x0000195f       0x16 src/ASF/common/components/wifi/winc1500/bsp/source/nm_bsp_same70.o
 .debug_macro   0x00001975      0x6e4 src/ASF/common/components/wifi/winc1500/bsp/source/nm_bsp_same70.o
 .debug_macro   0x00002059       0x22 src/ASF/common/components/wifi/winc1500/bsp/source/nm_bsp_same70.o
 .debug_macro   0x0000207b       0x87 src/ASF/common/components/wifi/winc1500/bsp/source/nm_bsp_same70.o
 .debug_macro   0x00002102       0x51 src/ASF/common/components/wifi/winc1500/bsp/source/nm_bsp_same70.o
 .debug_macro   0x00002153       0xef src/ASF/common/components/wifi/winc1500/bsp/source/nm_bsp_same70.o
 .debug_macro   0x00002242       0x6a src/ASF/common/components/wifi/winc1500/bsp/source/nm_bsp_same70.o
 .debug_macro   0x000022ac      0x1df src/ASF/common/components/wifi/winc1500/bsp/source/nm_bsp_same70.o
 .debug_macro   0x0000248b       0x4a src/ASF/common/components/wifi/winc1500/bsp/source/nm_bsp_same70.o
 .debug_macro   0x000024d5       0x3b src/ASF/common/components/wifi/winc1500/bsp/source/nm_bsp_same70.o
 .debug_macro   0x00002510       0x2d src/ASF/common/components/wifi/winc1500/bsp/source/nm_bsp_same70.o
 .debug_macro   0x0000253d       0x26 src/ASF/common/components/wifi/winc1500/bsp/source/nm_bsp_same70.o
 .debug_macro   0x00002563      0xf9a src/ASF/common/components/wifi/winc1500/bsp/source/nm_bsp_same70.o
 .debug_macro   0x000034fd      0x175 src/ASF/common/components/wifi/winc1500/bsp/source/nm_bsp_same70.o
 .debug_macro   0x00003672      0x257 src/ASF/common/components/wifi/winc1500/bsp/source/nm_bsp_same70.o
 .debug_macro   0x000038c9      0xa0f src/ASF/common/components/wifi/winc1500/bsp/source/nm_bsp_same70.o
 .debug_macro   0x000042d8      0x1b9 src/ASF/common/components/wifi/winc1500/bsp/source/nm_bsp_same70.o
 .debug_macro   0x00004491      0x336 src/ASF/common/components/wifi/winc1500/bsp/source/nm_bsp_same70.o
 .debug_macro   0x000047c7      0x15b src/ASF/common/components/wifi/winc1500/bsp/source/nm_bsp_same70.o
 .debug_macro   0x00004922     0x1851 src/ASF/common/components/wifi/winc1500/bsp/source/nm_bsp_same70.o
 .debug_macro   0x00006173       0x1c src/ASF/common/components/wifi/winc1500/bsp/source/nm_bsp_same70.o
 .debug_macro   0x0000618f      0x68d src/ASF/common/components/wifi/winc1500/bsp/source/nm_bsp_same70.o
 .debug_macro   0x0000681c      0x31e src/ASF/common/components/wifi/winc1500/bsp/source/nm_bsp_same70.o
 .debug_macro   0x00006b3a      0x4d4 src/ASF/common/components/wifi/winc1500/bsp/source/nm_bsp_same70.o
 .debug_macro   0x0000700e      0x56e src/ASF/common/components/wifi/winc1500/bsp/source/nm_bsp_same70.o
 .debug_macro   0x0000757c     0x1332 src/ASF/common/components/wifi/winc1500/bsp/source/nm_bsp_same70.o
 .debug_macro   0x000088ae     0x278d src/ASF/common/components/wifi/winc1500/bsp/source/nm_bsp_same70.o
 .debug_macro   0x0000b03b     0x102b src/ASF/common/components/wifi/winc1500/bsp/source/nm_bsp_same70.o
 .debug_macro   0x0000c066      0xe01 src/ASF/common/components/wifi/winc1500/bsp/source/nm_bsp_same70.o
 .debug_macro   0x0000ce67      0x3b1 src/ASF/common/components/wifi/winc1500/bsp/source/nm_bsp_same70.o
 .debug_macro   0x0000d218       0xa0 src/ASF/common/components/wifi/winc1500/bsp/source/nm_bsp_same70.o
 .debug_macro   0x0000d2b8       0x76 src/ASF/common/components/wifi/winc1500/bsp/source/nm_bsp_same70.o
 .debug_macro   0x0000d32e      0x409 src/ASF/common/components/wifi/winc1500/bsp/source/nm_bsp_same70.o
 .debug_macro   0x0000d737       0x64 src/ASF/common/components/wifi/winc1500/bsp/source/nm_bsp_same70.o
 .debug_macro   0x0000d79b      0x284 src/ASF/common/components/wifi/winc1500/bsp/source/nm_bsp_same70.o
 .debug_macro   0x0000da1f      0x1d0 src/ASF/common/components/wifi/winc1500/bsp/source/nm_bsp_same70.o
 .debug_macro   0x0000dbef      0x248 src/ASF/common/components/wifi/winc1500/bsp/source/nm_bsp_same70.o
 .debug_macro   0x0000de37      0x524 src/ASF/common/components/wifi/winc1500/bsp/source/nm_bsp_same70.o
 .debug_macro   0x0000e35b      0x63b src/ASF/common/components/wifi/winc1500/bsp/source/nm_bsp_same70.o
 .debug_macro   0x0000e996      0x6b8 src/ASF/common/components/wifi/winc1500/bsp/source/nm_bsp_same70.o
 .debug_macro   0x0000f04e       0x4c src/ASF/common/components/wifi/winc1500/bsp/source/nm_bsp_same70.o
 .debug_macro   0x0000f09a      0x468 src/ASF/common/components/wifi/winc1500/bsp/source/nm_bsp_same70.o
 .debug_macro   0x0000f502      0x207 src/ASF/common/components/wifi/winc1500/bsp/source/nm_bsp_same70.o
 .debug_macro   0x0000f709      0x866 src/ASF/common/components/wifi/winc1500/bsp/source/nm_bsp_same70.o
 .debug_macro   0x0000ff6f     0x1547 src/ASF/common/components/wifi/winc1500/bsp/source/nm_bsp_same70.o
 .debug_macro   0x000114b6       0x40 src/ASF/common/components/wifi/winc1500/bsp/source/nm_bsp_same70.o
 .debug_macro   0x000114f6       0x76 src/ASF/common/components/wifi/winc1500/bsp/source/nm_bsp_same70.o
 .debug_macro   0x0001156c      0xdaf src/ASF/common/components/wifi/winc1500/bsp/source/nm_bsp_same70.o
 .debug_macro   0x0001231b       0x82 src/ASF/common/components/wifi/winc1500/bsp/source/nm_bsp_same70.o
 .debug_macro   0x0001239d       0x76 src/ASF/common/components/wifi/winc1500/bsp/source/nm_bsp_same70.o
 .debug_macro   0x00012413       0x4c src/ASF/common/components/wifi/winc1500/bsp/source/nm_bsp_same70.o
 .debug_macro   0x0001245f      0x135 src/ASF/common/components/wifi/winc1500/bsp/source/nm_bsp_same70.o
 .debug_macro   0x00012594      0x135 src/ASF/common/components/wifi/winc1500/bsp/source/nm_bsp_same70.o
 .debug_macro   0x000126c9      0x135 src/ASF/common/components/wifi/winc1500/bsp/source/nm_bsp_same70.o
 .debug_macro   0x000127fe       0x6a src/ASF/common/components/wifi/winc1500/bsp/source/nm_bsp_same70.o
 .debug_macro   0x00012868       0x6a src/ASF/common/components/wifi/winc1500/bsp/source/nm_bsp_same70.o
 .debug_macro   0x000128d2      0x313 src/ASF/common/components/wifi/winc1500/bsp/source/nm_bsp_same70.o
 .debug_macro   0x00012be5       0xb2 src/ASF/common/components/wifi/winc1500/bsp/source/nm_bsp_same70.o
 .debug_macro   0x00012c97       0xb2 src/ASF/common/components/wifi/winc1500/bsp/source/nm_bsp_same70.o
 .debug_macro   0x00012d49       0xb2 src/ASF/common/components/wifi/winc1500/bsp/source/nm_bsp_same70.o
 .debug_macro   0x00012dfb      0x11d src/ASF/common/components/wifi/winc1500/bsp/source/nm_bsp_same70.o
 .debug_macro   0x00012f18      0x11d src/ASF/common/components/wifi/winc1500/bsp/source/nm_bsp_same70.o
 .debug_macro   0x00013035      0x2cd src/ASF/common/components/wifi/winc1500/bsp/source/nm_bsp_same70.o
 .debug_macro   0x00013302       0xb8 src/ASF/common/components/wifi/winc1500/bsp/source/nm_bsp_same70.o
 .debug_macro   0x000133ba       0x5e src/ASF/common/components/wifi/winc1500/bsp/source/nm_bsp_same70.o
 .debug_macro   0x00013418       0x40 src/ASF/common/components/wifi/winc1500/bsp/source/nm_bsp_same70.o
 .debug_macro   0x00013458       0x4c src/ASF/common/components/wifi/winc1500/bsp/source/nm_bsp_same70.o
 .debug_macro   0x000134a4       0xa0 src/ASF/common/components/wifi/winc1500/bsp/source/nm_bsp_same70.o
 .debug_macro   0x00013544      0x494 src/ASF/common/components/wifi/winc1500/bsp/source/nm_bsp_same70.o
 .debug_macro   0x000139d8      0x135 src/ASF/common/components/wifi/winc1500/bsp/source/nm_bsp_same70.o
 .debug_macro   0x00013b0d       0x4c src/ASF/common/components/wifi/winc1500/bsp/source/nm_bsp_same70.o
 .debug_macro   0x00013b59      0x313 src/ASF/common/components/wifi/winc1500/bsp/source/nm_bsp_same70.o
 .debug_macro   0x00013e6c       0x6a src/ASF/common/components/wifi/winc1500/bsp/source/nm_bsp_same70.o
 .debug_macro   0x00013ed6       0xb8 src/ASF/common/components/wifi/winc1500/bsp/source/nm_bsp_same70.o
 .debug_macro   0x00013f8e       0x6a src/ASF/common/components/wifi/winc1500/bsp/source/nm_bsp_same70.o
 .debug_macro   0x00013ff8       0x2e src/ASF/common/components/wifi/winc1500/bsp/source/nm_bsp_same70.o
 .debug_macro   0x00014026      0x9b1 src/ASF/common/components/wifi/winc1500/bsp/source/nm_bsp_same70.o
 .debug_macro   0x000149d7       0x6a src/ASF/common/components/wifi/winc1500/bsp/source/nm_bsp_same70.o
 .debug_macro   0x00014a41       0x88 src/ASF/common/components/wifi/winc1500/bsp/source/nm_bsp_same70.o
 .debug_macro   0x00014ac9       0x58 src/ASF/common/components/wifi/winc1500/bsp/source/nm_bsp_same70.o
 .debug_macro   0x00014b21       0xe2 src/ASF/common/components/wifi/winc1500/bsp/source/nm_bsp_same70.o
 .debug_macro   0x00014c03       0x16 src/ASF/common/components/wifi/winc1500/bsp/source/nm_bsp_same70.o
 .debug_macro   0x00014c19       0xe2 src/ASF/common/components/wifi/winc1500/bsp/source/nm_bsp_same70.o
 .debug_macro   0x00014cfb       0x4c src/ASF/common/components/wifi/winc1500/bsp/source/nm_bsp_same70.o
 .debug_macro   0x00014d47       0x16 src/ASF/common/components/wifi/winc1500/bsp/source/nm_bsp_same70.o
 .debug_macro   0x00014d5d       0x4c src/ASF/common/components/wifi/winc1500/bsp/source/nm_bsp_same70.o
 .debug_macro   0x00014da9       0x2e src/ASF/common/components/wifi/winc1500/bsp/source/nm_bsp_same70.o
 .debug_macro   0x00014dd7      0x1b5 src/ASF/common/components/wifi/winc1500/bsp/source/nm_bsp_same70.o
 .debug_macro   0x00014f8c      0x1b5 src/ASF/common/components/wifi/winc1500/bsp/source/nm_bsp_same70.o
 .debug_macro   0x00015141      0x1b5 src/ASF/common/components/wifi/winc1500/bsp/source/nm_bsp_same70.o
 .debug_macro   0x000152f6      0x1b5 src/ASF/common/components/wifi/winc1500/bsp/source/nm_bsp_same70.o
 .debug_macro   0x000154ab      0x1b5 src/ASF/common/components/wifi/winc1500/bsp/source/nm_bsp_same70.o
 .debug_macro   0x00015660       0x1c src/ASF/common/components/wifi/winc1500/bsp/source/nm_bsp_same70.o
 .debug_macro   0x0001567c       0x2e src/ASF/common/components/wifi/winc1500/bsp/source/nm_bsp_same70.o
 .debug_macro   0x000156aa       0x22 src/ASF/common/components/wifi/winc1500/bsp/source/nm_bsp_same70.o
 .debug_macro   0x000156cc       0x1c src/ASF/common/components/wifi/winc1500/bsp/source/nm_bsp_same70.o
 .debug_macro   0x000156e8       0x52 src/ASF/common/components/wifi/winc1500/bsp/source/nm_bsp_same70.o
 .debug_macro   0x0001573a       0x10 src/ASF/common/components/wifi/winc1500/bsp/source/nm_bsp_same70.o
 .debug_macro   0x0001574a       0x1c src/ASF/common/components/wifi/winc1500/bsp/source/nm_bsp_same70.o
 .debug_macro   0x00015766       0x4c src/ASF/common/components/wifi/winc1500/bsp/source/nm_bsp_same70.o
 .debug_macro   0x000157b2       0x4c src/ASF/common/components/wifi/winc1500/bsp/source/nm_bsp_same70.o
 .debug_macro   0x000157fe       0x4c src/ASF/common/components/wifi/winc1500/bsp/source/nm_bsp_same70.o
 .debug_macro   0x0001584a      0x31b src/ASF/common/components/wifi/winc1500/bsp/source/nm_bsp_same70.o
 .debug_macro   0x00015b65     0x1022 src/ASF/common/components/wifi/winc1500/bsp/source/nm_bsp_same70.o
 .debug_macro   0x00016b87      0x100 src/ASF/common/components/wifi/winc1500/bsp/source/nm_bsp_same70.o
 .debug_macro   0x00016c87       0x58 src/ASF/common/components/wifi/winc1500/bsp/source/nm_bsp_same70.o
 .debug_macro   0x00016cdf       0x35 src/ASF/common/components/wifi/winc1500/bsp/source/nm_bsp_same70.o
 .debug_macro   0x00016d14       0x9c src/ASF/common/components/wifi/winc1500/bsp/source/nm_bsp_same70.o
 .debug_macro   0x00016db0       0x16 src/ASF/common/components/wifi/winc1500/bsp/source/nm_bsp_same70.o
 .debug_macro   0x00016dc6       0x35 src/ASF/common/components/wifi/winc1500/bsp/source/nm_bsp_same70.o
 .debug_macro   0x00016dfb      0x353 src/ASF/common/components/wifi/winc1500/bsp/source/nm_bsp_same70.o
 .debug_macro   0x0001714e       0x10 src/ASF/common/components/wifi/winc1500/bsp/source/nm_bsp_same70.o
 .debug_macro   0x0001715e       0x58 src/ASF/common/components/wifi/winc1500/bsp/source/nm_bsp_same70.o
 .debug_macro   0x000171b6       0x1f src/ASF/common/components/wifi/winc1500/bsp/source/nm_bsp_same70.o
 .debug_macro   0x000171d5       0x43 src/ASF/common/components/wifi/winc1500/bsp/source/nm_bsp_same70.o
 .debug_macro   0x00017218       0x20 src/ASF/common/components/wifi/winc1500/bsp/source/nm_bsp_same70.o
 .debug_macro   0x00017238      0x187 src/ASF/common/components/wifi/winc1500/bsp/source/nm_bsp_same70.o
 .debug_macro   0x000173bf       0x10 src/ASF/common/components/wifi/winc1500/bsp/source/nm_bsp_same70.o
 .debug_macro   0x000173cf       0x1c src/ASF/common/components/wifi/winc1500/bsp/source/nm_bsp_same70.o
 .debug_macro   0x000173eb       0x52 src/ASF/common/components/wifi/winc1500/bsp/source/nm_bsp_same70.o
 .debug_macro   0x0001743d       0x40 src/ASF/common/components/wifi/winc1500/bsp/source/nm_bsp_same70.o
 .debug_macro   0x0001747d       0x10 src/ASF/common/components/wifi/winc1500/bsp/source/nm_bsp_same70.o
 .debug_macro   0x0001748d       0x40 src/ASF/common/components/wifi/winc1500/bsp/source/nm_bsp_same70.o
 .debug_macro   0x000174cd       0xd7 src/ASF/common/components/wifi/winc1500/bsp/source/nm_bsp_same70.o
 .debug_macro   0x000175a4       0x16 src/ASF/common/components/wifi/winc1500/bsp/source/nm_bsp_same70.o
 .debug_macro   0x000175ba      0x18b src/ASF/common/components/wifi/winc1500/bsp/source/nm_bsp_same70.o
 .debug_macro   0x00017745       0x22 src/ASF/common/components/wifi/winc1500/bsp/source/nm_bsp_same70.o
 .debug_macro   0x00017767       0x16 src/ASF/common/components/wifi/winc1500/bsp/source/nm_bsp_same70.o
 .debug_macro   0x0001777d       0x16 src/ASF/common/components/wifi/winc1500/bsp/source/nm_bsp_same70.o
 .debug_macro   0x00017793       0x29 src/ASF/common/components/wifi/winc1500/bsp/source/nm_bsp_same70.o
 .debug_macro   0x000177bc       0x75 src/ASF/common/components/wifi/winc1500/bsp/source/nm_bsp_same70.o
 .debug_macro   0x00017831       0x3f src/ASF/common/components/wifi/winc1500/bsp/source/nm_bsp_same70.o
 .debug_macro   0x00017870      0x3ca src/ASF/common/components/wifi/winc1500/bsp/source/nm_bsp_same70.o
 .debug_macro   0x00017c3a      0x2b9 src/ASF/common/components/wifi/winc1500/bsp/source/nm_bsp_same70.o
 .debug_macro   0x00017ef3      0x8d6 src/ASF/common/components/wifi/winc1500/bsp/source/nm_bsp_same70.o
 .debug_macro   0x000187c9       0xa6 src/ASF/common/components/wifi/winc1500/bsp/source/nm_bsp_same70.o
 .debug_macro   0x0001886f       0x16 src/ASF/common/components/wifi/winc1500/bsp/source/nm_bsp_same70.o
 .debug_macro   0x00018885       0x76 src/ASF/common/components/wifi/winc1500/bsp/source/nm_bsp_same70.o
 .debug_macro   0x000188fb      0x18e src/ASF/common/components/wifi/winc1500/bsp/source/nm_bsp_same70.o
 .debug_macro   0x00018a89       0x3a src/ASF/common/components/wifi/winc1500/bsp/source/nm_bsp_same70.o
 .debug_macro   0x00018ac3       0x70 src/ASF/common/components/wifi/winc1500/bsp/source/nm_bsp_same70.o
 .debug_macro   0x00018b33       0x64 src/ASF/common/components/wifi/winc1500/bsp/source/nm_bsp_same70.o
 .debug_macro   0x00018b97       0x5f src/ASF/common/components/wifi/winc1500/bsp/source/nm_bsp_same70.o
 .debug_macro   0x00018bf6       0xac src/ASF/common/components/wifi/winc1500/bsp/source/nm_bsp_same70.o
 .debug_macro   0x00018ca2       0x28 src/ASF/common/components/wifi/winc1500/bsp/source/nm_bsp_same70.o
 .debug_macro   0x00018cca       0x23 src/ASF/common/components/wifi/winc1500/bsp/source/nm_bsp_same70.o
 .debug_macro   0x00018ced       0x94 src/ASF/common/components/wifi/winc1500/bsp/source/nm_bsp_same70.o
 .debug_macro   0x00018d81       0x40 src/ASF/common/components/wifi/winc1500/bsp/source/nm_bsp_same70.o
 .debug_macro   0x00018dc1       0x88 src/ASF/common/components/wifi/winc1500/bsp/source/nm_bsp_same70.o
 .debug_macro   0x00018e49       0x10 src/ASF/common/components/wifi/winc1500/bsp/source/nm_bsp_same70.o
 .debug_macro   0x00018e59      0x1ce src/ASF/common/components/wifi/winc1500/bsp/source/nm_bsp_same70.o
 .debug_macro   0x00019027       0x34 src/ASF/common/components/wifi/winc1500/bsp/source/nm_bsp_same70.o
 .debug_macro   0x0001905b       0x16 src/ASF/common/components/wifi/winc1500/bsp/source/nm_bsp_same70.o
 .debug_macro   0x00019071       0x1c src/ASF/common/components/wifi/winc1500/bsp/source/nm_bsp_same70.o
 .debug_macro   0x0001908d       0x16 src/ASF/common/components/wifi/winc1500/bsp/source/nm_bsp_same70.o
 .debug_macro   0x000190a3       0x1c src/ASF/common/components/wifi/winc1500/bsp/source/nm_bsp_same70.o
 .debug_macro   0x000190bf       0x3a src/ASF/common/components/wifi/winc1500/bsp/source/nm_bsp_same70.o
 .debug_macro   0x000190f9       0x28 src/ASF/common/components/wifi/winc1500/bsp/source/nm_bsp_same70.o
 .debug_macro   0x00019121       0x4c src/ASF/common/components/wifi/winc1500/bsp/source/nm_bsp_same70.o
 .debug_macro   0x0001916d      0x840 src/ASF/common/components/wifi/winc1500/bus_wrapper/source/nm_bus_wrapper_same70.o
 .debug_macro   0x000199ad       0x52 src/ASF/common/components/wifi/winc1500/bus_wrapper/source/nm_bus_wrapper_same70.o
 .debug_macro   0x000199ff       0x8d src/ASF/common/components/wifi/winc1500/bus_wrapper/source/nm_bus_wrapper_same70.o
 .debug_macro   0x00019a8c       0x57 src/ASF/common/components/wifi/winc1500/bus_wrapper/source/nm_bus_wrapper_same70.o
 .debug_macro   0x00019ae3       0x97 src/ASF/common/components/wifi/winc1500/bus_wrapper/source/nm_bus_wrapper_same70.o
 .debug_macro   0x00019b7a       0xf6 src/ASF/common/components/wifi/winc1500/bus_wrapper/source/nm_bus_wrapper_same70.o
 .debug_macro   0x00019c70       0x2a src/ASF/common/components/wifi/winc1500/bus_wrapper/source/nm_bus_wrapper_same70.o
 .debug_macro   0x00019c9a       0x3a src/ASF/common/components/wifi/winc1500/bus_wrapper/source/nm_bus_wrapper_same70.o
 .debug_macro   0x00019cd4      0x6c6 src/ASF/common/components/wifi/winc1500/common/source/nm_common.o
 .debug_macro   0x0001a39a      0x73b src/ASF/common/components/wifi/winc1500/driver/source/m2m_hif.o
 .debug_macro   0x0001aad5      0x6fb src/ASF/common/components/wifi/winc1500/driver/source/m2m_wifi.o
 .debug_macro   0x0001b1d0      0x71a src/ASF/common/components/wifi/winc1500/driver/source/nmasic.o
 .debug_macro   0x0001b8ea      0x703 src/ASF/common/components/wifi/winc1500/driver/source/nmbus.o
 .debug_macro   0x0001bfed      0x71b src/ASF/common/components/wifi/winc1500/driver/source/nmdrv.o
 .debug_macro   0x0001c708      0x118 src/ASF/common/components/wifi/winc1500/driver/source/nmdrv.o
 .debug_macro   0x0001c820      0x7c0 src/ASF/common/components/wifi/winc1500/driver/source/nmspi.o
 .debug_macro   0x0001cfe0      0x760 src/ASF/common/components/wifi/winc1500/socket/source/socket.o
 .debug_macro   0x0001d740      0x113 src/ASF/common/components/wifi/winc1500/socket/source/socket.o
 .debug_macro   0x0001d853       0xa7 src/ASF/common/components/wifi/winc1500/socket/source/socket.o
 .debug_macro   0x0001d8fa      0x761 src/ASF/common/components/wifi/winc1500/spi_flash/source/spi_flash.o
 .debug_macro   0x0001e05b      0x6d1 src/ASF/common/services/clock/same70/sysclk.o
 .debug_macro   0x0001e72c      0x665 src/ASF/common/services/delay/sam/cycle_counter.o
 .debug_macro   0x0001ed91       0x22 src/ASF/common/services/delay/sam/cycle_counter.o
 .debug_macro   0x0001edb3      0x655 src/ASF/common/utils/interrupt/interrupt_sam_nvic.o
 .debug_macro   0x0001f408      0x655 src/ASF/common/utils/stdio/read.o
 .debug_macro   0x0001fa5d      0x655 src/ASF/common/utils/stdio/write.o
 .debug_macro   0x000200b2      0x70b src/ASF/sam/boards/same70_xplained/init.o
 .debug_macro   0x000207bd       0x22 src/ASF/sam/boards/same70_xplained/init.o
 .debug_macro   0x000207df       0x82 src/ASF/sam/boards/same70_xplained/init.o
 .debug_macro   0x00020861      0x66b src/ASF/sam/drivers/pio/pio.o
 .debug_macro   0x00020ecc       0x8e src/ASF/sam/drivers/pio/pio.o
 .debug_macro   0x00020f5a      0x676 src/ASF/sam/drivers/pio/pio_handler.o
 .debug_macro   0x000215d0      0x66b src/ASF/sam/drivers/pmc/pmc.o
 .debug_macro   0x00021c3b       0x6a src/ASF/sam/drivers/pmc/pmc.o
 .debug_macro   0x00021ca5      0x6d9 src/ASF/sam/drivers/spi/spi.o
 .debug_macro   0x0002237e       0x10 src/ASF/sam/drivers/spi/spi.o
 .debug_macro   0x0002238e      0x665 src/ASF/sam/drivers/uart/uart.o
 .debug_macro   0x000229f3       0x16 src/ASF/sam/drivers/uart/uart.o
 .debug_macro   0x00022a09      0x69b src/ASF/sam/drivers/usart/usart.o
 .debug_macro   0x000230a4       0x34 src/ASF/sam/drivers/usart/usart.o
 .debug_macro   0x000230d8      0x664 src/ASF/sam/utils/cmsis/same70/source/templates/gcc/startup_same70.o
 .debug_macro   0x0002373c       0x10 src/ASF/sam/utils/cmsis/same70/source/templates/gcc/startup_same70.o
 .debug_macro   0x0002374c      0x455 src/ASF/sam/utils/cmsis/same70/source/templates/system_same70.o
 .debug_macro   0x00023ba1      0x1d6 src/ASF/sam/utils/syscalls/gcc/syscalls.o
 .debug_macro   0x00023d77       0x4c src/ASF/sam/utils/syscalls/gcc/syscalls.o
 .debug_macro   0x00023dc3       0x16 src/ASF/sam/utils/syscalls/gcc/syscalls.o
 .debug_macro   0x00023dd9       0x10 src/ASF/sam/utils/syscalls/gcc/syscalls.o
 .debug_macro   0x00023de9       0x10 src/ASF/sam/utils/syscalls/gcc/syscalls.o
 .debug_macro   0x00023df9       0x35 src/ASF/sam/utils/syscalls/gcc/syscalls.o
 .debug_macro   0x00023e2e      0x122 src/ASF/sam/utils/syscalls/gcc/syscalls.o
 .debug_macro   0x00023f50      0x88b src/main.o
 .debug_macro   0x000247db       0xac src/main.o
 .debug_macro   0x00024887       0x3a src/main.o
 .debug_macro   0x000248c1       0x16 src/main.o
 .debug_macro   0x000248d7      0x119 src/main.o

.debug_line     0x00000000    0x1587f
 .debug_line    0x00000000     0x101e src/ASF/common/components/wifi/winc1500/bsp/source/nm_bsp_same70.o
 .debug_line    0x0000101e     0x108f src/ASF/common/components/wifi/winc1500/bus_wrapper/source/nm_bus_wrapper_same70.o
 .debug_line    0x000020ad      0xbdb src/ASF/common/components/wifi/winc1500/common/source/nm_common.o
 .debug_line    0x00002c88      0xe0d src/ASF/common/components/wifi/winc1500/driver/source/m2m_hif.o
 .debug_line    0x00003a95     0x10ac src/ASF/common/components/wifi/winc1500/driver/source/m2m_wifi.o
 .debug_line    0x00004b41      0xed5 src/ASF/common/components/wifi/winc1500/driver/source/nmasic.o
 .debug_line    0x00005a16      0xc4c src/ASF/common/components/wifi/winc1500/driver/source/nmbus.o
 .debug_line    0x00006662      0xd27 src/ASF/common/components/wifi/winc1500/driver/source/nmdrv.o
 .debug_line    0x00007389      0xddf src/ASF/common/components/wifi/winc1500/driver/source/nmspi.o
 .debug_line    0x00008168      0xfb4 src/ASF/common/components/wifi/winc1500/socket/source/socket.o
 .debug_line    0x0000911c      0xdbb src/ASF/common/components/wifi/winc1500/spi_flash/source/spi_flash.o
 .debug_line    0x00009ed7      0xb4f src/ASF/common/services/clock/same70/sysclk.o
 .debug_line    0x0000aa26      0x9ed src/ASF/common/services/delay/sam/cycle_counter.o
 .debug_line    0x0000b413      0xa01 src/ASF/common/utils/interrupt/interrupt_sam_nvic.o
 .debug_line    0x0000be14      0x9e7 src/ASF/common/utils/stdio/read.o
 .debug_line    0x0000c7fb      0x9df src/ASF/common/utils/stdio/write.o
 .debug_line    0x0000d1da      0xc30 src/ASF/sam/boards/same70_xplained/init.o
 .debug_line    0x0000de0a      0xee3 src/ASF/sam/drivers/pio/pio.o
 .debug_line    0x0000eced      0xabf src/ASF/sam/drivers/pio/pio_handler.o
 .debug_line    0x0000f7ac     0x1064 src/ASF/sam/drivers/pmc/pmc.o
 .debug_line    0x00010810      0xc41 src/ASF/sam/drivers/spi/spi.o
 .debug_line    0x00011451      0xb79 src/ASF/sam/drivers/uart/uart.o
 .debug_line    0x00011fca     0x1076 src/ASF/sam/drivers/usart/usart.o
 .debug_line    0x00013040      0xa73 src/ASF/sam/utils/cmsis/same70/source/templates/gcc/startup_same70.o
 .debug_line    0x00013ab3      0x7e7 src/ASF/sam/utils/cmsis/same70/source/templates/system_same70.o
 .debug_line    0x0001429a      0x40c src/ASF/sam/utils/syscalls/gcc/syscalls.o
 .debug_line    0x000146a6     0x11d9 src/main.o

.debug_str      0x00000000    0x9207d
 .debug_str     0x00000000    0x886a5 src/ASF/common/components/wifi/winc1500/bsp/source/nm_bsp_same70.o
                              0x88e64 (size before relaxing)
 .debug_str     0x000886a5      0x4d7 src/ASF/common/components/wifi/winc1500/bus_wrapper/source/nm_bus_wrapper_same70.o
                              0x88de8 (size before relaxing)
 .debug_str     0x00088b7c       0xf2 src/ASF/common/components/wifi/winc1500/common/source/nm_common.o
                              0x85ddb (size before relaxing)
 .debug_str     0x00088c6e     0x15e2 src/ASF/common/components/wifi/winc1500/driver/source/m2m_hif.o
                              0x87476 (size before relaxing)
 .debug_str     0x0008a250     0x184f src/ASF/common/components/wifi/winc1500/driver/source/m2m_wifi.o
                              0x88984 (size before relaxing)
 .debug_str     0x0008ba9f      0x390 src/ASF/common/components/wifi/winc1500/driver/source/nmasic.o
                              0x87472 (size before relaxing)
 .debug_str     0x0008be2f      0x15b src/ASF/common/components/wifi/winc1500/driver/source/nmbus.o
                              0x85ffb (size before relaxing)
 .debug_str     0x0008bf8a      0x9e8 src/ASF/common/components/wifi/winc1500/driver/source/nmdrv.o
                              0x87c05 (size before relaxing)
 .debug_str     0x0008c972      0x4c8 src/ASF/common/components/wifi/winc1500/driver/source/nmspi.o
                              0x8649f (size before relaxing)
 .debug_str     0x0008ce3a     0x127f src/ASF/common/components/wifi/winc1500/socket/source/socket.o
                              0x87f60 (size before relaxing)
 .debug_str     0x0008e0b9      0x438 src/ASF/common/components/wifi/winc1500/spi_flash/source/spi_flash.o
                              0x870b9 (size before relaxing)
 .debug_str     0x0008e4f1      0x3ec src/ASF/common/services/clock/same70/sysclk.o
                              0x85e6e (size before relaxing)
 .debug_str     0x0008e8dd       0x35 src/ASF/common/services/delay/sam/cycle_counter.o
                              0x81fef (size before relaxing)
 .debug_str     0x0008e912       0x94 src/ASF/common/utils/interrupt/interrupt_sam_nvic.o
                              0x81ebf (size before relaxing)
 .debug_str     0x0008e9a6       0x2c src/ASF/common/utils/stdio/read.o
                              0x81e68 (size before relaxing)
 .debug_str     0x0008e9d2       0x26 src/ASF/common/utils/stdio/write.o
                              0x81e69 (size before relaxing)
 .debug_str     0x0008e9f8      0x603 src/ASF/sam/boards/same70_xplained/init.o
                              0x86a93 (size before relaxing)
 .debug_str     0x0008effb      0x585 src/ASF/sam/drivers/pio/pio.o
                              0x82a15 (size before relaxing)
 .debug_str     0x0008f580      0x10e src/ASF/sam/drivers/pio/pio_handler.o
                              0x82b37 (size before relaxing)
 .debug_str     0x0008f68e      0x6ac src/ASF/sam/drivers/pmc/pmc.o
                              0x82b6a (size before relaxing)
 .debug_str     0x0008fd3a      0x251 src/ASF/sam/drivers/spi/spi.o
                              0x85dea (size before relaxing)
 .debug_str     0x0008ff8b      0x29d src/ASF/sam/drivers/uart/uart.o
                              0x8216f (size before relaxing)
 .debug_str     0x00090228      0xa8f src/ASF/sam/drivers/usart/usart.o
                              0x82a07 (size before relaxing)
 .debug_str     0x00090cb7      0x642 src/ASF/sam/utils/cmsis/same70/source/templates/gcc/startup_same70.o
                              0x8268c (size before relaxing)
 .debug_str     0x000912f9      0x137 src/ASF/sam/utils/cmsis/same70/source/templates/system_same70.o
                              0x72817 (size before relaxing)
 .debug_str     0x00091430      0x774 src/ASF/sam/utils/syscalls/gcc/syscalls.o
                               0x7466 (size before relaxing)
 .debug_str     0x00091ba4      0x4d9 src/main.o
                              0x8a5bd (size before relaxing)

.debug_frame    0x00000000     0x36f4
 .debug_frame   0x00000000       0xc0 src/ASF/common/components/wifi/winc1500/bsp/source/nm_bsp_same70.o
 .debug_frame   0x000000c0       0x70 src/ASF/common/components/wifi/winc1500/bus_wrapper/source/nm_bus_wrapper_same70.o
 .debug_frame   0x00000130       0xbc src/ASF/common/components/wifi/winc1500/common/source/nm_common.o
 .debug_frame   0x000001ec      0x180 src/ASF/common/components/wifi/winc1500/driver/source/m2m_hif.o
 .debug_frame   0x0000036c      0x614 src/ASF/common/components/wifi/winc1500/driver/source/m2m_wifi.o
 .debug_frame   0x00000980      0x308 src/ASF/common/components/wifi/winc1500/driver/source/nmasic.o
 .debug_frame   0x00000c88       0xe0 src/ASF/common/components/wifi/winc1500/driver/source/nmbus.o
 .debug_frame   0x00000d68       0xd0 src/ASF/common/components/wifi/winc1500/driver/source/nmdrv.o
 .debug_frame   0x00000e38      0x1e4 src/ASF/common/components/wifi/winc1500/driver/source/nmspi.o
 .debug_frame   0x0000101c      0x2d4 src/ASF/common/components/wifi/winc1500/socket/source/socket.o
 .debug_frame   0x000012f0      0x170 src/ASF/common/components/wifi/winc1500/spi_flash/source/spi_flash.o
 .debug_frame   0x00001460       0x88 src/ASF/common/services/clock/same70/sysclk.o
 .debug_frame   0x000014e8       0x20 src/ASF/common/services/delay/sam/cycle_counter.o
 .debug_frame   0x00001508       0x30 src/ASF/common/utils/interrupt/interrupt_sam_nvic.o
 .debug_frame   0x00001538       0x30 src/ASF/common/utils/stdio/read.o
 .debug_frame   0x00001568       0x48 src/ASF/common/utils/stdio/write.o
 .debug_frame   0x000015b0       0x30 src/ASF/sam/boards/same70_xplained/init.o
 .debug_frame   0x000015e0      0x390 src/ASF/sam/drivers/pio/pio.o
 .debug_frame   0x00001970      0x110 src/ASF/sam/drivers/pio/pio_handler.o
 .debug_frame   0x00001a80      0x494 src/ASF/sam/drivers/pmc/pmc.o
 .debug_frame   0x00001f14      0x140 src/ASF/sam/drivers/spi/spi.o
 .debug_frame   0x00002054      0x19c src/ASF/sam/drivers/uart/uart.o
 .debug_frame   0x000021f0      0x5c0 src/ASF/sam/drivers/usart/usart.o
 .debug_frame   0x000027b0       0x38 src/ASF/sam/utils/cmsis/same70/source/templates/gcc/startup_same70.o
 .debug_frame   0x000027e8       0x40 src/ASF/sam/utils/cmsis/same70/source/templates/system_same70.o
 .debug_frame   0x00002828       0xa0 src/ASF/sam/utils/syscalls/gcc/syscalls.o
 .debug_frame   0x000028c8       0xf8 src/main.o
 .debug_frame   0x000029c0       0x2c c:/program files (x86)/atmel/studio/7.0/toolchain/arm/arm-gnu-toolchain/bin/../lib/gcc/arm-none-eabi/6.3.1/../../../../arm-none-eabi/lib/thumb/v7e-m\libc.a(lib_a-init.o)
 .debug_frame   0x000029ec       0x74 c:/program files (x86)/atmel/studio/7.0/toolchain/arm/arm-gnu-toolchain/bin/../lib/gcc/arm-none-eabi/6.3.1/../../../../arm-none-eabi/lib/thumb/v7e-m\libc.a(lib_a-iprintf.o)
 .debug_frame   0x00002a60       0x34 c:/program files (x86)/atmel/studio/7.0/toolchain/arm/arm-gnu-toolchain/bin/../lib/gcc/arm-none-eabi/6.3.1/../../../../arm-none-eabi/lib/thumb/v7e-m\libc.a(lib_a-memset.o)
 .debug_frame   0x00002a94       0x20 c:/program files (x86)/atmel/studio/7.0/toolchain/arm/arm-gnu-toolchain/bin/../lib/gcc/arm-none-eabi/6.3.1/../../../../arm-none-eabi/lib/thumb/v7e-m\libc.a(lib_a-setbuf.o)
 .debug_frame   0x00002ab4       0x48 c:/program files (x86)/atmel/studio/7.0/toolchain/arm/arm-gnu-toolchain/bin/../lib/gcc/arm-none-eabi/6.3.1/../../../../arm-none-eabi/lib/thumb/v7e-m\libc.a(lib_a-setvbuf.o)
 .debug_frame   0x00002afc       0xd8 c:/program files (x86)/atmel/studio/7.0/toolchain/arm/arm-gnu-toolchain/bin/../lib/gcc/arm-none-eabi/6.3.1/../../../../arm-none-eabi/lib/thumb/v7e-m\libc.a(lib_a-vfiprintf.o)
 .debug_frame   0x00002bd4       0x2c c:/program files (x86)/atmel/studio/7.0/toolchain/arm/arm-gnu-toolchain/bin/../lib/gcc/arm-none-eabi/6.3.1/../../../../arm-none-eabi/lib/thumb/v7e-m\libc.a(lib_a-wsetup.o)
 .debug_frame   0x00002c00       0x5c c:/program files (x86)/atmel/studio/7.0/toolchain/arm/arm-gnu-toolchain/bin/../lib/gcc/arm-none-eabi/6.3.1/../../../../arm-none-eabi/lib/thumb/v7e-m\libc.a(lib_a-__call_atexit.o)
 .debug_frame   0x00002c5c       0x20 c:/program files (x86)/atmel/studio/7.0/toolchain/arm/arm-gnu-toolchain/bin/../lib/gcc/arm-none-eabi/6.3.1/../../../../arm-none-eabi/lib/thumb/v7e-m\libc.a(lib_a-atexit.o)
 .debug_frame   0x00002c7c       0x5c c:/program files (x86)/atmel/studio/7.0/toolchain/arm/arm-gnu-toolchain/bin/../lib/gcc/arm-none-eabi/6.3.1/../../../../arm-none-eabi/lib/thumb/v7e-m\libc.a(lib_a-fflush.o)
 .debug_frame   0x00002cd8      0x148 c:/program files (x86)/atmel/studio/7.0/toolchain/arm/arm-gnu-toolchain/bin/../lib/gcc/arm-none-eabi/6.3.1/../../../../arm-none-eabi/lib/thumb/v7e-m\libc.a(lib_a-findfp.o)
 .debug_frame   0x00002e20       0x34 c:/program files (x86)/atmel/studio/7.0/toolchain/arm/arm-gnu-toolchain/bin/../lib/gcc/arm-none-eabi/6.3.1/../../../../arm-none-eabi/lib/thumb/v7e-m\libc.a(lib_a-fini.o)
 .debug_frame   0x00002e54       0x94 c:/program files (x86)/atmel/studio/7.0/toolchain/arm/arm-gnu-toolchain/bin/../lib/gcc/arm-none-eabi/6.3.1/../../../../arm-none-eabi/lib/thumb/v7e-m\libc.a(lib_a-fputwc.o)
 .debug_frame   0x00002ee8       0x74 c:/program files (x86)/atmel/studio/7.0/toolchain/arm/arm-gnu-toolchain/bin/../lib/gcc/arm-none-eabi/6.3.1/../../../../arm-none-eabi/lib/thumb/v7e-m\libc.a(lib_a-freer.o)
 .debug_frame   0x00002f5c       0x68 c:/program files (x86)/atmel/studio/7.0/toolchain/arm/arm-gnu-toolchain/bin/../lib/gcc/arm-none-eabi/6.3.1/../../../../arm-none-eabi/lib/thumb/v7e-m\libc.a(lib_a-fvwrite.o)
 .debug_frame   0x00002fc4       0x54 c:/program files (x86)/atmel/studio/7.0/toolchain/arm/arm-gnu-toolchain/bin/../lib/gcc/arm-none-eabi/6.3.1/../../../../arm-none-eabi/lib/thumb/v7e-m\libc.a(lib_a-fwalk.o)
 .debug_frame   0x00003018       0x6c c:/program files (x86)/atmel/studio/7.0/toolchain/arm/arm-gnu-toolchain/bin/../lib/gcc/arm-none-eabi/6.3.1/../../../../arm-none-eabi/lib/thumb/v7e-m\libc.a(lib_a-locale.o)
 .debug_frame   0x00003084       0xb0 c:/program files (x86)/atmel/studio/7.0/toolchain/arm/arm-gnu-toolchain/bin/../lib/gcc/arm-none-eabi/6.3.1/../../../../arm-none-eabi/lib/thumb/v7e-m\libc.a(lib_a-lock.o)
 .debug_frame   0x00003134       0x68 c:/program files (x86)/atmel/studio/7.0/toolchain/arm/arm-gnu-toolchain/bin/../lib/gcc/arm-none-eabi/6.3.1/../../../../arm-none-eabi/lib/thumb/v7e-m\libc.a(lib_a-makebuf.o)
 .debug_frame   0x0000319c       0x30 c:/program files (x86)/atmel/studio/7.0/toolchain/arm/arm-gnu-toolchain/bin/../lib/gcc/arm-none-eabi/6.3.1/../../../../arm-none-eabi/lib/thumb/v7e-m\libc.a(lib_a-malloc.o)
 .debug_frame   0x000031cc       0x58 c:/program files (x86)/atmel/studio/7.0/toolchain/arm/arm-gnu-toolchain/bin/../lib/gcc/arm-none-eabi/6.3.1/../../../../arm-none-eabi/lib/thumb/v7e-m\libc.a(lib_a-mallocr.o)
 .debug_frame   0x00003224       0x4c c:/program files (x86)/atmel/studio/7.0/toolchain/arm/arm-gnu-toolchain/bin/../lib/gcc/arm-none-eabi/6.3.1/../../../../arm-none-eabi/lib/thumb/v7e-m\libc.a(lib_a-mbtowc_r.o)
 .debug_frame   0x00003270       0x30 c:/program files (x86)/atmel/studio/7.0/toolchain/arm/arm-gnu-toolchain/bin/../lib/gcc/arm-none-eabi/6.3.1/../../../../arm-none-eabi/lib/thumb/v7e-m\libc.a(lib_a-memmove.o)
 .debug_frame   0x000032a0       0x30 c:/program files (x86)/atmel/studio/7.0/toolchain/arm/arm-gnu-toolchain/bin/../lib/gcc/arm-none-eabi/6.3.1/../../../../arm-none-eabi/lib/thumb/v7e-m\libc.a(lib_a-mlock.o)
 .debug_frame   0x000032d0       0x68 c:/program files (x86)/atmel/studio/7.0/toolchain/arm/arm-gnu-toolchain/bin/../lib/gcc/arm-none-eabi/6.3.1/../../../../arm-none-eabi/lib/thumb/v7e-m\libc.a(lib_a-reallocr.o)
 .debug_frame   0x00003338       0x2c c:/program files (x86)/atmel/studio/7.0/toolchain/arm/arm-gnu-toolchain/bin/../lib/gcc/arm-none-eabi/6.3.1/../../../../arm-none-eabi/lib/thumb/v7e-m\libc.a(lib_a-sbrkr.o)
 .debug_frame   0x00003364       0x88 c:/program files (x86)/atmel/studio/7.0/toolchain/arm/arm-gnu-toolchain/bin/../lib/gcc/arm-none-eabi/6.3.1/../../../../arm-none-eabi/lib/thumb/v7e-m\libc.a(lib_a-stdio.o)
 .debug_frame   0x000033ec       0x40 c:/program files (x86)/atmel/studio/7.0/toolchain/arm/arm-gnu-toolchain/bin/../lib/gcc/arm-none-eabi/6.3.1/../../../../arm-none-eabi/lib/thumb/v7e-m\libc.a(lib_a-wbuf.o)
 .debug_frame   0x0000342c       0x5c c:/program files (x86)/atmel/studio/7.0/toolchain/arm/arm-gnu-toolchain/bin/../lib/gcc/arm-none-eabi/6.3.1/../../../../arm-none-eabi/lib/thumb/v7e-m\libc.a(lib_a-wcrtomb.o)
 .debug_frame   0x00003488       0x3c c:/program files (x86)/atmel/studio/7.0/toolchain/arm/arm-gnu-toolchain/bin/../lib/gcc/arm-none-eabi/6.3.1/../../../../arm-none-eabi/lib/thumb/v7e-m\libc.a(lib_a-wctomb_r.o)
 .debug_frame   0x000034c4       0x2c c:/program files (x86)/atmel/studio/7.0/toolchain/arm/arm-gnu-toolchain/bin/../lib/gcc/arm-none-eabi/6.3.1/../../../../arm-none-eabi/lib/thumb/v7e-m\libc.a(lib_a-writer.o)
 .debug_frame   0x000034f0       0x34 c:/program files (x86)/atmel/studio/7.0/toolchain/arm/arm-gnu-toolchain/bin/../lib/gcc/arm-none-eabi/6.3.1/../../../../arm-none-eabi/lib/thumb/v7e-m\libc.a(lib_a-__atexit.o)
 .debug_frame   0x00003524       0x2c c:/program files (x86)/atmel/studio/7.0/toolchain/arm/arm-gnu-toolchain/bin/../lib/gcc/arm-none-eabi/6.3.1/../../../../arm-none-eabi/lib/thumb/v7e-m\libc.a(lib_a-closer.o)
 .debug_frame   0x00003550       0x3c c:/program files (x86)/atmel/studio/7.0/toolchain/arm/arm-gnu-toolchain/bin/../lib/gcc/arm-none-eabi/6.3.1/../../../../arm-none-eabi/lib/thumb/v7e-m\libc.a(lib_a-fclose.o)
 .debug_frame   0x0000358c       0x2c c:/program files (x86)/atmel/studio/7.0/toolchain/arm/arm-gnu-toolchain/bin/../lib/gcc/arm-none-eabi/6.3.1/../../../../arm-none-eabi/lib/thumb/v7e-m\libc.a(lib_a-fstatr.o)
 .debug_frame   0x000035b8       0x2c c:/program files (x86)/atmel/studio/7.0/toolchain/arm/arm-gnu-toolchain/bin/../lib/gcc/arm-none-eabi/6.3.1/../../../../arm-none-eabi/lib/thumb/v7e-m\libc.a(lib_a-isattyr.o)
 .debug_frame   0x000035e4       0x2c c:/program files (x86)/atmel/studio/7.0/toolchain/arm/arm-gnu-toolchain/bin/../lib/gcc/arm-none-eabi/6.3.1/../../../../arm-none-eabi/lib/thumb/v7e-m\libc.a(lib_a-lseekr.o)
 .debug_frame   0x00003610       0x2c c:/program files (x86)/atmel/studio/7.0/toolchain/arm/arm-gnu-toolchain/bin/../lib/gcc/arm-none-eabi/6.3.1/../../../../arm-none-eabi/lib/thumb/v7e-m\libc.a(lib_a-readr.o)
 .debug_frame   0x0000363c       0x58 c:/program files (x86)/atmel/studio/7.0/toolchain/arm/arm-gnu-toolchain/bin/../lib/gcc/arm-none-eabi/6.3.1/../../../../arm-none-eabi/lib/thumb/v7e-m\libc.a(lib_a-reent.o)
 .debug_frame   0x00003694       0x2c c:/program files (x86)/atmel/studio/7.0/toolchain/arm/arm-gnu-toolchain/bin/../lib/gcc/arm-none-eabi/6.3.1/thumb/v7e-m\libgcc.a(_aeabi_uldivmod.o)
 .debug_frame   0x000036c0       0x34 c:/program files (x86)/atmel/studio/7.0/toolchain/arm/arm-gnu-toolchain/bin/../lib/gcc/arm-none-eabi/6.3.1/thumb/v7e-m\libgcc.a(_udivmoddi4.o)

Cross Reference Table

Symbol                                            File
ACC_Handler                                       src/ASF/sam/utils/cmsis/same70/source/templates/gcc/startup_same70.o
AES_Handler                                       src/ASF/sam/utils/cmsis/same70/source/templates/gcc/startup_same70.o
AFEC0_Handler                                     src/ASF/sam/utils/cmsis/same70/source/templates/gcc/startup_same70.o
AFEC1_Handler                                     src/ASF/sam/utils/cmsis/same70/source/templates/gcc/startup_same70.o
BusFault_Handler                                  src/ASF/sam/utils/cmsis/same70/source/templates/gcc/startup_same70.o
DACC_Handler                                      src/ASF/sam/utils/cmsis/same70/source/templates/gcc/startup_same70.o
DebugMon_Handler                                  src/ASF/sam/utils/cmsis/same70/source/templates/gcc/startup_same70.o
Dummy_Handler                                     src/ASF/sam/utils/cmsis/same70/source/templates/gcc/startup_same70.o
EFC_Handler                                       src/ASF/sam/utils/cmsis/same70/source/templates/gcc/startup_same70.o
GMAC_Handler                                      src/ASF/sam/utils/cmsis/same70/source/templates/gcc/startup_same70.o
HSMCI_Handler                                     src/ASF/sam/utils/cmsis/same70/source/templates/gcc/startup_same70.o
HardFault_Handler                                 src/ASF/sam/utils/cmsis/same70/source/templates/gcc/startup_same70.o
ICM_Handler                                       src/ASF/sam/utils/cmsis/same70/source/templates/gcc/startup_same70.o
ISI_Handler                                       src/ASF/sam/utils/cmsis/same70/source/templates/gcc/startup_same70.o
MCAN0_Handler                                     src/ASF/sam/utils/cmsis/same70/source/templates/gcc/startup_same70.o
MCAN1_Handler                                     src/ASF/sam/utils/cmsis/same70/source/templates/gcc/startup_same70.o
MemManage_Handler                                 src/ASF/sam/utils/cmsis/same70/source/templates/gcc/startup_same70.o
NMI_Handler                                       src/ASF/sam/utils/cmsis/same70/source/templates/gcc/startup_same70.o
PIOA_Handler                                      src/ASF/sam/drivers/pio/pio_handler.o
PIOB_Handler                                      src/ASF/sam/drivers/pio/pio_handler.o
PIOC_Handler                                      src/ASF/sam/drivers/pio/pio_handler.o
PIOD_Handler                                      src/ASF/sam/drivers/pio/pio_handler.o
PIOE_Handler                                      src/ASF/sam/drivers/pio/pio_handler.o
PMC_Handler                                       src/ASF/sam/utils/cmsis/same70/source/templates/gcc/startup_same70.o
PWM0_Handler                                      src/ASF/sam/utils/cmsis/same70/source/templates/gcc/startup_same70.o
PWM1_Handler                                      src/ASF/sam/utils/cmsis/same70/source/templates/gcc/startup_same70.o
PendSV_Handler                                    src/ASF/sam/utils/cmsis/same70/source/templates/gcc/startup_same70.o
QSPI_Handler                                      src/ASF/sam/utils/cmsis/same70/source/templates/gcc/startup_same70.o
RSTC_Handler                                      src/ASF/sam/utils/cmsis/same70/source/templates/gcc/startup_same70.o
RSWDT_Handler                                     src/ASF/sam/utils/cmsis/same70/source/templates/gcc/startup_same70.o
RTC_Handler                                       src/ASF/sam/utils/cmsis/same70/source/templates/gcc/startup_same70.o
RTT_Handler                                       src/ASF/sam/utils/cmsis/same70/source/templates/gcc/startup_same70.o
Reset_Handler                                     src/ASF/sam/utils/cmsis/same70/source/templates/gcc/startup_same70.o
SDRAMC_Handler                                    src/ASF/sam/utils/cmsis/same70/source/templates/gcc/startup_same70.o
SPI0_Handler                                      src/ASF/sam/utils/cmsis/same70/source/templates/gcc/startup_same70.o
SPI1_Handler                                      src/ASF/sam/utils/cmsis/same70/source/templates/gcc/startup_same70.o
SSC_Handler                                       src/ASF/sam/utils/cmsis/same70/source/templates/gcc/startup_same70.o
SUPC_Handler                                      src/ASF/sam/utils/cmsis/same70/source/templates/gcc/startup_same70.o
SVC_Handler                                       src/ASF/sam/utils/cmsis/same70/source/templates/gcc/startup_same70.o
Socket_ReadSocketData                             src/ASF/common/components/wifi/winc1500/socket/source/socket.o
SysTick_Handler                                   src/ASF/sam/utils/cmsis/same70/source/templates/gcc/startup_same70.o
SystemCoreClock                                   src/ASF/sam/utils/cmsis/same70/source/templates/system_same70.o
SystemCoreClockUpdate                             src/ASF/sam/utils/cmsis/same70/source/templates/system_same70.o
                                                  src/ASF/common/services/clock/same70/sysclk.o
SystemInit                                        src/ASF/sam/utils/cmsis/same70/source/templates/system_same70.o
TC0_Handler                                       src/ASF/sam/utils/cmsis/same70/source/templates/gcc/startup_same70.o
TC10_Handler                                      src/ASF/sam/utils/cmsis/same70/source/templates/gcc/startup_same70.o
TC11_Handler                                      src/ASF/sam/utils/cmsis/same70/source/templates/gcc/startup_same70.o
TC1_Handler                                       src/ASF/sam/utils/cmsis/same70/source/templates/gcc/startup_same70.o
TC2_Handler                                       src/ASF/sam/utils/cmsis/same70/source/templates/gcc/startup_same70.o
TC3_Handler                                       src/ASF/sam/utils/cmsis/same70/source/templates/gcc/startup_same70.o
TC4_Handler                                       src/ASF/sam/utils/cmsis/same70/source/templates/gcc/startup_same70.o
TC5_Handler                                       src/ASF/sam/utils/cmsis/same70/source/templates/gcc/startup_same70.o
TC6_Handler                                       src/ASF/sam/utils/cmsis/same70/source/templates/gcc/startup_same70.o
TC7_Handler                                       src/ASF/sam/utils/cmsis/same70/source/templates/gcc/startup_same70.o
TC8_Handler                                       src/ASF/sam/utils/cmsis/same70/source/templates/gcc/startup_same70.o
TC9_Handler                                       src/ASF/sam/utils/cmsis/same70/source/templates/gcc/startup_same70.o
TRNG_Handler                                      src/ASF/sam/utils/cmsis/same70/source/templates/gcc/startup_same70.o
TWIHS0_Handler                                    src/ASF/sam/utils/cmsis/same70/source/templates/gcc/startup_same70.o
TWIHS1_Handler                                    src/ASF/sam/utils/cmsis/same70/source/templates/gcc/startup_same70.o
TWIHS2_Handler                                    src/ASF/sam/utils/cmsis/same70/source/templates/gcc/startup_same70.o
UART0_Handler                                     src/ASF/sam/utils/cmsis/same70/source/templates/gcc/startup_same70.o
UART1_Handler                                     src/ASF/sam/utils/cmsis/same70/source/templates/gcc/startup_same70.o
UART2_Handler                                     src/ASF/sam/utils/cmsis/same70/source/templates/gcc/startup_same70.o
UART3_Handler                                     src/ASF/sam/utils/cmsis/same70/source/templates/gcc/startup_same70.o
UART4_Handler                                     src/ASF/sam/utils/cmsis/same70/source/templates/gcc/startup_same70.o
USART0_Handler                                    src/ASF/sam/utils/cmsis/same70/source/templates/gcc/startup_same70.o
USART1_Handler                                    src/ASF/sam/utils/cmsis/same70/source/templates/gcc/startup_same70.o
USART2_Handler                                    src/ASF/sam/utils/cmsis/same70/source/templates/gcc/startup_same70.o
USBHS_Handler                                     src/ASF/sam/utils/cmsis/same70/source/templates/gcc/startup_same70.o
UsageFault_Handler                                src/ASF/sam/utils/cmsis/same70/source/templates/gcc/startup_same70.o
WDT_Handler                                       src/ASF/sam/utils/cmsis/same70/source/templates/gcc/startup_same70.o
XDMAC_Handler                                     src/ASF/sam/utils/cmsis/same70/source/templates/gcc/startup_same70.o
_Jv_RegisterClasses                               c:/program files (x86)/atmel/studio/7.0/toolchain/arm/arm-gnu-toolchain/bin/../lib/gcc/arm-none-eabi/6.3.1/thumb/v7e-m/crtbegin.o
_PathLocale                                       c:/program files (x86)/atmel/studio/7.0/toolchain/arm/arm-gnu-toolchain/bin/../lib/gcc/arm-none-eabi/6.3.1/../../../../arm-none-eabi/lib/thumb/v7e-m\libc.a(lib_a-locale.o)
__aeabi_idiv0                                     c:/program files (x86)/atmel/studio/7.0/toolchain/arm/arm-gnu-toolchain/bin/../lib/gcc/arm-none-eabi/6.3.1/thumb/v7e-m\libgcc.a(_dvmd_tls.o)
__aeabi_ldiv0                                     c:/program files (x86)/atmel/studio/7.0/toolchain/arm/arm-gnu-toolchain/bin/../lib/gcc/arm-none-eabi/6.3.1/thumb/v7e-m\libgcc.a(_dvmd_tls.o)
                                                  c:/program files (x86)/atmel/studio/7.0/toolchain/arm/arm-gnu-toolchain/bin/../lib/gcc/arm-none-eabi/6.3.1/thumb/v7e-m\libgcc.a(_aeabi_uldivmod.o)
__aeabi_uldivmod                                  c:/program files (x86)/atmel/studio/7.0/toolchain/arm/arm-gnu-toolchain/bin/../lib/gcc/arm-none-eabi/6.3.1/thumb/v7e-m\libgcc.a(_aeabi_uldivmod.o)
                                                  c:/program files (x86)/atmel/studio/7.0/toolchain/arm/arm-gnu-toolchain/bin/../lib/gcc/arm-none-eabi/6.3.1/../../../../arm-none-eabi/lib/thumb/v7e-m\libc.a(lib_a-vfiprintf.o)
__ascii_mbtowc                                    c:/program files (x86)/atmel/studio/7.0/toolchain/arm/arm-gnu-toolchain/bin/../lib/gcc/arm-none-eabi/6.3.1/../../../../arm-none-eabi/lib/thumb/v7e-m\libc.a(lib_a-mbtowc_r.o)
                                                  c:/program files (x86)/atmel/studio/7.0/toolchain/arm/arm-gnu-toolchain/bin/../lib/gcc/arm-none-eabi/6.3.1/../../../../arm-none-eabi/lib/thumb/v7e-m\libc.a(lib_a-locale.o)
__ascii_wctomb                                    c:/program files (x86)/atmel/studio/7.0/toolchain/arm/arm-gnu-toolchain/bin/../lib/gcc/arm-none-eabi/6.3.1/../../../../arm-none-eabi/lib/thumb/v7e-m\libc.a(lib_a-wctomb_r.o)
                                                  c:/program files (x86)/atmel/studio/7.0/toolchain/arm/arm-gnu-toolchain/bin/../lib/gcc/arm-none-eabi/6.3.1/../../../../arm-none-eabi/lib/thumb/v7e-m\libc.a(lib_a-locale.o)
__atexit_recursive_mutex                          c:/program files (x86)/atmel/studio/7.0/toolchain/arm/arm-gnu-toolchain/bin/../lib/gcc/arm-none-eabi/6.3.1/../../../../arm-none-eabi/lib/thumb/v7e-m\libc.a(lib_a-__call_atexit.o)
                                                  c:/program files (x86)/atmel/studio/7.0/toolchain/arm/arm-gnu-toolchain/bin/../lib/gcc/arm-none-eabi/6.3.1/../../../../arm-none-eabi/lib/thumb/v7e-m\libc.a(lib_a-__atexit.o)
__bss_end__                                       c:/program files (x86)/atmel/studio/7.0/toolchain/arm/arm-gnu-toolchain/bin/../lib/gcc/arm-none-eabi/6.3.1/../../../../arm-none-eabi/lib/thumb/v7e-m/crt0.o
__bss_start__                                     c:/program files (x86)/atmel/studio/7.0/toolchain/arm/arm-gnu-toolchain/bin/../lib/gcc/arm-none-eabi/6.3.1/../../../../arm-none-eabi/lib/thumb/v7e-m/crt0.o
__call_exitprocs                                  c:/program files (x86)/atmel/studio/7.0/toolchain/arm/arm-gnu-toolchain/bin/../lib/gcc/arm-none-eabi/6.3.1/../../../../arm-none-eabi/lib/thumb/v7e-m\libc.a(lib_a-__call_atexit.o)
                                                  c:/program files (x86)/atmel/studio/7.0/toolchain/arm/arm-gnu-toolchain/bin/../lib/gcc/arm-none-eabi/6.3.1/../../../../arm-none-eabi/lib/thumb/v7e-m\libc.a(lib_a-exit.o)
__deregister_frame_info                           c:/program files (x86)/atmel/studio/7.0/toolchain/arm/arm-gnu-toolchain/bin/../lib/gcc/arm-none-eabi/6.3.1/thumb/v7e-m/crtbegin.o
__dso_handle                                      c:/program files (x86)/atmel/studio/7.0/toolchain/arm/arm-gnu-toolchain/bin/../lib/gcc/arm-none-eabi/6.3.1/thumb/v7e-m/crtbegin.o
__fini_array_end                                  c:/program files (x86)/atmel/studio/7.0/toolchain/arm/arm-gnu-toolchain/bin/../lib/gcc/arm-none-eabi/6.3.1/../../../../arm-none-eabi/lib/thumb/v7e-m\libc.a(lib_a-fini.o)
__fini_array_start                                c:/program files (x86)/atmel/studio/7.0/toolchain/arm/arm-gnu-toolchain/bin/../lib/gcc/arm-none-eabi/6.3.1/../../../../arm-none-eabi/lib/thumb/v7e-m\libc.a(lib_a-fini.o)
__fp_lock_all                                     c:/program files (x86)/atmel/studio/7.0/toolchain/arm/arm-gnu-toolchain/bin/../lib/gcc/arm-none-eabi/6.3.1/../../../../arm-none-eabi/lib/thumb/v7e-m\libc.a(lib_a-findfp.o)
__fp_unlock_all                                   c:/program files (x86)/atmel/studio/7.0/toolchain/arm/arm-gnu-toolchain/bin/../lib/gcc/arm-none-eabi/6.3.1/../../../../arm-none-eabi/lib/thumb/v7e-m\libc.a(lib_a-findfp.o)
__fputwc                                          c:/program files (x86)/atmel/studio/7.0/toolchain/arm/arm-gnu-toolchain/bin/../lib/gcc/arm-none-eabi/6.3.1/../../../../arm-none-eabi/lib/thumb/v7e-m\libc.a(lib_a-fputwc.o)
__global_locale                                   c:/program files (x86)/atmel/studio/7.0/toolchain/arm/arm-gnu-toolchain/bin/../lib/gcc/arm-none-eabi/6.3.1/../../../../arm-none-eabi/lib/thumb/v7e-m\libc.a(lib_a-locale.o)
                                                  c:/program files (x86)/atmel/studio/7.0/toolchain/arm/arm-gnu-toolchain/bin/../lib/gcc/arm-none-eabi/6.3.1/../../../../arm-none-eabi/lib/thumb/v7e-m\libc.a(lib_a-wctomb_r.o)
                                                  c:/program files (x86)/atmel/studio/7.0/toolchain/arm/arm-gnu-toolchain/bin/../lib/gcc/arm-none-eabi/6.3.1/../../../../arm-none-eabi/lib/thumb/v7e-m\libc.a(lib_a-wcrtomb.o)
                                                  c:/program files (x86)/atmel/studio/7.0/toolchain/arm/arm-gnu-toolchain/bin/../lib/gcc/arm-none-eabi/6.3.1/../../../../arm-none-eabi/lib/thumb/v7e-m\libc.a(lib_a-mbtowc_r.o)
__init_array_end                                  c:/program files (x86)/atmel/studio/7.0/toolchain/arm/arm-gnu-toolchain/bin/../lib/gcc/arm-none-eabi/6.3.1/../../../../arm-none-eabi/lib/thumb/v7e-m\libc.a(lib_a-init.o)
__init_array_start                                c:/program files (x86)/atmel/studio/7.0/toolchain/arm/arm-gnu-toolchain/bin/../lib/gcc/arm-none-eabi/6.3.1/../../../../arm-none-eabi/lib/thumb/v7e-m\libc.a(lib_a-init.o)
__libc_fini                                       c:/program files (x86)/atmel/studio/7.0/toolchain/arm/arm-gnu-toolchain/bin/../lib/gcc/arm-none-eabi/6.3.1/../../../../arm-none-eabi/lib/thumb/v7e-m\libc.a(lib_a-__call_atexit.o)
__libc_fini_array                                 c:/program files (x86)/atmel/studio/7.0/toolchain/arm/arm-gnu-toolchain/bin/../lib/gcc/arm-none-eabi/6.3.1/../../../../arm-none-eabi/lib/thumb/v7e-m\libc.a(lib_a-fini.o)
                                                  c:/program files (x86)/atmel/studio/7.0/toolchain/arm/arm-gnu-toolchain/bin/../lib/gcc/arm-none-eabi/6.3.1/../../../../arm-none-eabi/lib/thumb/v7e-m\libc.a(lib_a-__call_atexit.o)
                                                  c:/program files (x86)/atmel/studio/7.0/toolchain/arm/arm-gnu-toolchain/bin/../lib/gcc/arm-none-eabi/6.3.1/../../../../arm-none-eabi/lib/thumb/v7e-m/crt0.o
__libc_init_array                                 c:/program files (x86)/atmel/studio/7.0/toolchain/arm/arm-gnu-toolchain/bin/../lib/gcc/arm-none-eabi/6.3.1/../../../../arm-none-eabi/lib/thumb/v7e-m\libc.a(lib_a-init.o)
                                                  src/ASF/sam/utils/cmsis/same70/source/templates/gcc/startup_same70.o
                                                  c:/program files (x86)/atmel/studio/7.0/toolchain/arm/arm-gnu-toolchain/bin/../lib/gcc/arm-none-eabi/6.3.1/../../../../arm-none-eabi/lib/thumb/v7e-m/crt0.o
__locale_ctype_ptr                                c:/program files (x86)/atmel/studio/7.0/toolchain/arm/arm-gnu-toolchain/bin/../lib/gcc/arm-none-eabi/6.3.1/../../../../arm-none-eabi/lib/thumb/v7e-m\libc.a(lib_a-locale.o)
__locale_ctype_ptr_l                              c:/program files (x86)/atmel/studio/7.0/toolchain/arm/arm-gnu-toolchain/bin/../lib/gcc/arm-none-eabi/6.3.1/../../../../arm-none-eabi/lib/thumb/v7e-m\libc.a(lib_a-locale.o)
__locale_mb_cur_max                               c:/program files (x86)/atmel/studio/7.0/toolchain/arm/arm-gnu-toolchain/bin/../lib/gcc/arm-none-eabi/6.3.1/../../../../arm-none-eabi/lib/thumb/v7e-m\libc.a(lib_a-locale.o)
                                                  c:/program files (x86)/atmel/studio/7.0/toolchain/arm/arm-gnu-toolchain/bin/../lib/gcc/arm-none-eabi/6.3.1/../../../../arm-none-eabi/lib/thumb/v7e-m\libc.a(lib_a-fputwc.o)
__lock___arc4random_mutex                         c:/program files (x86)/atmel/studio/7.0/toolchain/arm/arm-gnu-toolchain/bin/../lib/gcc/arm-none-eabi/6.3.1/../../../../arm-none-eabi/lib/thumb/v7e-m\libc.a(lib_a-lock.o)
__lock___at_quick_exit_mutex                      c:/program files (x86)/atmel/studio/7.0/toolchain/arm/arm-gnu-toolchain/bin/../lib/gcc/arm-none-eabi/6.3.1/../../../../arm-none-eabi/lib/thumb/v7e-m\libc.a(lib_a-lock.o)
__lock___atexit_recursive_mutex                   c:/program files (x86)/atmel/studio/7.0/toolchain/arm/arm-gnu-toolchain/bin/../lib/gcc/arm-none-eabi/6.3.1/../../../../arm-none-eabi/lib/thumb/v7e-m\libc.a(lib_a-lock.o)
                                                  c:/program files (x86)/atmel/studio/7.0/toolchain/arm/arm-gnu-toolchain/bin/../lib/gcc/arm-none-eabi/6.3.1/../../../../arm-none-eabi/lib/thumb/v7e-m\libc.a(lib_a-__call_atexit.o)
__lock___dd_hash_mutex                            c:/program files (x86)/atmel/studio/7.0/toolchain/arm/arm-gnu-toolchain/bin/../lib/gcc/arm-none-eabi/6.3.1/../../../../arm-none-eabi/lib/thumb/v7e-m\libc.a(lib_a-lock.o)
__lock___env_recursive_mutex                      c:/program files (x86)/atmel/studio/7.0/toolchain/arm/arm-gnu-toolchain/bin/../lib/gcc/arm-none-eabi/6.3.1/../../../../arm-none-eabi/lib/thumb/v7e-m\libc.a(lib_a-lock.o)
__lock___malloc_recursive_mutex                   c:/program files (x86)/atmel/studio/7.0/toolchain/arm/arm-gnu-toolchain/bin/../lib/gcc/arm-none-eabi/6.3.1/../../../../arm-none-eabi/lib/thumb/v7e-m\libc.a(lib_a-lock.o)
                                                  c:/program files (x86)/atmel/studio/7.0/toolchain/arm/arm-gnu-toolchain/bin/../lib/gcc/arm-none-eabi/6.3.1/../../../../arm-none-eabi/lib/thumb/v7e-m\libc.a(lib_a-mlock.o)
__lock___sfp_recursive_mutex                      c:/program files (x86)/atmel/studio/7.0/toolchain/arm/arm-gnu-toolchain/bin/../lib/gcc/arm-none-eabi/6.3.1/../../../../arm-none-eabi/lib/thumb/v7e-m\libc.a(lib_a-lock.o)
                                                  c:/program files (x86)/atmel/studio/7.0/toolchain/arm/arm-gnu-toolchain/bin/../lib/gcc/arm-none-eabi/6.3.1/../../../../arm-none-eabi/lib/thumb/v7e-m\libc.a(lib_a-findfp.o)
__lock___sinit_recursive_mutex                    c:/program files (x86)/atmel/studio/7.0/toolchain/arm/arm-gnu-toolchain/bin/../lib/gcc/arm-none-eabi/6.3.1/../../../../arm-none-eabi/lib/thumb/v7e-m\libc.a(lib_a-lock.o)
                                                  c:/program files (x86)/atmel/studio/7.0/toolchain/arm/arm-gnu-toolchain/bin/../lib/gcc/arm-none-eabi/6.3.1/../../../../arm-none-eabi/lib/thumb/v7e-m\libc.a(lib_a-findfp.o)
__lock___tz_mutex                                 c:/program files (x86)/atmel/studio/7.0/toolchain/arm/arm-gnu-toolchain/bin/../lib/gcc/arm-none-eabi/6.3.1/../../../../arm-none-eabi/lib/thumb/v7e-m\libc.a(lib_a-lock.o)
__malloc_av_                                      c:/program files (x86)/atmel/studio/7.0/toolchain/arm/arm-gnu-toolchain/bin/../lib/gcc/arm-none-eabi/6.3.1/../../../../arm-none-eabi/lib/thumb/v7e-m\libc.a(lib_a-mallocr.o)
                                                  c:/program files (x86)/atmel/studio/7.0/toolchain/arm/arm-gnu-toolchain/bin/../lib/gcc/arm-none-eabi/6.3.1/../../../../arm-none-eabi/lib/thumb/v7e-m\libc.a(lib_a-reallocr.o)
                                                  c:/program files (x86)/atmel/studio/7.0/toolchain/arm/arm-gnu-toolchain/bin/../lib/gcc/arm-none-eabi/6.3.1/../../../../arm-none-eabi/lib/thumb/v7e-m\libc.a(lib_a-freer.o)
__malloc_current_mallinfo                         c:/program files (x86)/atmel/studio/7.0/toolchain/arm/arm-gnu-toolchain/bin/../lib/gcc/arm-none-eabi/6.3.1/../../../../arm-none-eabi/lib/thumb/v7e-m\libc.a(lib_a-mallocr.o)
                                                  c:/program files (x86)/atmel/studio/7.0/toolchain/arm/arm-gnu-toolchain/bin/../lib/gcc/arm-none-eabi/6.3.1/../../../../arm-none-eabi/lib/thumb/v7e-m\libc.a(lib_a-freer.o)
__malloc_lock                                     c:/program files (x86)/atmel/studio/7.0/toolchain/arm/arm-gnu-toolchain/bin/../lib/gcc/arm-none-eabi/6.3.1/../../../../arm-none-eabi/lib/thumb/v7e-m\libc.a(lib_a-mlock.o)
                                                  c:/program files (x86)/atmel/studio/7.0/toolchain/arm/arm-gnu-toolchain/bin/../lib/gcc/arm-none-eabi/6.3.1/../../../../arm-none-eabi/lib/thumb/v7e-m\libc.a(lib_a-reallocr.o)
                                                  c:/program files (x86)/atmel/studio/7.0/toolchain/arm/arm-gnu-toolchain/bin/../lib/gcc/arm-none-eabi/6.3.1/../../../../arm-none-eabi/lib/thumb/v7e-m\libc.a(lib_a-mallocr.o)
                                                  c:/program files (x86)/atmel/studio/7.0/toolchain/arm/arm-gnu-toolchain/bin/../lib/gcc/arm-none-eabi/6.3.1/../../../../arm-none-eabi/lib/thumb/v7e-m\libc.a(lib_a-freer.o)
__malloc_max_sbrked_mem                           c:/program files (x86)/atmel/studio/7.0/toolchain/arm/arm-gnu-toolchain/bin/../lib/gcc/arm-none-eabi/6.3.1/../../../../arm-none-eabi/lib/thumb/v7e-m\libc.a(lib_a-mallocr.o)
__malloc_max_total_mem                            c:/program files (x86)/atmel/studio/7.0/toolchain/arm/arm-gnu-toolchain/bin/../lib/gcc/arm-none-eabi/6.3.1/../../../../arm-none-eabi/lib/thumb/v7e-m\libc.a(lib_a-mallocr.o)
__malloc_sbrk_base                                c:/program files (x86)/atmel/studio/7.0/toolchain/arm/arm-gnu-toolchain/bin/../lib/gcc/arm-none-eabi/6.3.1/../../../../arm-none-eabi/lib/thumb/v7e-m\libc.a(lib_a-mallocr.o)
                                                  c:/program files (x86)/atmel/studio/7.0/toolchain/arm/arm-gnu-toolchain/bin/../lib/gcc/arm-none-eabi/6.3.1/../../../../arm-none-eabi/lib/thumb/v7e-m\libc.a(lib_a-freer.o)
__malloc_top_pad                                  c:/program files (x86)/atmel/studio/7.0/toolchain/arm/arm-gnu-toolchain/bin/../lib/gcc/arm-none-eabi/6.3.1/../../../../arm-none-eabi/lib/thumb/v7e-m\libc.a(lib_a-mallocr.o)
                                                  c:/program files (x86)/atmel/studio/7.0/toolchain/arm/arm-gnu-toolchain/bin/../lib/gcc/arm-none-eabi/6.3.1/../../../../arm-none-eabi/lib/thumb/v7e-m\libc.a(lib_a-freer.o)
__malloc_trim_threshold                           c:/program files (x86)/atmel/studio/7.0/toolchain/arm/arm-gnu-toolchain/bin/../lib/gcc/arm-none-eabi/6.3.1/../../../../arm-none-eabi/lib/thumb/v7e-m\libc.a(lib_a-mallocr.o)
                                                  c:/program files (x86)/atmel/studio/7.0/toolchain/arm/arm-gnu-toolchain/bin/../lib/gcc/arm-none-eabi/6.3.1/../../../../arm-none-eabi/lib/thumb/v7e-m\libc.a(lib_a-freer.o)
__malloc_unlock                                   c:/program files (x86)/atmel/studio/7.0/toolchain/arm/arm-gnu-toolchain/bin/../lib/gcc/arm-none-eabi/6.3.1/../../../../arm-none-eabi/lib/thumb/v7e-m\libc.a(lib_a-mlock.o)
                                                  c:/program files (x86)/atmel/studio/7.0/toolchain/arm/arm-gnu-toolchain/bin/../lib/gcc/arm-none-eabi/6.3.1/../../../../arm-none-eabi/lib/thumb/v7e-m\libc.a(lib_a-reallocr.o)
                                                  c:/program files (x86)/atmel/studio/7.0/toolchain/arm/arm-gnu-toolchain/bin/../lib/gcc/arm-none-eabi/6.3.1/../../../../arm-none-eabi/lib/thumb/v7e-m\libc.a(lib_a-mallocr.o)
                                                  c:/program files (x86)/atmel/studio/7.0/toolchain/arm/arm-gnu-toolchain/bin/../lib/gcc/arm-none-eabi/6.3.1/../../../../arm-none-eabi/lib/thumb/v7e-m\libc.a(lib_a-freer.o)
__preinit_array_end                               c:/program files (x86)/atmel/studio/7.0/toolchain/arm/arm-gnu-toolchain/bin/../lib/gcc/arm-none-eabi/6.3.1/../../../../arm-none-eabi/lib/thumb/v7e-m\libc.a(lib_a-init.o)
__preinit_array_start                             c:/program files (x86)/atmel/studio/7.0/toolchain/arm/arm-gnu-toolchain/bin/../lib/gcc/arm-none-eabi/6.3.1/../../../../arm-none-eabi/lib/thumb/v7e-m\libc.a(lib_a-init.o)
__ram_end__                                       src/ASF/sam/utils/syscalls/gcc/syscalls.o
__register_exitproc                               c:/program files (x86)/atmel/studio/7.0/toolchain/arm/arm-gnu-toolchain/bin/../lib/gcc/arm-none-eabi/6.3.1/../../../../arm-none-eabi/lib/thumb/v7e-m\libc.a(lib_a-__atexit.o)
                                                  c:/program files (x86)/atmel/studio/7.0/toolchain/arm/arm-gnu-toolchain/bin/../lib/gcc/arm-none-eabi/6.3.1/../../../../arm-none-eabi/lib/thumb/v7e-m\libc.a(lib_a-atexit.o)
__register_frame_info                             c:/program files (x86)/atmel/studio/7.0/toolchain/arm/arm-gnu-toolchain/bin/../lib/gcc/arm-none-eabi/6.3.1/thumb/v7e-m/crtbegin.o
__retarget_lock_acquire                           c:/program files (x86)/atmel/studio/7.0/toolchain/arm/arm-gnu-toolchain/bin/../lib/gcc/arm-none-eabi/6.3.1/../../../../arm-none-eabi/lib/thumb/v7e-m\libc.a(lib_a-lock.o)
__retarget_lock_acquire_recursive                 c:/program files (x86)/atmel/studio/7.0/toolchain/arm/arm-gnu-toolchain/bin/../lib/gcc/arm-none-eabi/6.3.1/../../../../arm-none-eabi/lib/thumb/v7e-m\libc.a(lib_a-lock.o)
                                                  c:/program files (x86)/atmel/studio/7.0/toolchain/arm/arm-gnu-toolchain/bin/../lib/gcc/arm-none-eabi/6.3.1/../../../../arm-none-eabi/lib/thumb/v7e-m\libc.a(lib_a-fclose.o)
                                                  c:/program files (x86)/atmel/studio/7.0/toolchain/arm/arm-gnu-toolchain/bin/../lib/gcc/arm-none-eabi/6.3.1/../../../../arm-none-eabi/lib/thumb/v7e-m\libc.a(lib_a-__atexit.o)
                                                  c:/program files (x86)/atmel/studio/7.0/toolchain/arm/arm-gnu-toolchain/bin/../lib/gcc/arm-none-eabi/6.3.1/../../../../arm-none-eabi/lib/thumb/v7e-m\libc.a(lib_a-mlock.o)
                                                  c:/program files (x86)/atmel/studio/7.0/toolchain/arm/arm-gnu-toolchain/bin/../lib/gcc/arm-none-eabi/6.3.1/../../../../arm-none-eabi/lib/thumb/v7e-m\libc.a(lib_a-fputwc.o)
                                                  c:/program files (x86)/atmel/studio/7.0/toolchain/arm/arm-gnu-toolchain/bin/../lib/gcc/arm-none-eabi/6.3.1/../../../../arm-none-eabi/lib/thumb/v7e-m\libc.a(lib_a-findfp.o)
                                                  c:/program files (x86)/atmel/studio/7.0/toolchain/arm/arm-gnu-toolchain/bin/../lib/gcc/arm-none-eabi/6.3.1/../../../../arm-none-eabi/lib/thumb/v7e-m\libc.a(lib_a-fflush.o)
                                                  c:/program files (x86)/atmel/studio/7.0/toolchain/arm/arm-gnu-toolchain/bin/../lib/gcc/arm-none-eabi/6.3.1/../../../../arm-none-eabi/lib/thumb/v7e-m\libc.a(lib_a-__call_atexit.o)
                                                  c:/program files (x86)/atmel/studio/7.0/toolchain/arm/arm-gnu-toolchain/bin/../lib/gcc/arm-none-eabi/6.3.1/../../../../arm-none-eabi/lib/thumb/v7e-m\libc.a(lib_a-vfiprintf.o)
                                                  c:/program files (x86)/atmel/studio/7.0/toolchain/arm/arm-gnu-toolchain/bin/../lib/gcc/arm-none-eabi/6.3.1/../../../../arm-none-eabi/lib/thumb/v7e-m\libc.a(lib_a-setvbuf.o)
__retarget_lock_close                             c:/program files (x86)/atmel/studio/7.0/toolchain/arm/arm-gnu-toolchain/bin/../lib/gcc/arm-none-eabi/6.3.1/../../../../arm-none-eabi/lib/thumb/v7e-m\libc.a(lib_a-lock.o)
__retarget_lock_close_recursive                   c:/program files (x86)/atmel/studio/7.0/toolchain/arm/arm-gnu-toolchain/bin/../lib/gcc/arm-none-eabi/6.3.1/../../../../arm-none-eabi/lib/thumb/v7e-m\libc.a(lib_a-lock.o)
                                                  c:/program files (x86)/atmel/studio/7.0/toolchain/arm/arm-gnu-toolchain/bin/../lib/gcc/arm-none-eabi/6.3.1/../../../../arm-none-eabi/lib/thumb/v7e-m\libc.a(lib_a-fclose.o)
                                                  c:/program files (x86)/atmel/studio/7.0/toolchain/arm/arm-gnu-toolchain/bin/../lib/gcc/arm-none-eabi/6.3.1/../../../../arm-none-eabi/lib/thumb/v7e-m\libc.a(lib_a-vfiprintf.o)
__retarget_lock_init                              c:/program files (x86)/atmel/studio/7.0/toolchain/arm/arm-gnu-toolchain/bin/../lib/gcc/arm-none-eabi/6.3.1/../../../../arm-none-eabi/lib/thumb/v7e-m\libc.a(lib_a-lock.o)
__retarget_lock_init_recursive                    c:/program files (x86)/atmel/studio/7.0/toolchain/arm/arm-gnu-toolchain/bin/../lib/gcc/arm-none-eabi/6.3.1/../../../../arm-none-eabi/lib/thumb/v7e-m\libc.a(lib_a-lock.o)
                                                  c:/program files (x86)/atmel/studio/7.0/toolchain/arm/arm-gnu-toolchain/bin/../lib/gcc/arm-none-eabi/6.3.1/../../../../arm-none-eabi/lib/thumb/v7e-m\libc.a(lib_a-findfp.o)
                                                  c:/program files (x86)/atmel/studio/7.0/toolchain/arm/arm-gnu-toolchain/bin/../lib/gcc/arm-none-eabi/6.3.1/../../../../arm-none-eabi/lib/thumb/v7e-m\libc.a(lib_a-vfiprintf.o)
__retarget_lock_release                           c:/program files (x86)/atmel/studio/7.0/toolchain/arm/arm-gnu-toolchain/bin/../lib/gcc/arm-none-eabi/6.3.1/../../../../arm-none-eabi/lib/thumb/v7e-m\libc.a(lib_a-lock.o)
__retarget_lock_release_recursive                 c:/program files (x86)/atmel/studio/7.0/toolchain/arm/arm-gnu-toolchain/bin/../lib/gcc/arm-none-eabi/6.3.1/../../../../arm-none-eabi/lib/thumb/v7e-m\libc.a(lib_a-lock.o)
                                                  c:/program files (x86)/atmel/studio/7.0/toolchain/arm/arm-gnu-toolchain/bin/../lib/gcc/arm-none-eabi/6.3.1/../../../../arm-none-eabi/lib/thumb/v7e-m\libc.a(lib_a-fclose.o)
                                                  c:/program files (x86)/atmel/studio/7.0/toolchain/arm/arm-gnu-toolchain/bin/../lib/gcc/arm-none-eabi/6.3.1/../../../../arm-none-eabi/lib/thumb/v7e-m\libc.a(lib_a-__atexit.o)
                                                  c:/program files (x86)/atmel/studio/7.0/toolchain/arm/arm-gnu-toolchain/bin/../lib/gcc/arm-none-eabi/6.3.1/../../../../arm-none-eabi/lib/thumb/v7e-m\libc.a(lib_a-mlock.o)
                                                  c:/program files (x86)/atmel/studio/7.0/toolchain/arm/arm-gnu-toolchain/bin/../lib/gcc/arm-none-eabi/6.3.1/../../../../arm-none-eabi/lib/thumb/v7e-m\libc.a(lib_a-fputwc.o)
                                                  c:/program files (x86)/atmel/studio/7.0/toolchain/arm/arm-gnu-toolchain/bin/../lib/gcc/arm-none-eabi/6.3.1/../../../../arm-none-eabi/lib/thumb/v7e-m\libc.a(lib_a-findfp.o)
                                                  c:/program files (x86)/atmel/studio/7.0/toolchain/arm/arm-gnu-toolchain/bin/../lib/gcc/arm-none-eabi/6.3.1/../../../../arm-none-eabi/lib/thumb/v7e-m\libc.a(lib_a-fflush.o)
                                                  c:/program files (x86)/atmel/studio/7.0/toolchain/arm/arm-gnu-toolchain/bin/../lib/gcc/arm-none-eabi/6.3.1/../../../../arm-none-eabi/lib/thumb/v7e-m\libc.a(lib_a-__call_atexit.o)
                                                  c:/program files (x86)/atmel/studio/7.0/toolchain/arm/arm-gnu-toolchain/bin/../lib/gcc/arm-none-eabi/6.3.1/../../../../arm-none-eabi/lib/thumb/v7e-m\libc.a(lib_a-vfiprintf.o)
                                                  c:/program files (x86)/atmel/studio/7.0/toolchain/arm/arm-gnu-toolchain/bin/../lib/gcc/arm-none-eabi/6.3.1/../../../../arm-none-eabi/lib/thumb/v7e-m\libc.a(lib_a-setvbuf.o)
__retarget_lock_try_acquire                       c:/program files (x86)/atmel/studio/7.0/toolchain/arm/arm-gnu-toolchain/bin/../lib/gcc/arm-none-eabi/6.3.1/../../../../arm-none-eabi/lib/thumb/v7e-m\libc.a(lib_a-lock.o)
__retarget_lock_try_acquire_recursive             c:/program files (x86)/atmel/studio/7.0/toolchain/arm/arm-gnu-toolchain/bin/../lib/gcc/arm-none-eabi/6.3.1/../../../../arm-none-eabi/lib/thumb/v7e-m\libc.a(lib_a-lock.o)
__sclose                                          c:/program files (x86)/atmel/studio/7.0/toolchain/arm/arm-gnu-toolchain/bin/../lib/gcc/arm-none-eabi/6.3.1/../../../../arm-none-eabi/lib/thumb/v7e-m\libc.a(lib_a-stdio.o)
                                                  c:/program files (x86)/atmel/studio/7.0/toolchain/arm/arm-gnu-toolchain/bin/../lib/gcc/arm-none-eabi/6.3.1/../../../../arm-none-eabi/lib/thumb/v7e-m\libc.a(lib_a-findfp.o)
__seofread                                        c:/program files (x86)/atmel/studio/7.0/toolchain/arm/arm-gnu-toolchain/bin/../lib/gcc/arm-none-eabi/6.3.1/../../../../arm-none-eabi/lib/thumb/v7e-m\libc.a(lib_a-stdio.o)
__sflush_r                                        c:/program files (x86)/atmel/studio/7.0/toolchain/arm/arm-gnu-toolchain/bin/../lib/gcc/arm-none-eabi/6.3.1/../../../../arm-none-eabi/lib/thumb/v7e-m\libc.a(lib_a-fflush.o)
                                                  c:/program files (x86)/atmel/studio/7.0/toolchain/arm/arm-gnu-toolchain/bin/../lib/gcc/arm-none-eabi/6.3.1/../../../../arm-none-eabi/lib/thumb/v7e-m\libc.a(lib_a-fclose.o)
__sfmoreglue                                      c:/program files (x86)/atmel/studio/7.0/toolchain/arm/arm-gnu-toolchain/bin/../lib/gcc/arm-none-eabi/6.3.1/../../../../arm-none-eabi/lib/thumb/v7e-m\libc.a(lib_a-findfp.o)
__sfp                                             c:/program files (x86)/atmel/studio/7.0/toolchain/arm/arm-gnu-toolchain/bin/../lib/gcc/arm-none-eabi/6.3.1/../../../../arm-none-eabi/lib/thumb/v7e-m\libc.a(lib_a-findfp.o)
__sfp_lock_acquire                                c:/program files (x86)/atmel/studio/7.0/toolchain/arm/arm-gnu-toolchain/bin/../lib/gcc/arm-none-eabi/6.3.1/../../../../arm-none-eabi/lib/thumb/v7e-m\libc.a(lib_a-findfp.o)
                                                  c:/program files (x86)/atmel/studio/7.0/toolchain/arm/arm-gnu-toolchain/bin/../lib/gcc/arm-none-eabi/6.3.1/../../../../arm-none-eabi/lib/thumb/v7e-m\libc.a(lib_a-fclose.o)
